{
  "_format": "hh-sol-artifact-1",
  "contractName": "FundsFactory",
  "sourceName": "contracts/FundsFactory.sol",
  "abi": [
    {
      "inputs": [],
      "stateMutability": "nonpayable",
      "type": "constructor"
    },
    {
      "anonymous": false,
      "inputs": [
        {
          "indexed": false,
          "internalType": "uint256",
          "name": "amount",
          "type": "uint256"
        },
        {
          "indexed": false,
          "internalType": "uint256",
          "name": "projectId",
          "type": "uint256"
        }
      ],
      "name": "FundsAdded",
      "type": "event"
    },
    {
      "anonymous": false,
      "inputs": [
        {
          "indexed": false,
          "internalType": "uint256",
          "name": "fundRequestId",
          "type": "uint256"
        },
        {
          "indexed": false,
          "internalType": "address",
          "name": "reasearcher",
          "type": "address"
        }
      ],
      "name": "FundsRequestCreated",
      "type": "event"
    },
    {
      "anonymous": false,
      "inputs": [
        {
          "indexed": true,
          "internalType": "address",
          "name": "previousOwner",
          "type": "address"
        },
        {
          "indexed": true,
          "internalType": "address",
          "name": "newOwner",
          "type": "address"
        }
      ],
      "name": "OwnershipTransferred",
      "type": "event"
    },
    {
      "anonymous": false,
      "inputs": [
        {
          "indexed": false,
          "internalType": "uint256",
          "name": "projectId",
          "type": "uint256"
        },
        {
          "indexed": false,
          "internalType": "address",
          "name": "reasearcher",
          "type": "address"
        }
      ],
      "name": "ResearchProjectCreated",
      "type": "event"
    },
    {
      "anonymous": false,
      "inputs": [
        {
          "indexed": false,
          "internalType": "uint256",
          "name": "projectId",
          "type": "uint256"
        },
        {
          "indexed": false,
          "internalType": "address",
          "name": "reasearcher",
          "type": "address"
        }
      ],
      "name": "ResearchProjectRemoved",
      "type": "event"
    },
    {
      "anonymous": false,
      "inputs": [
        {
          "indexed": false,
          "internalType": "uint256",
          "name": "projectId",
          "type": "uint256"
        }
      ],
      "name": "ResearchProjectValidated",
      "type": "event"
    },
    {
      "anonymous": false,
      "inputs": [
        {
          "indexed": false,
          "internalType": "address",
          "name": "addr",
          "type": "address"
        },
        {
          "indexed": false,
          "internalType": "string",
          "name": "lastname",
          "type": "string"
        },
        {
          "indexed": false,
          "internalType": "string",
          "name": "forname",
          "type": "string"
        },
        {
          "indexed": false,
          "internalType": "string",
          "name": "company",
          "type": "string"
        }
      ],
      "name": "ResearcherAdded",
      "type": "event"
    },
    {
      "stateMutability": "payable",
      "type": "fallback"
    },
    {
      "inputs": [
        {
          "internalType": "uint256",
          "name": "id",
          "type": "uint256"
        },
        {
          "internalType": "string",
          "name": "tokenName",
          "type": "string"
        },
        {
          "internalType": "string",
          "name": "symbol",
          "type": "string"
        },
        {
          "internalType": "string",
          "name": "uri",
          "type": "string"
        }
      ],
      "name": "addNFT",
      "outputs": [],
      "stateMutability": "nonpayable",
      "type": "function"
    },
    {
      "inputs": [
        {
          "internalType": "string",
          "name": "title",
          "type": "string"
        },
        {
          "internalType": "string",
          "name": "description",
          "type": "string"
        },
        {
          "internalType": "uint256",
          "name": "amountAsked",
          "type": "uint256"
        },
        {
          "internalType": "string",
          "name": "projectDetailsUri",
          "type": "string"
        }
      ],
      "name": "addResearchProject",
      "outputs": [],
      "stateMutability": "nonpayable",
      "type": "function"
    },
    {
      "inputs": [
        {
          "internalType": "address",
          "name": "addr",
          "type": "address"
        },
        {
          "internalType": "string",
          "name": "lastname",
          "type": "string"
        },
        {
          "internalType": "string",
          "name": "forname",
          "type": "string"
        },
        {
          "internalType": "string",
          "name": "company",
          "type": "string"
        }
      ],
      "name": "addResearcher",
      "outputs": [],
      "stateMutability": "nonpayable",
      "type": "function"
    },
    {
      "inputs": [
        {
          "internalType": "uint256",
          "name": "id",
          "type": "uint256"
        },
        {
          "internalType": "uint256",
          "name": "amount",
          "type": "uint256"
        }
      ],
      "name": "askFundsRequest",
      "outputs": [],
      "stateMutability": "nonpayable",
      "type": "function"
    },
    {
      "inputs": [
        {
          "internalType": "uint256",
          "name": "id",
          "type": "uint256"
        }
      ],
      "name": "buyNFT_Classic",
      "outputs": [],
      "stateMutability": "payable",
      "type": "function"
    },
    {
      "inputs": [
        {
          "internalType": "uint256",
          "name": "id",
          "type": "uint256"
        }
      ],
      "name": "buyNFT_Plus",
      "outputs": [],
      "stateMutability": "payable",
      "type": "function"
    },
    {
      "inputs": [
        {
          "internalType": "uint256",
          "name": "id",
          "type": "uint256"
        }
      ],
      "name": "buyNFT_Premium",
      "outputs": [],
      "stateMutability": "payable",
      "type": "function"
    },
    {
      "inputs": [
        {
          "internalType": "uint256",
          "name": "id",
          "type": "uint256"
        }
      ],
      "name": "buyNFT_VIP",
      "outputs": [],
      "stateMutability": "payable",
      "type": "function"
    },
    {
      "inputs": [
        {
          "internalType": "address",
          "name": "addr",
          "type": "address"
        },
        {
          "internalType": "bool",
          "name": "status",
          "type": "bool"
        }
      ],
      "name": "changeResearcherStatus",
      "outputs": [],
      "stateMutability": "nonpayable",
      "type": "function"
    },
    {
      "inputs": [
        {
          "internalType": "uint256",
          "name": "id",
          "type": "uint256"
        }
      ],
      "name": "getFunds",
      "outputs": [],
      "stateMutability": "nonpayable",
      "type": "function"
    },
    {
      "inputs": [
        {
          "internalType": "uint256",
          "name": "id",
          "type": "uint256"
        }
      ],
      "name": "getNFT_Prices",
      "outputs": [
        {
          "internalType": "uint256",
          "name": "",
          "type": "uint256"
        },
        {
          "internalType": "uint256",
          "name": "",
          "type": "uint256"
        },
        {
          "internalType": "uint256",
          "name": "",
          "type": "uint256"
        },
        {
          "internalType": "uint256",
          "name": "",
          "type": "uint256"
        }
      ],
      "stateMutability": "view",
      "type": "function"
    },
    {
      "inputs": [
        {
          "internalType": "uint256",
          "name": "id",
          "type": "uint256"
        }
      ],
      "name": "getResearchProject",
      "outputs": [
        {
          "components": [
            {
              "internalType": "uint256",
              "name": "id",
              "type": "uint256"
            },
            {
              "internalType": "string",
              "name": "title",
              "type": "string"
            },
            {
              "internalType": "string",
              "name": "description",
              "type": "string"
            },
            {
              "internalType": "uint256",
              "name": "creationTime",
              "type": "uint256"
            },
            {
              "internalType": "bool",
              "name": "isAccepted",
              "type": "bool"
            },
            {
              "internalType": "address",
              "name": "researcher",
              "type": "address"
            },
            {
              "internalType": "uint256",
              "name": "amountAsked",
              "type": "uint256"
            },
            {
              "internalType": "string",
              "name": "projectDetailsUri",
              "type": "string"
            },
            {
              "internalType": "contract FundNFT",
              "name": "fundNFT",
              "type": "address"
            },
            {
              "internalType": "enum FundsFactory.ResearchProjectStatus",
              "name": "status",
              "type": "uint8"
            },
            {
              "internalType": "uint256[]",
              "name": "fundRequestListIds",
              "type": "uint256[]"
            }
          ],
          "internalType": "struct FundsFactory.ResearchProject",
          "name": "",
          "type": "tuple"
        }
      ],
      "stateMutability": "view",
      "type": "function"
    },
    {
      "inputs": [
        {
          "internalType": "address",
          "name": "addr",
          "type": "address"
        }
      ],
      "name": "getResearcher",
      "outputs": [
        {
          "components": [
            {
              "internalType": "string",
              "name": "lastname",
              "type": "string"
            },
            {
              "internalType": "string",
              "name": "forname",
              "type": "string"
            },
            {
              "internalType": "string",
              "name": "company",
              "type": "string"
            },
            {
              "internalType": "address",
              "name": "addr",
              "type": "address"
            },
            {
              "internalType": "bool",
              "name": "exist",
              "type": "bool"
            },
            {
              "internalType": "bool",
              "name": "isValidated",
              "type": "bool"
            },
            {
              "internalType": "uint256[]",
              "name": "projectListIds",
              "type": "uint256[]"
            }
          ],
          "internalType": "struct FundsFactory.Researcher",
          "name": "",
          "type": "tuple"
        }
      ],
      "stateMutability": "view",
      "type": "function"
    },
    {
      "inputs": [
        {
          "internalType": "address",
          "name": "addr",
          "type": "address"
        }
      ],
      "name": "isRegisterExist",
      "outputs": [
        {
          "internalType": "bool",
          "name": "",
          "type": "bool"
        }
      ],
      "stateMutability": "view",
      "type": "function"
    },
    {
      "inputs": [],
      "name": "owner",
      "outputs": [
        {
          "internalType": "address",
          "name": "",
          "type": "address"
        }
      ],
      "stateMutability": "view",
      "type": "function"
    },
    {
      "inputs": [
        {
          "internalType": "uint256",
          "name": "id",
          "type": "uint256"
        }
      ],
      "name": "removeResearchProject",
      "outputs": [],
      "stateMutability": "nonpayable",
      "type": "function"
    },
    {
      "inputs": [],
      "name": "renounceOwnership",
      "outputs": [],
      "stateMutability": "nonpayable",
      "type": "function"
    },
    {
      "inputs": [
        {
          "internalType": "address",
          "name": "newOwner",
          "type": "address"
        }
      ],
      "name": "transferOwnership",
      "outputs": [],
      "stateMutability": "nonpayable",
      "type": "function"
    },
    {
      "inputs": [
        {
          "internalType": "uint256",
          "name": "id",
          "type": "uint256"
        }
      ],
      "name": "validResearchProject",
      "outputs": [],
      "stateMutability": "nonpayable",
      "type": "function"
    },
    {
      "stateMutability": "payable",
      "type": "receive"
    }
  ],
  "bytecode": "0x608060405234801561001057600080fd5b5061001a3361001f565b61006f565b600080546001600160a01b038381166001600160a01b0319831681178455604051919092169283917f8be0079c531659141344cd1fd0a4f28419497f9722a3daafe3b4186f6b6457e09190a35050565b614f04806200007f6000396000f3fe608060405260043610620001235760003560e01c80638da5cb5b11620000a7578063cc986fcc1162000069578063cc986fcc146200034c578063daafe08d1462000371578063e7eba4c21462000388578063f2fde38b14620003bc578063ff417db914620003e157005b80638da5cb5b14620002aa578063b5149ec314620002d4578063b9c8809714620002eb578063ba5b0c401462000310578063c64b05d9146200033557005b8063627c2a5d11620000f1578063627c2a5d146200020c578063715018a614620002315780637ac14a701462000249578063845e1325146200026e578063864b93da146200028557005b8063345e3ee4146200012d57806335aaf9f514620001525780633e721015146200018f5780635add197314620001b457005b366200012b57005b005b3480156200013a57600080fd5b506200012b6200014c36600462001b81565b62000427565b3480156200015f57600080fd5b50620001776200017136600462001ba4565b620004bd565b60405162000186919062001c7c565b60405180910390f35b3480156200019c57600080fd5b506200012b620001ae36600462001ba4565b620007de565b348015620001c157600080fd5b50620001fb620001d336600462001da1565b6001600160a01b0316600090815260016020526040902060030154600160a01b900460ff1690565b604051901515815260200162000186565b3480156200021957600080fd5b506200012b6200022b36600462001e12565b6200081d565b3480156200023e57600080fd5b506200012b62000a75565b3480156200025657600080fd5b506200012b6200026836600462001ba4565b62000a8d565b6200012b6200027f36600462001ba4565b62000b20565b3480156200029257600080fd5b506200012b620002a436600462001f74565b62000c4a565b348015620002b757600080fd5b506000546040516001600160a01b03909116815260200162000186565b6200012b620002e536600462001ba4565b62000fa7565b348015620002f857600080fd5b506200012b6200030a36600462002010565b6200109e565b3480156200031d57600080fd5b506200012b6200032f36600462001ba4565b620012c9565b6200012b6200034636600462001ba4565b62001355565b3480156200035957600080fd5b506200012b6200036b36600462002091565b6200144c565b6200012b6200038236600462001ba4565b6200148e565b3480156200039557600080fd5b50620003ad620003a736600462001da1565b62001585565b604051620001869190620020d1565b348015620003c957600080fd5b506200012b620003db36600462001da1565b6200185e565b348015620003ee57600080fd5b50620004066200040036600462001ba4565b620018da565b60408051948552602085019390935291830152606082015260800162000186565b60045482908110620004565760405162461bcd60e51b81526004016200044d9062002189565b60405180910390fd5b336001600160a01b031660048281548110620004765762000476620021b8565b600091825260209091206009909102016004015461010090046001600160a01b031614620004b85760405162461bcd60e51b81526004016200044d90620021ce565b505050565b620004c762001a40565b6004548210620004eb5760405162461bcd60e51b81526004016200044d9062002189565b60048281548110620005015762000501620021b8565b906000526020600020906009020160405180610160016040529081600082015481526020016001820180546200053790620021fc565b80601f01602080910402602001604051908101604052809291908181526020018280546200056590620021fc565b8015620005b65780601f106200058a57610100808354040283529160200191620005b6565b820191906000526020600020905b8154815290600101906020018083116200059857829003601f168201915b50505050508152602001600282018054620005d190620021fc565b80601f0160208091040260200160405190810160405280929190818152602001828054620005ff90620021fc565b8015620006505780601f10620006245761010080835404028352916020019162000650565b820191906000526020600020905b8154815290600101906020018083116200063257829003601f168201915b505050918352505060038201546020820152600482015460ff81161515604083015261010090046001600160a01b031660608201526005820154608082015260068201805460a090920191620006a690620021fc565b80601f0160208091040260200160405190810160405280929190818152602001828054620006d490620021fc565b8015620007255780601f10620006f95761010080835404028352916020019162000725565b820191906000526020600020905b8154815290600101906020018083116200070757829003601f168201915b505050918352505060078201546001600160a01b0381166020830152604090910190600160a01b900460ff16600381111562000765576200076562001c06565b600381111562000779576200077962001c06565b815260200160088201805480602002602001604051908101604052809291908181526020018280548015620007ce57602002820191906000526020600020905b815481526020019060010190808311620007b9575b5050505050815250509050919050565b33600090815260016020526040902060030154600160a81b900460ff166200081a5760405162461bcd60e51b81526004016200044d9062002232565b50565b6001600160a01b038716600090815260016020526040902060030154600160a01b900460ff1615620008925760405162461bcd60e51b815260206004820152601860248201527f5265736561726368657220616c7265616479206578697374000000000000000060448201526064016200044d565b6200089c62001ac2565b86868080601f016020809104026020016040519081016040528093929190818152602001838380828437600092019190915250505090825250604080516020601f870181900481028201810190925285815290869086908190840183828082843760009201919091525050505060208083019190915260408051601f850183900483028101830190915283815290849084908190840183828082843760009201829052506040808701959095526001600160a01b038d1660608701819052600160808801819052908252602052939093208451859450909250829150620009849082620022b1565b50602082015160018201906200099b9082620022b1565b5060408201516002820190620009b29082620022b1565b506060820151600382018054608085015160a08601511515600160a81b0260ff60a81b19911515600160a01b026001600160a81b03199093166001600160a01b0390951694909417919091171691909117905560c0820151805162000a2291600484019160209091019062001b0c565b509050507f274da1e600baf54d201c4cf2758f1d65eb4ea397bc6e595da1df2d572d8af7ee8888888888888860405162000a639796959493929190620023a7565b60405180910390a15050505050505050565b62000a7f62001994565b62000a8b6000620019f0565b565b62000a9762001994565b60016004828154811062000aaf5762000aaf620021b8565b60009182526020909120600760099092020101805460ff60a01b1916600160a01b83600381111562000ae55762000ae562001c06565b02179055506040518181527f912883fd6daad43ad71699b8e13899bcdfdc8be63801d13a330404473865c0139060200160405180910390a150565b8060026004828154811062000b395762000b39620021b8565b906000526020600020906009020160070160149054906101000a900460ff16600381111562000b6c5762000b6c62001c06565b1462000b8c5760405162461bcd60e51b81526004016200044d9062002408565b336000908152600360205260408120805434929062000bad90849062002455565b9250508190555060006004838154811062000bcc5762000bcc620021b8565b60009182526020909120600990910201600701546040516201e8d960e81b81523360048201523460248201526001600160a01b03909116915081906301e8d900906044015b600060405180830381600087803b15801562000c2c57600080fd5b505af115801562000c41573d6000803e3d6000fd5b50505050505050565b33600090815260016020526040902060030154600160a81b900460ff1662000c865760405162461bcd60e51b81526004016200044d9062002232565b8160000362000cd85760405162461bcd60e51b815260206004820152601c60248201527f416d6f756e742061736b65642073686f756c64206e6f7420626520300000000060448201526064016200044d565b60405160200162000cf490602080825260009082015260400190565b604051602081830303815290604052805190602001208160405160200162000d1d919062002471565b604051602081830303815290604052805190602001200362000d825760405162461bcd60e51b815260206004820152601b60248201527f50726f6a6563742064657461696c206973206d616e6461746f7279000000000060448201526064016200044d565b62000d8c62001a40565b60208101858152604082018590524260608301523360a083015260c0820184905260e0820183905260048054600181018255600091909152825160099091027f8a35acfbc15ff81a39ae7d344fd709f28e8600b4aa8c65c6b64bfe7fe36bd19b8101918255915183927f8a35acfbc15ff81a39ae7d344fd709f28e8600b4aa8c65c6b64bfe7fe36bd19c019062000e249082620022b1565b506040820151600282019062000e3b9082620022b1565b5060608201516003820155608082015160048201805460a08501516001600160a01b031661010002610100600160a81b0319931515939093166001600160a81b03199091161791909117905560c0820151600582015560e0820151600682019062000ea79082620022b1565b506101008201516007820180546001600160a01b039092166001600160a01b0319831681178255610120850151926001600160a81b03191617600160a01b83600381111562000efa5762000efa62001c06565b0217905550610140820151805162000f1d91600884019160209091019062001b0c565b5050336000908152600160208190526040909120600480549101925062000f45919062002486565b8154600181810184556000938452602090932001556004547f4c81382e52262a9cb7b48b06b6f04c7d902e3518fa3ddc8ccb8b0e8791a7e3589162000f8a9162002486565b604080519182523360208301520160405180910390a15050505050565b8060026004828154811062000fc05762000fc0620021b8565b906000526020600020906009020160070160149054906101000a900460ff16600381111562000ff35762000ff362001c06565b14620010135760405162461bcd60e51b81526004016200044d9062002408565b33600090815260036020526040812080543492906200103490849062002455565b92505081905550600060048381548110620010535762001053620021b8565b6000918252602090912060099091020160070154604051630927ca6d60e41b81523360048201523460248201526001600160a01b039091169150819063927ca6d09060440162000c11565b60045484908110620010c45760405162461bcd60e51b81526004016200044d9062002189565b336001600160a01b031660048281548110620010e457620010e4620021b8565b600091825260209091206009909102016004015461010090046001600160a01b031614620011265760405162461bcd60e51b81526004016200044d90620021ce565b6001600486815481106200113e576200113e620021b8565b906000526020600020906009020160070160149054906101000a900460ff16600381111562001171576200117162001c06565b14620011b85760405162461bcd60e51b8152602060048201526015602482015274141c9bda9958dd081b9bdd081d985b1a59185d1959605a1b60448201526064016200044d565b600084848460048981548110620011d357620011d3620021b8565b906000526020600020906009020160050154604051620011f39062001b5c565b6200120294939291906200249c565b604051809103906000f0801580156200121f573d6000803e3d6000fd5b5090508060048781548110620012395762001239620021b8565b906000526020600020906009020160070160006101000a8154816001600160a01b0302191690836001600160a01b03160217905550600260048781548110620012865762001286620021b8565b60009182526020909120600760099092020101805460ff60a01b1916600160a01b836003811115620012bc57620012bc62001c06565b0217905550505050505050565b60045481908110620012ef5760405162461bcd60e51b81526004016200044d9062002189565b336001600160a01b0316600482815481106200130f576200130f620021b8565b600091825260209091206009909102016004015461010090046001600160a01b031614620013515760405162461bcd60e51b81526004016200044d90620021ce565b5050565b806002600482815481106200136e576200136e620021b8565b906000526020600020906009020160070160149054906101000a900460ff166003811115620013a157620013a162001c06565b14620013c15760405162461bcd60e51b81526004016200044d9062002408565b3360009081526003602052604081208054349290620013e290849062002455565b92505081905550600060048381548110620014015762001401620021b8565b600091825260209091206009909102016007015460405163c6eee21f60e01b81523360048201523460248201526001600160a01b039091169150819063c6eee21f9060440162000c11565b6200145662001994565b6001600160a01b0390911660009081526001602052604090206003018054911515600160a81b0260ff60a81b19909216919091179055565b80600260048281548110620014a757620014a7620021b8565b906000526020600020906009020160070160149054906101000a900460ff166003811115620014da57620014da62001c06565b14620014fa5760405162461bcd60e51b81526004016200044d9062002408565b33600090815260036020526040812080543492906200151b90849062002455565b925050819055506000600483815481106200153a576200153a620021b8565b60009182526020909120600990910201600701546040516335995f9760e11b81523360048201523460248201526001600160a01b0390911691508190636b32bf2e9060440162000c11565b6200158f62001ac2565b81336001600160a01b0382161480620015b257506000546001600160a01b031633145b620015d15760405162461bcd60e51b81526004016200044d9062002232565b6001600160a01b03831660009081526001602052604090819020815160e081019092528054829082906200160590620021fc565b80601f01602080910402602001604051908101604052809291908181526020018280546200163390620021fc565b8015620016845780601f10620016585761010080835404028352916020019162001684565b820191906000526020600020905b8154815290600101906020018083116200166657829003601f168201915b505050505081526020016001820180546200169f90620021fc565b80601f0160208091040260200160405190810160405280929190818152602001828054620016cd90620021fc565b80156200171e5780601f10620016f2576101008083540402835291602001916200171e565b820191906000526020600020905b8154815290600101906020018083116200170057829003601f168201915b505050505081526020016002820180546200173990620021fc565b80601f01602080910402602001604051908101604052809291908181526020018280546200176790620021fc565b8015620017b85780601f106200178c57610100808354040283529160200191620017b8565b820191906000526020600020905b8154815290600101906020018083116200179a57829003601f168201915b505050918352505060038201546001600160a01b03811660208084019190915260ff600160a01b830481161515604080860191909152600160a81b909304161515606084015260048401805483518184028101840190945280845260809094019390918301828280156200184c57602002820191906000526020600020905b81548152602001906001019080831162001837575b50505050508152505091505b50919050565b6200186862001994565b6001600160a01b038116620018cf5760405162461bcd60e51b815260206004820152602660248201527f4f776e61626c653a206e6577206f776e657220697320746865207a65726f206160448201526564647265737360d01b60648201526084016200044d565b6200081a81620019f0565b600080600080600060048681548110620018f857620018f8620021b8565b906000526020600020906009020160070160009054906101000a90046001600160a01b03169050806001600160a01b031663bd9a548b6040518163ffffffff1660e01b8152600401608060405180830381865afa1580156200195e573d6000803e3d6000fd5b505050506040513d601f19601f82011682018060405250810190620019849190620024ed565b9450945094509450509193509193565b6000546001600160a01b0316331462000a8b5760405162461bcd60e51b815260206004820181905260248201527f4f776e61626c653a2063616c6c6572206973206e6f7420746865206f776e657260448201526064016200044d565b600080546001600160a01b038381166001600160a01b0319831681178455604051919092169283917f8be0079c531659141344cd1fd0a4f28419497f9722a3daafe3b4186f6b6457e09190a35050565b6040518061016001604052806000815260200160608152602001606081526020016000815260200160001515815260200160006001600160a01b03168152602001600081526020016060815260200160006001600160a01b031681526020016000600381111562001ab55762001ab562001c06565b8152602001606081525090565b6040518060e0016040528060608152602001606081526020016060815260200160006001600160a01b03168152602001600015158152602001600015158152602001606081525090565b82805482825590600052602060002090810192821562001b4a579160200282015b8281111562001b4a57825182559160200191906001019062001b2d565b5062001b5892915062001b6a565b5090565b6129aa806200252583390190565b5b8082111562001b58576000815560010162001b6b565b6000806040838503121562001b9557600080fd5b50508035926020909101359150565b60006020828403121562001bb757600080fd5b5035919050565b6000815180845260005b8181101562001be65760208185018101518683018201520162001bc8565b506000602082860101526020601f19601f83011685010191505092915050565b634e487b7160e01b600052602160045260246000fd5b6004811062001c3b57634e487b7160e01b600052602160045260246000fd5b9052565b600081518084526020808501945080840160005b8381101562001c715781518752958201959082019060010162001c53565b509495945050505050565b60208152815160208201526000602083015161016080604085015262001ca761018085018362001bbe565b91506040850151601f198086850301606087015262001cc7848362001bbe565b9350606087015160808701526080870151915062001ce960a087018315159052565b60a08701516001600160a01b03811660c0880152915060c087015160e087015260e0870151915061010081878603018188015262001d28858462001bbe565b94508088015192505061012062001d49818801846001600160a01b03169052565b870151915061014062001d5f8782018462001c1c565b87015186850390910183870152905062001d7a838262001c3f565b9695505050505050565b80356001600160a01b038116811462001d9c57600080fd5b919050565b60006020828403121562001db457600080fd5b62001dbf8262001d84565b9392505050565b60008083601f84011262001dd957600080fd5b50813567ffffffffffffffff81111562001df257600080fd5b60208301915083602082850101111562001e0b57600080fd5b9250929050565b60008060008060008060006080888a03121562001e2e57600080fd5b62001e398862001d84565b9650602088013567ffffffffffffffff8082111562001e5757600080fd5b62001e658b838c0162001dc6565b909850965060408a013591508082111562001e7f57600080fd5b62001e8d8b838c0162001dc6565b909650945060608a013591508082111562001ea757600080fd5b5062001eb68a828b0162001dc6565b989b979a50959850939692959293505050565b634e487b7160e01b600052604160045260246000fd5b600082601f83011262001ef157600080fd5b813567ffffffffffffffff8082111562001f0f5762001f0f62001ec9565b604051601f8301601f19908116603f0116810190828211818310171562001f3a5762001f3a62001ec9565b8160405283815286602085880101111562001f5457600080fd5b836020870160208301376000602085830101528094505050505092915050565b6000806000806080858703121562001f8b57600080fd5b843567ffffffffffffffff8082111562001fa457600080fd5b62001fb28883890162001edf565b9550602087013591508082111562001fc957600080fd5b62001fd78883890162001edf565b945060408701359350606087013591508082111562001ff557600080fd5b50620020048782880162001edf565b91505092959194509250565b600080600080608085870312156200202757600080fd5b84359350602085013567ffffffffffffffff808211156200204757600080fd5b620020558883890162001edf565b945060408701359150808211156200206c57600080fd5b6200207a8883890162001edf565b9350606087013591508082111562001ff557600080fd5b60008060408385031215620020a557600080fd5b620020b08362001d84565b915060208301358015158114620020c657600080fd5b809150509250929050565b602081526000825160e06020840152620020f061010084018262001bbe565b90506020840151601f198085840301604086015262002110838362001bbe565b925060408601519150808584030160608601526200212f838362001bbe565b60608701516001600160a01b0316608087810191909152870151151560a080880191909152870151151560c08088019190915287015186820390920160e08701529250905062002180828262001c3f565b95945050505050565b602080825260159082015274141c9bda9958dd081a5908191bdb9d08195e1a5cdd605a1b604082015260600190565b634e487b7160e01b600052603260045260246000fd5b60208082526014908201527350726f6a656374206973206e6f7420796f75727360601b604082015260600190565b600181811c908216806200221157607f821691505b6020821081036200185857634e487b7160e01b600052602260045260246000fd5b6020808252601390820152722cb7ba93b932903737ba103932b3b4b9ba32b960691b604082015260600190565b601f821115620004b857600081815260208120601f850160051c81016020861015620022885750805b601f850160051c820191505b81811015620022a95782815560010162002294565b505050505050565b815167ffffffffffffffff811115620022ce57620022ce62001ec9565b620022e681620022df8454620021fc565b846200225f565b602080601f8311600181146200231e5760008415620023055750858301515b600019600386901b1c1916600185901b178555620022a9565b600085815260208120601f198616915b828110156200234f578886015182559484019460019091019084016200232e565b50858210156200236e5787850151600019600388901b60f8161c191681555b5050505050600190811b01905550565b81835281816020850137506000828201602090810191909152601f909101601f19169091010190565b6001600160a01b0388168152608060208201819052600090620023ce908301888a6200237e565b8281036040840152620023e38187896200237e565b90508281036060840152620023fa8185876200237e565b9a9950505050505050505050565b6020808252601d908201527f50726f6a656374206e6f7420726561647920666f722066756e64696e67000000604082015260600190565b634e487b7160e01b600052601160045260246000fd5b808201808211156200246b576200246b6200243f565b92915050565b60208152600062001dbf602083018462001bbe565b818103818111156200246b576200246b6200243f565b608081526000620024b1608083018762001bbe565b8281036020840152620024c5818762001bbe565b90508281036040840152620024db818662001bbe565b91505082606083015295945050505050565b600080600080608085870312156200250457600080fd5b50508251602084015160408501516060909501519196909550909250905056fe60806040523480156200001157600080fd5b50604051620029aa380380620029aa833981016040819052620000349162000321565b8383600062000044838262000449565b50600162000053828262000449565b5050600b805460ff19169055506200006b3362000202565b600d62000079838262000449565b50600e60205260287fe710864318d4a32f37d6ce54cb3fadbef648dd12d8dbdf53973564d56b7f881d55601e7fa7c5ba7114a813b50159add3a36832908dc83db71d0b9a24c2ad0f83be9582085560047f9adb202b1492743bc00c81d33cdc6423fa8c79109027eb6a845391e8fc1f048255600360005260017fe0283e559c29e31ee7f56467acc9dd307779c843a883aeeb3bf5c6128c908145556200012181600a62000515565b60008052600e6020527fe710864318d4a32f37d6ce54cb3fadbef648dd12d8dbdf53973564d56b7f881e556200015981601962000515565b6001600052600e6020527fa7c5ba7114a813b50159add3a36832908dc83db71d0b9a24c2ad0f83be958209556200019281603262000515565b6002600052600e6020527f9adb202b1492743bc00c81d33cdc6423fa8c79109027eb6a845391e8fc1f048355620001cb81606462000515565b6003600052600e6020527fe0283e559c29e31ee7f56467acc9dd307779c843a883aeeb3bf5c6128c90814655506200054192505050565b600b80546001600160a01b03838116610100818102610100600160a81b031985161790945560405193909204169182907f8be0079c531659141344cd1fd0a4f28419497f9722a3daafe3b4186f6b6457e090600090a35050565b634e487b7160e01b600052604160045260246000fd5b600082601f8301126200028457600080fd5b81516001600160401b0380821115620002a157620002a16200025c565b604051601f8301601f19908116603f01168101908282118183101715620002cc57620002cc6200025c565b81604052838152602092508683858801011115620002e957600080fd5b600091505b838210156200030d5785820183015181830184015290820190620002ee565b600093810190920192909252949350505050565b600080600080608085870312156200033857600080fd5b84516001600160401b03808211156200035057600080fd5b6200035e8883890162000272565b955060208701519150808211156200037557600080fd5b620003838883890162000272565b945060408701519150808211156200039a57600080fd5b50620003a98782880162000272565b606096909601519497939650505050565b600181811c90821680620003cf57607f821691505b602082108103620003f057634e487b7160e01b600052602260045260246000fd5b50919050565b601f8211156200044457600081815260208120601f850160051c810160208610156200041f5750805b601f850160051c820191505b8181101562000440578281556001016200042b565b5050505b505050565b81516001600160401b038111156200046557620004656200025c565b6200047d81620004768454620003ba565b84620003f6565b602080601f831160018114620004b557600084156200049c5750858301515b600019600386901b1c1916600185901b17855562000440565b600085815260208120601f198616915b82811015620004e657888601518255948401946001909101908401620004c5565b5085821015620005055787850151600019600388901b60f8161c191681555b5050505050600190811b01905550565b80820281158282048414176200053b57634e487b7160e01b600052601160045260246000fd5b92915050565b61245980620005516000396000f3fe608060405234801561001057600080fd5b506004361061018e5760003560e01c80636b32bf2e116100de578063a22cb46511610097578063c6eee21f11610071578063c6eee21f146103de578063c87b56dd146103f1578063e985e9c514610404578063f2fde38b1461044057600080fd5b8063a22cb46514610306578063b88d4fde14610319578063bd9a548b1461032c57600080fd5b80636b32bf2e146102a757806370a08231146102ba578063715018a6146102cd5780638da5cb5b146102d5578063927ca6d0146102eb57806395d89b41146102fe57600080fd5b806323b872dd1161014b57806342842e0e1161012557806342842e0e146102635780634f6ccce7146102765780635c975abb146102895780636352211e1461029457600080fd5b806323b872dd146102355780632f745c591461024857806332cb6b0c1461025b57600080fd5b806301e8d9001461019357806301ffc9a7146101a857806306fdde03146101d0578063081812fc146101e5578063095ea7b31461021057806318160ddd14610223575b600080fd5b6101a66101a1366004611de2565b610453565b005b6101bb6101b6366004611e22565b610634565b60405190151581526020015b60405180910390f35b6101d8610645565b6040516101c79190611e8f565b6101f86101f3366004611ea2565b6106d7565b6040516001600160a01b0390911681526020016101c7565b6101a661021e366004611de2565b6106fe565b6009545b6040519081526020016101c7565b6101a6610243366004611ebb565b610813565b610227610256366004611de2565b610844565b610227604b81565b6101a6610271366004611ebb565b6108da565b610227610284366004611ea2565b6108f5565b600b5460ff166101bb565b6101f86102a2366004611ea2565b610988565b6101a66102b5366004611de2565b6109e8565b6102276102c8366004611ef7565b610b12565b6101a6610b98565b600b5461010090046001600160a01b03166101f8565b6101a66102f9366004611de2565b610bac565b6101d8610cd6565b6101a6610314366004611f12565b610ce5565b6101a6610327366004611f64565b610cf4565b600e6020527fe710864318d4a32f37d6ce54cb3fadbef648dd12d8dbdf53973564d56b7f881e547fa7c5ba7114a813b50159add3a36832908dc83db71d0b9a24c2ad0f83be958209547f9adb202b1492743bc00c81d33cdc6423fa8c79109027eb6a845391e8fc1f04835460036000527fe0283e559c29e31ee7f56467acc9dd307779c843a883aeeb3bf5c6128c908146546040805194855260208501939093529183015260608201526080016101c7565b6101a66103ec366004611de2565b610d2c565b6101d86103ff366004611ea2565b610e54565b6101bb610412366004612040565b6001600160a01b03918216600090815260056020908152604080832093909416825291909152205460ff1690565b6101a661044e366004611ef7565b610e5f565b61045b610ed8565b60016000819052600e6020527fa7c5ba7114a813b50159add3a36832908dc83db71d0b9a24c2ad0f83be958208547fa7c5ba7114a813b50159add3a36832908dc83db71d0b9a24c2ad0f83be958207548391116104d35760405162461bcd60e51b81526004016104ca90612089565b60405180910390fd5b600e60008360038111156104e9576104e9612073565b60038111156104fa576104fa612073565b815260200190815260200160002060020154816103e861051a91906120cf565b10156105385760405162461bcd60e51b81526004016104ca906120e6565b6000610543600c5490565b9050610553600c80546001019055565b61055d8582610f38565b6105f181600d805461056e9061210f565b80601f016020809104026020016040519081016040528092919081815260200182805461059a9061210f565b80156105e75780601f106105bc576101008083540402835291602001916105e7565b820191906000526020600020905b8154815290600101906020018083116105ca57829003601f168201915b5050505050610f52565b600080516020612404833981519152858260015b604080516001600160a01b03909416845260208401929092529082015260600160405180910390a15050505050565b600061063f8261101d565b92915050565b6060600080546106549061210f565b80601f01602080910402602001604051908101604052809291908181526020018280546106809061210f565b80156106cd5780601f106106a2576101008083540402835291602001916106cd565b820191906000526020600020905b8154815290600101906020018083116106b057829003601f168201915b5050505050905090565b60006106e282611042565b506000908152600460205260409020546001600160a01b031690565b600061070982610988565b9050806001600160a01b0316836001600160a01b0316036107765760405162461bcd60e51b815260206004820152602160248201527f4552433732313a20617070726f76616c20746f2063757272656e74206f776e656044820152603960f91b60648201526084016104ca565b336001600160a01b038216148061079257506107928133610412565b6108045760405162461bcd60e51b815260206004820152603d60248201527f4552433732313a20617070726f76652063616c6c6572206973206e6f7420746f60448201527f6b656e206f776e6572206f7220617070726f76656420666f7220616c6c00000060648201526084016104ca565b61080e83836110a1565b505050565b61081d338261110f565b6108395760405162461bcd60e51b81526004016104ca90612149565b61080e83838361118e565b600061084f83610b12565b82106108b15760405162461bcd60e51b815260206004820152602b60248201527f455243373231456e756d657261626c653a206f776e657220696e646578206f7560448201526a74206f6620626f756e647360a81b60648201526084016104ca565b506001600160a01b03919091166000908152600760209081526040808320938352929052205490565b61080e83838360405180602001604052806000815250610cf4565b600061090060095490565b82106109635760405162461bcd60e51b815260206004820152602c60248201527f455243373231456e756d657261626c653a20676c6f62616c20696e646578206f60448201526b7574206f6620626f756e647360a01b60648201526084016104ca565b6009828154811061097657610976612196565b90600052602060002001549050919050565b6000818152600260205260408120546001600160a01b03168061063f5760405162461bcd60e51b8152602060048201526018602482015277115490cdcc8c4e881a5b9d985b1a59081d1bdad95b88125160421b60448201526064016104ca565b6109f0610ed8565b60026000819052600e6020527f9adb202b1492743bc00c81d33cdc6423fa8c79109027eb6a845391e8fc1f0482547f9adb202b1492743bc00c81d33cdc6423fa8c79109027eb6a845391e8fc1f048154839111610a5f5760405162461bcd60e51b81526004016104ca90612089565b600e6000836003811115610a7557610a75612073565b6003811115610a8657610a86612073565b815260200190815260200160002060020154816103e8610aa691906120cf565b1015610ac45760405162461bcd60e51b81526004016104ca906120e6565b6000610acf600c5490565b9050610adf600c80546001019055565b610ae98582610f38565b610afa81600d805461056e9061210f565b60008051602061240483398151915285826002610605565b60006001600160a01b038216610b7c5760405162461bcd60e51b815260206004820152602960248201527f4552433732313a2061646472657373207a65726f206973206e6f7420612076616044820152683634b21037bbb732b960b91b60648201526084016104ca565b506001600160a01b031660009081526003602052604090205490565b610ba0610ed8565b610baa60006112ff565b565b610bb4610ed8565b60036000819052600e6020527fe0283e559c29e31ee7f56467acc9dd307779c843a883aeeb3bf5c6128c908145547fe0283e559c29e31ee7f56467acc9dd307779c843a883aeeb3bf5c6128c90814454839111610c235760405162461bcd60e51b81526004016104ca90612089565b600e6000836003811115610c3957610c39612073565b6003811115610c4a57610c4a612073565b815260200190815260200160002060020154816103e8610c6a91906120cf565b1015610c885760405162461bcd60e51b81526004016104ca906120e6565b6000610c93600c5490565b9050610ca3600c80546001019055565b610cad8582610f38565b610cbe81600d805461056e9061210f565b60008051602061240483398151915285826003610605565b6060600180546106549061210f565b610cf0338383611359565b5050565b610cfe338361110f565b610d1a5760405162461bcd60e51b81526004016104ca90612149565b610d2684848484611427565b50505050565b610d34610ed8565b6000808052600e6020527fe710864318d4a32f37d6ce54cb3fadbef648dd12d8dbdf53973564d56b7f881d547fe710864318d4a32f37d6ce54cb3fadbef648dd12d8dbdf53973564d56b7f881c54839111610da15760405162461bcd60e51b81526004016104ca90612089565b600e6000836003811115610db757610db7612073565b6003811115610dc857610dc8612073565b815260200190815260200160002060020154816103e8610de891906120cf565b1015610e065760405162461bcd60e51b81526004016104ca906120e6565b6000610e11600c5490565b9050610e21600c80546001019055565b610e2b8582610f38565b610e3c81600d805461056e9061210f565b60008051602061240483398151915285826000610605565b606061063f8261145a565b610e67610ed8565b6001600160a01b038116610ecc5760405162461bcd60e51b815260206004820152602660248201527f4f776e61626c653a206e6577206f776e657220697320746865207a65726f206160448201526564647265737360d01b60648201526084016104ca565b610ed5816112ff565b50565b600b546001600160a01b03610100909104163314610baa5760405162461bcd60e51b815260206004820181905260248201527f4f776e61626c653a2063616c6c6572206973206e6f7420746865206f776e657260448201526064016104ca565b610cf0828260405180602001604052806000815250611562565b6000828152600260205260409020546001600160a01b0316610fcd5760405162461bcd60e51b815260206004820152602e60248201527f45524337323155524953746f726167653a2055524920736574206f66206e6f6e60448201526d32bc34b9ba32b73a103a37b5b2b760911b60648201526084016104ca565b6000828152600660205260409020610fe582826121fa565b506040518281527ff8e1a15aba9398e019f0b49df1a4fde98ee17ae345cb5f6b5e2c27f5033e8ce79060200160405180910390a15050565b60006001600160e01b0319821663780e9d6360e01b148061063f575061063f82611595565b6000818152600260205260409020546001600160a01b0316610ed55760405162461bcd60e51b8152602060048201526018602482015277115490cdcc8c4e881a5b9d985b1a59081d1bdad95b88125160421b60448201526064016104ca565b600081815260046020526040902080546001600160a01b0319166001600160a01b03841690811790915581906110d682610988565b6001600160a01b03167f8c5be1e5ebec7d5bd14f71427d1e84f3dd0314c0f7b2291e5b200ac8c7c3b92560405160405180910390a45050565b60008061111b83610988565b9050806001600160a01b0316846001600160a01b0316148061116257506001600160a01b0380821660009081526005602090815260408083209388168352929052205460ff165b806111865750836001600160a01b031661117b846106d7565b6001600160a01b0316145b949350505050565b826001600160a01b03166111a182610988565b6001600160a01b0316146111c75760405162461bcd60e51b81526004016104ca906122ba565b6001600160a01b0382166112295760405162461bcd60e51b8152602060048201526024808201527f4552433732313a207472616e7366657220746f20746865207a65726f206164646044820152637265737360e01b60648201526084016104ca565b61123683838360016115ba565b826001600160a01b031661124982610988565b6001600160a01b03161461126f5760405162461bcd60e51b81526004016104ca906122ba565b600081815260046020908152604080832080546001600160a01b03199081169091556001600160a01b0387811680865260038552838620805460001901905590871680865283862080546001019055868652600290945282852080549092168417909155905184937fddf252ad1be2c89b69c2b068fc378daa952ba7f163c4a11628f55a4df523b3ef91a4505050565b600b80546001600160a01b03838116610100818102610100600160a81b031985161790945560405193909204169182907f8be0079c531659141344cd1fd0a4f28419497f9722a3daafe3b4186f6b6457e090600090a35050565b816001600160a01b0316836001600160a01b0316036113ba5760405162461bcd60e51b815260206004820152601960248201527f4552433732313a20617070726f766520746f2063616c6c65720000000000000060448201526064016104ca565b6001600160a01b03838116600081815260056020908152604080832094871680845294825291829020805460ff191686151590811790915591519182527f17307eab39ab6107e8899845ad3d59bd9653f200f220920489ca2b5937696c31910160405180910390a3505050565b61143284848461118e565b61143e848484846115c6565b610d265760405162461bcd60e51b81526004016104ca906122ff565b606061146582611042565b6000828152600660205260408120805461147e9061210f565b80601f01602080910402602001604051908101604052809291908181526020018280546114aa9061210f565b80156114f75780601f106114cc576101008083540402835291602001916114f7565b820191906000526020600020905b8154815290600101906020018083116114da57829003601f168201915b50505050509050600061151560408051602081019091526000815290565b90508051600003611527575092915050565b815115611559578082604051602001611541929190612351565b60405160208183030381529060405292505050919050565b611186846116c7565b61156c838361173b565b61157960008484846115c6565b61080e5760405162461bcd60e51b81526004016104ca906122ff565b60006001600160e01b03198216632483248360e11b148061063f575061063f826118d4565b610d2684848484611924565b60006001600160a01b0384163b156116bc57604051630a85bd0160e11b81526001600160a01b0385169063150b7a029061160a903390899088908890600401612380565b6020604051808303816000875af1925050508015611645575060408051601f3d908101601f19168201909252611642918101906123bd565b60015b6116a2573d808015611673576040519150601f19603f3d011682016040523d82523d6000602084013e611678565b606091505b50805160000361169a5760405162461bcd60e51b81526004016104ca906122ff565b805181602001fd5b6001600160e01b031916630a85bd0160e11b149050611186565b506001949350505050565b60606116d282611042565b60006116e960408051602081019091526000815290565b905060008151116117095760405180602001604052806000815250611734565b8061171384611997565b604051602001611724929190612351565b6040516020818303038152906040525b9392505050565b6001600160a01b0382166117915760405162461bcd60e51b815260206004820181905260248201527f4552433732313a206d696e7420746f20746865207a65726f206164647265737360448201526064016104ca565b6000818152600260205260409020546001600160a01b0316156117f65760405162461bcd60e51b815260206004820152601c60248201527f4552433732313a20746f6b656e20616c7265616479206d696e7465640000000060448201526064016104ca565b6118046000838360016115ba565b6000818152600260205260409020546001600160a01b0316156118695760405162461bcd60e51b815260206004820152601c60248201527f4552433732313a20746f6b656e20616c7265616479206d696e7465640000000060448201526064016104ca565b6001600160a01b038216600081815260036020908152604080832080546001019055848352600290915280822080546001600160a01b0319168417905551839291907fddf252ad1be2c89b69c2b068fc378daa952ba7f163c4a11628f55a4df523b3ef908290a45050565b60006001600160e01b031982166380ac58cd60e01b148061190557506001600160e01b03198216635b5e139f60e01b145b8061063f57506301ffc9a760e01b6001600160e01b031983161461063f565b61193084848484611a2a565b600b5460ff1615610d265760405162461bcd60e51b815260206004820152602b60248201527f4552433732315061757361626c653a20746f6b656e207472616e73666572207760448201526a1a1a5b19481c185d5cd95960aa1b60648201526084016104ca565b606060006119a483611b5e565b600101905060008167ffffffffffffffff8111156119c4576119c4611f4e565b6040519080825280601f01601f1916602001820160405280156119ee576020820181803683370190505b5090508181016020015b600019016f181899199a1a9b1b9c1cb0b131b232b360811b600a86061a8153600a85049450846119f857509392505050565b6001811115611a995760405162461bcd60e51b815260206004820152603560248201527f455243373231456e756d657261626c653a20636f6e7365637574697665207472604482015274185b9cd9995c9cc81b9bdd081cdd5c1c1bdc9d1959605a1b60648201526084016104ca565b816001600160a01b038516611af557611af081600980546000838152600a60205260408120829055600182018355919091527f6e1540171b6c0c960b71a7020d9f60077f6af931a8bbf590da0223dacf75c7af0155565b611b18565b836001600160a01b0316856001600160a01b031614611b1857611b188582611c36565b6001600160a01b038416611b3457611b2f81611cd3565b611b57565b846001600160a01b0316846001600160a01b031614611b5757611b578482611d82565b5050505050565b60008072184f03e93ff9f4daa797ed6e38ed64bf6a1f0160401b8310611b9d5772184f03e93ff9f4daa797ed6e38ed64bf6a1f0160401b830492506040015b6d04ee2d6d415b85acef81000000008310611bc9576d04ee2d6d415b85acef8100000000830492506020015b662386f26fc100008310611be757662386f26fc10000830492506010015b6305f5e1008310611bff576305f5e100830492506008015b6127108310611c1357612710830492506004015b60648310611c25576064830492506002015b600a831061063f5760010192915050565b60006001611c4384610b12565b611c4d91906123da565b600083815260086020526040902054909150808214611ca0576001600160a01b03841660009081526007602090815260408083208584528252808320548484528184208190558352600890915290208190555b5060009182526008602090815260408084208490556001600160a01b039094168352600781528383209183525290812055565b600954600090611ce5906001906123da565b6000838152600a602052604081205460098054939450909284908110611d0d57611d0d612196565b906000526020600020015490508060098381548110611d2e57611d2e612196565b6000918252602080832090910192909255828152600a90915260408082208490558582528120556009805480611d6657611d666123ed565b6001900381819060005260206000200160009055905550505050565b6000611d8d83610b12565b6001600160a01b039093166000908152600760209081526040808320868452825280832085905593825260089052919091209190915550565b80356001600160a01b0381168114611ddd57600080fd5b919050565b60008060408385031215611df557600080fd5b611dfe83611dc6565b946020939093013593505050565b6001600160e01b031981168114610ed557600080fd5b600060208284031215611e3457600080fd5b813561173481611e0c565b60005b83811015611e5a578181015183820152602001611e42565b50506000910152565b60008151808452611e7b816020860160208601611e3f565b601f01601f19169290920160200192915050565b6020815260006117346020830184611e63565b600060208284031215611eb457600080fd5b5035919050565b600080600060608486031215611ed057600080fd5b611ed984611dc6565b9250611ee760208501611dc6565b9150604084013590509250925092565b600060208284031215611f0957600080fd5b61173482611dc6565b60008060408385031215611f2557600080fd5b611f2e83611dc6565b915060208301358015158114611f4357600080fd5b809150509250929050565b634e487b7160e01b600052604160045260246000fd5b60008060008060808587031215611f7a57600080fd5b611f8385611dc6565b9350611f9160208601611dc6565b925060408501359150606085013567ffffffffffffffff80821115611fb557600080fd5b818701915087601f830112611fc957600080fd5b813581811115611fdb57611fdb611f4e565b604051601f8201601f19908116603f0116810190838211818310171561200357612003611f4e565b816040528281528a602084870101111561201c57600080fd5b82602086016020830137600060208483010152809550505050505092959194509250565b6000806040838503121561205357600080fd5b61205c83611dc6565b915061206a60208401611dc6565b90509250929050565b634e487b7160e01b600052602160045260246000fd5b60208082526016908201527513585e1a5b5d5b481cdd5c1c1b1e481c995858da195960521b604082015260600190565b634e487b7160e01b600052601160045260246000fd5b808202811582820484141761063f5761063f6120b9565b6020808252600f908201526e139bdd08195b985d59da081c185a59608a1b604082015260600190565b600181811c9082168061212357607f821691505b60208210810361214357634e487b7160e01b600052602260045260246000fd5b50919050565b6020808252602d908201527f4552433732313a2063616c6c6572206973206e6f7420746f6b656e206f776e6560408201526c1c881bdc88185c1c1c9bdd9959609a1b606082015260800190565b634e487b7160e01b600052603260045260246000fd5b601f82111561080e57600081815260208120601f850160051c810160208610156121d35750805b601f850160051c820191505b818110156121f2578281556001016121df565b505050505050565b815167ffffffffffffffff81111561221457612214611f4e565b61222881612222845461210f565b846121ac565b602080601f83116001811461225d57600084156122455750858301515b600019600386901b1c1916600185901b1785556121f2565b600085815260208120601f198616915b8281101561228c5788860151825594840194600190910190840161226d565b50858210156122aa5787850151600019600388901b60f8161c191681555b5050505050600190811b01905550565b60208082526025908201527f4552433732313a207472616e736665722066726f6d20696e636f72726563742060408201526437bbb732b960d91b606082015260800190565b60208082526032908201527f4552433732313a207472616e7366657220746f206e6f6e20455243373231526560408201527131b2b4bb32b91034b6b83632b6b2b73a32b960711b606082015260800190565b60008351612363818460208801611e3f565b835190830190612377818360208801611e3f565b01949350505050565b6001600160a01b03858116825284166020820152604081018390526080606082018190526000906123b390830184611e63565b9695505050505050565b6000602082840312156123cf57600080fd5b815161173481611e0c565b8181038181111561063f5761063f6120b9565b634e487b7160e01b600052603160045260246000fdfec410f6ec4eba9d4398c3a8e2a8b796ffce6ad710adc2748f752eeefd45fa8022a2646970667358221220c54f463aa4f73d5b47bb6a213ee44927fa9328e0d0b79a5329be8cbe55dba46664736f6c63430008110033a2646970667358221220bd6b0438fa3dfbc55d098f61efee115279de46d2143f599a7fe49d7d37cced9264736f6c63430008110033",
  "linkReferences": {},
  "deployedLinkReferences": {}
}