{
  "_format": "hh-sol-artifact-1",
  "contractName": "FundsFactory",
  "sourceName": "contracts/FundsFactory.sol",
  "abi": [
    {
      "inputs": [
        {
          "internalType": "address",
          "name": "_dao",
          "type": "address"
        },
        {
          "internalType": "address",
          "name": "_researcherRegistry",
          "type": "address"
        }
      ],
      "stateMutability": "nonpayable",
      "type": "constructor"
    },
    {
      "anonymous": false,
      "inputs": [
        {
          "indexed": false,
          "internalType": "uint256",
          "name": "requestId",
          "type": "uint256"
        },
        {
          "indexed": false,
          "internalType": "address",
          "name": "reasearcher",
          "type": "address"
        }
      ],
      "name": "FundsRequestClosed",
      "type": "event"
    },
    {
      "anonymous": false,
      "inputs": [
        {
          "indexed": false,
          "internalType": "uint256",
          "name": "requestId",
          "type": "uint256"
        },
        {
          "indexed": false,
          "internalType": "address",
          "name": "reasearcher",
          "type": "address"
        }
      ],
      "name": "FundsRequestCreated",
      "type": "event"
    },
    {
      "anonymous": false,
      "inputs": [
        {
          "indexed": true,
          "internalType": "address",
          "name": "previousOwner",
          "type": "address"
        },
        {
          "indexed": true,
          "internalType": "address",
          "name": "newOwner",
          "type": "address"
        }
      ],
      "name": "OwnershipTransferred",
      "type": "event"
    },
    {
      "anonymous": false,
      "inputs": [
        {
          "indexed": false,
          "internalType": "uint256",
          "name": "projectId",
          "type": "uint256"
        },
        {
          "indexed": false,
          "internalType": "address",
          "name": "reasearcher",
          "type": "address"
        }
      ],
      "name": "ResearchProjectCreated",
      "type": "event"
    },
    {
      "anonymous": false,
      "inputs": [
        {
          "indexed": false,
          "internalType": "uint256",
          "name": "projectId",
          "type": "uint256"
        }
      ],
      "name": "ResearchProjectValidated",
      "type": "event"
    },
    {
      "anonymous": false,
      "inputs": [
        {
          "indexed": false,
          "internalType": "address",
          "name": "addr",
          "type": "address"
        },
        {
          "indexed": false,
          "internalType": "string",
          "name": "lastname",
          "type": "string"
        },
        {
          "indexed": false,
          "internalType": "string",
          "name": "forname",
          "type": "string"
        },
        {
          "indexed": false,
          "internalType": "string",
          "name": "company",
          "type": "string"
        }
      ],
      "name": "ResearcherAdded",
      "type": "event"
    },
    {
      "anonymous": false,
      "inputs": [
        {
          "indexed": false,
          "internalType": "address",
          "name": "investor",
          "type": "address"
        },
        {
          "indexed": false,
          "internalType": "uint256",
          "name": "projectId",
          "type": "uint256"
        },
        {
          "indexed": false,
          "internalType": "uint256",
          "name": "requestId",
          "type": "uint256"
        },
        {
          "indexed": false,
          "internalType": "bool",
          "name": "vote",
          "type": "bool"
        }
      ],
      "name": "VoteAdded",
      "type": "event"
    },
    {
      "stateMutability": "payable",
      "type": "fallback"
    },
    {
      "inputs": [
        {
          "internalType": "string",
          "name": "title",
          "type": "string"
        },
        {
          "internalType": "string",
          "name": "description",
          "type": "string"
        },
        {
          "internalType": "string",
          "name": "imageUrl",
          "type": "string"
        },
        {
          "internalType": "uint256",
          "name": "amountAsked",
          "type": "uint256"
        },
        {
          "internalType": "string",
          "name": "projectDetailsUri",
          "type": "string"
        }
      ],
      "name": "addResearchProject",
      "outputs": [],
      "stateMutability": "nonpayable",
      "type": "function"
    },
    {
      "inputs": [
        {
          "internalType": "uint256",
          "name": "requestId",
          "type": "uint256"
        },
        {
          "internalType": "bool",
          "name": "vote",
          "type": "bool"
        }
      ],
      "name": "addVote",
      "outputs": [],
      "stateMutability": "nonpayable",
      "type": "function"
    },
    {
      "inputs": [
        {
          "internalType": "uint256",
          "name": "projectId",
          "type": "uint256"
        },
        {
          "internalType": "uint256",
          "name": "typeNFT",
          "type": "uint256"
        }
      ],
      "name": "buyNFT",
      "outputs": [],
      "stateMutability": "payable",
      "type": "function"
    },
    {
      "inputs": [
        {
          "internalType": "uint256",
          "name": "requestId",
          "type": "uint256"
        }
      ],
      "name": "claimFunds",
      "outputs": [],
      "stateMutability": "nonpayable",
      "type": "function"
    },
    {
      "inputs": [
        {
          "internalType": "uint256",
          "name": "requestId",
          "type": "uint256"
        }
      ],
      "name": "closeFundRequest",
      "outputs": [],
      "stateMutability": "nonpayable",
      "type": "function"
    },
    {
      "inputs": [
        {
          "internalType": "uint256",
          "name": "id",
          "type": "uint256"
        },
        {
          "internalType": "uint256",
          "name": "amount",
          "type": "uint256"
        },
        {
          "internalType": "string",
          "name": "description",
          "type": "string"
        }
      ],
      "name": "createFundsRequest",
      "outputs": [],
      "stateMutability": "nonpayable",
      "type": "function"
    },
    {
      "inputs": [
        {
          "internalType": "uint256",
          "name": "fundRequestId",
          "type": "uint256"
        }
      ],
      "name": "getFundsRequestDetails",
      "outputs": [
        {
          "internalType": "uint256",
          "name": "",
          "type": "uint256"
        },
        {
          "internalType": "uint256",
          "name": "",
          "type": "uint256"
        },
        {
          "internalType": "string",
          "name": "",
          "type": "string"
        },
        {
          "internalType": "uint256",
          "name": "",
          "type": "uint256"
        },
        {
          "internalType": "bool",
          "name": "",
          "type": "bool"
        },
        {
          "internalType": "uint256",
          "name": "",
          "type": "uint256"
        }
      ],
      "stateMutability": "view",
      "type": "function"
    },
    {
      "inputs": [
        {
          "internalType": "uint256",
          "name": "id",
          "type": "uint256"
        }
      ],
      "name": "getNFT_Prices",
      "outputs": [
        {
          "internalType": "uint256",
          "name": "",
          "type": "uint256"
        },
        {
          "internalType": "uint256",
          "name": "",
          "type": "uint256"
        },
        {
          "internalType": "uint256",
          "name": "",
          "type": "uint256"
        },
        {
          "internalType": "uint256",
          "name": "",
          "type": "uint256"
        }
      ],
      "stateMutability": "view",
      "type": "function"
    },
    {
      "inputs": [
        {
          "internalType": "uint256",
          "name": "id",
          "type": "uint256"
        }
      ],
      "name": "getNumberNFTMinted",
      "outputs": [
        {
          "internalType": "uint256",
          "name": "",
          "type": "uint256"
        },
        {
          "internalType": "uint256",
          "name": "",
          "type": "uint256"
        },
        {
          "internalType": "uint256",
          "name": "",
          "type": "uint256"
        },
        {
          "internalType": "uint256",
          "name": "",
          "type": "uint256"
        },
        {
          "internalType": "bool",
          "name": "",
          "type": "bool"
        }
      ],
      "stateMutability": "view",
      "type": "function"
    },
    {
      "inputs": [
        {
          "internalType": "uint256",
          "name": "id",
          "type": "uint256"
        }
      ],
      "name": "getResearchProject",
      "outputs": [
        {
          "components": [
            {
              "internalType": "uint256",
              "name": "id",
              "type": "uint256"
            },
            {
              "internalType": "uint256",
              "name": "creationTime",
              "type": "uint256"
            },
            {
              "internalType": "uint256",
              "name": "amountAsked",
              "type": "uint256"
            },
            {
              "internalType": "uint256",
              "name": "amountReceived",
              "type": "uint256"
            },
            {
              "internalType": "uint256",
              "name": "amountAlreayRaised",
              "type": "uint256"
            },
            {
              "internalType": "string",
              "name": "title",
              "type": "string"
            },
            {
              "internalType": "string",
              "name": "description",
              "type": "string"
            },
            {
              "internalType": "string",
              "name": "imageUrl",
              "type": "string"
            },
            {
              "internalType": "string",
              "name": "projectDetailsUri",
              "type": "string"
            },
            {
              "internalType": "address",
              "name": "researcher",
              "type": "address"
            },
            {
              "internalType": "contract FundNFT",
              "name": "fundNFT",
              "type": "address"
            },
            {
              "internalType": "enum FundsFactory.ResearchProjectStatus",
              "name": "status",
              "type": "uint8"
            },
            {
              "internalType": "uint256[]",
              "name": "fundRequestListsIds",
              "type": "uint256[]"
            },
            {
              "internalType": "bool",
              "name": "isAccepted",
              "type": "bool"
            }
          ],
          "internalType": "struct FundsFactory.ResearchProject",
          "name": "",
          "type": "tuple"
        }
      ],
      "stateMutability": "view",
      "type": "function"
    },
    {
      "inputs": [
        {
          "internalType": "uint256",
          "name": "requestId",
          "type": "uint256"
        }
      ],
      "name": "getVoteResult",
      "outputs": [
        {
          "components": [
            {
              "internalType": "uint256",
              "name": "yes",
              "type": "uint256"
            },
            {
              "internalType": "uint256",
              "name": "no",
              "type": "uint256"
            },
            {
              "internalType": "uint256",
              "name": "yesWeight",
              "type": "uint256"
            },
            {
              "internalType": "uint256",
              "name": "noWeight",
              "type": "uint256"
            },
            {
              "internalType": "uint256",
              "name": "totalVoters",
              "type": "uint256"
            },
            {
              "internalType": "uint256",
              "name": "voted",
              "type": "uint256"
            },
            {
              "internalType": "bool",
              "name": "isAccepted",
              "type": "bool"
            }
          ],
          "internalType": "struct DAO.Vote",
          "name": "",
          "type": "tuple"
        }
      ],
      "stateMutability": "view",
      "type": "function"
    },
    {
      "inputs": [
        {
          "internalType": "uint256",
          "name": "projectId",
          "type": "uint256"
        }
      ],
      "name": "openFundsRequest",
      "outputs": [],
      "stateMutability": "nonpayable",
      "type": "function"
    },
    {
      "inputs": [],
      "name": "owner",
      "outputs": [
        {
          "internalType": "address",
          "name": "",
          "type": "address"
        }
      ],
      "stateMutability": "view",
      "type": "function"
    },
    {
      "inputs": [],
      "name": "renounceOwnership",
      "outputs": [],
      "stateMutability": "nonpayable",
      "type": "function"
    },
    {
      "inputs": [
        {
          "internalType": "address",
          "name": "newOwner",
          "type": "address"
        }
      ],
      "name": "transferOwnership",
      "outputs": [],
      "stateMutability": "nonpayable",
      "type": "function"
    },
    {
      "inputs": [
        {
          "internalType": "uint256",
          "name": "id",
          "type": "uint256"
        }
      ],
      "name": "validResearchProject",
      "outputs": [],
      "stateMutability": "nonpayable",
      "type": "function"
    },
    {
      "stateMutability": "payable",
      "type": "receive"
    }
  ],
  "bytecode": "0x60806040523480156200001157600080fd5b5060405162005e5b38038062005e5b8339810160408190526200003491620000de565b6200003f3362000071565b600280546001600160a01b039384166001600160a01b0319918216179091556003805492909316911617905562000116565b600080546001600160a01b038381166001600160a01b0319831681178455604051919092169283917f8be0079c531659141344cd1fd0a4f28419497f9722a3daafe3b4186f6b6457e09190a35050565b80516001600160a01b0381168114620000d957600080fd5b919050565b60008060408385031215620000f257600080fd5b620000fd83620000c1565b91506200010d60208401620000c1565b90509250929050565b615d3580620001266000396000f3fe608060405260043610620000ff5760003560e01c80638da5cb5b116200008f578063de946f0a116200005d578063de946f0a1462000334578063f2fde38b1462000384578063f8cd0cd814620003a9578063ff417db914620003ce57005b80638da5cb5b1462000242578063aaccd726146200026c578063bfa0fc931462000291578063c089cd79146200030f57005b8063439e8a2311620000cd578063439e8a2314620001bb578063715018a614620001e05780637ac14a7014620001f857806381f2e8d5146200021d57005b80631b55e33814620001095780631d85bf03146200012e57806325e20479146200014557806335aaf9f5146200018757005b366200010757005b005b3480156200011657600080fd5b50620001076200012836600462002457565b62000414565b620001076200013f36600462002471565b620006a7565b3480156200015257600080fd5b506200016a6200016436600462002457565b6200098b565b6040516200017e96959493929190620024e8565b60405180910390f35b3480156200019457600080fd5b50620001ac620001a636600462002457565b62000a41565b6040516200017e91906200259d565b348015620001c857600080fd5b5062000107620001da366004620027b8565b62000e07565b348015620001ed57600080fd5b506200010762001333565b3480156200020557600080fd5b50620001076200021736600462002457565b6200134b565b3480156200022a57600080fd5b50620001076200023c36600462002457565b620013dd565b3480156200024f57600080fd5b506000546040516001600160a01b0390911681526020016200017e565b3480156200027957600080fd5b50620001076200028b36600462002457565b6200156c565b3480156200029e57600080fd5b50620002b6620002b036600462002457565b62001748565b6040516200017e9190600060e082019050825182526020830151602083015260408301516040830152606083015160608301526080830151608083015260a083015160a083015260c0830151151560c083015292915050565b3480156200031c57600080fd5b50620001076200032e3660046200288b565b62001801565b3480156200034157600080fd5b50620003596200035336600462002457565b62001a28565b6040805195865260208601949094529284019190915260608301521515608082015260a0016200017e565b3480156200039157600080fd5b5062000107620003a3366004620028be565b62001ae6565b348015620003b657600080fd5b5062000107620003c8366004620028f0565b62001b65565b348015620003db57600080fd5b50620003f3620003ed36600462002457565b62001fb4565b6040805194855260208501939093529183015260608201526080016200017e565b6002546040516388fcc75d60e01b8152600481018390526000916001600160a01b0316906388fcc75d90602401600060405180830381865afa1580156200045f573d6000803e3d6000fd5b505050506040513d6000823e601f3d908101601f1916820160405262000489919081019062002956565b50505050509050336001600160a01b031660018281548110620004b057620004b062002a10565b600091825260209091206009600d9092020101546001600160a01b031614620004f65760405162461bcd60e51b8152600401620004ed9062002a26565b60405180910390fd5b60025460405163ccb75eb360e01b8152600481018490526000916001600160a01b03169063ccb75eb390602401602060405180830381865afa15801562000541573d6000803e3d6000fd5b505050506040513d601f19601f8201168201806040525081019062000567919062002a51565b905047811115620005ae5760405162461bcd60e51b815260206004820152601060248201526f4e6f7420656e6f7567682066756e647360801b6044820152606401620004ed565b60025460405163036abc6760e31b8152600481018590526001600160a01b0390911690631b55e33890602401600060405180830381600087803b158015620005f557600080fd5b505af11580156200060a573d6000803e3d6000fd5b50506040516000925033915083908381818185875af1925050503d806000811462000652576040519150601f19603f3d011682016040523d82523d6000602084013e62000657565b606091505b5050905080620006a15760405162461bcd60e51b81526020600482015260146024820152732330b4b632b2103a379039b2b7321022ba3432b960611b6044820152606401620004ed565b50505050565b6001808381548110620006be57620006be62002a10565b90600052602060002090600d0201600a0160149054906101000a900460ff166003811115620006f157620006f162002527565b14620007315760405162461bcd60e51b815260206004820152600e60248201526d10d85b9b9bdd08189d5e4813919560921b6044820152606401620004ed565b60048110620007755760405162461bcd60e51b815260206004820152600f60248201526e151e5c1948191bdb9d08195e1a5cdd608a1b6044820152606401620004ed565b6000600183815481106200078d576200078d62002a10565b90600052602060002090600d0201600a0160009054906101000a90046001600160a01b03169050806001600160a01b0316631507e96d333460018781548110620007db57620007db62002a10565b90600052602060002090600d02016005016001888154811062000802576200080262002a10565b90600052602060002090600d0201600701876040518663ffffffff1660e01b81526004016200083695949392919062002b2c565b600060405180830381600087803b1580156200085157600080fd5b505af115801562000866573d6000803e3d6000fd5b50505050346001848154811062000881576200088162002a10565b90600052602060002090600d02016003016000828254620008a3919062002b92565b909155505060405163d851fdfd60e01b8152600481018390526000906001600160a01b0383169063d851fdfd90602401602060405180830381865afa158015620008f1573d6000803e3d6000fd5b505050506040513d601f19601f8201168201806040525081019062000917919062002a51565b600254604051637b64e88960e01b815260048101879052336024820152604481018390529192506001600160a01b031690637b64e88990606401600060405180830381600087803b1580156200096c57600080fd5b505af115801562000981573d6000803e3d6000fd5b5050505050505050565b600080606060008060006004548710620009b95760405162461bcd60e51b8152600401620004ed9062002ba8565b6002546040516388fcc75d60e01b8152600481018990526001600160a01b03909116906388fcc75d90602401600060405180830381865afa15801562000a03573d6000803e3d6000fd5b505050506040513d6000823e601f3d908101601f1916820160405262000a2d919081019062002956565b949c939b5091995097509550909350915050565b62000a4b6200234d565b600154821062000a6f5760405162461bcd60e51b8152600401620004ed9062002ba8565b6001828154811062000a855762000a8562002a10565b90600052602060002090600d0201604051806101c0016040529081600082015481526020016001820154815260200160028201548152602001600382015481526020016004820154815260200160058201805462000ae39062002a6b565b80601f016020809104026020016040519081016040528092919081815260200182805462000b119062002a6b565b801562000b625780601f1062000b365761010080835404028352916020019162000b62565b820191906000526020600020905b81548152906001019060200180831162000b4457829003601f168201915b5050505050815260200160068201805462000b7d9062002a6b565b80601f016020809104026020016040519081016040528092919081815260200182805462000bab9062002a6b565b801562000bfc5780601f1062000bd05761010080835404028352916020019162000bfc565b820191906000526020600020905b81548152906001019060200180831162000bde57829003601f168201915b5050505050815260200160078201805462000c179062002a6b565b80601f016020809104026020016040519081016040528092919081815260200182805462000c459062002a6b565b801562000c965780601f1062000c6a5761010080835404028352916020019162000c96565b820191906000526020600020905b81548152906001019060200180831162000c7857829003601f168201915b5050505050815260200160088201805462000cb19062002a6b565b80601f016020809104026020016040519081016040528092919081815260200182805462000cdf9062002a6b565b801562000d305780601f1062000d045761010080835404028352916020019162000d30565b820191906000526020600020905b81548152906001019060200180831162000d1257829003601f168201915b505050918352505060098201546001600160a01b039081166020830152600a8301549081166040830152606090910190600160a01b900460ff16600381111562000d7e5762000d7e62002527565b600381111562000d925762000d9262002527565b8152602001600b820180548060200260200160405190810160405280929190818152602001828054801562000de757602002820191906000526020600020905b81548152602001906001019080831162000dd2575b5050509183525050600c919091015460ff16151560209091015292915050565b600354604051638b1b925f60e01b81523360048201526001600160a01b0390911690638b1b925f90602401602060405180830381865afa15801562000e50573d6000803e3d6000fd5b505050506040513d601f19601f8201168201806040525081019062000e76919062002bcf565b62000ebc5760405162461bcd60e51b8152602060048201526015602482015274165bdd49dc99481b9bdd081c9959da5cdd195c9959605a1b6044820152606401620004ed565b8160000362000efd5760405162461bcd60e51b815260206004820152600c60248201526b0416d6f756e74206e6f7420360a41b6044820152606401620004ed565b60405160200162000f1990602080825260009082015260400190565b604051602081830303815290604052805190602001208160405160200162000f42919062002bef565b604051602081830303815290604052805190602001200362000f9d5760405162461bcd60e51b815260206004820152601360248201527244657461696c206973206d616e6461746f727960681b6044820152606401620004ed565b62000fa76200234d565b6001805480835260a0830188815260c0840188905260e0840187905242602085019081523361012086015260408501878152610100860187905283850185556000949094528451600d9093027fb10e2d527612073b26eecdfd717e6a320cf44b4afac2b0732d9fcbe2b7fa0cf6810193845590517fb10e2d527612073b26eecdfd717e6a320cf44b4afac2b0732d9fcbe2b7fa0cf782015592517fb10e2d527612073b26eecdfd717e6a320cf44b4afac2b0732d9fcbe2b7fa0cf884015560608401517fb10e2d527612073b26eecdfd717e6a320cf44b4afac2b0732d9fcbe2b7fa0cf984015560808401517fb10e2d527612073b26eecdfd717e6a320cf44b4afac2b0732d9fcbe2b7fa0cfa8401555183927fb10e2d527612073b26eecdfd717e6a320cf44b4afac2b0732d9fcbe2b7fa0cfb0190620010e9908262002c57565b5060c0820151600682019062001100908262002c57565b5060e0820151600782019062001117908262002c57565b5061010082015160088201906200112f908262002c57565b506101208201516009820180546001600160a01b03199081166001600160a01b0393841617909155610140840151600a8401805492831691909316908117835561016085015192916001600160a81b03191617600160a01b8360038111156200119c576200119c62002527565b02179055506101808201518051620011bf91600b840191602090910190620023e2565b506101a09190910151600c909101805460ff1916911515919091179055600354600180546001600160a01b039092169163ed5a2d1d91339162001203919062002d24565b6040516001600160e01b031960e085901b1681526001600160a01b0390921660048301526024820152604401600060405180830381600087803b1580156200124a57600080fd5b505af11580156200125f573d6000803e3d6000fd5b505060018054600093506200128192506200127b919062002d24565b6200206e565b60018054919250620012e39162001299919062002d24565b82604051602001620012ac919062002d3a565b60405160208183030381529060405283604051602001620012ce919062002d6b565b60405160208183030381529060405262002108565b600180547f4c81382e52262a9cb7b48b06b6f04c7d902e3518fa3ddc8ccb8b0e8791a7e35891620013149162002d24565b604080519182523360208301520160405180910390a150505050505050565b6200133d620021c2565b6200134960006200221e565b565b62001355620021c2565b60018082815481106200136c576200136c62002a10565b60009182526020909120600a600d9092020101805460ff60a01b1916600160a01b836003811115620013a257620013a262002527565b02179055506040518181527f912883fd6daad43ad71699b8e13899bcdfdc8be63801d13a330404473865c0139060200160405180910390a150565b60015481908110620014035760405162461bcd60e51b8152600401620004ed9062002ba8565b336001600160a01b03166001828154811062001423576200142362002a10565b600091825260209091206009600d9092020101546001600160a01b031614620014605760405162461bcd60e51b8152600401620004ed9062002a26565b6001548210620014845760405162461bcd60e51b8152600401620004ed9062002ba8565b60018083815481106200149b576200149b62002a10565b90600052602060002090600d0201600a0160149054906101000a900460ff166003811115620014ce57620014ce62002527565b14620015155760405162461bcd60e51b81526020600482015260156024820152744e6f7420726561647920666f722066756e64696e6760581b6044820152606401620004ed565b6002600183815481106200152d576200152d62002a10565b60009182526020909120600a600d9092020101805460ff60a01b1916600160a01b83600381111562001563576200156362002527565b02179055505050565b6002546040516388fcc75d60e01b8152600481018390526000916001600160a01b0316906388fcc75d90602401600060405180830381865afa158015620015b7573d6000803e3d6000fd5b505050506040513d6000823e601f3d908101601f19168201604052620015e1919081019062002956565b50505050509050336001600160a01b03166001828154811062001608576200160862002a10565b600091825260209091206009600d9092020101546001600160a01b031614620016455760405162461bcd60e51b8152600401620004ed9062002a26565b6002546040516355666b9360e11b81526004810184905260009182916001600160a01b039091169063aaccd7269060240160408051808303816000875af115801562001695573d6000803e3d6000fd5b505050506040513d601f19601f82011682018060405250810190620016bb919062002d98565b90925090508015156000036200170a578160018481548110620016e257620016e262002a10565b90600052602060002090600d0201600401600082825462001704919062002d24565b90915550505b604080518581523360208201527ff760a1a147b8802f4e55b5e17a77439f740498ecf53dabe0078b74c0767f9ebe910160405180910390a150505050565b6200178b6040518060e001604052806000815260200160008152602001600081526020016000815260200160008152602001600081526020016000151581525090565b60025460405163bfa0fc9360e01b8152600481018490526001600160a01b039091169063bfa0fc939060240160e060405180830381865afa158015620017d5573d6000803e3d6000fd5b505050506040513d601f19601f82011682018060405250810190620017fb919062002dc0565b92915050565b6002546040516388fcc75d60e01b8152600481018490526000916001600160a01b0316906388fcc75d90602401600060405180830381865afa1580156200184c573d6000803e3d6000fd5b505050506040513d6000823e601f3d908101601f1916820160405262001876919081019062002956565b5050505050905060006001828154811062001895576200189562002a10565b60009182526020909120600d90910201600a01546040516370a0823160e01b81523360048201526001600160a01b03909116906370a0823190602401602060405180830381865afa158015620018ef573d6000803e3d6000fd5b505050506040513d601f19601f8201168201806040525081019062001915919062002a51565b11620019645760405162461bcd60e51b815260206004820152601b60248201527f596f75206e65656420746f20627579204e465420746f20766f746500000000006044820152606401620004ed565b600254604051630f909fd760e41b8152600481018590526024810183905283151560448201523360648201526001600160a01b039091169063f909fd7090608401600060405180830381600087803b158015620019c057600080fd5b505af1158015620019d5573d6000803e3d6000fd5b5050604080513381526020810185905290810186905284151560608201527f2991ce8dbfcf228e1b5d37c4fa6aba08135469f3b6abec2273148158ef65a3009250608001905060405180910390a1505050565b6000806000806000806001878154811062001a475762001a4762002a10565b90600052602060002090600d0201600a0160009054906101000a90046001600160a01b03169050806001600160a01b03166334757b346040518163ffffffff1660e01b815260040160a060405180830381865afa15801562001aad573d6000803e3d6000fd5b505050506040513d601f19601f8201168201806040525081019062001ad3919062002e50565b939b929a50909850965090945092505050565b62001af0620021c2565b6001600160a01b03811662001b575760405162461bcd60e51b815260206004820152602660248201527f4f776e61626c653a206e6577206f776e657220697320746865207a65726f206160448201526564647265737360d01b6064820152608401620004ed565b62001b62816200221e565b50565b6001548390811062001b8b5760405162461bcd60e51b8152600401620004ed9062002ba8565b336001600160a01b03166001828154811062001bab5762001bab62002a10565b600091825260209091206009600d9092020101546001600160a01b03161462001be85760405162461bcd60e51b8152600401620004ed9062002a26565b600154841062001c0c5760405162461bcd60e51b8152600401620004ed9062002ba8565b60026001858154811062001c245762001c2462002a10565b90600052602060002090600d0201600a0160149054906101000a900460ff16600381111562001c575762001c5762002527565b1462001c9e5760405162461bcd60e51b81526020600482015260156024820152744e6f7420726561647920666f722066756e64696e6760581b6044820152606401620004ed565b60405160200162001cba90602080825260009082015260400190565b604051602081830303815290604052805190602001208260405160200162001ce3919062002bef565b604051602081830303815290604052805190602001200362001d3e5760405162461bcd60e51b815260206004820152601360248201527244657461696c206973206d616e6461746f727960681b6044820152606401620004ed565b8260000362001d7f5760405162461bcd60e51b815260206004820152600c60248201526b0416d6f756e74206e6f7420360a41b6044820152606401620004ed565b6001848154811062001d955762001d9562002a10565b90600052602060002090600d0201600301546001858154811062001dbd5762001dbd62002a10565b90600052602060002090600d0201600401548462001ddc919062002b92565b111562001e3c5760405162461bcd60e51b815260206004820152602760248201527f416d6f756e742073686f756c64206265206c657373207468616e20616d6f756e6044820152661d08185cdad95960ca1b6064820152608401620004ed565b600454600180548690811062001e565762001e5662002a10565b60009182526020808320600b600d9093020191909101805460018101825590835291200181905560025460405163b830b96560e01b81526001600160a01b039091169063b830b9659062001eb590889085908990899060040162002ea0565b600060405180830381600087803b15801562001ed057600080fd5b505af115801562001ee5573d6000803e3d6000fd5b50505050836001868154811062001f005762001f0062002a10565b90600052602060002090600d0201600401600082825462001f22919062002b92565b90915550506004805490600062001f398362002ed1565b91905055507f435b01c746178d3d65a5cd948c89aa36dbe006e76f21252991fada0df3473da8600180878154811062001f765762001f7662002a10565b90600052602060002090600d0201600b018054905062001f97919062002d24565b604080519182523360208301520160405180910390a15050505050565b60008060008060006001868154811062001fd25762001fd262002a10565b90600052602060002090600d0201600a0160009054906101000a90046001600160a01b03169050806001600160a01b031663bd9a548b6040518163ffffffff1660e01b8152600401608060405180830381865afa15801562002038573d6000803e3d6000fd5b505050506040513d601f19601f820116820180604052508101906200205e919062002eed565b9450945094509450509193509193565b606060006200207d836200226e565b600101905060008167ffffffffffffffff811115620020a057620020a0620026e7565b6040519080825280601f01601f191660200182016040528015620020cb576020820181803683370190505b5090508181016020015b600019016f181899199a1a9b1b9c1cb0b131b232b360811b600a86061a8153600a8504945084620020d557509392505050565b600082826001868154811062002122576200212262002a10565b90600052602060002090600d020160020154604051620021429062002432565b620021509392919062002f24565b604051809103906000f0801580156200216d573d6000803e3d6000fd5b509050806001858154811062002187576200218762002a10565b90600052602060002090600d0201600a0160006101000a8154816001600160a01b0302191690836001600160a01b0316021790555050505050565b6000546001600160a01b03163314620013495760405162461bcd60e51b815260206004820181905260248201527f4f776e61626c653a2063616c6c6572206973206e6f7420746865206f776e65726044820152606401620004ed565b600080546001600160a01b038381166001600160a01b0319831681178455604051919092169283917f8be0079c531659141344cd1fd0a4f28419497f9722a3daafe3b4186f6b6457e09190a35050565b60008072184f03e93ff9f4daa797ed6e38ed64bf6a1f0160401b8310620022ae5772184f03e93ff9f4daa797ed6e38ed64bf6a1f0160401b830492506040015b6d04ee2d6d415b85acef81000000008310620022db576d04ee2d6d415b85acef8100000000830492506020015b662386f26fc100008310620022fa57662386f26fc10000830492506010015b6305f5e100831062002313576305f5e100830492506008015b61271083106200232857612710830492506004015b606483106200233b576064830492506002015b600a8310620017fb5760010192915050565b604051806101c0016040528060008152602001600081526020016000815260200160008152602001600081526020016060815260200160608152602001606081526020016060815260200160006001600160a01b0316815260200160006001600160a01b0316815260200160006003811115620023ce57620023ce62002527565b815260606020820152600060409091015290565b82805482825590600052602060002090810192821562002420579160200282015b828111156200242057825182559160200191906001019062002403565b506200242e92915062002440565b5090565b612da18062002f5f83390190565b5b808211156200242e576000815560010162002441565b6000602082840312156200246a57600080fd5b5035919050565b600080604083850312156200248557600080fd5b50508035926020909101359150565b60005b83811015620024b157818101518382015260200162002497565b50506000910152565b60008151808452620024d481602086016020860162002494565b601f01601f19169290920160200192915050565b86815285602082015260c0604082015260006200250960c0830187620024ba565b606083019590955250911515608083015260a0909101529392505050565b634e487b7160e01b600052602160045260246000fd5b600481106200255c57634e487b7160e01b600052602160045260246000fd5b9052565b600081518084526020808501945080840160005b83811015620025925781518752958201959082019060010162002574565b509495945050505050565b6020815281516020820152602082015160408201526040820151606082015260608201516080820152608082015160a0820152600060a08301516101c08060c0850152620025f06101e0850183620024ba565b915060c0850151601f19808685030160e0870152620026108483620024ba565b935060e08701519150610100818786030181880152620026318584620024ba565b945080880151925050610120818786030181880152620026528584620024ba565b94508088015192505061014062002673818801846001600160a01b03169052565b870151915061016062002690878201846001600160a01b03169052565b8701519150610180620026a6878201846200253d565b808801519250506101a0818786030181880152620026c5858462002560565b94508088015192505050620026dd8286018215159052565b5090949350505050565b634e487b7160e01b600052604160045260246000fd5b604051601f8201601f1916810167ffffffffffffffff81118282101715620027295762002729620026e7565b604052919050565b600067ffffffffffffffff8211156200274e576200274e620026e7565b50601f01601f191660200190565b600082601f8301126200276e57600080fd5b8135620027856200277f8262002731565b620026fd565b8181528460208386010111156200279b57600080fd5b816020850160208301376000918101602001919091529392505050565b600080600080600060a08688031215620027d157600080fd5b853567ffffffffffffffff80821115620027ea57600080fd5b620027f889838a016200275c565b965060208801359150808211156200280f57600080fd5b6200281d89838a016200275c565b955060408801359150808211156200283457600080fd5b6200284289838a016200275c565b94506060880135935060808801359150808211156200286057600080fd5b506200286f888289016200275c565b9150509295509295909350565b801515811462001b6257600080fd5b600080604083850312156200289f57600080fd5b823591506020830135620028b3816200287c565b809150509250929050565b600060208284031215620028d157600080fd5b81356001600160a01b0381168114620028e957600080fd5b9392505050565b6000806000606084860312156200290657600080fd5b8335925060208401359150604084013567ffffffffffffffff8111156200292c57600080fd5b6200293a868287016200275c565b9150509250925092565b805162002951816200287c565b919050565b60008060008060008060c087890312156200297057600080fd5b8651955060208701519450604087015167ffffffffffffffff8111156200299657600080fd5b8701601f81018913620029a857600080fd5b8051620029b96200277f8262002731565b8181528a6020838501011115620029cf57600080fd5b620029e282602083016020860162002494565b80965050505060608701519250620029fd6080880162002944565b915060a087015190509295509295509295565b634e487b7160e01b600052603260045260246000fd5b60208082526011908201527050726f6a656374206e6f7420796f75727360781b604082015260600190565b60006020828403121562002a6457600080fd5b5051919050565b600181811c9082168062002a8057607f821691505b60208210810362002aa157634e487b7160e01b600052602260045260246000fd5b50919050565b6000815462002ab68162002a6b565b80855260206001838116801562002ad6576001811462002af15762002b21565b60ff1985168884015283151560051b88018301955062002b21565b866000528260002060005b8581101562002b195781548a820186015290830190840162002afc565b890184019650505b505050505092915050565b60018060a01b038616815284602082015260a06040820152600062002b5560a083018662002aa7565b828103606084015262002b69818662002aa7565b9150508260808301529695505050505050565b634e487b7160e01b600052601160045260246000fd5b80820180821115620017fb57620017fb62002b7c565b6020808252600d908201526c125908191bdb9d08195e1a5cdd609a1b604082015260600190565b60006020828403121562002be257600080fd5b8151620028e9816200287c565b602081526000620028e96020830184620024ba565b601f82111562002c5257600081815260208120601f850160051c8101602086101562002c2d5750805b601f850160051c820191505b8181101562002c4e5782815560010162002c39565b5050505b505050565b815167ffffffffffffffff81111562002c745762002c74620026e7565b62002c8c8162002c85845462002a6b565b8462002c04565b602080601f83116001811462002cc4576000841562002cab5750858301515b600019600386901b1c1916600185901b17855562002c4e565b600085815260208120601f198616915b8281101562002cf55788860151825594840194600190910190840162002cd4565b508582101562002d145787850151600019600388901b60f8161c191681555b5050505050600190811b01905550565b81810381811115620017fb57620017fb62002b7c565b664445534349444560c81b81526000825162002d5e81600785016020870162002494565b9190910160070192915050565b6244534360e81b81526000825162002d8b81600385016020870162002494565b9190910160030192915050565b6000806040838503121562002dac57600080fd5b825191506020830151620028b3816200287c565b600060e0828403121562002dd357600080fd5b60405160e0810181811067ffffffffffffffff8211171562002df95762002df9620026e7565b8060405250825181526020830151602082015260408301516040820152606083015160608201526080830151608082015260a083015160a082015260c083015162002e44816200287c565b60c08201529392505050565b600080600080600060a0868803121562002e6957600080fd5b85519450602086015193506040860151925060608601519150608086015162002e92816200287c565b809150509295509295909350565b84815283602082015282604082015260806060820152600062002ec76080830184620024ba565b9695505050505050565b60006001820162002ee65762002ee662002b7c565b5060010190565b6000806000806080858703121562002f0457600080fd5b505082516020840151604085015160609095015191969095509092509050565b60608152600062002f396060830186620024ba565b828103602084015262002f4d8186620024ba565b91505082604083015294935050505056fe60806040523480156200001157600080fd5b5060405162002da138038062002da1833981016040819052620000349162000313565b8282600062000044838262000415565b50600162000053828262000415565b5050600b805460ff19169055506200006b33620001f4565b600d60205260287f81955a0a11e65eac625c29e8882660bae4e165a75d72780094acae8ece9a29ef55600a7ffd54ff1ed53f34a900b24c5ba64f85761163b5d82d98a47b9bd80e45466993c681905560047f10a81eed9d63d16face5e76357905348e6253d3394086026bb2bf2145d7cc24a55600360005260017f26b4a10d0f0b04925c23bd4480ee147c916e5e87a7d68206a533dad160ac81e35562000114908290620004e1565b60008052600d6020527f81955a0a11e65eac625c29e8882660bae4e165a75d72780094acae8ece9a29f0556200014c81601e620004e1565b6001600052600d6020527ffd54ff1ed53f34a900b24c5ba64f85761163b5d82d98a47b9bd80e45466993c75562000185816032620004e1565b6002600052600d6020527f10a81eed9d63d16face5e76357905348e6253d3394086026bb2bf2145d7cc24b55620001be816064620004e1565b6003600052600d6020527f26b4a10d0f0b04925c23bd4480ee147c916e5e87a7d68206a533dad160ac81e455506200050d915050565b600b80546001600160a01b03838116610100818102610100600160a81b031985161790945560405193909204169182907f8be0079c531659141344cd1fd0a4f28419497f9722a3daafe3b4186f6b6457e090600090a35050565b634e487b7160e01b600052604160045260246000fd5b600082601f8301126200027657600080fd5b81516001600160401b03808211156200029357620002936200024e565b604051601f8301601f19908116603f01168101908282118183101715620002be57620002be6200024e565b81604052838152602092508683858801011115620002db57600080fd5b600091505b83821015620002ff5785820183015181830184015290820190620002e0565b600093810190920192909252949350505050565b6000806000606084860312156200032957600080fd5b83516001600160401b03808211156200034157600080fd5b6200034f8783880162000264565b945060208601519150808211156200036657600080fd5b50620003758682870162000264565b925050604084015190509250925092565b600181811c908216806200039b57607f821691505b602082108103620003bc57634e487b7160e01b600052602260045260246000fd5b50919050565b601f8211156200041057600081815260208120601f850160051c81016020861015620003eb5750805b601f850160051c820191505b818110156200040c57828155600101620003f7565b5050505b505050565b81516001600160401b038111156200043157620004316200024e565b620004498162000442845462000386565b84620003c2565b602080601f831160018114620004815760008415620004685750858301515b600019600386901b1c1916600185901b1785556200040c565b600085815260208120601f198616915b82811015620004b25788860151825594840194600190910190840162000491565b5085821015620004d15787850151600019600388901b60f8161c191681555b5050505050600190811b01905550565b80820281158282048414176200050757634e487b7160e01b600052601160045260246000fd5b92915050565b612884806200051d6000396000f3fe608060405234801561001057600080fd5b50600436106101585760003560e01c80636352211e116100c3578063b88d4fde1161007c578063b88d4fde146102e7578063bd9a548b146102fa578063c87b56dd14610322578063d851fdfd14610335578063e985e9c514610348578063f2fde38b1461038457600080fd5b80636352211e1461028857806370a082311461029b578063715018a6146102ae5780638da5cb5b146102b657806395d89b41146102cc578063a22cb465146102d457600080fd5b806323b872dd1161011557806323b872dd146101ff5780632f745c591461021257806334757b341461022557806342842e0e146102575780634f6ccce71461026a5780635c975abb1461027d57600080fd5b806301ffc9a71461015d57806306fdde0314610185578063081812fc1461019a578063095ea7b3146101c55780631507e96d146101da57806318160ddd146101ed575b600080fd5b61017061016b366004611feb565b610397565b60405190151581526020015b60405180910390f35b61018d6103a8565b60405161017c9190612058565b6101ad6101a836600461206b565b61043a565b6040516001600160a01b03909116815260200161017c565b6101d86101d336600461209b565b610461565b005b6101d86101e8366004612171565b61057b565b6009545b60405190815260200161017c565b6101d861020d3660046121f7565b610893565b6101f161022036600461209b565b6108c4565b61022d61095a565b6040805195865260208601949094529284019190915260608301521515608082015260a00161017c565b6101d86102653660046121f7565b610b39565b6101f161027836600461206b565b610b54565b600b5460ff16610170565b6101ad61029636600461206b565b610be7565b6101f16102a9366004612233565b610c47565b6101d8610ccd565b600b5461010090046001600160a01b03166101ad565b61018d610ce1565b6101d86102e236600461224e565b610cf0565b6101d86102f536600461228a565b610cff565b610302610d37565b60408051948552602085019390935291830152606082015260800161017c565b61018d61033036600461206b565b610de3565b6101f161034336600461206b565b610dee565b610170610356366004612306565b6001600160a01b03918216600090815260056020908152604080832093909416825291909152205460ff1690565b6101d8610392366004612233565b610e77565b60006103a282610ef0565b92915050565b6060600080546103b790612339565b80601f01602080910402602001604051908101604052809291908181526020018280546103e390612339565b80156104305780601f1061040557610100808354040283529160200191610430565b820191906000526020600020905b81548152906001019060200180831161041357829003601f168201915b5050505050905090565b600061044582610f15565b506000908152600460205260409020546001600160a01b031690565b600061046c82610be7565b9050806001600160a01b0316836001600160a01b0316036104de5760405162461bcd60e51b815260206004820152602160248201527f4552433732313a20617070726f76616c20746f2063757272656e74206f776e656044820152603960f91b60648201526084015b60405180910390fd5b336001600160a01b03821614806104fa57506104fa8133610356565b61056c5760405162461bcd60e51b815260206004820152603d60248201527f4552433732313a20617070726f76652063616c6c6572206973206e6f7420746f60448201527f6b656e206f776e6572206f7220617070726f76656420666f7220616c6c00000060648201526084016104d5565b6105768383610f74565b505050565b610583610fe2565b8015806105905750600181145b8061059b5750600281145b806105a65750600381145b6105e75760405162461bcd60e51b8152602060048201526012602482015271139195081d1e5c19481b9bdd08195e1a5cdd60721b60448201526064016104d5565b600d60008260038111156105fd576105fd612373565b600381111561060e5761060e612373565b600381111561061f5761061f612373565b815260200190815260200160002060010154600d600083600381111561064757610647612373565b600381111561065857610658612373565b600381111561066957610669612373565b815260200190815260200160002060000154106106c15760405162461bcd60e51b815260206004820152601660248201527513585e1a5b5d5b481cdd5c1c1b1e481c995858da195960521b60448201526064016104d5565b600d60008260038111156106d7576106d7612373565b60038111156106e8576106e8612373565b60038111156106f9576106f9612373565b815260200190815260200160002060020154846103e8610719919061239f565b10156107595760405162461bcd60e51b815260206004820152600f60248201526e139bdd08195b985d59da081c185a59608a1b60448201526064016104d5565b6000838361076684611042565b604051602001610778939291906123d2565b60405160208183030381529060405290506000610794826110e6565b6040516020016107a491906124c1565b604051602081830303815290604052905060006107c0600c5490565b90506107d0600c80546001019055565b600d60008560038111156107e6576107e6612373565b60038111156107f7576107f7612373565b600381111561080857610808612373565b81526020810191909152604001600090812080549161082683612506565b91905055506108358882611239565b61083f8183611253565b604080516001600160a01b038a168152602081018390529081018590527fc410f6ec4eba9d4398c3a8e2a8b796ffce6ad710adc2748f752eeefd45fa80229060600160405180910390a15050505050505050565b61089d338261131e565b6108b95760405162461bcd60e51b81526004016104d59061251f565b61057683838361139d565b60006108cf83610c47565b82106109315760405162461bcd60e51b815260206004820152602b60248201527f455243373231456e756d657261626c653a206f776e657220696e646578206f7560448201526a74206f6620626f756e647360a81b60648201526084016104d5565b506001600160a01b03919091166000908152600760209081526040808320938352929052205490565b600080600080600061096a610fe2565b600d6020527f81955a0a11e65eac625c29e8882660bae4e165a75d72780094acae8ece9a29ee547ffd54ff1ed53f34a900b24c5ba64f85761163b5d82d98a47b9bd80e45466993c5547f10a81eed9d63d16face5e76357905348e6253d3394086026bb2bf2145d7cc249547f26b4a10d0f0b04925c23bd4480ee147c916e5e87a7d68206a533dad160ac81e254600080527f81955a0a11e65eac625c29e8882660bae4e165a75d72780094acae8ece9a29ef548410801590610a7857506001600052600d6020527ffd54ff1ed53f34a900b24c5ba64f85761163b5d82d98a47b9bd80e45466993c6547ffd54ff1ed53f34a900b24c5ba64f85761163b5d82d98a47b9bd80e45466993c55410155b8015610ad057506002600052600d6020527f10a81eed9d63d16face5e76357905348e6253d3394086026bb2bf2145d7cc24a547f10a81eed9d63d16face5e76357905348e6253d3394086026bb2bf2145d7cc2495410155b8015610b2857506003600052600d6020527f26b4a10d0f0b04925c23bd4480ee147c916e5e87a7d68206a533dad160ac81e3547f26b4a10d0f0b04925c23bd4480ee147c916e5e87a7d68206a533dad160ac81e25410155b945094509450945094509091929394565b61057683838360405180602001604052806000815250610cff565b6000610b5f60095490565b8210610bc25760405162461bcd60e51b815260206004820152602c60248201527f455243373231456e756d657261626c653a20676c6f62616c20696e646578206f60448201526b7574206f6620626f756e647360a01b60648201526084016104d5565b60098281548110610bd557610bd561256c565b90600052602060002001549050919050565b6000818152600260205260408120546001600160a01b0316806103a25760405162461bcd60e51b8152602060048201526018602482015277115490cdcc8c4e881a5b9d985b1a59081d1bdad95b88125160421b60448201526064016104d5565b60006001600160a01b038216610cb15760405162461bcd60e51b815260206004820152602960248201527f4552433732313a2061646472657373207a65726f206973206e6f7420612076616044820152683634b21037bbb732b960b91b60648201526084016104d5565b506001600160a01b031660009081526003602052604090205490565b610cd5610fe2565b610cdf600061150e565b565b6060600180546103b790612339565b610cfb338383611568565b5050565b610d09338361131e565b610d255760405162461bcd60e51b81526004016104d59061251f565b610d3184848484611636565b50505050565b600080600080610d45610fe2565b5050600d60205250507f81955a0a11e65eac625c29e8882660bae4e165a75d72780094acae8ece9a29f0547ffd54ff1ed53f34a900b24c5ba64f85761163b5d82d98a47b9bd80e45466993c7547f10a81eed9d63d16face5e76357905348e6253d3394086026bb2bf2145d7cc24b5460036000527f26b4a10d0f0b04925c23bd4480ee147c916e5e87a7d68206a533dad160ac81e454929391929091565b60606103a282611669565b6000610df8610fe2565b81610e055750600a919050565b60018203610e1557506019919050565b60028203610e2557506032919050565b60038203610e3557506064919050565b60405162461bcd60e51b8152602060048201526012602482015271139195081d1e5c19481b9bdd08195e1a5cdd60721b60448201526064016104d5565b919050565b610e7f610fe2565b6001600160a01b038116610ee45760405162461bcd60e51b815260206004820152602660248201527f4f776e61626c653a206e6577206f776e657220697320746865207a65726f206160448201526564647265737360d01b60648201526084016104d5565b610eed8161150e565b50565b60006001600160e01b0319821663780e9d6360e01b14806103a257506103a282611771565b6000818152600260205260409020546001600160a01b0316610eed5760405162461bcd60e51b8152602060048201526018602482015277115490cdcc8c4e881a5b9d985b1a59081d1bdad95b88125160421b60448201526064016104d5565b600081815260046020526040902080546001600160a01b0319166001600160a01b0384169081179091558190610fa982610be7565b6001600160a01b03167f8c5be1e5ebec7d5bd14f71427d1e84f3dd0314c0f7b2291e5b200ac8c7c3b92560405160405180910390a45050565b600b546001600160a01b03610100909104163314610cdf5760405162461bcd60e51b815260206004820181905260248201527f4f776e61626c653a2063616c6c6572206973206e6f7420746865206f776e657260448201526064016104d5565b60608161106c575050604080518082019091526007815266434c415353494360c81b602082015290565b60018203611094575050604080518082019091526004815263504c555360e01b602082015290565b600282036110bf5750506040805180820190915260078152665052454d49554d60c81b602082015290565b60038203610e3557505060408051808201909152600381526205649560ec1b602082015290565b6060815160000361110557505060408051602081019091526000815290565b600060405180606001604052806040815260200161280f60409139905060006003845160026111349190612582565b61113e9190612595565b61114990600461239f565b67ffffffffffffffff811115611161576111616120c5565b6040519080825280601f01601f19166020018201604052801561118b576020820181803683370190505b509050600182016020820185865187015b808210156111f7576003820191508151603f8160121c168501518453600184019350603f81600c1c168501518453600184019350603f8160061c168501518453600184019350603f811685015184535060018301925061119c565b505060038651066001811461121357600281146112265761122e565b603d6001830353603d600283035361122e565b603d60018303535b509195945050505050565b610cfb828260405180602001604052806000815250611796565b6000828152600260205260409020546001600160a01b03166112ce5760405162461bcd60e51b815260206004820152602e60248201527f45524337323155524953746f726167653a2055524920736574206f66206e6f6e60448201526d32bc34b9ba32b73a103a37b5b2b760911b60648201526084016104d5565b60008281526006602052604090206112e68282612605565b506040518281527ff8e1a15aba9398e019f0b49df1a4fde98ee17ae345cb5f6b5e2c27f5033e8ce79060200160405180910390a15050565b60008061132a83610be7565b9050806001600160a01b0316846001600160a01b0316148061137157506001600160a01b0380821660009081526005602090815260408083209388168352929052205460ff165b806113955750836001600160a01b031661138a8461043a565b6001600160a01b0316145b949350505050565b826001600160a01b03166113b082610be7565b6001600160a01b0316146113d65760405162461bcd60e51b81526004016104d5906126c5565b6001600160a01b0382166114385760405162461bcd60e51b8152602060048201526024808201527f4552433732313a207472616e7366657220746f20746865207a65726f206164646044820152637265737360e01b60648201526084016104d5565b61144583838360016117c9565b826001600160a01b031661145882610be7565b6001600160a01b03161461147e5760405162461bcd60e51b81526004016104d5906126c5565b600081815260046020908152604080832080546001600160a01b03199081169091556001600160a01b0387811680865260038552838620805460001901905590871680865283862080546001019055868652600290945282852080549092168417909155905184937fddf252ad1be2c89b69c2b068fc378daa952ba7f163c4a11628f55a4df523b3ef91a4505050565b600b80546001600160a01b03838116610100818102610100600160a81b031985161790945560405193909204169182907f8be0079c531659141344cd1fd0a4f28419497f9722a3daafe3b4186f6b6457e090600090a35050565b816001600160a01b0316836001600160a01b0316036115c95760405162461bcd60e51b815260206004820152601960248201527f4552433732313a20617070726f766520746f2063616c6c65720000000000000060448201526064016104d5565b6001600160a01b03838116600081815260056020908152604080832094871680845294825291829020805460ff191686151590811790915591519182527f17307eab39ab6107e8899845ad3d59bd9653f200f220920489ca2b5937696c31910160405180910390a3505050565b61164184848461139d565b61164d848484846117d5565b610d315760405162461bcd60e51b81526004016104d59061270a565b606061167482610f15565b6000828152600660205260408120805461168d90612339565b80601f01602080910402602001604051908101604052809291908181526020018280546116b990612339565b80156117065780601f106116db57610100808354040283529160200191611706565b820191906000526020600020905b8154815290600101906020018083116116e957829003601f168201915b50505050509050600061172460408051602081019091526000815290565b90508051600003611736575092915050565b81511561176857808260405160200161175092919061275c565b60405160208183030381529060405292505050919050565b611395846118d6565b60006001600160e01b03198216632483248360e11b14806103a257506103a28261194a565b6117a0838361199a565b6117ad60008484846117d5565b6105765760405162461bcd60e51b81526004016104d59061270a565b610d3184848484611b33565b60006001600160a01b0384163b156118cb57604051630a85bd0160e11b81526001600160a01b0385169063150b7a029061181990339089908890889060040161278b565b6020604051808303816000875af1925050508015611854575060408051601f3d908101601f19168201909252611851918101906127c8565b60015b6118b1573d808015611882576040519150601f19603f3d011682016040523d82523d6000602084013e611887565b606091505b5080516000036118a95760405162461bcd60e51b81526004016104d59061270a565b805181602001fd5b6001600160e01b031916630a85bd0160e11b149050611395565b506001949350505050565b60606118e182610f15565b60006118f860408051602081019091526000815290565b905060008151116119185760405180602001604052806000815250611943565b8061192284611ba6565b60405160200161193392919061275c565b6040516020818303038152906040525b9392505050565b60006001600160e01b031982166380ac58cd60e01b148061197b57506001600160e01b03198216635b5e139f60e01b145b806103a257506301ffc9a760e01b6001600160e01b03198316146103a2565b6001600160a01b0382166119f05760405162461bcd60e51b815260206004820181905260248201527f4552433732313a206d696e7420746f20746865207a65726f206164647265737360448201526064016104d5565b6000818152600260205260409020546001600160a01b031615611a555760405162461bcd60e51b815260206004820152601c60248201527f4552433732313a20746f6b656e20616c7265616479206d696e7465640000000060448201526064016104d5565b611a636000838360016117c9565b6000818152600260205260409020546001600160a01b031615611ac85760405162461bcd60e51b815260206004820152601c60248201527f4552433732313a20746f6b656e20616c7265616479206d696e7465640000000060448201526064016104d5565b6001600160a01b038216600081815260036020908152604080832080546001019055848352600290915280822080546001600160a01b0319168417905551839291907fddf252ad1be2c89b69c2b068fc378daa952ba7f163c4a11628f55a4df523b3ef908290a45050565b611b3f84848484611c39565b600b5460ff1615610d315760405162461bcd60e51b815260206004820152602b60248201527f4552433732315061757361626c653a20746f6b656e207472616e73666572207760448201526a1a1a5b19481c185d5cd95960aa1b60648201526084016104d5565b60606000611bb383611d6d565b600101905060008167ffffffffffffffff811115611bd357611bd36120c5565b6040519080825280601f01601f191660200182016040528015611bfd576020820181803683370190505b5090508181016020015b600019016f181899199a1a9b1b9c1cb0b131b232b360811b600a86061a8153600a8504945084611c0757509392505050565b6001811115611ca85760405162461bcd60e51b815260206004820152603560248201527f455243373231456e756d657261626c653a20636f6e7365637574697665207472604482015274185b9cd9995c9cc81b9bdd081cdd5c1c1bdc9d1959605a1b60648201526084016104d5565b816001600160a01b038516611d0457611cff81600980546000838152600a60205260408120829055600182018355919091527f6e1540171b6c0c960b71a7020d9f60077f6af931a8bbf590da0223dacf75c7af0155565b611d27565b836001600160a01b0316856001600160a01b031614611d2757611d278582611e45565b6001600160a01b038416611d4357611d3e81611ee2565b611d66565b846001600160a01b0316846001600160a01b031614611d6657611d668482611f91565b5050505050565b60008072184f03e93ff9f4daa797ed6e38ed64bf6a1f0160401b8310611dac5772184f03e93ff9f4daa797ed6e38ed64bf6a1f0160401b830492506040015b6d04ee2d6d415b85acef81000000008310611dd8576d04ee2d6d415b85acef8100000000830492506020015b662386f26fc100008310611df657662386f26fc10000830492506010015b6305f5e1008310611e0e576305f5e100830492506008015b6127108310611e2257612710830492506004015b60648310611e34576064830492506002015b600a83106103a25760010192915050565b60006001611e5284610c47565b611e5c91906127e5565b600083815260086020526040902054909150808214611eaf576001600160a01b03841660009081526007602090815260408083208584528252808320548484528184208190558352600890915290208190555b5060009182526008602090815260408084208490556001600160a01b039094168352600781528383209183525290812055565b600954600090611ef4906001906127e5565b6000838152600a602052604081205460098054939450909284908110611f1c57611f1c61256c565b906000526020600020015490508060098381548110611f3d57611f3d61256c565b6000918252602080832090910192909255828152600a90915260408082208490558582528120556009805480611f7557611f756127f8565b6001900381819060005260206000200160009055905550505050565b6000611f9c83610c47565b6001600160a01b039093166000908152600760209081526040808320868452825280832085905593825260089052919091209190915550565b6001600160e01b031981168114610eed57600080fd5b600060208284031215611ffd57600080fd5b813561194381611fd5565b60005b8381101561202357818101518382015260200161200b565b50506000910152565b60008151808452612044816020860160208601612008565b601f01601f19169290920160200192915050565b602081526000611943602083018461202c565b60006020828403121561207d57600080fd5b5035919050565b80356001600160a01b0381168114610e7257600080fd5b600080604083850312156120ae57600080fd5b6120b783612084565b946020939093013593505050565b634e487b7160e01b600052604160045260246000fd5b600067ffffffffffffffff808411156120f6576120f66120c5565b604051601f8501601f19908116603f0116810190828211818310171561211e5761211e6120c5565b8160405280935085815286868601111561213757600080fd5b858560208301376000602087830101525050509392505050565b600082601f83011261216257600080fd5b611943838335602085016120db565b600080600080600060a0868803121561218957600080fd5b61219286612084565b945060208601359350604086013567ffffffffffffffff808211156121b657600080fd5b6121c289838a01612151565b945060608801359150808211156121d857600080fd5b506121e588828901612151565b95989497509295608001359392505050565b60008060006060848603121561220c57600080fd5b61221584612084565b925061222360208501612084565b9150604084013590509250925092565b60006020828403121561224557600080fd5b61194382612084565b6000806040838503121561226157600080fd5b61226a83612084565b91506020830135801515811461227f57600080fd5b809150509250929050565b600080600080608085870312156122a057600080fd5b6122a985612084565b93506122b760208601612084565b925060408501359150606085013567ffffffffffffffff8111156122da57600080fd5b8501601f810187136122eb57600080fd5b6122fa878235602084016120db565b91505092959194509250565b6000806040838503121561231957600080fd5b61232283612084565b915061233060208401612084565b90509250929050565b600181811c9082168061234d57607f821691505b60208210810361236d57634e487b7160e01b600052602260045260246000fd5b50919050565b634e487b7160e01b600052602160045260246000fd5b634e487b7160e01b600052601160045260246000fd5b80820281158282048414176103a2576103a2612389565b600081516123c8818560208601612008565b9290920192915050565b6000607b60f81b80835268113730b6b2911d101160b91b6001840152855161240181600a860160208a01612008565b61088b60f21b600a9185019182018190527022696d616765223a2022697066733a2f2f60781b600c830152865161243f81601d850160208b01612008565b601d9201918201526e2261747472696275746573223a205b60881b601f820152602e810182905268113a3cb832911d101160b91b602f8201526124b661249c6124a98161248f603886018a6123b6565b601160f91b815260010190565b607d60f81b815260010190565b605d60f81b815260010190565b979650505050505050565b7f646174613a6170706c69636174696f6e2f6a736f6e3b6261736536342c0000008152600082516124f981601d850160208701612008565b91909101601d0192915050565b60006001820161251857612518612389565b5060010190565b6020808252602d908201527f4552433732313a2063616c6c6572206973206e6f7420746f6b656e206f776e6560408201526c1c881bdc88185c1c1c9bdd9959609a1b606082015260800190565b634e487b7160e01b600052603260045260246000fd5b808201808211156103a2576103a2612389565b6000826125b257634e487b7160e01b600052601260045260246000fd5b500490565b601f82111561057657600081815260208120601f850160051c810160208610156125de5750805b601f850160051c820191505b818110156125fd578281556001016125ea565b505050505050565b815167ffffffffffffffff81111561261f5761261f6120c5565b6126338161262d8454612339565b846125b7565b602080601f83116001811461266857600084156126505750858301515b600019600386901b1c1916600185901b1785556125fd565b600085815260208120601f198616915b8281101561269757888601518255948401946001909101908401612678565b50858210156126b55787850151600019600388901b60f8161c191681555b5050505050600190811b01905550565b60208082526025908201527f4552433732313a207472616e736665722066726f6d20696e636f72726563742060408201526437bbb732b960d91b606082015260800190565b60208082526032908201527f4552433732313a207472616e7366657220746f206e6f6e20455243373231526560408201527131b2b4bb32b91034b6b83632b6b2b73a32b960711b606082015260800190565b6000835161276e818460208801612008565b835190830190612782818360208801612008565b01949350505050565b6001600160a01b03858116825284166020820152604081018390526080606082018190526000906127be9083018461202c565b9695505050505050565b6000602082840312156127da57600080fd5b815161194381611fd5565b818103818111156103a2576103a2612389565b634e487b7160e01b600052603160045260246000fdfe4142434445464748494a4b4c4d4e4f505152535455565758595a6162636465666768696a6b6c6d6e6f707172737475767778797a303132333435363738392b2fa26469706673582212205782274c1c12a3b3bd95dd6d401bb3681a7eaaae8f19c5eacf7b23cb9ea83aff64736f6c63430008110033a26469706673582212209659b712b314dbd8c8a07bd1ad3df84a1c135d9cd98cc837be455b58c3d7a88064736f6c63430008110033",
  "linkReferences": {},
  "deployedLinkReferences": {}
}