{
  "_format": "hh-sol-artifact-1",
  "contractName": "FundsFactory",
  "sourceName": "contracts/FundsFactory.sol",
  "abi": [
    {
      "inputs": [],
      "stateMutability": "nonpayable",
      "type": "constructor"
    },
    {
      "anonymous": false,
      "inputs": [
        {
          "indexed": false,
          "internalType": "uint256",
          "name": "amount",
          "type": "uint256"
        },
        {
          "indexed": false,
          "internalType": "uint256",
          "name": "projectId",
          "type": "uint256"
        }
      ],
      "name": "FundsAdded",
      "type": "event"
    },
    {
      "anonymous": false,
      "inputs": [
        {
          "indexed": false,
          "internalType": "uint256",
          "name": "fundRequestId",
          "type": "uint256"
        },
        {
          "indexed": false,
          "internalType": "address",
          "name": "reasearcher",
          "type": "address"
        }
      ],
      "name": "FundsRequestCreated",
      "type": "event"
    },
    {
      "anonymous": false,
      "inputs": [
        {
          "indexed": true,
          "internalType": "address",
          "name": "previousOwner",
          "type": "address"
        },
        {
          "indexed": true,
          "internalType": "address",
          "name": "newOwner",
          "type": "address"
        }
      ],
      "name": "OwnershipTransferred",
      "type": "event"
    },
    {
      "anonymous": false,
      "inputs": [
        {
          "indexed": false,
          "internalType": "uint256",
          "name": "projectId",
          "type": "uint256"
        },
        {
          "indexed": false,
          "internalType": "address",
          "name": "reasearcher",
          "type": "address"
        }
      ],
      "name": "ResearchProjectCreated",
      "type": "event"
    },
    {
      "anonymous": false,
      "inputs": [
        {
          "indexed": false,
          "internalType": "uint256",
          "name": "projectId",
          "type": "uint256"
        },
        {
          "indexed": false,
          "internalType": "address",
          "name": "reasearcher",
          "type": "address"
        }
      ],
      "name": "ResearchProjectRemoved",
      "type": "event"
    },
    {
      "anonymous": false,
      "inputs": [
        {
          "indexed": false,
          "internalType": "uint256",
          "name": "projectId",
          "type": "uint256"
        }
      ],
      "name": "ResearchProjectValidated",
      "type": "event"
    },
    {
      "anonymous": false,
      "inputs": [
        {
          "indexed": false,
          "internalType": "address",
          "name": "addr",
          "type": "address"
        },
        {
          "indexed": false,
          "internalType": "string",
          "name": "lastname",
          "type": "string"
        },
        {
          "indexed": false,
          "internalType": "string",
          "name": "forname",
          "type": "string"
        },
        {
          "indexed": false,
          "internalType": "string",
          "name": "company",
          "type": "string"
        }
      ],
      "name": "ResearcherAdded",
      "type": "event"
    },
    {
      "stateMutability": "payable",
      "type": "fallback"
    },
    {
      "inputs": [
        {
          "internalType": "string",
          "name": "title",
          "type": "string"
        },
        {
          "internalType": "string",
          "name": "description",
          "type": "string"
        },
        {
          "internalType": "string",
          "name": "imageUrl",
          "type": "string"
        },
        {
          "internalType": "uint256",
          "name": "amountAsked",
          "type": "uint256"
        },
        {
          "internalType": "string",
          "name": "projectDetailsUri",
          "type": "string"
        }
      ],
      "name": "addResearchProject",
      "outputs": [],
      "stateMutability": "nonpayable",
      "type": "function"
    },
    {
      "inputs": [
        {
          "internalType": "address",
          "name": "addr",
          "type": "address"
        },
        {
          "internalType": "string",
          "name": "lastname",
          "type": "string"
        },
        {
          "internalType": "string",
          "name": "forname",
          "type": "string"
        },
        {
          "internalType": "string",
          "name": "company",
          "type": "string"
        }
      ],
      "name": "addResearcher",
      "outputs": [],
      "stateMutability": "nonpayable",
      "type": "function"
    },
    {
      "inputs": [
        {
          "internalType": "uint256",
          "name": "id",
          "type": "uint256"
        },
        {
          "internalType": "uint256",
          "name": "amount",
          "type": "uint256"
        }
      ],
      "name": "askFundsRequest",
      "outputs": [],
      "stateMutability": "nonpayable",
      "type": "function"
    },
    {
      "inputs": [
        {
          "internalType": "uint256",
          "name": "id",
          "type": "uint256"
        },
        {
          "internalType": "string",
          "name": "uri",
          "type": "string"
        }
      ],
      "name": "buyNFT_Classic",
      "outputs": [],
      "stateMutability": "payable",
      "type": "function"
    },
    {
      "inputs": [
        {
          "internalType": "uint256",
          "name": "id",
          "type": "uint256"
        },
        {
          "internalType": "string",
          "name": "uri",
          "type": "string"
        }
      ],
      "name": "buyNFT_Plus",
      "outputs": [],
      "stateMutability": "payable",
      "type": "function"
    },
    {
      "inputs": [
        {
          "internalType": "uint256",
          "name": "id",
          "type": "uint256"
        },
        {
          "internalType": "string",
          "name": "uri",
          "type": "string"
        }
      ],
      "name": "buyNFT_Premium",
      "outputs": [],
      "stateMutability": "payable",
      "type": "function"
    },
    {
      "inputs": [
        {
          "internalType": "uint256",
          "name": "id",
          "type": "uint256"
        },
        {
          "internalType": "string",
          "name": "uri",
          "type": "string"
        }
      ],
      "name": "buyNFT_VIP",
      "outputs": [],
      "stateMutability": "payable",
      "type": "function"
    },
    {
      "inputs": [
        {
          "internalType": "address",
          "name": "addr",
          "type": "address"
        },
        {
          "internalType": "bool",
          "name": "status",
          "type": "bool"
        }
      ],
      "name": "changeResearcherStatus",
      "outputs": [],
      "stateMutability": "nonpayable",
      "type": "function"
    },
    {
      "inputs": [
        {
          "internalType": "uint256",
          "name": "id",
          "type": "uint256"
        }
      ],
      "name": "getFunds",
      "outputs": [],
      "stateMutability": "nonpayable",
      "type": "function"
    },
    {
      "inputs": [
        {
          "internalType": "uint256",
          "name": "id",
          "type": "uint256"
        }
      ],
      "name": "getNFT_Prices",
      "outputs": [
        {
          "internalType": "uint256",
          "name": "",
          "type": "uint256"
        },
        {
          "internalType": "uint256",
          "name": "",
          "type": "uint256"
        },
        {
          "internalType": "uint256",
          "name": "",
          "type": "uint256"
        },
        {
          "internalType": "uint256",
          "name": "",
          "type": "uint256"
        }
      ],
      "stateMutability": "view",
      "type": "function"
    },
    {
      "inputs": [
        {
          "internalType": "uint256",
          "name": "id",
          "type": "uint256"
        }
      ],
      "name": "getNumberNFTMinted",
      "outputs": [
        {
          "internalType": "uint256",
          "name": "",
          "type": "uint256"
        },
        {
          "internalType": "uint256",
          "name": "",
          "type": "uint256"
        },
        {
          "internalType": "uint256",
          "name": "",
          "type": "uint256"
        },
        {
          "internalType": "uint256",
          "name": "",
          "type": "uint256"
        }
      ],
      "stateMutability": "view",
      "type": "function"
    },
    {
      "inputs": [
        {
          "internalType": "uint256",
          "name": "id",
          "type": "uint256"
        }
      ],
      "name": "getResearchProject",
      "outputs": [
        {
          "components": [
            {
              "internalType": "uint256",
              "name": "id",
              "type": "uint256"
            },
            {
              "internalType": "string",
              "name": "title",
              "type": "string"
            },
            {
              "internalType": "string",
              "name": "description",
              "type": "string"
            },
            {
              "internalType": "string",
              "name": "imageUrl",
              "type": "string"
            },
            {
              "internalType": "uint256",
              "name": "creationTime",
              "type": "uint256"
            },
            {
              "internalType": "bool",
              "name": "isAccepted",
              "type": "bool"
            },
            {
              "internalType": "address",
              "name": "researcher",
              "type": "address"
            },
            {
              "internalType": "uint256",
              "name": "amountAsked",
              "type": "uint256"
            },
            {
              "internalType": "string",
              "name": "projectDetailsUri",
              "type": "string"
            },
            {
              "internalType": "contract FundNFT",
              "name": "fundNFT",
              "type": "address"
            },
            {
              "internalType": "enum FundsFactory.ResearchProjectStatus",
              "name": "status",
              "type": "uint8"
            },
            {
              "internalType": "uint256[]",
              "name": "fundRequestListIds",
              "type": "uint256[]"
            }
          ],
          "internalType": "struct FundsFactory.ResearchProject",
          "name": "",
          "type": "tuple"
        }
      ],
      "stateMutability": "view",
      "type": "function"
    },
    {
      "inputs": [
        {
          "internalType": "address",
          "name": "addr",
          "type": "address"
        }
      ],
      "name": "getResearcher",
      "outputs": [
        {
          "components": [
            {
              "internalType": "string",
              "name": "lastname",
              "type": "string"
            },
            {
              "internalType": "string",
              "name": "forname",
              "type": "string"
            },
            {
              "internalType": "string",
              "name": "company",
              "type": "string"
            },
            {
              "internalType": "address",
              "name": "addr",
              "type": "address"
            },
            {
              "internalType": "bool",
              "name": "exist",
              "type": "bool"
            },
            {
              "internalType": "bool",
              "name": "isValidated",
              "type": "bool"
            },
            {
              "internalType": "uint256[]",
              "name": "projectListIds",
              "type": "uint256[]"
            }
          ],
          "internalType": "struct FundsFactory.Researcher",
          "name": "",
          "type": "tuple"
        }
      ],
      "stateMutability": "view",
      "type": "function"
    },
    {
      "inputs": [
        {
          "internalType": "address",
          "name": "addr",
          "type": "address"
        }
      ],
      "name": "isRegisterExist",
      "outputs": [
        {
          "internalType": "bool",
          "name": "",
          "type": "bool"
        }
      ],
      "stateMutability": "view",
      "type": "function"
    },
    {
      "inputs": [],
      "name": "owner",
      "outputs": [
        {
          "internalType": "address",
          "name": "",
          "type": "address"
        }
      ],
      "stateMutability": "view",
      "type": "function"
    },
    {
      "inputs": [
        {
          "internalType": "uint256",
          "name": "id",
          "type": "uint256"
        }
      ],
      "name": "removeResearchProject",
      "outputs": [],
      "stateMutability": "nonpayable",
      "type": "function"
    },
    {
      "inputs": [],
      "name": "renounceOwnership",
      "outputs": [],
      "stateMutability": "nonpayable",
      "type": "function"
    },
    {
      "inputs": [
        {
          "internalType": "address",
          "name": "newOwner",
          "type": "address"
        }
      ],
      "name": "transferOwnership",
      "outputs": [],
      "stateMutability": "nonpayable",
      "type": "function"
    },
    {
      "inputs": [
        {
          "internalType": "uint256",
          "name": "id",
          "type": "uint256"
        }
      ],
      "name": "validResearchProject",
      "outputs": [],
      "stateMutability": "nonpayable",
      "type": "function"
    },
    {
      "stateMutability": "payable",
      "type": "receive"
    }
  ],
  "bytecode": "0x608060405234801561001057600080fd5b5061001a3361001f565b61006f565b600080546001600160a01b038381166001600160a01b0319831681178455604051919092169283917f8be0079c531659141344cd1fd0a4f28419497f9722a3daafe3b4186f6b6457e09190a35050565b61529b806200007f6000396000f3fe608060405260043610620001235760003560e01c80637e0c81d611620000a7578063de946f0a1162000069578063de946f0a146200034c578063e7eba4c21462000392578063f2fde38b14620003c6578063f894a9e514620003eb578063ff417db9146200040257005b80637e0c81d614620002aa5780638da5cb5b14620002c1578063ba5b0c4014620002eb578063bc5305021462000310578063cc986fcc146200032757005b80634440dc9d11620000f15780634440dc9d14620001d95780635add197314620001f0578063627c2a5d1462000248578063715018a6146200026d5780637ac14a70146200028557005b8063345e3ee4146200012d57806335aaf9f514620001525780633e721015146200018f578063439e8a2314620001b457005b366200012b57005b005b3480156200013a57600080fd5b506200012b6200014c36600462001e30565b62000427565b3480156200015f57600080fd5b50620001776200017136600462001e53565b620004bd565b60405162000186919062001f37565b60405180910390f35b3480156200019c57600080fd5b506200012b620001ae36600462001e53565b62000878565b348015620001c157600080fd5b506200012b620001d33660046200210e565b620008b7565b6200012b620001ea366004620021d2565b62000cb6565b348015620001fd57600080fd5b50620002376200020f3660046200223a565b6001600160a01b0316600090815260016020526040902060030154600160a01b900460ff1690565b604051901515815260200162000186565b3480156200025557600080fd5b506200012b62000267366004620022ab565b62000de6565b3480156200027a57600080fd5b506200012b6200103e565b3480156200029257600080fd5b506200012b620002a436600462001e53565b62001056565b6200012b620002bb366004620021d2565b620010e9565b348015620002ce57600080fd5b506000546040516001600160a01b03909116815260200162000186565b348015620002f857600080fd5b506200012b6200030a36600462001e53565b620011df565b6200012b62000321366004620021d2565b6200126b565b3480156200033457600080fd5b506200012b6200034636600462002362565b62001361565b3480156200035957600080fd5b50620003716200036b36600462001e53565b620013a3565b60408051948552602085019390935291830152606082015260800162000186565b3480156200039f57600080fd5b50620003b7620003b13660046200223a565b6200145d565b604051620001869190620023a2565b348015620003d357600080fd5b506200012b620003e53660046200223a565b62001736565b6200012b620003fc366004620021d2565b620017b2565b3480156200040f57600080fd5b50620003716200042136600462001e53565b620018a8565b60045482908110620004565760405162461bcd60e51b81526004016200044d906200245a565b60405180910390fd5b336001600160a01b03166004828154811062000476576200047662002489565b60009182526020909120600a909102016005015461010090046001600160a01b031614620004b85760405162461bcd60e51b81526004016200044d906200249f565b505050565b620004c762001ce8565b6004548210620004eb5760405162461bcd60e51b81526004016200044d906200245a565b6004828154811062000501576200050162002489565b90600052602060002090600a020160405180610180016040529081600082015481526020016001820180546200053790620024cd565b80601f01602080910402602001604051908101604052809291908181526020018280546200056590620024cd565b8015620005b65780601f106200058a57610100808354040283529160200191620005b6565b820191906000526020600020905b8154815290600101906020018083116200059857829003601f168201915b50505050508152602001600282018054620005d190620024cd565b80601f0160208091040260200160405190810160405280929190818152602001828054620005ff90620024cd565b8015620006505780601f10620006245761010080835404028352916020019162000650565b820191906000526020600020905b8154815290600101906020018083116200063257829003601f168201915b505050505081526020016003820180546200066b90620024cd565b80601f01602080910402602001604051908101604052809291908181526020018280546200069990620024cd565b8015620006ea5780601f10620006be57610100808354040283529160200191620006ea565b820191906000526020600020905b815481529060010190602001808311620006cc57829003601f168201915b505050918352505060048201546020820152600582015460ff81161515604083015261010090046001600160a01b031660608201526006820154608082015260078201805460a0909201916200074090620024cd565b80601f01602080910402602001604051908101604052809291908181526020018280546200076e90620024cd565b8015620007bf5780601f106200079357610100808354040283529160200191620007bf565b820191906000526020600020905b815481529060010190602001808311620007a157829003601f168201915b505050918352505060088201546001600160a01b0381166020830152604090910190600160a01b900460ff166003811115620007ff57620007ff62001ec1565b600381111562000813576200081362001ec1565b8152602001600982018054806020026020016040519081016040528092919081815260200182805480156200086857602002820191906000526020600020905b81548152602001906001019080831162000853575b5050505050815250509050919050565b33600090815260016020526040902060030154600160a81b900460ff16620008b45760405162461bcd60e51b81526004016200044d9062002503565b50565b33600090815260016020526040902060030154600160a81b900460ff16620008f35760405162461bcd60e51b81526004016200044d9062002503565b81600003620009455760405162461bcd60e51b815260206004820152601c60248201527f416d6f756e742061736b65642073686f756c64206e6f7420626520300000000060448201526064016200044d565b6040516020016200096190602080825260009082015260400190565b60405160208183030381529060405280519060200120816040516020016200098a919062002530565b6040516020818303038152906040528051906020012003620009ef5760405162461bcd60e51b815260206004820152601b60248201527f50726f6a6563742064657461696c206973206d616e6461746f7279000000000060448201526064016200044d565b620009f962001ce8565b6020810186815260408201869052606082018590524260808301523360c083015260e082018490526101008201839052600480546001810182556000919091528251600a9091027f8a35acfbc15ff81a39ae7d344fd709f28e8600b4aa8c65c6b64bfe7fe36bd19b8101918255915183927f8a35acfbc15ff81a39ae7d344fd709f28e8600b4aa8c65c6b64bfe7fe36bd19c019062000a99908262002597565b506040820151600282019062000ab0908262002597565b506060820151600382019062000ac7908262002597565b506080820151600482015560a082015160058201805460c08501516001600160a81b0319909116921515610100600160a81b031916929092176101006001600160a01b03909316830217905560e08301516006830155820151600782019062000b31908262002597565b506101208201516008820180546001600160a01b039092166001600160a01b0319831681178255610140850151926001600160a81b03191617600160a01b83600381111562000b845762000b8462001ec1565b0217905550610160820151805162000ba791600984019160209091019062001d71565b5050336000908152600160208190526040909120600480549101925062000bcf91906200267a565b8154600181810184556000938452602084209091019190915560045462000c019162000bfb916200267a565b6200192c565b60045490915062000c649062000c1a906001906200267a565b8260405160200162000c2d919062002690565b6040516020818303038152906040528360405160200162000c4f9190620026c1565b604051602081830303815290604052620019c6565b6004547f4c81382e52262a9cb7b48b06b6f04c7d902e3518fa3ddc8ccb8b0e8791a7e3589062000c97906001906200267a565b604080519182523360208301520160405180910390a150505050505050565b8160026004828154811062000ccf5762000ccf62002489565b90600052602060002090600a020160080160149054906101000a900460ff16600381111562000d025762000d0262001ec1565b1462000d225760405162461bcd60e51b81526004016200044d90620026ee565b336000908152600360205260408120805434929062000d4390849062002725565b9250508190555060006004848154811062000d625762000d6262002489565b600091825260209091206008600a90920201015460405163a3f8f70360e01b81526001600160a01b039091169150819063a3f8f7039062000dac903390349088906004016200273b565b600060405180830381600087803b15801562000dc757600080fd5b505af115801562000ddc573d6000803e3d6000fd5b5050505050505050565b6001600160a01b038716600090815260016020526040902060030154600160a01b900460ff161562000e5b5760405162461bcd60e51b815260206004820152601860248201527f5265736561726368657220616c7265616479206578697374000000000000000060448201526064016200044d565b62000e6562001dc1565b86868080601f016020809104026020016040519081016040528093929190818152602001838380828437600092019190915250505090825250604080516020601f870181900481028201810190925285815290869086908190840183828082843760009201919091525050505060208083019190915260408051601f850183900483028101830190915283815290849084908190840183828082843760009201829052506040808701959095526001600160a01b038d166060870181905260016080880181905290825260205293909320845185945090925082915062000f4d908262002597565b506020820151600182019062000f64908262002597565b506040820151600282019062000f7b908262002597565b506060820151600382018054608085015160a08601511515600160a81b0260ff60a81b19911515600160a01b026001600160a81b03199093166001600160a01b0390951694909417919091171691909117905560c0820151805162000feb91600484019160209091019062001d71565b509050507f274da1e600baf54d201c4cf2758f1d65eb4ea397bc6e595da1df2d572d8af7ee888888888888886040516200102c97969594939291906200278d565b60405180910390a15050505050505050565b6200104862001b5c565b62001054600062001bb8565b565b6200106062001b5c565b60016004828154811062001078576200107862002489565b600091825260209091206008600a9092020101805460ff60a01b1916600160a01b836003811115620010ae57620010ae62001ec1565b02179055506040518181527f912883fd6daad43ad71699b8e13899bcdfdc8be63801d13a330404473865c0139060200160405180910390a150565b8160026004828154811062001102576200110262002489565b90600052602060002090600a020160080160149054906101000a900460ff16600381111562001135576200113562001ec1565b14620011555760405162461bcd60e51b81526004016200044d90620026ee565b33600090815260036020526040812080543492906200117690849062002725565b9250508190555060006004848154811062001195576200119562002489565b600091825260209091206008600a909202010154604051633608cd4b60e01b81526001600160a01b0390911691508190633608cd4b9062000dac903390349088906004016200273b565b60045481908110620012055760405162461bcd60e51b81526004016200044d906200245a565b336001600160a01b03166004828154811062001225576200122562002489565b60009182526020909120600a909102016005015461010090046001600160a01b031614620012675760405162461bcd60e51b81526004016200044d906200249f565b5050565b8160026004828154811062001284576200128462002489565b90600052602060002090600a020160080160149054906101000a900460ff166003811115620012b757620012b762001ec1565b14620012d75760405162461bcd60e51b81526004016200044d90620026ee565b3360009081526003602052604081208054349290620012f890849062002725565b9250508190555060006004848154811062001317576200131762002489565b600091825260209091206008600a90920201015460405163e8ebad6f60e01b81526001600160a01b039091169150819063e8ebad6f9062000dac903390349088906004016200273b565b6200136b62001b5c565b6001600160a01b0390911660009081526001602052604090206003018054911515600160a81b0260ff60a81b19909216919091179055565b600080600080600060048681548110620013c157620013c162002489565b90600052602060002090600a020160080160009054906101000a90046001600160a01b03169050806001600160a01b03166334757b346040518163ffffffff1660e01b8152600401608060405180830381865afa15801562001427573d6000803e3d6000fd5b505050506040513d601f19601f820116820180604052508101906200144d9190620027ee565b9450945094509450509193509193565b6200146762001dc1565b81336001600160a01b03821614806200148a57506000546001600160a01b031633145b620014a95760405162461bcd60e51b81526004016200044d9062002503565b6001600160a01b03831660009081526001602052604090819020815160e08101909252805482908290620014dd90620024cd565b80601f01602080910402602001604051908101604052809291908181526020018280546200150b90620024cd565b80156200155c5780601f1062001530576101008083540402835291602001916200155c565b820191906000526020600020905b8154815290600101906020018083116200153e57829003601f168201915b505050505081526020016001820180546200157790620024cd565b80601f0160208091040260200160405190810160405280929190818152602001828054620015a590620024cd565b8015620015f65780601f10620015ca57610100808354040283529160200191620015f6565b820191906000526020600020905b815481529060010190602001808311620015d857829003601f168201915b505050505081526020016002820180546200161190620024cd565b80601f01602080910402602001604051908101604052809291908181526020018280546200163f90620024cd565b8015620016905780601f10620016645761010080835404028352916020019162001690565b820191906000526020600020905b8154815290600101906020018083116200167257829003601f168201915b505050918352505060038201546001600160a01b03811660208084019190915260ff600160a01b830481161515604080860191909152600160a81b909304161515606084015260048401805483518184028101840190945280845260809094019390918301828280156200172457602002820191906000526020600020905b8154815260200190600101908083116200170f575b50505050508152505091505b50919050565b6200174062001b5c565b6001600160a01b038116620017a75760405162461bcd60e51b815260206004820152602660248201527f4f776e61626c653a206e6577206f776e657220697320746865207a65726f206160448201526564647265737360d01b60648201526084016200044d565b620008b48162001bb8565b81600260048281548110620017cb57620017cb62002489565b90600052602060002090600a020160080160149054906101000a900460ff166003811115620017fe57620017fe62001ec1565b146200181e5760405162461bcd60e51b81526004016200044d90620026ee565b33600090815260036020526040812080543492906200183f90849062002725565b925050819055506000600484815481106200185e576200185e62002489565b600091825260209091206008600a9092020101546040516309c0f59160e31b81526001600160a01b0390911691508190634e07ac889062000dac903390349088906004016200273b565b600080600080600060048681548110620018c657620018c662002489565b90600052602060002090600a020160080160009054906101000a90046001600160a01b03169050806001600160a01b031663bd9a548b6040518163ffffffff1660e01b8152600401608060405180830381865afa15801562001427573d6000803e3d6000fd5b606060006200193b8362001c08565b600101905060008167ffffffffffffffff8111156200195e576200195e62002063565b6040519080825280601f01601f19166020018201604052801562001989576020820181803683370190505b5090508181016020015b600019016f181899199a1a9b1b9c1cb0b131b232b360811b600a86061a8153600a85049450846200199357509392505050565b60045483908110620019ec5760405162461bcd60e51b81526004016200044d906200245a565b336001600160a01b03166004828154811062001a0c5762001a0c62002489565b60009182526020909120600a909102016005015461010090046001600160a01b03161462001a4e5760405162461bcd60e51b81526004016200044d906200249f565b600083836004878154811062001a685762001a6862002489565b90600052602060002090600a02016006015460405162001a889062001e0b565b62001a969392919062002825565b604051809103906000f08015801562001ab3573d6000803e3d6000fd5b509050806004868154811062001acd5762001acd62002489565b90600052602060002090600a020160080160006101000a8154816001600160a01b0302191690836001600160a01b0316021790555060026004868154811062001b1a5762001b1a62002489565b600091825260209091206008600a9092020101805460ff60a01b1916600160a01b83600381111562001b505762001b5062001ec1565b02179055505050505050565b6000546001600160a01b03163314620010545760405162461bcd60e51b815260206004820181905260248201527f4f776e61626c653a2063616c6c6572206973206e6f7420746865206f776e657260448201526064016200044d565b600080546001600160a01b038381166001600160a01b0319831681178455604051919092169283917f8be0079c531659141344cd1fd0a4f28419497f9722a3daafe3b4186f6b6457e09190a35050565b60008072184f03e93ff9f4daa797ed6e38ed64bf6a1f0160401b831062001c485772184f03e93ff9f4daa797ed6e38ed64bf6a1f0160401b830492506040015b6d04ee2d6d415b85acef8100000000831062001c75576d04ee2d6d415b85acef8100000000830492506020015b662386f26fc10000831062001c9457662386f26fc10000830492506010015b6305f5e100831062001cad576305f5e100830492506008015b612710831062001cc257612710830492506004015b6064831062001cd5576064830492506002015b600a831062001ce2576001015b92915050565b604051806101800160405280600081526020016060815260200160608152602001606081526020016000815260200160001515815260200160006001600160a01b03168152602001600081526020016060815260200160006001600160a01b031681526020016000600381111562001d645762001d6462001ec1565b8152602001606081525090565b82805482825590600052602060002090810192821562001daf579160200282015b8281111562001daf57825182559160200191906001019062001d92565b5062001dbd92915062001e19565b5090565b6040518060e0016040528060608152602001606081526020016060815260200160006001600160a01b03168152602001600015158152602001600015158152602001606081525090565b612a06806200286083390190565b5b8082111562001dbd576000815560010162001e1a565b6000806040838503121562001e4457600080fd5b50508035926020909101359150565b60006020828403121562001e6657600080fd5b5035919050565b60005b8381101562001e8a57818101518382015260200162001e70565b50506000910152565b6000815180845262001ead81602086016020860162001e6d565b601f01601f19169290920160200192915050565b634e487b7160e01b600052602160045260246000fd5b6004811062001ef657634e487b7160e01b600052602160045260246000fd5b9052565b600081518084526020808501945080840160005b8381101562001f2c5781518752958201959082019060010162001f0e565b509495945050505050565b60208152815160208201526000602083015161018080604085015262001f626101a085018362001e93565b91506040850151601f198086850301606087015262001f82848362001e93565b9350606087015191508086850301608087015262001fa1848362001e93565b9350608087015160a087015260a0870151915062001fc360c087018315159052565b60c08701516001600160a01b03811660e0880152915060e0870151915061010082818801528088015192505061012081878603018188015262002007858462001e93565b94508088015192505061014062002028818801846001600160a01b03169052565b87015191506101606200203e8782018462001ed7565b87015186850390910183870152905062002059838262001efa565b9695505050505050565b634e487b7160e01b600052604160045260246000fd5b600082601f8301126200208b57600080fd5b813567ffffffffffffffff80821115620020a957620020a962002063565b604051601f8301601f19908116603f01168101908282118183101715620020d457620020d462002063565b81604052838152866020858801011115620020ee57600080fd5b836020870160208301376000602085830101528094505050505092915050565b600080600080600060a086880312156200212757600080fd5b853567ffffffffffffffff808211156200214057600080fd5b6200214e89838a0162002079565b965060208801359150808211156200216557600080fd5b6200217389838a0162002079565b955060408801359150808211156200218a57600080fd5b6200219889838a0162002079565b9450606088013593506080880135915080821115620021b657600080fd5b50620021c58882890162002079565b9150509295509295909350565b60008060408385031215620021e657600080fd5b82359150602083013567ffffffffffffffff8111156200220557600080fd5b620022138582860162002079565b9150509250929050565b80356001600160a01b03811681146200223557600080fd5b919050565b6000602082840312156200224d57600080fd5b62002258826200221d565b9392505050565b60008083601f8401126200227257600080fd5b50813567ffffffffffffffff8111156200228b57600080fd5b602083019150836020828501011115620022a457600080fd5b9250929050565b60008060008060008060006080888a031215620022c757600080fd5b620022d2886200221d565b9650602088013567ffffffffffffffff80821115620022f057600080fd5b620022fe8b838c016200225f565b909850965060408a01359150808211156200231857600080fd5b620023268b838c016200225f565b909650945060608a01359150808211156200234057600080fd5b506200234f8a828b016200225f565b989b979a50959850939692959293505050565b600080604083850312156200237657600080fd5b62002381836200221d565b9150602083013580151581146200239757600080fd5b809150509250929050565b602081526000825160e06020840152620023c161010084018262001e93565b90506020840151601f1980858403016040860152620023e1838362001e93565b9250604086015191508085840301606086015262002400838362001e93565b60608701516001600160a01b0316608087810191909152870151151560a080880191909152870151151560c08088019190915287015186820390920160e08701529250905062002451828262001efa565b95945050505050565b602080825260159082015274141c9bda9958dd081a5908191bdb9d08195e1a5cdd605a1b604082015260600190565b634e487b7160e01b600052603260045260246000fd5b60208082526014908201527350726f6a656374206973206e6f7420796f75727360601b604082015260600190565b600181811c90821680620024e257607f821691505b6020821081036200173057634e487b7160e01b600052602260045260246000fd5b6020808252601390820152722cb7ba93b932903737ba103932b3b4b9ba32b960691b604082015260600190565b60208152600062002258602083018462001e93565b601f821115620004b857600081815260208120601f850160051c810160208610156200256e5750805b601f850160051c820191505b818110156200258f578281556001016200257a565b505050505050565b815167ffffffffffffffff811115620025b457620025b462002063565b620025cc81620025c58454620024cd565b8462002545565b602080601f831160018114620026045760008415620025eb5750858301515b600019600386901b1c1916600185901b1785556200258f565b600085815260208120601f198616915b82811015620026355788860151825594840194600190910190840162002614565b5085821015620026545787850151600019600388901b60f8161c191681555b5050505050600190811b01905550565b634e487b7160e01b600052601160045260246000fd5b8181038181111562001ce25762001ce262002664565b664445534349444560c81b815260008251620026b481600785016020870162001e6d565b9190910160070192915050565b6244534360e81b815260008251620026e181600385016020870162001e6d565b9190910160030192915050565b6020808252601d908201527f50726f6a656374206e6f7420726561647920666f722066756e64696e67000000604082015260600190565b8082018082111562001ce25762001ce262002664565b60018060a01b038416815282602082015260606040820152600062002451606083018462001e93565b81835281816020850137506000828201602090810191909152601f909101601f19169091010190565b6001600160a01b0388168152608060208201819052600090620027b4908301888a62002764565b8281036040840152620027c981878962002764565b90508281036060840152620027e081858762002764565b9a9950505050505050505050565b600080600080608085870312156200280557600080fd5b505082516020840151604085015160609095015191969095509092509050565b6060815260006200283a606083018662001e93565b82810360208401526200284e818662001e93565b91505082604083015294935050505056fe60806040523480156200001157600080fd5b5060405162002a0638038062002a06833981016040819052620000349162000311565b8282600062000044838262000413565b50600162000053828262000413565b5050600b805460ff19169055506200006b33620001f2565b600d60205260287f81955a0a11e65eac625c29e8882660bae4e165a75d72780094acae8ece9a29ef55601e7ffd54ff1ed53f34a900b24c5ba64f85761163b5d82d98a47b9bd80e45466993c65560047f10a81eed9d63d16face5e76357905348e6253d3394086026bb2bf2145d7cc24a55600360005260017f26b4a10d0f0b04925c23bd4480ee147c916e5e87a7d68206a533dad160ac81e3556200011281600a620004df565b60008052600d6020527f81955a0a11e65eac625c29e8882660bae4e165a75d72780094acae8ece9a29f0556200014a816019620004df565b6001600052600d6020527ffd54ff1ed53f34a900b24c5ba64f85761163b5d82d98a47b9bd80e45466993c75562000183816032620004df565b6002600052600d6020527f10a81eed9d63d16face5e76357905348e6253d3394086026bb2bf2145d7cc24b55620001bc816064620004df565b6003600052600d6020527f26b4a10d0f0b04925c23bd4480ee147c916e5e87a7d68206a533dad160ac81e455506200050b915050565b600b80546001600160a01b03838116610100818102610100600160a81b031985161790945560405193909204169182907f8be0079c531659141344cd1fd0a4f28419497f9722a3daafe3b4186f6b6457e090600090a35050565b634e487b7160e01b600052604160045260246000fd5b600082601f8301126200027457600080fd5b81516001600160401b03808211156200029157620002916200024c565b604051601f8301601f19908116603f01168101908282118183101715620002bc57620002bc6200024c565b81604052838152602092508683858801011115620002d957600080fd5b600091505b83821015620002fd5785820183015181830184015290820190620002de565b600093810190920192909252949350505050565b6000806000606084860312156200032757600080fd5b83516001600160401b03808211156200033f57600080fd5b6200034d8783880162000262565b945060208601519150808211156200036457600080fd5b50620003738682870162000262565b925050604084015190509250925092565b600181811c908216806200039957607f821691505b602082108103620003ba57634e487b7160e01b600052602260045260246000fd5b50919050565b601f8211156200040e57600081815260208120601f850160051c81016020861015620003e95750805b601f850160051c820191505b818110156200040a57828155600101620003f5565b5050505b505050565b81516001600160401b038111156200042f576200042f6200024c565b620004478162000440845462000384565b84620003c0565b602080601f8311600181146200047f5760008415620004665750858301515b600019600386901b1c1916600185901b1785556200040a565b600085815260208120601f198616915b82811015620004b0578886015182559484019460019091019084016200048f565b5085821015620004cf5787850151600019600388901b60f8161c191681555b5050505050600190811b01905550565b80820281158282048414176200050557634e487b7160e01b600052601160045260246000fd5b92915050565b6124eb806200051b6000396000f3fe608060405234801561001057600080fd5b50600436106101a95760003560e01c80635c975abb116100f9578063a3f8f70311610097578063c87b56dd11610071578063c87b56dd14610491578063e8ebad6f146104a4578063e985e9c5146104b7578063f2fde38b146104f357600080fd5b8063a3f8f703146103d4578063b88d4fde146103e7578063bd9a548b146103fa57600080fd5b8063715018a6116100d3578063715018a61461039b5780638da5cb5b146103a357806395d89b41146103b9578063a22cb465146103c157600080fd5b80635c975abb1461036a5780636352211e1461037557806370a082311461038857600080fd5b80632f745c59116101665780633608cd4b116101405780633608cd4b1461031e57806342842e0e146103315780634e07ac88146103445780634f6ccce71461035757600080fd5b80632f745c591461025057806332cb6b0c1461026357806334757b341461026b57600080fd5b806301ffc9a7146101ae57806306fdde03146101d6578063081812fc146101eb578063095ea7b31461021657806318160ddd1461022b57806323b872dd1461023d575b600080fd5b6101c16101bc366004611ded565b610506565b60405190151581526020015b60405180910390f35b6101de610517565b6040516101cd9190611e5a565b6101fe6101f9366004611e6d565b6105a9565b6040516001600160a01b0390911681526020016101cd565b610229610224366004611ea2565b6105d0565b005b6009545b6040519081526020016101cd565b61022961024b366004611ecc565b6106ea565b61022f61025e366004611ea2565b61071b565b61022f604b81565b600d6020527f81955a0a11e65eac625c29e8882660bae4e165a75d72780094acae8ece9a29ee547ffd54ff1ed53f34a900b24c5ba64f85761163b5d82d98a47b9bd80e45466993c5547f10a81eed9d63d16face5e76357905348e6253d3394086026bb2bf2145d7cc2495460036000527f26b4a10d0f0b04925c23bd4480ee147c916e5e87a7d68206a533dad160ac81e2545b6040805194855260208501939093529183015260608201526080016101cd565b61022961032c366004611f94565b6107b1565b61022961033f366004611ecc565b610900565b610229610352366004611f94565b61091b565b61022f610365366004611e6d565b610a3e565b600b5460ff166101c1565b6101fe610383366004611e6d565b610ad1565b61022f610396366004611fff565b610b31565b610229610bb7565b600b5461010090046001600160a01b03166101fe565b6101de610bcb565b6102296103cf36600461201a565b610bda565b6102296103e2366004611f94565b610be9565b6102296103f5366004612056565b610d0c565b600d6020527f81955a0a11e65eac625c29e8882660bae4e165a75d72780094acae8ece9a29f0547ffd54ff1ed53f34a900b24c5ba64f85761163b5d82d98a47b9bd80e45466993c7547f10a81eed9d63d16face5e76357905348e6253d3394086026bb2bf2145d7cc24b5460036000527f26b4a10d0f0b04925c23bd4480ee147c916e5e87a7d68206a533dad160ac81e4546102fe565b6101de61049f366004611e6d565b610d44565b6102296104b2366004611f94565b610d4f565b6101c16104c53660046120d2565b6001600160a01b03918216600090815260056020908152604080832093909416825291909152205460ff1690565b610229610501366004611fff565b610e70565b600061051182610ee9565b92915050565b60606000805461052690612105565b80601f016020809104026020016040519081016040528092919081815260200182805461055290612105565b801561059f5780601f106105745761010080835404028352916020019161059f565b820191906000526020600020905b81548152906001019060200180831161058257829003601f168201915b5050505050905090565b60006105b482610f0e565b506000908152600460205260409020546001600160a01b031690565b60006105db82610ad1565b9050806001600160a01b0316836001600160a01b03160361064d5760405162461bcd60e51b815260206004820152602160248201527f4552433732313a20617070726f76616c20746f2063757272656e74206f776e656044820152603960f91b60648201526084015b60405180910390fd5b336001600160a01b0382161480610669575061066981336104c5565b6106db5760405162461bcd60e51b815260206004820152603d60248201527f4552433732313a20617070726f76652063616c6c6572206973206e6f7420746f60448201527f6b656e206f776e6572206f7220617070726f76656420666f7220616c6c0000006064820152608401610644565b6106e58383610f6d565b505050565b6106f43382610fdb565b6107105760405162461bcd60e51b81526004016106449061213f565b6106e583838361105a565b600061072683610b31565b82106107885760405162461bcd60e51b815260206004820152602b60248201527f455243373231456e756d657261626c653a206f776e657220696e646578206f7560448201526a74206f6620626f756e647360a81b6064820152608401610644565b506001600160a01b03919091166000908152600760209081526040808320938352929052205490565b6107b96111cb565b60016000819052600d6020527ffd54ff1ed53f34a900b24c5ba64f85761163b5d82d98a47b9bd80e45466993c6547ffd54ff1ed53f34a900b24c5ba64f85761163b5d82d98a47b9bd80e45466993c5548491116108285760405162461bcd60e51b8152600401610644906121a2565b600d600083600381111561083e5761083e61218c565b600381111561084f5761084f61218c565b815260200190815260200160002060020154816103e861086f91906121e8565b101561088d5760405162461bcd60e51b8152600401610644906121ff565b6000610898600c5490565b90506108a8600c80546001019055565b6108b2868261122b565b6108bc8185611245565b600080516020612496833981519152868260015b604080516001600160a01b03909416845260208401929092529082015260600160405180910390a1505050505050565b6106e583838360405180602001604052806000815250610d0c565b6109236111cb565b60036000819052600d6020527f26b4a10d0f0b04925c23bd4480ee147c916e5e87a7d68206a533dad160ac81e3547f26b4a10d0f0b04925c23bd4480ee147c916e5e87a7d68206a533dad160ac81e2548491116109925760405162461bcd60e51b8152600401610644906121a2565b600d60008360038111156109a8576109a861218c565b60038111156109b9576109b961218c565b815260200190815260200160002060020154816103e86109d991906121e8565b10156109f75760405162461bcd60e51b8152600401610644906121ff565b6000610a02600c5490565b9050610a12600c80546001019055565b610a1c868261122b565b610a268185611245565b600080516020612496833981519152868260036108d0565b6000610a4960095490565b8210610aac5760405162461bcd60e51b815260206004820152602c60248201527f455243373231456e756d657261626c653a20676c6f62616c20696e646578206f60448201526b7574206f6620626f756e647360a01b6064820152608401610644565b60098281548110610abf57610abf612228565b90600052602060002001549050919050565b6000818152600260205260408120546001600160a01b0316806105115760405162461bcd60e51b8152602060048201526018602482015277115490cdcc8c4e881a5b9d985b1a59081d1bdad95b88125160421b6044820152606401610644565b60006001600160a01b038216610b9b5760405162461bcd60e51b815260206004820152602960248201527f4552433732313a2061646472657373207a65726f206973206e6f7420612076616044820152683634b21037bbb732b960b91b6064820152608401610644565b506001600160a01b031660009081526003602052604090205490565b610bbf6111cb565b610bc96000611310565b565b60606001805461052690612105565b610be533838361136a565b5050565b610bf16111cb565b60026000819052600d6020527f10a81eed9d63d16face5e76357905348e6253d3394086026bb2bf2145d7cc24a547f10a81eed9d63d16face5e76357905348e6253d3394086026bb2bf2145d7cc24954849111610c605760405162461bcd60e51b8152600401610644906121a2565b600d6000836003811115610c7657610c7661218c565b6003811115610c8757610c8761218c565b815260200190815260200160002060020154816103e8610ca791906121e8565b1015610cc55760405162461bcd60e51b8152600401610644906121ff565b6000610cd0600c5490565b9050610ce0600c80546001019055565b610cea868261122b565b610cf48185611245565b600080516020612496833981519152868260026108d0565b610d163383610fdb565b610d325760405162461bcd60e51b81526004016106449061213f565b610d3e84848484611438565b50505050565b60606105118261146b565b610d576111cb565b6000808052600d6020527f81955a0a11e65eac625c29e8882660bae4e165a75d72780094acae8ece9a29ef547f81955a0a11e65eac625c29e8882660bae4e165a75d72780094acae8ece9a29ee54849111610dc45760405162461bcd60e51b8152600401610644906121a2565b600d6000836003811115610dda57610dda61218c565b6003811115610deb57610deb61218c565b815260200190815260200160002060020154816103e8610e0b91906121e8565b1015610e295760405162461bcd60e51b8152600401610644906121ff565b6000610e34600c5490565b9050610e44600c80546001019055565b610e4e868261122b565b610e588185611245565b600080516020612496833981519152868260006108d0565b610e786111cb565b6001600160a01b038116610edd5760405162461bcd60e51b815260206004820152602660248201527f4f776e61626c653a206e6577206f776e657220697320746865207a65726f206160448201526564647265737360d01b6064820152608401610644565b610ee681611310565b50565b60006001600160e01b0319821663780e9d6360e01b1480610511575061051182611573565b6000818152600260205260409020546001600160a01b0316610ee65760405162461bcd60e51b8152602060048201526018602482015277115490cdcc8c4e881a5b9d985b1a59081d1bdad95b88125160421b6044820152606401610644565b600081815260046020526040902080546001600160a01b0319166001600160a01b0384169081179091558190610fa282610ad1565b6001600160a01b03167f8c5be1e5ebec7d5bd14f71427d1e84f3dd0314c0f7b2291e5b200ac8c7c3b92560405160405180910390a45050565b600080610fe783610ad1565b9050806001600160a01b0316846001600160a01b0316148061102e57506001600160a01b0380821660009081526005602090815260408083209388168352929052205460ff165b806110525750836001600160a01b0316611047846105a9565b6001600160a01b0316145b949350505050565b826001600160a01b031661106d82610ad1565b6001600160a01b0316146110935760405162461bcd60e51b81526004016106449061223e565b6001600160a01b0382166110f55760405162461bcd60e51b8152602060048201526024808201527f4552433732313a207472616e7366657220746f20746865207a65726f206164646044820152637265737360e01b6064820152608401610644565b6111028383836001611598565b826001600160a01b031661111582610ad1565b6001600160a01b03161461113b5760405162461bcd60e51b81526004016106449061223e565b600081815260046020908152604080832080546001600160a01b03199081169091556001600160a01b0387811680865260038552838620805460001901905590871680865283862080546001019055868652600290945282852080549092168417909155905184937fddf252ad1be2c89b69c2b068fc378daa952ba7f163c4a11628f55a4df523b3ef91a4505050565b600b546001600160a01b03610100909104163314610bc95760405162461bcd60e51b815260206004820181905260248201527f4f776e61626c653a2063616c6c6572206973206e6f7420746865206f776e65726044820152606401610644565b610be58282604051806020016040528060008152506115a4565b6000828152600260205260409020546001600160a01b03166112c05760405162461bcd60e51b815260206004820152602e60248201527f45524337323155524953746f726167653a2055524920736574206f66206e6f6e60448201526d32bc34b9ba32b73a103a37b5b2b760911b6064820152608401610644565b60008281526006602052604090206112d882826122d1565b506040518281527ff8e1a15aba9398e019f0b49df1a4fde98ee17ae345cb5f6b5e2c27f5033e8ce79060200160405180910390a15050565b600b80546001600160a01b03838116610100818102610100600160a81b031985161790945560405193909204169182907f8be0079c531659141344cd1fd0a4f28419497f9722a3daafe3b4186f6b6457e090600090a35050565b816001600160a01b0316836001600160a01b0316036113cb5760405162461bcd60e51b815260206004820152601960248201527f4552433732313a20617070726f766520746f2063616c6c6572000000000000006044820152606401610644565b6001600160a01b03838116600081815260056020908152604080832094871680845294825291829020805460ff191686151590811790915591519182527f17307eab39ab6107e8899845ad3d59bd9653f200f220920489ca2b5937696c31910160405180910390a3505050565b61144384848461105a565b61144f848484846115d7565b610d3e5760405162461bcd60e51b815260040161064490612391565b606061147682610f0e565b6000828152600660205260408120805461148f90612105565b80601f01602080910402602001604051908101604052809291908181526020018280546114bb90612105565b80156115085780601f106114dd57610100808354040283529160200191611508565b820191906000526020600020905b8154815290600101906020018083116114eb57829003601f168201915b50505050509050600061152660408051602081019091526000815290565b90508051600003611538575092915050565b81511561156a5780826040516020016115529291906123e3565b60405160208183030381529060405292505050919050565b611052846116d8565b60006001600160e01b03198216632483248360e11b148061051157506105118261174c565b610d3e8484848461179c565b6115ae838361180f565b6115bb60008484846115d7565b6106e55760405162461bcd60e51b815260040161064490612391565b60006001600160a01b0384163b156116cd57604051630a85bd0160e11b81526001600160a01b0385169063150b7a029061161b903390899088908890600401612412565b6020604051808303816000875af1925050508015611656575060408051601f3d908101601f191682019092526116539181019061244f565b60015b6116b3573d808015611684576040519150601f19603f3d011682016040523d82523d6000602084013e611689565b606091505b5080516000036116ab5760405162461bcd60e51b815260040161064490612391565b805181602001fd5b6001600160e01b031916630a85bd0160e11b149050611052565b506001949350505050565b60606116e382610f0e565b60006116fa60408051602081019091526000815290565b9050600081511161171a5760405180602001604052806000815250611745565b80611724846119a8565b6040516020016117359291906123e3565b6040516020818303038152906040525b9392505050565b60006001600160e01b031982166380ac58cd60e01b148061177d57506001600160e01b03198216635b5e139f60e01b145b8061051157506301ffc9a760e01b6001600160e01b0319831614610511565b6117a884848484611a3b565b600b5460ff1615610d3e5760405162461bcd60e51b815260206004820152602b60248201527f4552433732315061757361626c653a20746f6b656e207472616e73666572207760448201526a1a1a5b19481c185d5cd95960aa1b6064820152608401610644565b6001600160a01b0382166118655760405162461bcd60e51b815260206004820181905260248201527f4552433732313a206d696e7420746f20746865207a65726f20616464726573736044820152606401610644565b6000818152600260205260409020546001600160a01b0316156118ca5760405162461bcd60e51b815260206004820152601c60248201527f4552433732313a20746f6b656e20616c7265616479206d696e746564000000006044820152606401610644565b6118d8600083836001611598565b6000818152600260205260409020546001600160a01b03161561193d5760405162461bcd60e51b815260206004820152601c60248201527f4552433732313a20746f6b656e20616c7265616479206d696e746564000000006044820152606401610644565b6001600160a01b038216600081815260036020908152604080832080546001019055848352600290915280822080546001600160a01b0319168417905551839291907fddf252ad1be2c89b69c2b068fc378daa952ba7f163c4a11628f55a4df523b3ef908290a45050565b606060006119b583611b6f565b600101905060008167ffffffffffffffff8111156119d5576119d5611f08565b6040519080825280601f01601f1916602001820160405280156119ff576020820181803683370190505b5090508181016020015b600019016f181899199a1a9b1b9c1cb0b131b232b360811b600a86061a8153600a8504945084611a0957509392505050565b6001811115611aaa5760405162461bcd60e51b815260206004820152603560248201527f455243373231456e756d657261626c653a20636f6e7365637574697665207472604482015274185b9cd9995c9cc81b9bdd081cdd5c1c1bdc9d1959605a1b6064820152608401610644565b816001600160a01b038516611b0657611b0181600980546000838152600a60205260408120829055600182018355919091527f6e1540171b6c0c960b71a7020d9f60077f6af931a8bbf590da0223dacf75c7af0155565b611b29565b836001600160a01b0316856001600160a01b031614611b2957611b298582611c47565b6001600160a01b038416611b4557611b4081611ce4565b611b68565b846001600160a01b0316846001600160a01b031614611b6857611b688482611d93565b5050505050565b60008072184f03e93ff9f4daa797ed6e38ed64bf6a1f0160401b8310611bae5772184f03e93ff9f4daa797ed6e38ed64bf6a1f0160401b830492506040015b6d04ee2d6d415b85acef81000000008310611bda576d04ee2d6d415b85acef8100000000830492506020015b662386f26fc100008310611bf857662386f26fc10000830492506010015b6305f5e1008310611c10576305f5e100830492506008015b6127108310611c2457612710830492506004015b60648310611c36576064830492506002015b600a83106105115760010192915050565b60006001611c5484610b31565b611c5e919061246c565b600083815260086020526040902054909150808214611cb1576001600160a01b03841660009081526007602090815260408083208584528252808320548484528184208190558352600890915290208190555b5060009182526008602090815260408084208490556001600160a01b039094168352600781528383209183525290812055565b600954600090611cf69060019061246c565b6000838152600a602052604081205460098054939450909284908110611d1e57611d1e612228565b906000526020600020015490508060098381548110611d3f57611d3f612228565b6000918252602080832090910192909255828152600a90915260408082208490558582528120556009805480611d7757611d7761247f565b6001900381819060005260206000200160009055905550505050565b6000611d9e83610b31565b6001600160a01b039093166000908152600760209081526040808320868452825280832085905593825260089052919091209190915550565b6001600160e01b031981168114610ee657600080fd5b600060208284031215611dff57600080fd5b813561174581611dd7565b60005b83811015611e25578181015183820152602001611e0d565b50506000910152565b60008151808452611e46816020860160208601611e0a565b601f01601f19169290920160200192915050565b6020815260006117456020830184611e2e565b600060208284031215611e7f57600080fd5b5035919050565b80356001600160a01b0381168114611e9d57600080fd5b919050565b60008060408385031215611eb557600080fd5b611ebe83611e86565b946020939093013593505050565b600080600060608486031215611ee157600080fd5b611eea84611e86565b9250611ef860208501611e86565b9150604084013590509250925092565b634e487b7160e01b600052604160045260246000fd5b600067ffffffffffffffff80841115611f3957611f39611f08565b604051601f8501601f19908116603f01168101908282118183101715611f6157611f61611f08565b81604052809350858152868686011115611f7a57600080fd5b858560208301376000602087830101525050509392505050565b600080600060608486031215611fa957600080fd5b611fb284611e86565b925060208401359150604084013567ffffffffffffffff811115611fd557600080fd5b8401601f81018613611fe657600080fd5b611ff586823560208401611f1e565b9150509250925092565b60006020828403121561201157600080fd5b61174582611e86565b6000806040838503121561202d57600080fd5b61203683611e86565b91506020830135801515811461204b57600080fd5b809150509250929050565b6000806000806080858703121561206c57600080fd5b61207585611e86565b935061208360208601611e86565b925060408501359150606085013567ffffffffffffffff8111156120a657600080fd5b8501601f810187136120b757600080fd5b6120c687823560208401611f1e565b91505092959194509250565b600080604083850312156120e557600080fd5b6120ee83611e86565b91506120fc60208401611e86565b90509250929050565b600181811c9082168061211957607f821691505b60208210810361213957634e487b7160e01b600052602260045260246000fd5b50919050565b6020808252602d908201527f4552433732313a2063616c6c6572206973206e6f7420746f6b656e206f776e6560408201526c1c881bdc88185c1c1c9bdd9959609a1b606082015260800190565b634e487b7160e01b600052602160045260246000fd5b60208082526016908201527513585e1a5b5d5b481cdd5c1c1b1e481c995858da195960521b604082015260600190565b634e487b7160e01b600052601160045260246000fd5b8082028115828204841417610511576105116121d2565b6020808252600f908201526e139bdd08195b985d59da081c185a59608a1b604082015260600190565b634e487b7160e01b600052603260045260246000fd5b60208082526025908201527f4552433732313a207472616e736665722066726f6d20696e636f72726563742060408201526437bbb732b960d91b606082015260800190565b601f8211156106e557600081815260208120601f850160051c810160208610156122aa5750805b601f850160051c820191505b818110156122c9578281556001016122b6565b505050505050565b815167ffffffffffffffff8111156122eb576122eb611f08565b6122ff816122f98454612105565b84612283565b602080601f831160018114612334576000841561231c5750858301515b600019600386901b1c1916600185901b1785556122c9565b600085815260208120601f198616915b8281101561236357888601518255948401946001909101908401612344565b50858210156123815787850151600019600388901b60f8161c191681555b5050505050600190811b01905550565b60208082526032908201527f4552433732313a207472616e7366657220746f206e6f6e20455243373231526560408201527131b2b4bb32b91034b6b83632b6b2b73a32b960711b606082015260800190565b600083516123f5818460208801611e0a565b835190830190612409818360208801611e0a565b01949350505050565b6001600160a01b038581168252841660208201526040810183905260806060820181905260009061244590830184611e2e565b9695505050505050565b60006020828403121561246157600080fd5b815161174581611dd7565b81810381811115610511576105116121d2565b634e487b7160e01b600052603160045260246000fdfec410f6ec4eba9d4398c3a8e2a8b796ffce6ad710adc2748f752eeefd45fa8022a2646970667358221220e90772f9c8ecf72c859cd842c2314012d678b527d8261317b6e7f2e303bf1a5b64736f6c63430008110033a2646970667358221220dc80a06d76aaaf806512520b72e0dcee6a1b5092b65ce2bebe76937a83f5f5b164736f6c63430008110033",
  "linkReferences": {},
  "deployedLinkReferences": {}
}