{
  "_format": "hh-sol-artifact-1",
  "contractName": "FundsFactory",
  "sourceName": "contracts/FundsFactory.sol",
  "abi": [
    {
      "inputs": [
        {
          "internalType": "address",
          "name": "_dao",
          "type": "address"
        }
      ],
      "stateMutability": "nonpayable",
      "type": "constructor"
    },
    {
      "anonymous": false,
      "inputs": [
        {
          "indexed": false,
          "internalType": "uint256",
          "name": "requestId",
          "type": "uint256"
        },
        {
          "indexed": false,
          "internalType": "address",
          "name": "reasearcher",
          "type": "address"
        }
      ],
      "name": "FundsRequestClosed",
      "type": "event"
    },
    {
      "anonymous": false,
      "inputs": [
        {
          "indexed": false,
          "internalType": "uint256",
          "name": "requestId",
          "type": "uint256"
        },
        {
          "indexed": false,
          "internalType": "address",
          "name": "reasearcher",
          "type": "address"
        }
      ],
      "name": "FundsRequestCreated",
      "type": "event"
    },
    {
      "anonymous": false,
      "inputs": [
        {
          "indexed": true,
          "internalType": "address",
          "name": "previousOwner",
          "type": "address"
        },
        {
          "indexed": true,
          "internalType": "address",
          "name": "newOwner",
          "type": "address"
        }
      ],
      "name": "OwnershipTransferred",
      "type": "event"
    },
    {
      "anonymous": false,
      "inputs": [
        {
          "indexed": false,
          "internalType": "uint256",
          "name": "projectId",
          "type": "uint256"
        },
        {
          "indexed": false,
          "internalType": "address",
          "name": "reasearcher",
          "type": "address"
        }
      ],
      "name": "ResearchProjectCreated",
      "type": "event"
    },
    {
      "anonymous": false,
      "inputs": [
        {
          "indexed": false,
          "internalType": "uint256",
          "name": "projectId",
          "type": "uint256"
        }
      ],
      "name": "ResearchProjectValidated",
      "type": "event"
    },
    {
      "anonymous": false,
      "inputs": [
        {
          "indexed": false,
          "internalType": "address",
          "name": "addr",
          "type": "address"
        },
        {
          "indexed": false,
          "internalType": "string",
          "name": "lastname",
          "type": "string"
        },
        {
          "indexed": false,
          "internalType": "string",
          "name": "forname",
          "type": "string"
        },
        {
          "indexed": false,
          "internalType": "string",
          "name": "company",
          "type": "string"
        }
      ],
      "name": "ResearcherAdded",
      "type": "event"
    },
    {
      "anonymous": false,
      "inputs": [
        {
          "indexed": false,
          "internalType": "address",
          "name": "investor",
          "type": "address"
        },
        {
          "indexed": false,
          "internalType": "uint256",
          "name": "projectId",
          "type": "uint256"
        },
        {
          "indexed": false,
          "internalType": "uint256",
          "name": "requestId",
          "type": "uint256"
        },
        {
          "indexed": false,
          "internalType": "bool",
          "name": "vote",
          "type": "bool"
        }
      ],
      "name": "VoteAdded",
      "type": "event"
    },
    {
      "stateMutability": "payable",
      "type": "fallback"
    },
    {
      "inputs": [
        {
          "internalType": "string",
          "name": "title",
          "type": "string"
        },
        {
          "internalType": "string",
          "name": "description",
          "type": "string"
        },
        {
          "internalType": "string",
          "name": "imageUrl",
          "type": "string"
        },
        {
          "internalType": "uint256",
          "name": "amountAsked",
          "type": "uint256"
        },
        {
          "internalType": "string",
          "name": "projectDetailsUri",
          "type": "string"
        }
      ],
      "name": "addResearchProject",
      "outputs": [],
      "stateMutability": "nonpayable",
      "type": "function"
    },
    {
      "inputs": [
        {
          "internalType": "address",
          "name": "addr",
          "type": "address"
        },
        {
          "internalType": "string",
          "name": "lastname",
          "type": "string"
        },
        {
          "internalType": "string",
          "name": "forname",
          "type": "string"
        },
        {
          "internalType": "string",
          "name": "company",
          "type": "string"
        }
      ],
      "name": "addResearcher",
      "outputs": [],
      "stateMutability": "nonpayable",
      "type": "function"
    },
    {
      "inputs": [
        {
          "internalType": "uint256",
          "name": "requestId",
          "type": "uint256"
        },
        {
          "internalType": "bool",
          "name": "vote",
          "type": "bool"
        }
      ],
      "name": "addVote",
      "outputs": [],
      "stateMutability": "nonpayable",
      "type": "function"
    },
    {
      "inputs": [
        {
          "internalType": "uint256",
          "name": "projectId",
          "type": "uint256"
        },
        {
          "internalType": "uint256",
          "name": "typeNFT",
          "type": "uint256"
        }
      ],
      "name": "buyNFT",
      "outputs": [],
      "stateMutability": "payable",
      "type": "function"
    },
    {
      "inputs": [
        {
          "internalType": "address",
          "name": "addr",
          "type": "address"
        },
        {
          "internalType": "bool",
          "name": "status",
          "type": "bool"
        }
      ],
      "name": "changeResearcherStatus",
      "outputs": [],
      "stateMutability": "nonpayable",
      "type": "function"
    },
    {
      "inputs": [
        {
          "internalType": "uint256",
          "name": "requestId",
          "type": "uint256"
        }
      ],
      "name": "claimFunds",
      "outputs": [],
      "stateMutability": "nonpayable",
      "type": "function"
    },
    {
      "inputs": [
        {
          "internalType": "uint256",
          "name": "requestId",
          "type": "uint256"
        }
      ],
      "name": "closeFundRequest",
      "outputs": [],
      "stateMutability": "nonpayable",
      "type": "function"
    },
    {
      "inputs": [
        {
          "internalType": "uint256",
          "name": "id",
          "type": "uint256"
        },
        {
          "internalType": "uint256",
          "name": "amount",
          "type": "uint256"
        },
        {
          "internalType": "string",
          "name": "description",
          "type": "string"
        }
      ],
      "name": "createFundsRequest",
      "outputs": [],
      "stateMutability": "nonpayable",
      "type": "function"
    },
    {
      "inputs": [
        {
          "internalType": "uint256",
          "name": "fundRequestId",
          "type": "uint256"
        }
      ],
      "name": "getFundsRequestDetails",
      "outputs": [
        {
          "internalType": "uint256",
          "name": "",
          "type": "uint256"
        },
        {
          "internalType": "uint256",
          "name": "",
          "type": "uint256"
        },
        {
          "internalType": "string",
          "name": "",
          "type": "string"
        },
        {
          "internalType": "uint256",
          "name": "",
          "type": "uint256"
        },
        {
          "internalType": "bool",
          "name": "",
          "type": "bool"
        },
        {
          "internalType": "uint256",
          "name": "",
          "type": "uint256"
        }
      ],
      "stateMutability": "view",
      "type": "function"
    },
    {
      "inputs": [
        {
          "internalType": "uint256",
          "name": "id",
          "type": "uint256"
        }
      ],
      "name": "getNFT_Prices",
      "outputs": [
        {
          "internalType": "uint256",
          "name": "",
          "type": "uint256"
        },
        {
          "internalType": "uint256",
          "name": "",
          "type": "uint256"
        },
        {
          "internalType": "uint256",
          "name": "",
          "type": "uint256"
        },
        {
          "internalType": "uint256",
          "name": "",
          "type": "uint256"
        }
      ],
      "stateMutability": "view",
      "type": "function"
    },
    {
      "inputs": [
        {
          "internalType": "uint256",
          "name": "id",
          "type": "uint256"
        }
      ],
      "name": "getNumberNFTMinted",
      "outputs": [
        {
          "internalType": "uint256",
          "name": "",
          "type": "uint256"
        },
        {
          "internalType": "uint256",
          "name": "",
          "type": "uint256"
        },
        {
          "internalType": "uint256",
          "name": "",
          "type": "uint256"
        },
        {
          "internalType": "uint256",
          "name": "",
          "type": "uint256"
        }
      ],
      "stateMutability": "view",
      "type": "function"
    },
    {
      "inputs": [
        {
          "internalType": "uint256",
          "name": "id",
          "type": "uint256"
        }
      ],
      "name": "getResearchProject",
      "outputs": [
        {
          "components": [
            {
              "internalType": "uint256",
              "name": "id",
              "type": "uint256"
            },
            {
              "internalType": "uint256",
              "name": "creationTime",
              "type": "uint256"
            },
            {
              "internalType": "uint256",
              "name": "amountAsked",
              "type": "uint256"
            },
            {
              "internalType": "string",
              "name": "title",
              "type": "string"
            },
            {
              "internalType": "string",
              "name": "description",
              "type": "string"
            },
            {
              "internalType": "string",
              "name": "imageUrl",
              "type": "string"
            },
            {
              "internalType": "string",
              "name": "projectDetailsUri",
              "type": "string"
            },
            {
              "internalType": "address",
              "name": "researcher",
              "type": "address"
            },
            {
              "internalType": "contract FundNFT",
              "name": "fundNFT",
              "type": "address"
            },
            {
              "internalType": "enum FundsFactory.ResearchProjectStatus",
              "name": "status",
              "type": "uint8"
            },
            {
              "internalType": "uint256[]",
              "name": "fundRequestListsIds",
              "type": "uint256[]"
            },
            {
              "internalType": "bool",
              "name": "isAccepted",
              "type": "bool"
            }
          ],
          "internalType": "struct FundsFactory.ResearchProject",
          "name": "",
          "type": "tuple"
        }
      ],
      "stateMutability": "view",
      "type": "function"
    },
    {
      "inputs": [
        {
          "internalType": "address",
          "name": "addr",
          "type": "address"
        }
      ],
      "name": "getResearcher",
      "outputs": [
        {
          "components": [
            {
              "internalType": "string",
              "name": "lastname",
              "type": "string"
            },
            {
              "internalType": "string",
              "name": "forname",
              "type": "string"
            },
            {
              "internalType": "string",
              "name": "company",
              "type": "string"
            },
            {
              "internalType": "address",
              "name": "addr",
              "type": "address"
            },
            {
              "internalType": "bool",
              "name": "exist",
              "type": "bool"
            },
            {
              "internalType": "bool",
              "name": "isValidated",
              "type": "bool"
            },
            {
              "internalType": "uint256[]",
              "name": "projectListIds",
              "type": "uint256[]"
            }
          ],
          "internalType": "struct FundsFactory.Researcher",
          "name": "",
          "type": "tuple"
        }
      ],
      "stateMutability": "view",
      "type": "function"
    },
    {
      "inputs": [
        {
          "internalType": "uint256",
          "name": "requestId",
          "type": "uint256"
        }
      ],
      "name": "getVoteResult",
      "outputs": [
        {
          "internalType": "bool",
          "name": "",
          "type": "bool"
        },
        {
          "internalType": "uint256",
          "name": "",
          "type": "uint256"
        },
        {
          "internalType": "uint256",
          "name": "",
          "type": "uint256"
        },
        {
          "internalType": "uint256",
          "name": "",
          "type": "uint256"
        }
      ],
      "stateMutability": "view",
      "type": "function"
    },
    {
      "inputs": [],
      "name": "owner",
      "outputs": [
        {
          "internalType": "address",
          "name": "",
          "type": "address"
        }
      ],
      "stateMutability": "view",
      "type": "function"
    },
    {
      "inputs": [],
      "name": "renounceOwnership",
      "outputs": [],
      "stateMutability": "nonpayable",
      "type": "function"
    },
    {
      "inputs": [
        {
          "internalType": "address",
          "name": "newOwner",
          "type": "address"
        }
      ],
      "name": "transferOwnership",
      "outputs": [],
      "stateMutability": "nonpayable",
      "type": "function"
    },
    {
      "inputs": [
        {
          "internalType": "uint256",
          "name": "id",
          "type": "uint256"
        }
      ],
      "name": "validResearchProject",
      "outputs": [],
      "stateMutability": "nonpayable",
      "type": "function"
    },
    {
      "stateMutability": "payable",
      "type": "receive"
    }
  ],
  "bytecode": "0x60806040523480156200001157600080fd5b506040516200c23d3803806200c23d833981810160405281019062000037919062000210565b620000576200004b620000d760201b60201c565b620000df60201b60201c565b6200007367b145c5f1e5c7499760c01b620001a360201b60201c565b6200008f67eda2a7cafb360e2e60c01b620001a360201b60201c565b80600360006101000a81548173ffffffffffffffffffffffffffffffffffffffff021916908373ffffffffffffffffffffffffffffffffffffffff1602179055505062000242565b600033905090565b60008060009054906101000a900473ffffffffffffffffffffffffffffffffffffffff169050816000806101000a81548173ffffffffffffffffffffffffffffffffffffffff021916908373ffffffffffffffffffffffffffffffffffffffff1602179055508173ffffffffffffffffffffffffffffffffffffffff168173ffffffffffffffffffffffffffffffffffffffff167f8be0079c531659141344cd1fd0a4f28419497f9722a3daafe3b4186f6b6457e060405160405180910390a35050565b50565b600080fd5b600073ffffffffffffffffffffffffffffffffffffffff82169050919050565b6000620001d882620001ab565b9050919050565b620001ea81620001cb565b8114620001f657600080fd5b50565b6000815190506200020a81620001df565b92915050565b600060208284031215620002295762000228620001a6565b5b60006200023984828501620001f9565b91505092915050565b61bfeb80620002526000396000f3fe608060405260043610620001275760003560e01c8063aaccd72611620000a3578063de946f0a116200006d578063de946f0a14620003c7578063e7eba4c2146200040e578063f2fde38b1462000452578063f8cd0cd81462000480578063ff417db914620004ae576200012f565b8063aaccd72614620002f6578063bfa0fc931462000324578063c089cd79146200036b578063cc986fcc1462000399576200012f565b8063439e8a2311620000f1578063439e8a231462000222578063627c2a5d1462000250578063715018a6146200027e5780637ac14a7014620002985780638da5cb5b14620002c6576200012f565b80631b55e33814620001475780631d85bf03146200017557806325e20479146200019557806335aaf9f514620001de576200012f565b366200012f57005b6200014567b0712bec1635ce1960c01b620004f5565b005b3480156200015457600080fd5b506200017360048036038101906200016d9190620042c5565b620004f8565b005b6200019360048036038101906200018d9190620042f7565b620009a6565b005b348015620001a257600080fd5b50620001c16004803603810190620001bb9190620042c5565b62000e91565b604051620001d59695949392919062004406565b60405180910390f35b348015620001eb57600080fd5b506200020a6004803603810190620002049190620042c5565b62001037565b60405162000219919062004813565b60405180910390f35b3480156200022f57600080fd5b506200024e600480360381019062000248919062004988565b62001545565b005b3480156200025d57600080fd5b506200027c600480360381019062000276919062004b26565b62001d6e565b005b3480156200028b57600080fd5b50620002966200220b565b005b348015620002a557600080fd5b50620002c46004803603810190620002be9190620042c5565b62002223565b005b348015620002d357600080fd5b50620002de62002341565b604051620002ed919062004c14565b60405180910390f35b3480156200030357600080fd5b506200032260048036038101906200031c9190620042c5565b6200236a565b005b3480156200033157600080fd5b506200035060048036038101906200034a9190620042c5565b62002694565b60405162000362949392919062004c31565b60405180910390f35b3480156200037857600080fd5b5062000397600480360381019062000391919062004caf565b6200278c565b005b348015620003a657600080fd5b50620003c56004803603810190620003bf919062004cf6565b62002b14565b005b348015620003d457600080fd5b50620003f36004803603810190620003ed9190620042c5565b62002bd4565b60405162000405949392919062004d3d565b60405180910390f35b3480156200041b57600080fd5b506200043a600480360381019062000434919062004d8a565b62002d17565b60405162000449919062004e7b565b60405180910390f35b3480156200045f57600080fd5b506200047e600480360381019062000478919062004d8a565b62003209565b005b3480156200048d57600080fd5b50620004ac6004803603810190620004a6919062004e9f565b62003293565b005b348015620004bb57600080fd5b50620004da6004803603810190620004d49190620042c5565b62003aea565b604051620004ec949392919062004d3d565b60405180910390f35b50565b6200050e670ef3a8aa6262984d60c01b620004f5565b6200052467be886b581ba703f060c01b620004f5565b6200053a67869598512bbfe64e60c01b620004f5565b6000600360009054906101000a900473ffffffffffffffffffffffffffffffffffffffff1673ffffffffffffffffffffffffffffffffffffffff166388fcc75d836040518263ffffffff1660e01b815260040162000599919062004f1a565b600060405180830381865afa158015620005b7573d6000803e3d6000fd5b505050506040513d6000823e3d601f19601f82011682018060405250810190620005e2919062004fe3565b50505050509050620005ff673780703d5ba6276960c01b620004f5565b6200061567a828364222ceff2260c01b620004f5565b6200062b6746df68b0846a56f160c01b620004f5565b3373ffffffffffffffffffffffffffffffffffffffff16600282815481106200065957620006586200509e565b5b90600052602060002090600b020160070160009054906101000a900473ffffffffffffffffffffffffffffffffffffffff1673ffffffffffffffffffffffffffffffffffffffff1614620006e4576040517f08c379a0000000000000000000000000000000000000000000000000000000008152600401620006db906200511d565b60405180910390fd5b620006fa67147820f3d2e6b04d60c01b620004f5565b6200071067972e17574a21cea860c01b620004f5565b62000726672bd9be5b5583e46660c01b620004f5565b6000600360009054906101000a900473ffffffffffffffffffffffffffffffffffffffff1673ffffffffffffffffffffffffffffffffffffffff1663ccb75eb3846040518263ffffffff1660e01b815260040162000785919062004f1a565b602060405180830381865afa158015620007a3573d6000803e3d6000fd5b505050506040513d601f19601f82011682018060405250810190620007c991906200513f565b9050620007e1679b1b7fd1b3706ac660c01b620004f5565b620007f767b967a55d765804ba60c01b620004f5565b6200080d678052e840f05e5ec760c01b620004f5565b4781111562000853576040517f08c379a00000000000000000000000000000000000000000000000000000000081526004016200084a90620051c1565b60405180910390fd5b6200086967c73b664156d59c6860c01b620004f5565b6200087f67225e4f8c05f16e7d60c01b620004f5565b6200089567c2c6e45eadfc247260c01b620004f5565b60003373ffffffffffffffffffffffffffffffffffffffff1682604051620008bd9062005218565b60006040518083038185875af1925050503d8060008114620008fc576040519150601f19603f3d011682016040523d82523d6000602084013e62000901565b606091505b505090506200091b67139a1093cac818c260c01b620004f5565b6200093167498d54cf85cfc1ef60c01b620004f5565b62000947679e5ec8faee08d61d60c01b620004f5565b806200098a576040517f08c379a000000000000000000000000000000000000000000000000000000000815260040162000981906200527f565b60405180910390fd5b620009a067d8d104875ae7e1ea60c01b620004f5565b50505050565b620009bc676b7607e19b13df7960c01b620004f5565b81620009d3674b6f2ceba5bb238960c01b620004f5565b620009e9672b173176ebd4086c60c01b620004f5565b620009ff6751fdcf272e5c6a4060c01b620004f5565b62000a1567f95de4dcfec2a03c60c01b620004f5565b6001600281111562000a2c5762000a2b6200458d565b5b6002828154811062000a435762000a426200509e565b5b90600052602060002090600b020160080160149054906101000a900460ff16600281111562000a775762000a766200458d565b5b1462000aba576040517f08c379a000000000000000000000000000000000000000000000000000000000815260040162000ab190620052f1565b60405180910390fd5b62000ad0676ac6bf67a149afe460c01b620004f5565b62000ae66745e1bbd1152a90bd60c01b620004f5565b62000afc676fc5efe3de21516760c01b620004f5565b62000b126782442223d18db01c60c01b620004f5565b62000b2867cb52d0f7d2976fb260c01b620004f5565b62000b3e6702c78811b2e0337760c01b620004f5565b62000b5467185c08f396e9d9f760c01b620004f5565b6004821062000b9a576040517f08c379a000000000000000000000000000000000000000000000000000000000815260040162000b919062005363565b60405180910390fd5b62000bb06707e5228678447c6360c01b620004f5565b62000bc667b0576c55a5c5f3b160c01b620004f5565b62000bdc6738bc86cb0d63f28a60c01b620004f5565b60006002848154811062000bf55762000bf46200509e565b5b90600052602060002090600b020160080160009054906101000a900473ffffffffffffffffffffffffffffffffffffffff16905062000c3f6701ed865833c61e0f60c01b620004f5565b62000c5567223231418e2a3c4d60c01b620004f5565b8073ffffffffffffffffffffffffffffffffffffffff16631507e96d33346002888154811062000c8a5762000c896200509e565b5b90600052602060002090600b02016003016002898154811062000cb25762000cb16200509e565b5b90600052602060002090600b0201600501886040518663ffffffff1660e01b815260040162000ce69594939291906200548e565b600060405180830381600087803b15801562000d0157600080fd5b505af115801562000d16573d6000803e3d6000fd5b5050505062000d3067e294e794f6b7faab60c01b620004f5565b62000d4667e6ea51a71d42e39660c01b620004f5565b60008173ffffffffffffffffffffffffffffffffffffffff1663d851fdfd856040518263ffffffff1660e01b815260040162000d83919062004f1a565b602060405180830381865afa15801562000da1573d6000803e3d6000fd5b505050506040513d601f19601f8201168201806040525081019062000dc791906200513f565b905062000ddf67c2c8073abadee3c760c01b620004f5565b62000df567393e4d08e16f453b60c01b620004f5565b600360009054906101000a900473ffffffffffffffffffffffffffffffffffffffff1673ffffffffffffffffffffffffffffffffffffffff16637b64e8898633846040518463ffffffff1660e01b815260040162000e5693929190620054f9565b600060405180830381600087803b15801562000e7157600080fd5b505af115801562000e86573d6000803e3d6000fd5b505050505050505050565b6000806060600080600062000eb1677ea3d2f7ae12521460c01b620004f5565b62000ec7673d34f9af9b7b9f2960c01b620004f5565b62000edd67b3857dd74ab4fa8260c01b620004f5565b62000ef367422c0ce862c2304660c01b620004f5565b600454871062000f3a576040517f08c379a000000000000000000000000000000000000000000000000000000000815260040162000f319062005586565b60405180910390fd5b62000f506746a49c9e25a08acd60c01b620004f5565b62000f6667e6c5b2c2b7f35e7160c01b620004f5565b62000f7c6706aa77dd0c281f7f60c01b620004f5565b600360009054906101000a900473ffffffffffffffffffffffffffffffffffffffff1673ffffffffffffffffffffffffffffffffffffffff166388fcc75d886040518263ffffffff1660e01b815260040162000fd9919062004f1a565b600060405180830381865afa15801562000ff7573d6000803e3d6000fd5b505050506040513d6000823e3d601f19601f8201168201806040525081019062001022919062004fe3565b95509550955095509550955091939550919395565b62001041620040fc565b6200105767278e4c36c4d8863b60c01b620004f5565b6200106d67d12bd5b136223c6960c01b620004f5565b620010836708bc49608828f32560c01b620004f5565b6200109967f37e029f0027bb0c60c01b620004f5565b6002805490508210620010e3576040517f08c379a0000000000000000000000000000000000000000000000000000000008152600401620010da90620055f8565b60405180910390fd5b620010f9672dc041e09177276860c01b620004f5565b6200110f67142fa7696b956c5260c01b620004f5565b62001125678df18e30f0a7d6bd60c01b620004f5565b600282815481106200113c576200113b6200509e565b5b90600052602060002090600b0201604051806101800160405290816000820154815260200160018201548152602001600282015481526020016003820180546200118690620053b4565b80601f0160208091040260200160405190810160405280929190818152602001828054620011b490620053b4565b8015620012055780601f10620011d95761010080835404028352916020019162001205565b820191906000526020600020905b815481529060010190602001808311620011e757829003601f168201915b505050505081526020016004820180546200122090620053b4565b80601f01602080910402602001604051908101604052809291908181526020018280546200124e90620053b4565b80156200129f5780601f1062001273576101008083540402835291602001916200129f565b820191906000526020600020905b8154815290600101906020018083116200128157829003601f168201915b50505050508152602001600582018054620012ba90620053b4565b80601f0160208091040260200160405190810160405280929190818152602001828054620012e890620053b4565b8015620013395780601f106200130d5761010080835404028352916020019162001339565b820191906000526020600020905b8154815290600101906020018083116200131b57829003601f168201915b505050505081526020016006820180546200135490620053b4565b80601f01602080910402602001604051908101604052809291908181526020018280546200138290620053b4565b8015620013d35780601f10620013a757610100808354040283529160200191620013d3565b820191906000526020600020905b815481529060010190602001808311620013b557829003601f168201915b505050505081526020016007820160009054906101000a900473ffffffffffffffffffffffffffffffffffffffff1673ffffffffffffffffffffffffffffffffffffffff1673ffffffffffffffffffffffffffffffffffffffff1681526020016008820160009054906101000a900473ffffffffffffffffffffffffffffffffffffffff1673ffffffffffffffffffffffffffffffffffffffff1673ffffffffffffffffffffffffffffffffffffffff1681526020016008820160149054906101000a900460ff166002811115620014b057620014af6200458d565b5b6002811115620014c557620014c46200458d565b5b8152602001600982018054806020026020016040519081016040528092919081815260200182805480156200151a57602002820191906000526020600020905b81548152602001906001019080831162001505575b50505050508152602001600a820160009054906101000a900460ff1615151515815250509050919050565b6200155b678ed185bec4b3227f60c01b620004f5565b6200157167a95d88275364b6f960c01b620004f5565b62001587675f0d99c8dc28539d60c01b620004f5565b6200159d671e05c8adbc881a0060c01b620004f5565b620015b36753074e1bb9b1a56460c01b620004f5565b600160003373ffffffffffffffffffffffffffffffffffffffff1673ffffffffffffffffffffffffffffffffffffffff16815260200190815260200160002060030160159054906101000a900460ff1662001645576040517f08c379a00000000000000000000000000000000000000000000000000000000081526004016200163c906200566a565b60405180910390fd5b6200165b67a9d6ff2252e1e24b60c01b620004f5565b62001671676bb009add3e7e4f860c01b620004f5565b6200168767dac78622253927f760c01b620004f5565b6200169d67932c8d6c4522fe9760c01b620004f5565b620016b367d8c998eab1d8ed3960c01b620004f5565b620016c967b7107957f8c73d6e60c01b620004f5565b620016df67371e40f514ba361760c01b620004f5565b6000820362001725576040517f08c379a00000000000000000000000000000000000000000000000000000000081526004016200171c90620056dc565b60405180910390fd5b6200173b6727f90f553a03d95860c01b620004f5565b620017516769121b30d8cac10660c01b620004f5565b620017676718578e0eb0870b3a60c01b620004f5565b6200177d6798d4b2419319be0960c01b620004f5565b6040516020016200178e9062005725565b6040516020818303038152906040528051906020012081604051602001620017b7919062005747565b604051602081830303815290604052805190602001200362001810576040517f08c379a00000000000000000000000000000000000000000000000000000000081526004016200180790620057bb565b60405180910390fd5b620018266766a065fe9ac3e77b60c01b620004f5565b6200183c6751f0126b74fcc28c60c01b620004f5565b6200185267d7164cc46080135760c01b620004f5565b6200185c620040fc565b62001872676ce9d9178a8e44bf60c01b620004f5565b60028054905081600001818152505062001897679b23023a347ac7b860c01b620004f5565b858160600181905250620018b6673eb18a2ac87d6d8e60c01b620004f5565b848160800181905250620018d5675a93512448e2368e60c01b620004f5565b838160a00181905250620018f467c54874cb5be9dacc60c01b620004f5565b4281602001818152505062001914676cd5df177742d7d160c01b620004f5565b338160e0019073ffffffffffffffffffffffffffffffffffffffff16908173ffffffffffffffffffffffffffffffffffffffff16815250506200196267fec4804e61ab189660c01b620004f5565b8281604001818152505062001982675cd409e84b635f5360c01b620004f5565b818160c00181905250620019a167e99136b2e4a884dc60c01b620004f5565b620019b76767f9e7650512a8dd60c01b620004f5565b60028190806001815401808255809150506001900390600052602060002090600b0201600090919091909150600082015181600001556020820151816001015560408201518160020155606082015181600301908162001a18919062005990565b50608082015181600401908162001a30919062005990565b5060a082015181600501908162001a48919062005990565b5060c082015181600601908162001a60919062005990565b5060e08201518160070160006101000a81548173ffffffffffffffffffffffffffffffffffffffff021916908373ffffffffffffffffffffffffffffffffffffffff1602179055506101008201518160080160006101000a81548173ffffffffffffffffffffffffffffffffffffffff021916908373ffffffffffffffffffffffffffffffffffffffff1602179055506101208201518160080160146101000a81548160ff0219169083600281111562001b1f5762001b1e6200458d565b5b021790555061014082015181600901908051906020019062001b43929190620041a0565b5061016082015181600a0160006101000a81548160ff021916908315150217905550505062001b7d6784f635fc2b00a05560c01b620004f5565b62001b93670b0bc628e04d905860c01b620004f5565b600160003373ffffffffffffffffffffffffffffffffffffffff1673ffffffffffffffffffffffffffffffffffffffff168152602001908152602001600020600401600160028054905062001be9919062005aa6565b908060018154018082558091505060019003906000526020600020016000909190919091505562001c2567e30039761752950460c01b620004f5565b62001c3b672e69e15258402fbd60c01b620004f5565b600062001c5b600160028054905062001c55919062005aa6565b62003c2d565b905062001c7367d97c3192f83ba03560c01b620004f5565b62001c896782c5a43117ad12c360c01b620004f5565b62001ceb600160028054905062001ca1919062005aa6565b8260405160200162001cb4919062005b49565b6040516020818303038152906040528360405160200162001cd6919062005b99565b60405160208183030381529060405262003d06565b62001d0167f583249a24d3543460c01b620004f5565b62001d176791b05f6cd37f7d0160c01b620004f5565b7f4c81382e52262a9cb7b48b06b6f04c7d902e3518fa3ddc8ccb8b0e8791a7e358600160028054905062001d4c919062005aa6565b3360405162001d5d92919062005bc3565b60405180910390a150505050505050565b62001d8467d6df4cf33ab9329360c01b620004f5565b62001d9a67131ec7328a8766df60c01b620004f5565b62001db067b42481aeab925bfe60c01b620004f5565b62001dc667fc82b48bd28f452960c01b620004f5565b60001515600160008973ffffffffffffffffffffffffffffffffffffffff1673ffffffffffffffffffffffffffffffffffffffff16815260200190815260200160002060030160149054906101000a900460ff1615151462001e5f576040517f08c379a000000000000000000000000000000000000000000000000000000000815260040162001e569062005c40565b60405180910390fd5b62001e7567f7bf0779490e027660c01b620004f5565b62001e8b6746b8ea2f7d4cebd460c01b620004f5565b62001ea1674a364ba828738ca860c01b620004f5565b62001eab620041f2565b62001ec167f30232cae8bde16b60c01b620004f5565b86868080601f016020809104026020016040519081016040528093929190818152602001838380828437600081840152601f19601f82011690508083019250505050505050816000018190525062001f24671ec9e1979c3ef1d260c01b620004f5565b84848080601f016020809104026020016040519081016040528093929190818152602001838380828437600081840152601f19601f82011690508083019250505050505050816020018190525062001f87671f73ea21ed3cebcb60c01b620004f5565b82828080601f016020809104026020016040519081016040528093929190818152602001838380828437600081840152601f19601f82011690508083019250505050505050816040018190525062001fea6765647b8277e6887f60c01b620004f5565b87816060019073ffffffffffffffffffffffffffffffffffffffff16908173ffffffffffffffffffffffffffffffffffffffff16815250506200203867b1132d25adad7de460c01b620004f5565b60018160800190151590811515815250506200205f67f926dd931d345c2e60c01b620004f5565b80600160008a73ffffffffffffffffffffffffffffffffffffffff1673ffffffffffffffffffffffffffffffffffffffff1681526020019081526020016000206000820151816000019081620020b6919062005990565b506020820151816001019081620020ce919062005990565b506040820151816002019081620020e6919062005990565b5060608201518160030160006101000a81548173ffffffffffffffffffffffffffffffffffffffff021916908373ffffffffffffffffffffffffffffffffffffffff16021790555060808201518160030160146101000a81548160ff02191690831515021790555060a08201518160030160156101000a81548160ff02191690831515021790555060c08201518160040190805190602001906200218c929190620041a0565b50905050620021a667131f834f869c201660c01b620004f5565b620021bc675aff97dcdb26a45a60c01b620004f5565b7f274da1e600baf54d201c4cf2758f1d65eb4ea397bc6e595da1df2d572d8af7ee88888888888888604051620021f9979695949392919062005c95565b60405180910390a15050505050505050565b6200221562003e34565b62002221600062003eb9565b565b620022396704bae9dd3c3e553e60c01b620004f5565b6200224362003e34565b6200225967ffc1f99326e6ec6560c01b620004f5565b6200226f679bdee734a2a2e54b60c01b620004f5565b62002285673497c88e4a59ce5060c01b620004f5565b6001600282815481106200229e576200229d6200509e565b5b90600052602060002090600b020160080160146101000a81548160ff02191690836002811115620022d457620022d36200458d565b5b0217905550620022ef67f29bfbe29931a73560c01b620004f5565b62002305679b646326db0530ee60c01b620004f5565b7f912883fd6daad43ad71699b8e13899bcdfdc8be63801d13a330404473865c0138160405162002336919062004f1a565b60405180910390a150565b60008060009054906101000a900473ffffffffffffffffffffffffffffffffffffffff16905090565b620023806707f114878b7ff8e960c01b620004f5565b62002396679108225a33a9733760c01b620004f5565b620023ac6702c40d594d583ac660c01b620004f5565b6000600360009054906101000a900473ffffffffffffffffffffffffffffffffffffffff1673ffffffffffffffffffffffffffffffffffffffff166388fcc75d836040518263ffffffff1660e01b81526004016200240b919062004f1a565b600060405180830381865afa15801562002429573d6000803e3d6000fd5b505050506040513d6000823e3d601f19601f8201168201806040525081019062002454919062004fe3565b5050505050905062002471677e4c74d9f7c0840f60c01b620004f5565b6200248767aa2caacb3d41f1b560c01b620004f5565b6200249d67b3042624ea4b00a760c01b620004f5565b3373ffffffffffffffffffffffffffffffffffffffff1660028281548110620024cb57620024ca6200509e565b5b90600052602060002090600b020160070160009054906101000a900473ffffffffffffffffffffffffffffffffffffffff1673ffffffffffffffffffffffffffffffffffffffff161462002556576040517f08c379a00000000000000000000000000000000000000000000000000000000081526004016200254d906200511d565b60405180910390fd5b6200256c6722d32fc89b7872f660c01b620004f5565b62002582670b8aee5b16da252860c01b620004f5565b6200259867662bd6912de0e08c60c01b620004f5565b600360009054906101000a900473ffffffffffffffffffffffffffffffffffffffff1673ffffffffffffffffffffffffffffffffffffffff1663aaccd726836040518263ffffffff1660e01b8152600401620025f5919062004f1a565b600060405180830381600087803b1580156200261057600080fd5b505af115801562002625573d6000803e3d6000fd5b505050506200263f67ab90e717bef5726760c01b620004f5565b62002655670a111847a0ff95d660c01b620004f5565b7ff760a1a147b8802f4e55b5e17a77439f740498ecf53dabe0078b74c0767f9ebe82336040516200268892919062005bc3565b60405180910390a15050565b600080600080620026b067df814c566ee9b32c60c01b620004f5565b620026c667ac24e1fe2d54786060c01b620004f5565b620026dc6765b9e6b6038a6c2160c01b620004f5565b600360009054906101000a900473ffffffffffffffffffffffffffffffffffffffff1673ffffffffffffffffffffffffffffffffffffffff1663bfa0fc93866040518263ffffffff1660e01b815260040162002739919062004f1a565b608060405180830381865afa15801562002757573d6000803e3d6000fd5b505050506040513d601f19601f820116820180604052508101906200277d919062005cfd565b93509350935093509193509193565b620027a2672cea43d72a5cc28360c01b620004f5565b620027b8675b7e7b8cefea71f060c01b620004f5565b620027ce67551630d267af21a760c01b620004f5565b6000600360009054906101000a900473ffffffffffffffffffffffffffffffffffffffff1673ffffffffffffffffffffffffffffffffffffffff166388fcc75d846040518263ffffffff1660e01b81526004016200282d919062004f1a565b600060405180830381865afa1580156200284b573d6000803e3d6000fd5b505050506040513d6000823e3d601f19601f8201168201806040525081019062002876919062004fe3565b505050505090506200289367dfd2467b7f165d1c60c01b620004f5565b620028a967b40b01ddde66c01460c01b620004f5565b620028bf67740b9ee8ef6f81eb60c01b620004f5565b600060028281548110620028d857620028d76200509e565b5b90600052602060002090600b020160080160009054906101000a900473ffffffffffffffffffffffffffffffffffffffff1673ffffffffffffffffffffffffffffffffffffffff166370a08231336040518263ffffffff1660e01b815260040162002944919062004c14565b602060405180830381865afa15801562002962573d6000803e3d6000fd5b505050506040513d601f19601f820116820180604052508101906200298891906200513f565b11620029cb576040517f08c379a0000000000000000000000000000000000000000000000000000000008152600401620029c29062005dbf565b60405180910390fd5b620029e1677cd6c769a685493f60c01b620004f5565b620029f767b15855eeb547354060c01b620004f5565b62002a0d678e69753d301ea6a160c01b620004f5565b600360009054906101000a900473ffffffffffffffffffffffffffffffffffffffff1673ffffffffffffffffffffffffffffffffffffffff1663f909fd70848385336040518563ffffffff1660e01b815260040162002a70949392919062005de1565b600060405180830381600087803b15801562002a8b57600080fd5b505af115801562002aa0573d6000803e3d6000fd5b5050505062002aba67f26f978d55d20f8b60c01b620004f5565b62002ad06779af514b7ad9195060c01b620004f5565b7f2991ce8dbfcf228e1b5d37c4fa6aba08135469f3b6abec2273148158ef65a3003382858560405162002b07949392919062005e2e565b60405180910390a1505050565b62002b2a6721fd76e78897569960c01b620004f5565b62002b3462003e34565b62002b4a67ecfbab4309061eeb60c01b620004f5565b62002b6067cbf1d0bc0c1732ff60c01b620004f5565b62002b7667cf1cd3f4433109ac60c01b620004f5565b80600160008473ffffffffffffffffffffffffffffffffffffffff1673ffffffffffffffffffffffffffffffffffffffff16815260200190815260200160002060030160156101000a81548160ff0219169083151502179055505050565b60008060008062002bf0677d932bec37d7787860c01b620004f5565b62002c06672dfd0175a3e4b5e460c01b620004f5565b62002c1c6744ef37467c6fb1b960c01b620004f5565b60006002868154811062002c355762002c346200509e565b5b90600052602060002090600b020160080160009054906101000a900473ffffffffffffffffffffffffffffffffffffffff16905062002c7f674ec755b7caedcfa760c01b620004f5565b62002c9567c595f1551fe5074e60c01b620004f5565b8073ffffffffffffffffffffffffffffffffffffffff166334757b346040518163ffffffff1660e01b8152600401608060405180830381865afa15801562002ce1573d6000803e3d6000fd5b505050506040513d601f19601f8201168201806040525081019062002d07919062005e7b565b9450945094509450509193509193565b62002d21620041f2565b62002d3767317b37c97b5c177860c01b620004f5565b8162002d4e67f25886bb81cdcb8b60c01b620004f5565b62002d6467f9363b5fcf08992a60c01b620004f5565b62002d7a673948d99b9d0bd62060c01b620004f5565b62002d9067ce739e259a3a454f60c01b620004f5565b8073ffffffffffffffffffffffffffffffffffffffff163373ffffffffffffffffffffffffffffffffffffffff1614801562002dde575062002ddd679fe2f54b1501c3f660c01b62003f7d565b5b8062002e3d575062002def62002341565b73ffffffffffffffffffffffffffffffffffffffff163373ffffffffffffffffffffffffffffffffffffffff1614801562002e3c575062002e3b67518d03d40247528b60c01b62003f7d565b5b5b62002e7f576040517f08c379a000000000000000000000000000000000000000000000000000000000815260040162002e76906200566a565b60405180910390fd5b62002e9567681cb8e516a8c40860c01b620004f5565b62002eab6757ed4110a0e94b1b60c01b620004f5565b62002ec16737fc12db5522e08860c01b620004f5565b62002ed76752fc45b1851d9b4660c01b620004f5565b62002eed67b6a2a9cffe920c4560c01b620004f5565b62002f0367faa8922defcbd8dc60c01b620004f5565b600160008473ffffffffffffffffffffffffffffffffffffffff1673ffffffffffffffffffffffffffffffffffffffff1681526020019081526020016000206040518060e001604052908160008201805462002f5f90620053b4565b80601f016020809104026020016040519081016040528092919081815260200182805462002f8d90620053b4565b801562002fde5780601f1062002fb25761010080835404028352916020019162002fde565b820191906000526020600020905b81548152906001019060200180831162002fc057829003601f168201915b5050505050815260200160018201805462002ff990620053b4565b80601f01602080910402602001604051908101604052809291908181526020018280546200302790620053b4565b8015620030785780601f106200304c5761010080835404028352916020019162003078565b820191906000526020600020905b8154815290600101906020018083116200305a57829003601f168201915b505050505081526020016002820180546200309390620053b4565b80601f0160208091040260200160405190810160405280929190818152602001828054620030c190620053b4565b8015620031125780601f10620030e65761010080835404028352916020019162003112565b820191906000526020600020905b815481529060010190602001808311620030f457829003601f168201915b505050505081526020016003820160009054906101000a900473ffffffffffffffffffffffffffffffffffffffff1673ffffffffffffffffffffffffffffffffffffffff1673ffffffffffffffffffffffffffffffffffffffff1681526020016003820160149054906101000a900460ff161515151581526020016003820160159054906101000a900460ff1615151515815260200160048201805480602002602001604051908101604052809291908181526020018280548015620031f857602002820191906000526020600020905b815481526020019060010190808311620031e3575b505050505081525050915050919050565b6200321362003e34565b600073ffffffffffffffffffffffffffffffffffffffff168173ffffffffffffffffffffffffffffffffffffffff160362003285576040517f08c379a00000000000000000000000000000000000000000000000000000000081526004016200327c9062005f63565b60405180910390fd5b620032908162003eb9565b50565b620032a967fa212a1208b9f37660c01b620004f5565b82620032c067230e0e016cb106f360c01b620004f5565b620032d66749f4759f5964e18060c01b620004f5565b620032ec67460c24af44aa353260c01b620004f5565b6200330267391672b50995b5d060c01b620004f5565b60028054905081106200334c576040517f08c379a00000000000000000000000000000000000000000000000000000000081526004016200334390620055f8565b60405180910390fd5b6200336267778fa4030615ea5160c01b620004f5565b62003378672bdb165b61364fff60c01b620004f5565b6200338e674136af3d519c276e60c01b620004f5565b620033a4676f5fc59a8d5e6d6960c01b620004f5565b3373ffffffffffffffffffffffffffffffffffffffff1660028281548110620033d257620033d16200509e565b5b90600052602060002090600b020160070160009054906101000a900473ffffffffffffffffffffffffffffffffffffffff1673ffffffffffffffffffffffffffffffffffffffff16146200345d576040517f08c379a000000000000000000000000000000000000000000000000000000000815260040162003454906200511d565b60405180910390fd5b6200347367ad58af8490f2736960c01b620004f5565b62003489670611f45ac1f1a3f260c01b620004f5565b6200349f67a17b1e07a852bb0b60c01b620004f5565b620034b567b6e56a1e51272ac060c01b620004f5565b620034cb677e99dd50bd69166160c01b620004f5565b620034e167e9e87093f30104e860c01b620004f5565b620034f767c5d94c57962fc1dd60c01b620004f5565b600280549050841062003541576040517f08c379a00000000000000000000000000000000000000000000000000000000081526004016200353890620055f8565b60405180910390fd5b6200355767d56ebce8dc1e8e1360c01b620004f5565b6200356d677b924c67fe23b32560c01b620004f5565b6200358367243d1e5ba24843bc60c01b620004f5565b6200359967443f77d44033767e60c01b620004f5565b60016002811115620035b057620035af6200458d565b5b60028581548110620035c757620035c66200509e565b5b90600052602060002090600b020160080160149054906101000a900460ff166002811115620035fb57620035fa6200458d565b5b146200363e576040517f08c379a00000000000000000000000000000000000000000000000000000000081526004016200363590620052f1565b60405180910390fd5b62003654671c4c1d9c1b7e2a3060c01b620004f5565b6200366a676779f85d90d078c060c01b620004f5565b620036806725ac7bbfb84896c960c01b620004f5565b6200369667516ec68b86cad0d260c01b620004f5565b604051602001620036a79062005725565b6040516020818303038152906040528051906020012082604051602001620036d0919062005747565b604051602081830303815290604052805190602001200362003729576040517f08c379a0000000000000000000000000000000000000000000000000000000008152600401620037209062005fd5565b60405180910390fd5b6200373f670bb5fd151b9d4bfd60c01b620004f5565b6200375567e2aa1a97f8a971b760c01b620004f5565b6200376b67171efc641bf6465a60c01b620004f5565b6200378167729b399e8ee7201860c01b620004f5565b60008303620037c7576040517f08c379a0000000000000000000000000000000000000000000000000000000008152600401620037be90620056dc565b60405180910390fd5b620037dd67672725079f31501f60c01b620004f5565b620037f266f8f9d12f4342c760c01b620004f5565b62003808676cf594de3697ffd060c01b620004f5565b6200381e67fad839dc5ae20bac60c01b620004f5565b600284815481106200383557620038346200509e565b5b90600052602060002090600b0201600201548311156200388c576040517f08c379a000000000000000000000000000000000000000000000000000000000815260040162003883906200606d565b60405180910390fd5b620038a267ecb02b1e3f11866560c01b620004f5565b620038b867f16d45eec262f68560c01b620004f5565b620038ce6774768214d042f54f60c01b620004f5565b60006004549050620038eb67c211974ee1e9c7c760c01b620004f5565b6200390167ec9941ae9f183fec60c01b620004f5565b600285815481106200391857620039176200509e565b5b90600052602060002090600b02016009018190806001815401808255809150506001900390600052602060002001600090919091909150556200396667469dd7e89ea9ae0860c01b620004f5565b6200397c6780fa7b7b0112511f60c01b620004f5565b600360009054906101000a900473ffffffffffffffffffffffffffffffffffffffff1673ffffffffffffffffffffffffffffffffffffffff1663b830b965868387876040518563ffffffff1660e01b8152600401620039df94939291906200608f565b600060405180830381600087803b158015620039fa57600080fd5b505af115801562003a0f573d6000803e3d6000fd5b5050505062003a2967ad25e0766cf2081660c01b620004f5565b6004600081548092919062003a3e90620060e3565b919050555062003a596764f1ffa3238cb51c60c01b620004f5565b62003a6f6763277ccff34d130f60c01b620004f5565b7f435b01c746178d3d65a5cd948c89aa36dbe006e76f21252991fada0df3473da860016002878154811062003aa95762003aa86200509e565b5b90600052602060002090600b02016009018054905062003aca919062005aa6565b3360405162003adb92919062005bc3565b60405180910390a15050505050565b60008060008062003b06678a80df416cf1d3da60c01b620004f5565b62003b1c67096f986d24bdc15660c01b620004f5565b62003b326734c62a76e41b282260c01b620004f5565b60006002868154811062003b4b5762003b4a6200509e565b5b90600052602060002090600b020160080160009054906101000a900473ffffffffffffffffffffffffffffffffffffffff16905062003b95676a20b8370847cb4560c01b620004f5565b62003bab6723d5e493f24c09ed60c01b620004f5565b8073ffffffffffffffffffffffffffffffffffffffff1663bd9a548b6040518163ffffffff1660e01b8152600401608060405180830381865afa15801562003bf7573d6000803e3d6000fd5b505050506040513d601f19601f8201168201806040525081019062003c1d919062005e7b565b9450945094509450509193509193565b60606000600162003c3e8462003f88565b01905060008167ffffffffffffffff81111562003c605762003c5f62004841565b5b6040519080825280601f01601f19166020018201604052801562003c935781602001600182028036833780820191505090505b509050600082602001820190505b60011562003cfb578080600190039150507f3031323334353637383961626364656600000000000000000000000000000000600a86061a8153600a858162003cee5762003ced62006130565b5b0494506000850362003ca1575b819350505050919050565b62003d1c6743228530d067d81e60c01b620004f5565b62003d3267f7973b3fd3d1d79460c01b620004f5565b62003d4867dd6555eff79d58c460c01b620004f5565b600082826002868154811062003d635762003d626200509e565b5b90600052602060002090600b02016002015460405162003d839062004249565b62003d91939291906200615f565b604051809103906000f08015801562003dae573d6000803e3d6000fd5b50905062003dc7675721eed350eb761b60c01b620004f5565b806002858154811062003ddf5762003dde6200509e565b5b90600052602060002090600b020160080160006101000a81548173ffffffffffffffffffffffffffffffffffffffff021916908373ffffffffffffffffffffffffffffffffffffffff16021790555050505050565b62003e3e620040f4565b73ffffffffffffffffffffffffffffffffffffffff1662003e5e62002341565b73ffffffffffffffffffffffffffffffffffffffff161462003eb7576040517f08c379a000000000000000000000000000000000000000000000000000000000815260040162003eae90620061fa565b60405180910390fd5b565b60008060009054906101000a900473ffffffffffffffffffffffffffffffffffffffff169050816000806101000a81548173ffffffffffffffffffffffffffffffffffffffff021916908373ffffffffffffffffffffffffffffffffffffffff1602179055508173ffffffffffffffffffffffffffffffffffffffff168173ffffffffffffffffffffffffffffffffffffffff167f8be0079c531659141344cd1fd0a4f28419497f9722a3daafe3b4186f6b6457e060405160405180910390a35050565b600060019050919050565b600080600090507a184f03e93ff9f4daa797ed6e38ed64bf6a1f010000000000000000831062003fea577a184f03e93ff9f4daa797ed6e38ed64bf6a1f010000000000000000838162003fe05762003fdf62006130565b5b0492506040810190505b6d04ee2d6d415b85acef810000000083106200402b576d04ee2d6d415b85acef8100000000838162004021576200402062006130565b5b0492506020810190505b662386f26fc1000083106200405e57662386f26fc10000838162004054576200405362006130565b5b0492506010810190505b6305f5e10083106200408b576305f5e100838162004081576200408062006130565b5b0492506008810190505b6127108310620040b4576127108381620040aa57620040a962006130565b5b0492506004810190505b60648310620040db5760648381620040d157620040d062006130565b5b0492506002810190505b600a8310620040eb576001810190505b80915050919050565b600033905090565b60405180610180016040528060008152602001600081526020016000815260200160608152602001606081526020016060815260200160608152602001600073ffffffffffffffffffffffffffffffffffffffff168152602001600073ffffffffffffffffffffffffffffffffffffffff168152602001600060028111156200418a57620041896200458d565b5b8152602001606081526020016000151581525090565b828054828255906000526020600020908101928215620041df579160200282015b82811115620041de578251825591602001919060010190620041c1565b5b509050620041ee919062004257565b5090565b6040518060e00160405280606081526020016060815260200160608152602001600073ffffffffffffffffffffffffffffffffffffffff168152602001600015158152602001600015158152602001606081525090565b615d99806200621d83390190565b5b808211156200427257600081600090555060010162004258565b5090565b6000604051905090565b600080fd5b600080fd5b6000819050919050565b6200429f816200428a565b8114620042ab57600080fd5b50565b600081359050620042bf8162004294565b92915050565b600060208284031215620042de57620042dd62004280565b5b6000620042ee84828501620042ae565b91505092915050565b6000806040838503121562004311576200431062004280565b5b60006200432185828601620042ae565b92505060206200433485828601620042ae565b9150509250929050565b62004349816200428a565b82525050565b600081519050919050565b600082825260208201905092915050565b60005b838110156200438b5780820151818401526020810190506200436e565b60008484015250505050565b6000601f19601f8301169050919050565b6000620043b5826200434f565b620043c181856200435a565b9350620043d38185602086016200436b565b620043de8162004397565b840191505092915050565b60008115159050919050565b6200440081620043e9565b82525050565b600060c0820190506200441d60008301896200433e565b6200442c60208301886200433e565b8181036040830152620044408187620043a8565b90506200445160608301866200433e565b620044606080830185620043f5565b6200446f60a08301846200433e565b979650505050505050565b62004485816200428a565b82525050565b600082825260208201905092915050565b6000620044a9826200434f565b620044b581856200448b565b9350620044c78185602086016200436b565b620044d28162004397565b840191505092915050565b600073ffffffffffffffffffffffffffffffffffffffff82169050919050565b60006200450a82620044dd565b9050919050565b6200451c81620044fd565b82525050565b6000819050919050565b60006200454d620045476200454184620044dd565b62004522565b620044dd565b9050919050565b600062004561826200452c565b9050919050565b6000620045758262004554565b9050919050565b620045878162004568565b82525050565b7f4e487b7100000000000000000000000000000000000000000000000000000000600052602160045260246000fd5b60038110620045d057620045cf6200458d565b5b50565b6000819050620045e382620045bc565b919050565b6000620045f582620045d3565b9050919050565b6200460781620045e8565b82525050565b600081519050919050565b600082825260208201905092915050565b6000819050602082019050919050565b60006200464783836200447a565b60208301905092915050565b6000602082019050919050565b60006200466d826200460d565b62004679818562004618565b9350620046868362004629565b8060005b83811015620046bd578151620046a1888262004639565b9750620046ae8362004653565b9250506001810190506200468a565b5085935050505092915050565b620046d581620043e9565b82525050565b600061018083016000830151620046f660008601826200447a565b5060208301516200470b60208601826200447a565b5060408301516200472060408601826200447a565b50606083015184820360608601526200473a82826200449c565b915050608083015184820360808601526200475682826200449c565b91505060a083015184820360a08601526200477282826200449c565b91505060c083015184820360c08601526200478e82826200449c565b91505060e0830151620047a560e086018262004511565b50610100830151620047bc6101008601826200457c565b50610120830151620047d3610120860182620045fc565b50610140830151848203610140860152620047ef828262004660565b91505061016083015162004808610160860182620046ca565b508091505092915050565b600060208201905081810360008301526200482f8184620046db565b905092915050565b600080fd5b600080fd5b7f4e487b7100000000000000000000000000000000000000000000000000000000600052604160045260246000fd5b6200487b8262004397565b810181811067ffffffffffffffff821117156200489d576200489c62004841565b5b80604052505050565b6000620048b262004276565b9050620048c0828262004870565b919050565b600067ffffffffffffffff821115620048e357620048e262004841565b5b620048ee8262004397565b9050602081019050919050565b82818337600083830152505050565b6000620049216200491b84620048c5565b620048a6565b90508281526020810184848401111562004940576200493f6200483c565b5b6200494d848285620048fb565b509392505050565b600082601f8301126200496d576200496c62004837565b5b81356200497f8482602086016200490a565b91505092915050565b600080600080600060a08688031215620049a757620049a662004280565b5b600086013567ffffffffffffffff811115620049c857620049c762004285565b5b620049d68882890162004955565b955050602086013567ffffffffffffffff811115620049fa57620049f962004285565b5b62004a088882890162004955565b945050604086013567ffffffffffffffff81111562004a2c5762004a2b62004285565b5b62004a3a8882890162004955565b935050606062004a4d88828901620042ae565b925050608086013567ffffffffffffffff81111562004a715762004a7062004285565b5b62004a7f8882890162004955565b9150509295509295909350565b62004a9781620044fd565b811462004aa357600080fd5b50565b60008135905062004ab78162004a8c565b92915050565b600080fd5b600080fd5b60008083601f84011262004ae05762004adf62004837565b5b8235905067ffffffffffffffff81111562004b005762004aff62004abd565b5b60208301915083600182028301111562004b1f5762004b1e62004ac2565b5b9250929050565b60008060008060008060006080888a03121562004b485762004b4762004280565b5b600062004b588a828b0162004aa6565b975050602088013567ffffffffffffffff81111562004b7c5762004b7b62004285565b5b62004b8a8a828b0162004ac7565b9650965050604088013567ffffffffffffffff81111562004bb05762004baf62004285565b5b62004bbe8a828b0162004ac7565b9450945050606088013567ffffffffffffffff81111562004be45762004be362004285565b5b62004bf28a828b0162004ac7565b925092505092959891949750929550565b62004c0e81620044fd565b82525050565b600060208201905062004c2b600083018462004c03565b92915050565b600060808201905062004c486000830187620043f5565b62004c5760208301866200433e565b62004c6660408301856200433e565b62004c7560608301846200433e565b95945050505050565b62004c8981620043e9565b811462004c9557600080fd5b50565b60008135905062004ca98162004c7e565b92915050565b6000806040838503121562004cc95762004cc862004280565b5b600062004cd985828601620042ae565b925050602062004cec8582860162004c98565b9150509250929050565b6000806040838503121562004d105762004d0f62004280565b5b600062004d208582860162004aa6565b925050602062004d338582860162004c98565b9150509250929050565b600060808201905062004d5460008301876200433e565b62004d6360208301866200433e565b62004d7260408301856200433e565b62004d8160608301846200433e565b95945050505050565b60006020828403121562004da35762004da262004280565b5b600062004db38482850162004aa6565b91505092915050565b600060e083016000830151848203600086015262004ddb82826200449c565b9150506020830151848203602086015262004df782826200449c565b9150506040830151848203604086015262004e1382826200449c565b915050606083015162004e2a606086018262004511565b50608083015162004e3f6080860182620046ca565b5060a083015162004e5460a0860182620046ca565b5060c083015184820360c086015262004e6e828262004660565b9150508091505092915050565b6000602082019050818103600083015262004e97818462004dbc565b905092915050565b60008060006060848603121562004ebb5762004eba62004280565b5b600062004ecb86828701620042ae565b935050602062004ede86828701620042ae565b925050604084013567ffffffffffffffff81111562004f025762004f0162004285565b5b62004f108682870162004955565b9150509250925092565b600060208201905062004f3160008301846200433e565b92915050565b60008151905062004f488162004294565b92915050565b600062004f6562004f5f84620048c5565b620048a6565b90508281526020810184848401111562004f845762004f836200483c565b5b62004f918482856200436b565b509392505050565b600082601f83011262004fb15762004fb062004837565b5b815162004fc384826020860162004f4e565b91505092915050565b60008151905062004fdd8162004c7e565b92915050565b60008060008060008060c0878903121562005003576200500262004280565b5b60006200501389828a0162004f37565b96505060206200502689828a0162004f37565b955050604087015167ffffffffffffffff8111156200504a576200504962004285565b5b6200505889828a0162004f99565b94505060606200506b89828a0162004f37565b93505060806200507e89828a0162004fcc565b92505060a06200509189828a0162004f37565b9150509295509295509295565b7f4e487b7100000000000000000000000000000000000000000000000000000000600052603260045260246000fd5b7f50726f6a656374206973206e6f7420796f757273000000000000000000000000600082015250565b6000620051056014836200435a565b91506200511282620050cd565b602082019050919050565b600060208201905081810360008301526200513881620050f6565b9050919050565b60006020828403121562005158576200515762004280565b5b6000620051688482850162004f37565b91505092915050565b7f4e6f7420656e6f7567682066756e647300000000000000000000000000000000600082015250565b6000620051a96010836200435a565b9150620051b68262005171565b602082019050919050565b60006020820190508181036000830152620051dc816200519a565b9050919050565b600081905092915050565b50565b600062005200600083620051e3565b91506200520d82620051ee565b600082019050919050565b60006200522582620051f1565b9150819050919050565b7f4661696c656420746f2073656e64204574686572000000000000000000000000600082015250565b6000620052676014836200435a565b915062005274826200522f565b602082019050919050565b600060208201905081810360008301526200529a8162005258565b9050919050565b7f50726f6a656374206e6f7420726561647920666f722066756e64696e67000000600082015250565b6000620052d9601d836200435a565b9150620052e682620052a1565b602082019050919050565b600060208201905081810360008301526200530c81620052ca565b9050919050565b7f4e4654207479706520646f6e7420657869737400000000000000000000000000600082015250565b60006200534b6013836200435a565b9150620053588262005313565b602082019050919050565b600060208201905081810360008301526200537e816200533c565b9050919050565b7f4e487b7100000000000000000000000000000000000000000000000000000000600052602260045260246000fd5b60006002820490506001821680620053cd57607f821691505b602082108103620053e357620053e262005385565b5b50919050565b60008190508160005260206000209050919050565b600081546200540d81620053b4565b6200541981866200435a565b945060018216600081146200543757600181146200544e5762005485565b60ff19831686528115156020028601935062005485565b6200545985620053e9565b60005b838110156200547d578154818901526001820191506020810190506200545c565b808801955050505b50505092915050565b600060a082019050620054a5600083018862004c03565b620054b460208301876200433e565b8181036040830152620054c88186620053fe565b90508181036060830152620054de8185620053fe565b9050620054ef60808301846200433e565b9695505050505050565b60006060820190506200551060008301866200433e565b6200551f602083018562004c03565b6200552e60408301846200433e565b949350505050565b7f46756e64207265717565737420696420646f6e74206578697374000000000000600082015250565b60006200556e601a836200435a565b91506200557b8262005536565b602082019050919050565b60006020820190508181036000830152620055a1816200555f565b9050919050565b7f50726f6a65637420696420646f6e742065786973740000000000000000000000600082015250565b6000620055e06015836200435a565b9150620055ed82620055a8565b602082019050919050565b600060208201905081810360008301526200561381620055d1565b9050919050565b7f596f75277265206e6f7420726567697374657200000000000000000000000000600082015250565b6000620056526013836200435a565b91506200565f826200561a565b602082019050919050565b60006020820190508181036000830152620056858162005643565b9050919050565b7f416d6f756e742061736b65642073686f756c64206e6f74206265203000000000600082015250565b6000620056c4601c836200435a565b9150620056d1826200568c565b602082019050919050565b60006020820190508181036000830152620056f781620056b5565b9050919050565b60006200570d6000836200435a565b91506200571a82620051ee565b600082019050919050565b600060208201905081810360008301526200574081620056fe565b9050919050565b60006020820190508181036000830152620057638184620043a8565b905092915050565b7f50726f6a6563742064657461696c206973206d616e6461746f72790000000000600082015250565b6000620057a3601b836200435a565b9150620057b0826200576b565b602082019050919050565b60006020820190508181036000830152620057d68162005794565b9050919050565b60006020601f8301049050919050565b600082821b905092915050565b6000600883026200582c7fffffffffffffffffffffffffffffffffffffffffffffffffffffffffffffffff82620057ed565b620058388683620057ed565b95508019841693508086168417925050509392505050565b6000620058716200586b62005865846200428a565b62004522565b6200428a565b9050919050565b6000819050919050565b6200588d8362005850565b620058a56200589c8262005878565b848454620057fa565b825550505050565b600090565b620058bc620058ad565b620058c981848462005882565b505050565b5b81811015620058f157620058e5600082620058b2565b600181019050620058cf565b5050565b601f82111562005940576200590a81620053e9565b6200591584620057dd565b8101602085101562005925578190505b6200593d6200593485620057dd565b830182620058ce565b50505b505050565b600082821c905092915050565b6000620059656000198460080262005945565b1980831691505092915050565b600062005980838362005952565b9150826002028217905092915050565b6200599b826200434f565b67ffffffffffffffff811115620059b757620059b662004841565b5b620059c38254620053b4565b620059d0828285620058f5565b600060209050601f83116001811462005a085760008415620059f3578287015190505b620059ff858262005972565b86555062005a6f565b601f19841662005a1886620053e9565b60005b8281101562005a425784890151825560018201915060208501945060208101905062005a1b565b8683101562005a62578489015162005a5e601f89168262005952565b8355505b6001600288020188555050505b505050505050565b7f4e487b7100000000000000000000000000000000000000000000000000000000600052601160045260246000fd5b600062005ab3826200428a565b915062005ac0836200428a565b925082820390508181111562005adb5762005ada62005a77565b5b92915050565b7f4445534349444500000000000000000000000000000000000000000000000000815250565b600081905092915050565b600062005b1f826200434f565b62005b2b818562005b07565b935062005b3d8185602086016200436b565b80840191505092915050565b600062005b568262005ae1565b60078201915062005b68828462005b12565b915081905092915050565b7f4453430000000000000000000000000000000000000000000000000000000000815250565b600062005ba68262005b73565b60038201915062005bb8828462005b12565b915081905092915050565b600060408201905062005bda60008301856200433e565b62005be9602083018462004c03565b9392505050565b7f5265736561726368657220616c72656164792065786973740000000000000000600082015250565b600062005c286018836200435a565b915062005c358262005bf0565b602082019050919050565b6000602082019050818103600083015262005c5b8162005c19565b9050919050565b600062005c7083856200435a565b935062005c7f838584620048fb565b62005c8a8362004397565b840190509392505050565b600060808201905062005cac600083018a62004c03565b818103602083015262005cc181888a62005c62565b9050818103604083015262005cd881868862005c62565b9050818103606083015262005cef81848662005c62565b905098975050505050505050565b6000806000806080858703121562005d1a5762005d1962004280565b5b600062005d2a8782880162004fcc565b945050602062005d3d8782880162004f37565b935050604062005d508782880162004f37565b925050606062005d638782880162004f37565b91505092959194509250565b7f596f75206e65656420746f20627579204e465420746f20766f74650000000000600082015250565b600062005da7601b836200435a565b915062005db48262005d6f565b602082019050919050565b6000602082019050818103600083015262005dda8162005d98565b9050919050565b600060808201905062005df860008301876200433e565b62005e0760208301866200433e565b62005e166040830185620043f5565b62005e25606083018462004c03565b95945050505050565b600060808201905062005e45600083018762004c03565b62005e5460208301866200433e565b62005e6360408301856200433e565b62005e726060830184620043f5565b95945050505050565b6000806000806080858703121562005e985762005e9762004280565b5b600062005ea88782880162004f37565b945050602062005ebb8782880162004f37565b935050604062005ece8782880162004f37565b925050606062005ee18782880162004f37565b91505092959194509250565b7f4f776e61626c653a206e6577206f776e657220697320746865207a65726f206160008201527f6464726573730000000000000000000000000000000000000000000000000000602082015250565b600062005f4b6026836200435a565b915062005f588262005eed565b604082019050919050565b6000602082019050818103600083015262005f7e8162005f3c565b9050919050565b7f526571756573742064657461696c206973206d616e6461746f72790000000000600082015250565b600062005fbd601b836200435a565b915062005fca8262005f85565b602082019050919050565b6000602082019050818103600083015262005ff08162005fae565b9050919050565b7f416d6f756e742061736b65642073686f756c64206265206c657373207468616e60008201527f20616d6f756e742061736b656400000000000000000000000000000000000000602082015250565b600062006055602d836200435a565b9150620060628262005ff7565b604082019050919050565b60006020820190508181036000830152620060888162006046565b9050919050565b6000608082019050620060a660008301876200433e565b620060b560208301866200433e565b620060c460408301856200433e565b8181036060830152620060d88184620043a8565b905095945050505050565b6000620060f0826200428a565b91507fffffffffffffffffffffffffffffffffffffffffffffffffffffffffffffffff820362006125576200612462005a77565b5b600182019050919050565b7f4e487b7100000000000000000000000000000000000000000000000000000000600052601260045260246000fd5b600060608201905081810360008301526200617b8186620043a8565b90508181036020830152620061918185620043a8565b9050620061a260408301846200433e565b949350505050565b7f4f776e61626c653a2063616c6c6572206973206e6f7420746865206f776e6572600082015250565b6000620061e26020836200435a565b9150620061ef82620061aa565b602082019050919050565b600060208201905081810360008301526200621581620061d3565b905091905056fe60806040523480156200001157600080fd5b5060405162005d9938038062005d998339818101604052810190620000379190620006a6565b828281600090816200004a919062000981565b5080600190816200005c919062000981565b5050506000600b60006101000a81548160ff0219169083151502179055506200009a6200008e6200040760201b60201c565b6200040f60201b60201c565b620000b667bdbdd9cb358e979f60c01b620004d560201b60201c565b620000d267968566514a93687860c01b620004d560201b60201c565b6028600d6000806003811115620000ee57620000ed62000a68565b5b600381111562000103576200010262000a68565b5b8152602001908152602001600020600101819055506200013467a65c284d6f8eac6360c01b620004d560201b60201c565b601e600d60006001600381111562000151576200015062000a68565b5b600381111562000166576200016562000a68565b5b8152602001908152602001600020600101819055506200019767fc8d4aa5cccbbc8660c01b620004d560201b60201c565b6004600d600060026003811115620001b457620001b362000a68565b5b6003811115620001c957620001c862000a68565b5b815260200190815260200160002060010181905550620001fa67681debda8d11d29060c01b620004d560201b60201c565b6001600d600060038081111562000216576200021562000a68565b5b60038111156200022b576200022a62000a68565b5b8152602001908152602001600020600101819055506200025c67d23c5f2b2cf80b4560c01b620004d560201b60201c565b600a816200026b919062000ac6565b600d600080600381111562000285576200028462000a68565b5b60038111156200029a576200029962000a68565b5b815260200190815260200160002060020181905550620002cb6773ed84fd9ca9002260c01b620004d560201b60201c565b601981620002da919062000ac6565b600d600060016003811115620002f557620002f462000a68565b5b60038111156200030a576200030962000a68565b5b8152602001908152602001600020600201819055506200033b672b853fb6188c3db360c01b620004d560201b60201c565b6032816200034a919062000ac6565b600d60006002600381111562000365576200036462000a68565b5b60038111156200037a576200037962000a68565b5b815260200190815260200160002060020181905550620003ab67cf8c10e2456346bd60c01b620004d560201b60201c565b606481620003ba919062000ac6565b600d6000600380811115620003d457620003d362000a68565b5b6003811115620003e957620003e862000a68565b5b81526020019081526020016000206002018190555050505062000b11565b600033905090565b6000600b60019054906101000a900473ffffffffffffffffffffffffffffffffffffffff16905081600b60016101000a81548173ffffffffffffffffffffffffffffffffffffffff021916908373ffffffffffffffffffffffffffffffffffffffff1602179055508173ffffffffffffffffffffffffffffffffffffffff168173ffffffffffffffffffffffffffffffffffffffff167f8be0079c531659141344cd1fd0a4f28419497f9722a3daafe3b4186f6b6457e060405160405180910390a35050565b50565b6000604051905090565b600080fd5b600080fd5b600080fd5b600080fd5b6000601f19601f8301169050919050565b7f4e487b7100000000000000000000000000000000000000000000000000000000600052604160045260246000fd5b6200054182620004f6565b810181811067ffffffffffffffff8211171562000563576200056262000507565b5b80604052505050565b600062000578620004d8565b905062000586828262000536565b919050565b600067ffffffffffffffff821115620005a957620005a862000507565b5b620005b482620004f6565b9050602081019050919050565b60005b83811015620005e1578082015181840152602081019050620005c4565b60008484015250505050565b600062000604620005fe846200058b565b6200056c565b905082815260208101848484011115620006235762000622620004f1565b5b62000630848285620005c1565b509392505050565b600082601f83011262000650576200064f620004ec565b5b815162000662848260208601620005ed565b91505092915050565b6000819050919050565b62000680816200066b565b81146200068c57600080fd5b50565b600081519050620006a08162000675565b92915050565b600080600060608486031215620006c257620006c1620004e2565b5b600084015167ffffffffffffffff811115620006e357620006e2620004e7565b5b620006f18682870162000638565b935050602084015167ffffffffffffffff811115620007155762000714620004e7565b5b620007238682870162000638565b925050604062000736868287016200068f565b9150509250925092565b600081519050919050565b7f4e487b7100000000000000000000000000000000000000000000000000000000600052602260045260246000fd5b600060028204905060018216806200079357607f821691505b602082108103620007a957620007a86200074b565b5b50919050565b60008190508160005260206000209050919050565b60006020601f8301049050919050565b600082821b905092915050565b600060088302620008137fffffffffffffffffffffffffffffffffffffffffffffffffffffffffffffffff82620007d4565b6200081f8683620007d4565b95508019841693508086168417925050509392505050565b6000819050919050565b6000620008626200085c62000856846200066b565b62000837565b6200066b565b9050919050565b6000819050919050565b6200087e8362000841565b620008966200088d8262000869565b848454620007e1565b825550505050565b600090565b620008ad6200089e565b620008ba81848462000873565b505050565b5b81811015620008e257620008d6600082620008a3565b600181019050620008c0565b5050565b601f8211156200093157620008fb81620007af565b6200090684620007c4565b8101602085101562000916578190505b6200092e6200092585620007c4565b830182620008bf565b50505b505050565b600082821c905092915050565b6000620009566000198460080262000936565b1980831691505092915050565b600062000971838362000943565b9150826002028217905092915050565b6200098c8262000740565b67ffffffffffffffff811115620009a857620009a762000507565b5b620009b482546200077a565b620009c1828285620008e6565b600060209050601f831160018114620009f95760008415620009e4578287015190505b620009f0858262000963565b86555062000a60565b601f19841662000a0986620007af565b60005b8281101562000a335784890151825560018201915060208501945060208101905062000a0c565b8683101562000a53578489015162000a4f601f89168262000943565b8355505b6001600288020188555050505b505050505050565b7f4e487b7100000000000000000000000000000000000000000000000000000000600052602160045260246000fd5b7f4e487b7100000000000000000000000000000000000000000000000000000000600052601160045260246000fd5b600062000ad3826200066b565b915062000ae0836200066b565b925082820262000af0816200066b565b9150828204841483151762000b0a5762000b0962000a97565b5b5092915050565b6152788062000b216000396000f3fe608060405234801561001057600080fd5b50600436106101585760003560e01c80636352211e116100c3578063b88d4fde1161007c578063b88d4fde146103ca578063bd9a548b146103e6578063c87b56dd14610407578063d851fdfd14610437578063e985e9c514610467578063f2fde38b1461049757610158565b80636352211e1461030857806370a0823114610338578063715018a6146103685780638da5cb5b1461037257806395d89b4114610390578063a22cb465146103ae57610158565b806323b872dd1161011557806323b872dd146102315780632f745c591461024d57806334757b341461027d57806342842e0e1461029e5780634f6ccce7146102ba5780635c975abb146102ea57610158565b806301ffc9a71461015d57806306fdde031461018d578063081812fc146101ab578063095ea7b3146101db5780631507e96d146101f757806318160ddd14610213575b600080fd5b6101776004803603810190610172919061361c565b6104b3565b6040516101849190613664565b60405180910390f35b610195610501565b6040516101a2919061370f565b60405180910390f35b6101c560048036038101906101c09190613767565b610593565b6040516101d291906137d5565b60405180910390f35b6101f560048036038101906101f0919061381c565b6105d9565b005b610211600480360381019061020c9190613991565b6106f0565b005b61021b610d48565b6040516102289190613a53565b60405180910390f35b61024b60048036038101906102469190613a6e565b610d55565b005b6102676004803603810190610262919061381c565b610db5565b6040516102749190613a53565b60405180910390f35b610285610e5a565b6040516102959493929190613ac1565b60405180910390f35b6102b860048036038101906102b39190613a6e565b610fc8565b005b6102d460048036038101906102cf9190613767565b610fe8565b6040516102e19190613a53565b60405180910390f35b6102f2611059565b6040516102ff9190613664565b60405180910390f35b610322600480360381019061031d9190613767565b611070565b60405161032f91906137d5565b60405180910390f35b610352600480360381019061034d9190613b06565b6110f6565b60405161035f9190613a53565b60405180910390f35b6103706111ad565b005b61037a6111c1565b60405161038791906137d5565b60405180910390f35b6103986111eb565b6040516103a5919061370f565b60405180910390f35b6103c860048036038101906103c39190613b5f565b61127d565b005b6103e460048036038101906103df9190613c40565b611293565b005b6103ee6112f5565b6040516103fe9493929190613ac1565b60405180910390f35b610421600480360381019061041c9190613767565b611463565b60405161042e919061370f565b60405180910390f35b610451600480360381019061044c9190613767565b6114b1565b60405161045e9190613a53565b60405180910390f35b610481600480360381019061047c9190613cc3565b61178e565b60405161048e9190613664565b60405180910390f35b6104b160048036038101906104ac9190613b06565b611822565b005b60006104c967237e17d3da90bac560c01b6118a5565b6104dd67777b9bca023dd1f660c01b6118a5565b6104f167defdc2cfd925684260c01b6118a5565b6104fa826118a8565b9050919050565b60606000805461051090613d32565b80601f016020809104026020016040519081016040528092919081815260200182805461053c90613d32565b80156105895780601f1061055e57610100808354040283529160200191610589565b820191906000526020600020905b81548152906001019060200180831161056c57829003601f168201915b5050505050905090565b600061059e82611922565b6004600083815260200190815260200160002060009054906101000a900473ffffffffffffffffffffffffffffffffffffffff169050919050565b60006105e482611070565b90508073ffffffffffffffffffffffffffffffffffffffff168373ffffffffffffffffffffffffffffffffffffffff1603610654576040517f08c379a000000000000000000000000000000000000000000000000000000000815260040161064b90613dd5565b60405180910390fd5b8073ffffffffffffffffffffffffffffffffffffffff1661067361196d565b73ffffffffffffffffffffffffffffffffffffffff1614806106a257506106a18161069c61196d565b61178e565b5b6106e1576040517f08c379a00000000000000000000000000000000000000000000000000000000081526004016106d890613e67565b60405180910390fd5b6106eb8383611975565b505050565b610704677e1096d55f398a5760c01b6118a5565b61070c611a2e565b6107206714103b2dd5234f2b60c01b6118a5565b61073467f80a3e8757dd669f60c01b6118a5565b610748673cc4a943b6ce503d60c01b6118a5565b61075c6790bbde21ae251ea960c01b6118a5565b61077067c88cda1d943f70c360c01b6118a5565b6000600381111561078457610783613e87565b5b811480156107a257506107a16769f7162edb3af3e560c01b611aac565b5b806107f75750600160038111156107bc576107bb613e87565b5b811480156107da57506107d967308142cd67917c3b60c01b611aac565b5b80156107f657506107f56764c82487443e978b60c01b611aac565b5b5b8061084c57506002600381111561081157610810613e87565b5b8114801561082f575061082e673bf4b7a438183f4760c01b611aac565b5b801561084b575061084a6705ed92122561323760c01b611aac565b5b5b80610884575060038081111561086557610864613e87565b5b811480156108835750610882676b91ea88ee53450660c01b611aac565b5b5b6108c3576040517f08c379a00000000000000000000000000000000000000000000000000000000081526004016108ba90613f02565b60405180910390fd5b6108d767561c31a4901ce2f760c01b6118a5565b6108eb67535e90fc37eb54ab60c01b6118a5565b6108ff67303e164d52b8b52360c01b6118a5565b610913671ff8e9317bf66ed960c01b6118a5565b600d600082600381111561092a57610929613e87565b5b600381111561093c5761093b613e87565b5b600381111561094e5761094d613e87565b5b815260200190815260200160002060010154600d600083600381111561097757610976613e87565b5b600381111561098957610988613e87565b5b600381111561099b5761099a613e87565b5b815260200190815260200160002060000154106109ed576040517f08c379a00000000000000000000000000000000000000000000000000000000081526004016109e490613f6e565b60405180910390fd5b610a0167602cfe779f0ac06860c01b6118a5565b610a1567a6ccbe5b281c321d60c01b6118a5565b610a2967c1a5057a606b83f460c01b6118a5565b610a3d674d3746b8ab71e51360c01b6118a5565b600d6000826003811115610a5457610a53613e87565b5b6003811115610a6657610a65613e87565b5b6003811115610a7857610a77613e87565b5b8152602001908152602001600020600201546103e885610a989190613fbd565b1015610ad9576040517f08c379a0000000000000000000000000000000000000000000000000000000008152600401610ad09061404b565b60405180910390fd5b610aed67e4385ae641e6d81a60c01b6118a5565b610b01676ef541aafea8c6e160c01b6118a5565b610b1567520ecf980f55c18d60c01b6118a5565b60008383610b2284611ab7565b604051602001610b3493929190614353565b6040516020818303038152906040529050610b5967bbd5461538b4c1a960c01b6118a5565b610b6d67a6c86866799465d560c01b6118a5565b6000610b7882611e34565b604051602001610b889190614454565b6040516020818303038152906040529050610bad6758ada4280280758460c01b6118a5565b610bc167dc74d2f1230df2af60c01b6118a5565b6000610bcd600c611f97565b9050610be3674f875f164b6160e860c01b6118a5565b610bf767dc6695181abc59ec60c01b6118a5565b610c01600c611fa5565b610c1567d45761d6e05da38260c01b6118a5565b600d6000856003811115610c2c57610c2b613e87565b5b6003811115610c3e57610c3d613e87565b5b6003811115610c5057610c4f613e87565b5b81526020019081526020016000206000016000815480929190610c7290614476565b9190505550610c8b670edb9da7b8b3a09e60c01b6118a5565b610c9f67157ba24c103a1eb760c01b6118a5565b610ca98882611fbb565b610cbd67e518e19a4bca5e1960c01b6118a5565b610cd1671e348c45d41193d060c01b6118a5565b610cdb8183611fd9565b610cef6763ec72aa78b9005d60c01b6118a5565b610d0367272a34d57ae6908660c01b6118a5565b7fc410f6ec4eba9d4398c3a8e2a8b796ffce6ad710adc2748f752eeefd45fa8022888286604051610d36939291906144be565b60405180910390a15050505050505050565b6000600980549050905090565b610d66610d6061196d565b8261207d565b610da5576040517f08c379a0000000000000000000000000000000000000000000000000000000008152600401610d9c90614567565b60405180910390fd5b610db0838383612112565b505050565b6000610dc0836110f6565b8210610e01576040517f08c379a0000000000000000000000000000000000000000000000000000000008152600401610df8906145f9565b60405180910390fd5b600760008473ffffffffffffffffffffffffffffffffffffffff1673ffffffffffffffffffffffffffffffffffffffff168152602001908152602001600020600083815260200190815260200160002054905092915050565b600080600080610e746762c19a1fadf731b160c01b6118a5565b610e7c611a2e565b610e9067141e9318f605244d60c01b6118a5565b610ea467cca97ca26516524560c01b6118a5565b610eb867d19e35feb69b61e660c01b6118a5565b610ecc677ec0b13c33ecb02760c01b6118a5565b600d6000806003811115610ee357610ee2613e87565b5b6003811115610ef557610ef4613e87565b5b815260200190815260200160002060000154600d600060016003811115610f1f57610f1e613e87565b5b6003811115610f3157610f30613e87565b5b815260200190815260200160002060000154600d600060026003811115610f5b57610f5a613e87565b5b6003811115610f6d57610f6c613e87565b5b815260200190815260200160002060000154600d6000600380811115610f9657610f95613e87565b5b6003811115610fa857610fa7613e87565b5b815260200190815260200160002060000154935093509350935090919293565b610fe383838360405180602001604052806000815250611293565b505050565b6000610ff2610d48565b8210611033576040517f08c379a000000000000000000000000000000000000000000000000000000000815260040161102a9061468b565b60405180910390fd5b60098281548110611047576110466146ab565b5b90600052602060002001549050919050565b6000600b60009054906101000a900460ff16905090565b60008061107c8361240b565b9050600073ffffffffffffffffffffffffffffffffffffffff168173ffffffffffffffffffffffffffffffffffffffff16036110ed576040517f08c379a00000000000000000000000000000000000000000000000000000000081526004016110e490614726565b60405180910390fd5b80915050919050565b60008073ffffffffffffffffffffffffffffffffffffffff168273ffffffffffffffffffffffffffffffffffffffff1603611166576040517f08c379a000000000000000000000000000000000000000000000000000000000815260040161115d906147b8565b60405180910390fd5b600360008373ffffffffffffffffffffffffffffffffffffffff1673ffffffffffffffffffffffffffffffffffffffff168152602001908152602001600020549050919050565b6111b5611a2e565b6111bf6000612448565b565b6000600b60019054906101000a900473ffffffffffffffffffffffffffffffffffffffff16905090565b6060600180546111fa90613d32565b80601f016020809104026020016040519081016040528092919081815260200182805461122690613d32565b80156112735780601f1061124857610100808354040283529160200191611273565b820191906000526020600020905b81548152906001019060200180831161125657829003601f168201915b5050505050905090565b61128f61128861196d565b838361250e565b5050565b6112a461129e61196d565b8361207d565b6112e3576040517f08c379a00000000000000000000000000000000000000000000000000000000081526004016112da90614567565b60405180910390fd5b6112ef8484848461267a565b50505050565b60008060008061130f674cf41d61b8b9462960c01b6118a5565b611317611a2e565b61132b67b252de0872acee2c60c01b6118a5565b61133f673042747d313e105660c01b6118a5565b61135367de7c12502a2fd82760c01b6118a5565b611367676d43e4a91894ed8560c01b6118a5565b600d600080600381111561137e5761137d613e87565b5b60038111156113905761138f613e87565b5b815260200190815260200160002060020154600d6000600160038111156113ba576113b9613e87565b5b60038111156113cc576113cb613e87565b5b815260200190815260200160002060020154600d6000600260038111156113f6576113f5613e87565b5b600381111561140857611407613e87565b5b815260200190815260200160002060020154600d600060038081111561143157611430613e87565b5b600381111561144357611442613e87565b5b815260200190815260200160002060020154935093509350935090919293565b606061147967e2364c90b74fcc4360c01b6118a5565b61148d67611dd934dc37e33b60c01b6118a5565b6114a167fe788c4b9ad0ab2c60c01b6118a5565b6114aa826126d6565b9050919050565b60006114c76797fac224f1e059ea60c01b6118a5565b6114cf611a2e565b6114e36767b6b6d609791a3c60c01b6118a5565b6114f7673a33f06a4fb4811360c01b6118a5565b61150b67f1b36cae60b50c0860c01b6118a5565b61151f67c98c28282d63527560c01b6118a5565b6000600381111561153357611532613e87565b5b820361157e5761154d679cba805023d6c93360c01b6118a5565b6115616794715e04a4c2103960c01b6118a5565b6115756788ae6b6ce9afa4b160c01b6118a5565b600a9050611789565b61159267aa38b20289d72b7760c01b6118a5565b6115a667d5ebb33de27ea07160c01b6118a5565b600160038111156115ba576115b9613e87565b5b8203611605576115d467849d27a631f474ce60c01b6118a5565b6115e867b41d3fe9d4f6fe2960c01b6118a5565b6115fc67d9844298b46a001760c01b6118a5565b60199050611789565b61161967c92b6837b2839db660c01b6118a5565b61162d67751245cd69442c0b60c01b6118a5565b6002600381111561164157611640613e87565b5b820361168c5761165b6776b245f4ecbf5dce60c01b6118a5565b61166f67d2c6c804dd2e6e4860c01b6118a5565b61168367daf8b72db56e90da60c01b6118a5565b60329050611789565b6116a067849c3cda826cd7be60c01b6118a5565b6116b467aed57ca68143876a60c01b6118a5565b6003808111156116c7576116c6613e87565b5b8203611712576116e1678630b297afdff0ae60c01b6118a5565b6116f56714feb081f153f69f60c01b6118a5565b61170967fc1d4171bf60b5e760c01b6118a5565b60649050611789565b61172667cbb9e27760ecac9860c01b6118a5565b61173a6715dfeb7160ea63d060c01b6118a5565b61174e67d9082dcc72738eaf60c01b6118a5565b6040517f08c379a000000000000000000000000000000000000000000000000000000000815260040161178090613f02565b60405180910390fd5b919050565b6000600560008473ffffffffffffffffffffffffffffffffffffffff1673ffffffffffffffffffffffffffffffffffffffff16815260200190815260200160002060008373ffffffffffffffffffffffffffffffffffffffff1673ffffffffffffffffffffffffffffffffffffffff16815260200190815260200160002060009054906101000a900460ff16905092915050565b61182a611a2e565b600073ffffffffffffffffffffffffffffffffffffffff168173ffffffffffffffffffffffffffffffffffffffff1603611899576040517f08c379a00000000000000000000000000000000000000000000000000000000081526004016118909061484a565b60405180910390fd5b6118a281612448565b50565b50565b60007f780e9d63000000000000000000000000000000000000000000000000000000007bffffffffffffffffffffffffffffffffffffffffffffffffffffffff1916827bffffffffffffffffffffffffffffffffffffffffffffffffffffffff1916148061191b575061191a826127e8565b5b9050919050565b61192b81612849565b61196a576040517f08c379a000000000000000000000000000000000000000000000000000000000815260040161196190614726565b60405180910390fd5b50565b600033905090565b816004600083815260200190815260200160002060006101000a81548173ffffffffffffffffffffffffffffffffffffffff021916908373ffffffffffffffffffffffffffffffffffffffff160217905550808273ffffffffffffffffffffffffffffffffffffffff166119e883611070565b73ffffffffffffffffffffffffffffffffffffffff167f8c5be1e5ebec7d5bd14f71427d1e84f3dd0314c0f7b2291e5b200ac8c7c3b92560405160405180910390a45050565b611a3661196d565b73ffffffffffffffffffffffffffffffffffffffff16611a546111c1565b73ffffffffffffffffffffffffffffffffffffffff1614611aaa576040517f08c379a0000000000000000000000000000000000000000000000000000000008152600401611aa1906148b6565b60405180910390fd5b565b600060019050919050565b6060611acd671bcddab3de9e9a2960c01b6118a5565b611ae1677583b31761b1716060c01b6118a5565b611af567924dc98168c25d8f60c01b6118a5565b60006003811115611b0957611b08613e87565b5b8203611b8857611b2367af666523c20a517a60c01b6118a5565b611b376708cceaf8f139227660c01b6118a5565b611b4b67eb23e4b2a8285c1760c01b6118a5565b6040518060400160405280600781526020017f434c4153534943000000000000000000000000000000000000000000000000008152509050611e2f565b611b9c67cdaf13fda3a9241f60c01b6118a5565b611bb0679cd2e8cec4ac59b260c01b6118a5565b60016003811115611bc457611bc3613e87565b5b8203611c4357611bde675d44d79dfc06b99260c01b6118a5565b611bf267c93d17f9656d084b60c01b6118a5565b611c066774329e61171beb6060c01b6118a5565b6040518060400160405280600481526020017f504c5553000000000000000000000000000000000000000000000000000000008152509050611e2f565b611c57678dd141c1bd36e24b60c01b6118a5565b611c6b6797958cf8a991148560c01b6118a5565b60026003811115611c7f57611c7e613e87565b5b8203611cfe57611c99671f8b71f48d205b6560c01b6118a5565b611cad676123c7a3643555e160c01b6118a5565b611cc1674b9f74cab27198ad60c01b6118a5565b6040518060400160405280600781526020017f5052454d49554d000000000000000000000000000000000000000000000000008152509050611e2f565b611d1267caa90568e3e97d1560c01b6118a5565b611d2667634596d047a196c560c01b6118a5565b600380811115611d3957611d38613e87565b5b8203611db857611d5367538f86a295ebb02960c01b6118a5565b611d676762fb86bb6a118e5460c01b6118a5565b611d7b67e9f93549b2c28c8d60c01b6118a5565b6040518060400160405280600381526020017f56495000000000000000000000000000000000000000000000000000000000008152509050611e2f565b611dcc67c3e3647402f35a0d60c01b6118a5565b611de067ea04480fe70b3a3260c01b6118a5565b611df46791293705dfb494bd60c01b6118a5565b6040517f08c379a0000000000000000000000000000000000000000000000000000000008152600401611e2690613f02565b60405180910390fd5b919050565b60606000825103611e5657604051806020016040528060008152509050611f92565b60006040518060600160405280604081526020016152036040913990506000600360028551611e8591906148d6565b611e8f9190614939565b6004611e9b9190613fbd565b67ffffffffffffffff811115611eb457611eb3613866565b5b6040519080825280601f01601f191660200182016040528015611ee65781602001600182028036833780820191505090505b509050600182016020820185865187015b80821015611f52576003820191508151603f8160121c168501518453600184019350603f81600c1c168501518453600184019350603f8160061c168501518453600184019350603f8116850151845360018401935050611ef7565b5050600386510660018114611f6e5760028114611f8157611f89565b603d6001830353603d6002830353611f89565b603d60018303535b50505080925050505b919050565b600081600001549050919050565b6001816000016000828254019250508190555050565b611fd582826040518060200160405280600081525061288a565b5050565b611fe282612849565b612021576040517f08c379a0000000000000000000000000000000000000000000000000000000008152600401612018906149dc565b60405180910390fd5b806006600084815260200190815260200160002090816120419190614ba8565b507ff8e1a15aba9398e019f0b49df1a4fde98ee17ae345cb5f6b5e2c27f5033e8ce7826040516120719190613a53565b60405180910390a15050565b60008061208983611070565b90508073ffffffffffffffffffffffffffffffffffffffff168473ffffffffffffffffffffffffffffffffffffffff1614806120cb57506120ca818561178e565b5b8061210957508373ffffffffffffffffffffffffffffffffffffffff166120f184610593565b73ffffffffffffffffffffffffffffffffffffffff16145b91505092915050565b8273ffffffffffffffffffffffffffffffffffffffff1661213282611070565b73ffffffffffffffffffffffffffffffffffffffff1614612188576040517f08c379a000000000000000000000000000000000000000000000000000000000815260040161217f90614cec565b60405180910390fd5b600073ffffffffffffffffffffffffffffffffffffffff168273ffffffffffffffffffffffffffffffffffffffff16036121f7576040517f08c379a00000000000000000000000000000000000000000000000000000000081526004016121ee90614d7e565b60405180910390fd5b61220483838360016128e5565b8273ffffffffffffffffffffffffffffffffffffffff1661222482611070565b73ffffffffffffffffffffffffffffffffffffffff161461227a576040517f08c379a000000000000000000000000000000000000000000000000000000000815260040161227190614cec565b60405180910390fd5b6004600082815260200190815260200160002060006101000a81549073ffffffffffffffffffffffffffffffffffffffff02191690556001600360008573ffffffffffffffffffffffffffffffffffffffff1673ffffffffffffffffffffffffffffffffffffffff168152602001908152602001600020600082825403925050819055506001600360008473ffffffffffffffffffffffffffffffffffffffff1673ffffffffffffffffffffffffffffffffffffffff16815260200190815260200160002060008282540192505081905550816002600083815260200190815260200160002060006101000a81548173ffffffffffffffffffffffffffffffffffffffff021916908373ffffffffffffffffffffffffffffffffffffffff160217905550808273ffffffffffffffffffffffffffffffffffffffff168473ffffffffffffffffffffffffffffffffffffffff167fddf252ad1be2c89b69c2b068fc378daa952ba7f163c4a11628f55a4df523b3ef60405160405180910390a46124068383836001612933565b505050565b60006002600083815260200190815260200160002060009054906101000a900473ffffffffffffffffffffffffffffffffffffffff169050919050565b6000600b60019054906101000a900473ffffffffffffffffffffffffffffffffffffffff16905081600b60016101000a81548173ffffffffffffffffffffffffffffffffffffffff021916908373ffffffffffffffffffffffffffffffffffffffff1602179055508173ffffffffffffffffffffffffffffffffffffffff168173ffffffffffffffffffffffffffffffffffffffff167f8be0079c531659141344cd1fd0a4f28419497f9722a3daafe3b4186f6b6457e060405160405180910390a35050565b8173ffffffffffffffffffffffffffffffffffffffff168373ffffffffffffffffffffffffffffffffffffffff160361257c576040517f08c379a000000000000000000000000000000000000000000000000000000000815260040161257390614dea565b60405180910390fd5b80600560008573ffffffffffffffffffffffffffffffffffffffff1673ffffffffffffffffffffffffffffffffffffffff16815260200190815260200160002060008473ffffffffffffffffffffffffffffffffffffffff1673ffffffffffffffffffffffffffffffffffffffff16815260200190815260200160002060006101000a81548160ff0219169083151502179055508173ffffffffffffffffffffffffffffffffffffffff168373ffffffffffffffffffffffffffffffffffffffff167f17307eab39ab6107e8899845ad3d59bd9653f200f220920489ca2b5937696c318360405161266d9190613664565b60405180910390a3505050565b612685848484612112565b61269184848484612939565b6126d0576040517f08c379a00000000000000000000000000000000000000000000000000000000081526004016126c790614e7c565b60405180910390fd5b50505050565b60606126e182611922565b600060066000848152602001908152602001600020805461270190613d32565b80601f016020809104026020016040519081016040528092919081815260200182805461272d90613d32565b801561277a5780601f1061274f5761010080835404028352916020019161277a565b820191906000526020600020905b81548152906001019060200180831161275d57829003601f168201915b50505050509050600061278b612ac0565b905060008151036127a05781925050506127e3565b6000825111156127d55780826040516020016127bd929190614e9c565b604051602081830303815290604052925050506127e3565b6127de84612ad7565b925050505b919050565b6000634906490660e01b7bffffffffffffffffffffffffffffffffffffffffffffffffffffffff1916827bffffffffffffffffffffffffffffffffffffffffffffffffffffffff19161480612842575061284182612b3f565b5b9050919050565b60008073ffffffffffffffffffffffffffffffffffffffff1661286b8361240b565b73ffffffffffffffffffffffffffffffffffffffff1614159050919050565b6128948383612c21565b6128a16000848484612939565b6128e0576040517f08c379a00000000000000000000000000000000000000000000000000000000081526004016128d790614e7c565b60405180910390fd5b505050565b6128f967e1cb38ba73f6503160c01b6118a5565b61290d6703bd3a9c8e637afb60c01b6118a5565b6129216742166779ccf2f76960c01b6118a5565b61292d84848484612e3e565b50505050565b50505050565b600061295a8473ffffffffffffffffffffffffffffffffffffffff16612e98565b15612ab3578373ffffffffffffffffffffffffffffffffffffffff1663150b7a0261298361196d565b8786866040518563ffffffff1660e01b81526004016129a59493929190614f15565b6020604051808303816000875af19250505080156129e157506040513d601f19601f820116820180604052508101906129de9190614f76565b60015b612a63573d8060008114612a11576040519150601f19603f3d011682016040523d82523d6000602084013e612a16565b606091505b506000815103612a5b576040517f08c379a0000000000000000000000000000000000000000000000000000000008152600401612a5290614e7c565b60405180910390fd5b805181602001fd5b63150b7a0260e01b7bffffffffffffffffffffffffffffffffffffffffffffffffffffffff1916817bffffffffffffffffffffffffffffffffffffffffffffffffffffffff191614915050612ab8565b600190505b949350505050565b606060405180602001604052806000815250905090565b6060612ae282611922565b6000612aec612ac0565b90506000815111612b0c5760405180602001604052806000815250612b37565b80612b1684612ebb565b604051602001612b27929190614e9c565b6040516020818303038152906040525b915050919050565b60007f80ac58cd000000000000000000000000000000000000000000000000000000007bffffffffffffffffffffffffffffffffffffffffffffffffffffffff1916827bffffffffffffffffffffffffffffffffffffffffffffffffffffffff19161480612c0a57507f5b5e139f000000000000000000000000000000000000000000000000000000007bffffffffffffffffffffffffffffffffffffffffffffffffffffffff1916827bffffffffffffffffffffffffffffffffffffffffffffffffffffffff1916145b80612c1a5750612c1982612f89565b5b9050919050565b600073ffffffffffffffffffffffffffffffffffffffff168273ffffffffffffffffffffffffffffffffffffffff1603612c90576040517f08c379a0000000000000000000000000000000000000000000000000000000008152600401612c8790614fef565b60405180910390fd5b612c9981612849565b15612cd9576040517f08c379a0000000000000000000000000000000000000000000000000000000008152600401612cd09061505b565b60405180910390fd5b612ce76000838360016128e5565b612cf081612849565b15612d30576040517f08c379a0000000000000000000000000000000000000000000000000000000008152600401612d279061505b565b60405180910390fd5b6001600360008473ffffffffffffffffffffffffffffffffffffffff1673ffffffffffffffffffffffffffffffffffffffff16815260200190815260200160002060008282540192505081905550816002600083815260200190815260200160002060006101000a81548173ffffffffffffffffffffffffffffffffffffffff021916908373ffffffffffffffffffffffffffffffffffffffff160217905550808273ffffffffffffffffffffffffffffffffffffffff16600073ffffffffffffffffffffffffffffffffffffffff167fddf252ad1be2c89b69c2b068fc378daa952ba7f163c4a11628f55a4df523b3ef60405160405180910390a4612e3a600083836001612933565b5050565b612e4a84848484612ff3565b612e52611059565b15612e92576040517f08c379a0000000000000000000000000000000000000000000000000000000008152600401612e89906150ed565b60405180910390fd5b50505050565b6000808273ffffffffffffffffffffffffffffffffffffffff163b119050919050565b606060006001612eca84613151565b01905060008167ffffffffffffffff811115612ee957612ee8613866565b5b6040519080825280601f01601f191660200182016040528015612f1b5781602001600182028036833780820191505090505b509050600082602001820190505b600115612f7e578080600190039150507f3031323334353637383961626364656600000000000000000000000000000000600a86061a8153600a8581612f7257612f7161490a565b5b04945060008503612f29575b819350505050919050565b60007f01ffc9a7000000000000000000000000000000000000000000000000000000007bffffffffffffffffffffffffffffffffffffffffffffffffffffffff1916827bffffffffffffffffffffffffffffffffffffffffffffffffffffffff1916149050919050565b612fff848484846132a4565b6001811115613043576040517f08c379a000000000000000000000000000000000000000000000000000000000815260040161303a9061517f565b60405180910390fd5b6000829050600073ffffffffffffffffffffffffffffffffffffffff168573ffffffffffffffffffffffffffffffffffffffff160361308a57613085816132aa565b6130c9565b8373ffffffffffffffffffffffffffffffffffffffff168573ffffffffffffffffffffffffffffffffffffffff16146130c8576130c785826132f3565b5b5b600073ffffffffffffffffffffffffffffffffffffffff168473ffffffffffffffffffffffffffffffffffffffff160361310b5761310681613460565b61314a565b8473ffffffffffffffffffffffffffffffffffffffff168473ffffffffffffffffffffffffffffffffffffffff1614613149576131488482613531565b5b5b5050505050565b600080600090507a184f03e93ff9f4daa797ed6e38ed64bf6a1f01000000000000000083106131af577a184f03e93ff9f4daa797ed6e38ed64bf6a1f01000000000000000083816131a5576131a461490a565b5b0492506040810190505b6d04ee2d6d415b85acef810000000083106131ec576d04ee2d6d415b85acef810000000083816131e2576131e161490a565b5b0492506020810190505b662386f26fc10000831061321b57662386f26fc1000083816132115761321061490a565b5b0492506010810190505b6305f5e1008310613244576305f5e100838161323a5761323961490a565b5b0492506008810190505b612710831061326957612710838161325f5761325e61490a565b5b0492506004810190505b6064831061328c57606483816132825761328161490a565b5b0492506002810190505b600a831061329b576001810190505b80915050919050565b50505050565b600980549050600a600083815260200190815260200160002081905550600981908060018154018082558091505060019003906000526020600020016000909190919091505550565b60006001613300846110f6565b61330a919061519f565b90506000600860008481526020019081526020016000205490508181146133ef576000600760008673ffffffffffffffffffffffffffffffffffffffff1673ffffffffffffffffffffffffffffffffffffffff168152602001908152602001600020600084815260200190815260200160002054905080600760008773ffffffffffffffffffffffffffffffffffffffff1673ffffffffffffffffffffffffffffffffffffffff168152602001908152602001600020600084815260200190815260200160002081905550816008600083815260200190815260200160002081905550505b6008600084815260200190815260200160002060009055600760008573ffffffffffffffffffffffffffffffffffffffff1673ffffffffffffffffffffffffffffffffffffffff16815260200190815260200160002060008381526020019081526020016000206000905550505050565b60006001600980549050613474919061519f565b90506000600a60008481526020019081526020016000205490506000600983815481106134a4576134a36146ab565b5b9060005260206000200154905080600983815481106134c6576134c56146ab565b5b906000526020600020018190555081600a600083815260200190815260200160002081905550600a6000858152602001908152602001600020600090556009805480613515576135146151d3565b5b6001900381819060005260206000200160009055905550505050565b600061353c836110f6565b905081600760008573ffffffffffffffffffffffffffffffffffffffff1673ffffffffffffffffffffffffffffffffffffffff168152602001908152602001600020600083815260200190815260200160002081905550806008600084815260200190815260200160002081905550505050565b6000604051905090565b600080fd5b600080fd5b60007fffffffff0000000000000000000000000000000000000000000000000000000082169050919050565b6135f9816135c4565b811461360457600080fd5b50565b600081359050613616816135f0565b92915050565b600060208284031215613632576136316135ba565b5b600061364084828501613607565b91505092915050565b60008115159050919050565b61365e81613649565b82525050565b60006020820190506136796000830184613655565b92915050565b600081519050919050565b600082825260208201905092915050565b60005b838110156136b957808201518184015260208101905061369e565b60008484015250505050565b6000601f19601f8301169050919050565b60006136e18261367f565b6136eb818561368a565b93506136fb81856020860161369b565b613704816136c5565b840191505092915050565b6000602082019050818103600083015261372981846136d6565b905092915050565b6000819050919050565b61374481613731565b811461374f57600080fd5b50565b6000813590506137618161373b565b92915050565b60006020828403121561377d5761377c6135ba565b5b600061378b84828501613752565b91505092915050565b600073ffffffffffffffffffffffffffffffffffffffff82169050919050565b60006137bf82613794565b9050919050565b6137cf816137b4565b82525050565b60006020820190506137ea60008301846137c6565b92915050565b6137f9816137b4565b811461380457600080fd5b50565b600081359050613816816137f0565b92915050565b60008060408385031215613833576138326135ba565b5b600061384185828601613807565b925050602061385285828601613752565b9150509250929050565b600080fd5b600080fd5b7f4e487b7100000000000000000000000000000000000000000000000000000000600052604160045260246000fd5b61389e826136c5565b810181811067ffffffffffffffff821117156138bd576138bc613866565b5b80604052505050565b60006138d06135b0565b90506138dc8282613895565b919050565b600067ffffffffffffffff8211156138fc576138fb613866565b5b613905826136c5565b9050602081019050919050565b82818337600083830152505050565b600061393461392f846138e1565b6138c6565b9050828152602081018484840111156139505761394f613861565b5b61395b848285613912565b509392505050565b600082601f8301126139785761397761385c565b5b8135613988848260208601613921565b91505092915050565b600080600080600060a086880312156139ad576139ac6135ba565b5b60006139bb88828901613807565b95505060206139cc88828901613752565b945050604086013567ffffffffffffffff8111156139ed576139ec6135bf565b5b6139f988828901613963565b935050606086013567ffffffffffffffff811115613a1a57613a196135bf565b5b613a2688828901613963565b9250506080613a3788828901613752565b9150509295509295909350565b613a4d81613731565b82525050565b6000602082019050613a686000830184613a44565b92915050565b600080600060608486031215613a8757613a866135ba565b5b6000613a9586828701613807565b9350506020613aa686828701613807565b9250506040613ab786828701613752565b9150509250925092565b6000608082019050613ad66000830187613a44565b613ae36020830186613a44565b613af06040830185613a44565b613afd6060830184613a44565b95945050505050565b600060208284031215613b1c57613b1b6135ba565b5b6000613b2a84828501613807565b91505092915050565b613b3c81613649565b8114613b4757600080fd5b50565b600081359050613b5981613b33565b92915050565b60008060408385031215613b7657613b756135ba565b5b6000613b8485828601613807565b9250506020613b9585828601613b4a565b9150509250929050565b600067ffffffffffffffff821115613bba57613bb9613866565b5b613bc3826136c5565b9050602081019050919050565b6000613be3613bde84613b9f565b6138c6565b905082815260208101848484011115613bff57613bfe613861565b5b613c0a848285613912565b509392505050565b600082601f830112613c2757613c2661385c565b5b8135613c37848260208601613bd0565b91505092915050565b60008060008060808587031215613c5a57613c596135ba565b5b6000613c6887828801613807565b9450506020613c7987828801613807565b9350506040613c8a87828801613752565b925050606085013567ffffffffffffffff811115613cab57613caa6135bf565b5b613cb787828801613c12565b91505092959194509250565b60008060408385031215613cda57613cd96135ba565b5b6000613ce885828601613807565b9250506020613cf985828601613807565b9150509250929050565b7f4e487b7100000000000000000000000000000000000000000000000000000000600052602260045260246000fd5b60006002820490506001821680613d4a57607f821691505b602082108103613d5d57613d5c613d03565b5b50919050565b7f4552433732313a20617070726f76616c20746f2063757272656e74206f776e6560008201527f7200000000000000000000000000000000000000000000000000000000000000602082015250565b6000613dbf60218361368a565b9150613dca82613d63565b604082019050919050565b60006020820190508181036000830152613dee81613db2565b9050919050565b7f4552433732313a20617070726f76652063616c6c6572206973206e6f7420746f60008201527f6b656e206f776e6572206f7220617070726f76656420666f7220616c6c000000602082015250565b6000613e51603d8361368a565b9150613e5c82613df5565b604082019050919050565b60006020820190508181036000830152613e8081613e44565b9050919050565b7f4e487b7100000000000000000000000000000000000000000000000000000000600052602160045260246000fd5b7f4e46542074797065206e6f742065786973740000000000000000000000000000600082015250565b6000613eec60128361368a565b9150613ef782613eb6565b602082019050919050565b60006020820190508181036000830152613f1b81613edf565b9050919050565b7f4d6178696d756d20737570706c79207265616368656400000000000000000000600082015250565b6000613f5860168361368a565b9150613f6382613f22565b602082019050919050565b60006020820190508181036000830152613f8781613f4b565b9050919050565b7f4e487b7100000000000000000000000000000000000000000000000000000000600052601160045260246000fd5b6000613fc882613731565b9150613fd383613731565b9250828202613fe181613731565b91508282048414831517613ff857613ff7613f8e565b5b5092915050565b7f4e6f7420656e6175676820706169640000000000000000000000000000000000600082015250565b6000614035600f8361368a565b915061404082613fff565b602082019050919050565b6000602082019050818103600083015261406481614028565b9050919050565b600081905092915050565b7f7b00000000000000000000000000000000000000000000000000000000000000600082015250565b60006140ac60018361406b565b91506140b782614076565b600182019050919050565b7f226e616d65223a20220000000000000000000000000000000000000000000000600082015250565b60006140f860098361406b565b9150614103826140c2565b600982019050919050565b60006141198261367f565b614123818561406b565b935061413381856020860161369b565b80840191505092915050565b7f222c000000000000000000000000000000000000000000000000000000000000600082015250565b600061417560028361406b565b91506141808261413f565b600282019050919050565b7f22696d616765223a2022697066733a2f2f000000000000000000000000000000600082015250565b60006141c160118361406b565b91506141cc8261418b565b601182019050919050565b7f2261747472696275746573223a205b0000000000000000000000000000000000600082015250565b600061420d600f8361406b565b9150614218826141d7565b600f82019050919050565b7f2274797065223a20220000000000000000000000000000000000000000000000600082015250565b600061425960098361406b565b915061426482614223565b600982019050919050565b7f2200000000000000000000000000000000000000000000000000000000000000600082015250565b60006142a560018361406b565b91506142b08261426f565b600182019050919050565b7f7d00000000000000000000000000000000000000000000000000000000000000600082015250565b60006142f160018361406b565b91506142fc826142bb565b600182019050919050565b7f5d00000000000000000000000000000000000000000000000000000000000000600082015250565b600061433d60018361406b565b915061434882614307565b600182019050919050565b600061435e8261409f565b9150614369826140eb565b9150614375828661410e565b915061438082614168565b915061438b826141b4565b9150614397828561410e565b91506143a282614168565b91506143ad82614200565b91506143b88261409f565b91506143c38261424c565b91506143cf828461410e565b91506143da82614298565b91506143e5826142e4565b91506143f082614330565b91506143fb826142e4565b9150819050949350505050565b7f646174613a6170706c69636174696f6e2f6a736f6e3b6261736536342c000000600082015250565b600061443e601d8361406b565b915061444982614408565b601d82019050919050565b600061445f82614431565b915061446b828461410e565b915081905092915050565b600061448182613731565b91507fffffffffffffffffffffffffffffffffffffffffffffffffffffffffffffffff82036144b3576144b2613f8e565b5b600182019050919050565b60006060820190506144d360008301866137c6565b6144e06020830185613a44565b6144ed6040830184613a44565b949350505050565b7f4552433732313a2063616c6c6572206973206e6f7420746f6b656e206f776e6560008201527f72206f7220617070726f76656400000000000000000000000000000000000000602082015250565b6000614551602d8361368a565b915061455c826144f5565b604082019050919050565b6000602082019050818103600083015261458081614544565b9050919050565b7f455243373231456e756d657261626c653a206f776e657220696e646578206f7560008201527f74206f6620626f756e6473000000000000000000000000000000000000000000602082015250565b60006145e3602b8361368a565b91506145ee82614587565b604082019050919050565b60006020820190508181036000830152614612816145d6565b9050919050565b7f455243373231456e756d657261626c653a20676c6f62616c20696e646578206f60008201527f7574206f6620626f756e64730000000000000000000000000000000000000000602082015250565b6000614675602c8361368a565b915061468082614619565b604082019050919050565b600060208201905081810360008301526146a481614668565b9050919050565b7f4e487b7100000000000000000000000000000000000000000000000000000000600052603260045260246000fd5b7f4552433732313a20696e76616c696420746f6b656e2049440000000000000000600082015250565b600061471060188361368a565b915061471b826146da565b602082019050919050565b6000602082019050818103600083015261473f81614703565b9050919050565b7f4552433732313a2061646472657373207a65726f206973206e6f74206120766160008201527f6c6964206f776e65720000000000000000000000000000000000000000000000602082015250565b60006147a260298361368a565b91506147ad82614746565b604082019050919050565b600060208201905081810360008301526147d181614795565b9050919050565b7f4f776e61626c653a206e6577206f776e657220697320746865207a65726f206160008201527f6464726573730000000000000000000000000000000000000000000000000000602082015250565b600061483460268361368a565b915061483f826147d8565b604082019050919050565b6000602082019050818103600083015261486381614827565b9050919050565b7f4f776e61626c653a2063616c6c6572206973206e6f7420746865206f776e6572600082015250565b60006148a060208361368a565b91506148ab8261486a565b602082019050919050565b600060208201905081810360008301526148cf81614893565b9050919050565b60006148e182613731565b91506148ec83613731565b925082820190508082111561490457614903613f8e565b5b92915050565b7f4e487b7100000000000000000000000000000000000000000000000000000000600052601260045260246000fd5b600061494482613731565b915061494f83613731565b92508261495f5761495e61490a565b5b828204905092915050565b7f45524337323155524953746f726167653a2055524920736574206f66206e6f6e60008201527f6578697374656e7420746f6b656e000000000000000000000000000000000000602082015250565b60006149c6602e8361368a565b91506149d18261496a565b604082019050919050565b600060208201905081810360008301526149f5816149b9565b9050919050565b60008190508160005260206000209050919050565b60006020601f8301049050919050565b600082821b905092915050565b600060088302614a5e7fffffffffffffffffffffffffffffffffffffffffffffffffffffffffffffffff82614a21565b614a688683614a21565b95508019841693508086168417925050509392505050565b6000819050919050565b6000614aa5614aa0614a9b84613731565b614a80565b613731565b9050919050565b6000819050919050565b614abf83614a8a565b614ad3614acb82614aac565b848454614a2e565b825550505050565b600090565b614ae8614adb565b614af3818484614ab6565b505050565b5b81811015614b1757614b0c600082614ae0565b600181019050614af9565b5050565b601f821115614b5c57614b2d816149fc565b614b3684614a11565b81016020851015614b45578190505b614b59614b5185614a11565b830182614af8565b50505b505050565b600082821c905092915050565b6000614b7f60001984600802614b61565b1980831691505092915050565b6000614b988383614b6e565b9150826002028217905092915050565b614bb18261367f565b67ffffffffffffffff811115614bca57614bc9613866565b5b614bd48254613d32565b614bdf828285614b1b565b600060209050601f831160018114614c125760008415614c00578287015190505b614c0a8582614b8c565b865550614c72565b601f198416614c20866149fc565b60005b82811015614c4857848901518255600182019150602085019450602081019050614c23565b86831015614c655784890151614c61601f891682614b6e565b8355505b6001600288020188555050505b505050505050565b7f4552433732313a207472616e736665722066726f6d20696e636f72726563742060008201527f6f776e6572000000000000000000000000000000000000000000000000000000602082015250565b6000614cd660258361368a565b9150614ce182614c7a565b604082019050919050565b60006020820190508181036000830152614d0581614cc9565b9050919050565b7f4552433732313a207472616e7366657220746f20746865207a65726f2061646460008201527f7265737300000000000000000000000000000000000000000000000000000000602082015250565b6000614d6860248361368a565b9150614d7382614d0c565b604082019050919050565b60006020820190508181036000830152614d9781614d5b565b9050919050565b7f4552433732313a20617070726f766520746f2063616c6c657200000000000000600082015250565b6000614dd460198361368a565b9150614ddf82614d9e565b602082019050919050565b60006020820190508181036000830152614e0381614dc7565b9050919050565b7f4552433732313a207472616e7366657220746f206e6f6e20455243373231526560008201527f63656976657220696d706c656d656e7465720000000000000000000000000000602082015250565b6000614e6660328361368a565b9150614e7182614e0a565b604082019050919050565b60006020820190508181036000830152614e9581614e59565b9050919050565b6000614ea8828561410e565b9150614eb4828461410e565b91508190509392505050565b600081519050919050565b600082825260208201905092915050565b6000614ee782614ec0565b614ef18185614ecb565b9350614f0181856020860161369b565b614f0a816136c5565b840191505092915050565b6000608082019050614f2a60008301876137c6565b614f3760208301866137c6565b614f446040830185613a44565b8181036060830152614f568184614edc565b905095945050505050565b600081519050614f70816135f0565b92915050565b600060208284031215614f8c57614f8b6135ba565b5b6000614f9a84828501614f61565b91505092915050565b7f4552433732313a206d696e7420746f20746865207a65726f2061646472657373600082015250565b6000614fd960208361368a565b9150614fe482614fa3565b602082019050919050565b6000602082019050818103600083015261500881614fcc565b9050919050565b7f4552433732313a20746f6b656e20616c7265616479206d696e74656400000000600082015250565b6000615045601c8361368a565b91506150508261500f565b602082019050919050565b6000602082019050818103600083015261507481615038565b9050919050565b7f4552433732315061757361626c653a20746f6b656e207472616e73666572207760008201527f68696c6520706175736564000000000000000000000000000000000000000000602082015250565b60006150d7602b8361368a565b91506150e28261507b565b604082019050919050565b60006020820190508181036000830152615106816150ca565b9050919050565b7f455243373231456e756d657261626c653a20636f6e736563757469766520747260008201527f616e7366657273206e6f7420737570706f727465640000000000000000000000602082015250565b600061516960358361368a565b91506151748261510d565b604082019050919050565b600060208201905081810360008301526151988161515c565b9050919050565b60006151aa82613731565b91506151b583613731565b92508282039050818111156151cd576151cc613f8e565b5b92915050565b7f4e487b7100000000000000000000000000000000000000000000000000000000600052603160045260246000fdfe4142434445464748494a4b4c4d4e4f505152535455565758595a6162636465666768696a6b6c6d6e6f707172737475767778797a303132333435363738392b2fa2646970667358221220fa44fe967036f69de5f5e0a463c3a1bdd35d5d5128254f9f3c931b6b0d4d97ad64736f6c63430008110033a264697066735822122096b937fe2139ffadd89215f06941f9a67c5da76ea29077286c1cbf545f376b9e64736f6c63430008110033",
  "linkReferences": {},
  "deployedLinkReferences": {}
}