{
  "_format": "hh-sol-artifact-1",
  "contractName": "FundsFactory",
  "sourceName": "contracts/FundsFactory.sol",
  "abi": [
    {
      "inputs": [
        {
          "internalType": "address",
          "name": "_dao",
          "type": "address"
        }
      ],
      "stateMutability": "nonpayable",
      "type": "constructor"
    },
    {
      "anonymous": false,
      "inputs": [
        {
          "indexed": false,
          "internalType": "uint256",
          "name": "requestId",
          "type": "uint256"
        },
        {
          "indexed": false,
          "internalType": "address",
          "name": "reasearcher",
          "type": "address"
        }
      ],
      "name": "FundsRequestClosed",
      "type": "event"
    },
    {
      "anonymous": false,
      "inputs": [
        {
          "indexed": false,
          "internalType": "uint256",
          "name": "requestId",
          "type": "uint256"
        },
        {
          "indexed": false,
          "internalType": "address",
          "name": "reasearcher",
          "type": "address"
        }
      ],
      "name": "FundsRequestCreated",
      "type": "event"
    },
    {
      "anonymous": false,
      "inputs": [
        {
          "indexed": true,
          "internalType": "address",
          "name": "previousOwner",
          "type": "address"
        },
        {
          "indexed": true,
          "internalType": "address",
          "name": "newOwner",
          "type": "address"
        }
      ],
      "name": "OwnershipTransferred",
      "type": "event"
    },
    {
      "anonymous": false,
      "inputs": [
        {
          "indexed": false,
          "internalType": "uint256",
          "name": "projectId",
          "type": "uint256"
        },
        {
          "indexed": false,
          "internalType": "address",
          "name": "reasearcher",
          "type": "address"
        }
      ],
      "name": "ResearchProjectCreated",
      "type": "event"
    },
    {
      "anonymous": false,
      "inputs": [
        {
          "indexed": false,
          "internalType": "uint256",
          "name": "projectId",
          "type": "uint256"
        }
      ],
      "name": "ResearchProjectValidated",
      "type": "event"
    },
    {
      "anonymous": false,
      "inputs": [
        {
          "indexed": false,
          "internalType": "address",
          "name": "addr",
          "type": "address"
        },
        {
          "indexed": false,
          "internalType": "string",
          "name": "lastname",
          "type": "string"
        },
        {
          "indexed": false,
          "internalType": "string",
          "name": "forname",
          "type": "string"
        },
        {
          "indexed": false,
          "internalType": "string",
          "name": "company",
          "type": "string"
        }
      ],
      "name": "ResearcherAdded",
      "type": "event"
    },
    {
      "anonymous": false,
      "inputs": [
        {
          "indexed": false,
          "internalType": "address",
          "name": "investor",
          "type": "address"
        },
        {
          "indexed": false,
          "internalType": "uint256",
          "name": "projectId",
          "type": "uint256"
        },
        {
          "indexed": false,
          "internalType": "uint256",
          "name": "requestId",
          "type": "uint256"
        },
        {
          "indexed": false,
          "internalType": "bool",
          "name": "vote",
          "type": "bool"
        }
      ],
      "name": "VoteAdded",
      "type": "event"
    },
    {
      "stateMutability": "payable",
      "type": "fallback"
    },
    {
      "inputs": [
        {
          "internalType": "string",
          "name": "title",
          "type": "string"
        },
        {
          "internalType": "string",
          "name": "description",
          "type": "string"
        },
        {
          "internalType": "string",
          "name": "imageUrl",
          "type": "string"
        },
        {
          "internalType": "uint256",
          "name": "amountAsked",
          "type": "uint256"
        },
        {
          "internalType": "string",
          "name": "projectDetailsUri",
          "type": "string"
        }
      ],
      "name": "addResearchProject",
      "outputs": [],
      "stateMutability": "nonpayable",
      "type": "function"
    },
    {
      "inputs": [
        {
          "internalType": "address",
          "name": "addr",
          "type": "address"
        },
        {
          "internalType": "string",
          "name": "lastname",
          "type": "string"
        },
        {
          "internalType": "string",
          "name": "forname",
          "type": "string"
        },
        {
          "internalType": "string",
          "name": "company",
          "type": "string"
        }
      ],
      "name": "addResearcher",
      "outputs": [],
      "stateMutability": "nonpayable",
      "type": "function"
    },
    {
      "inputs": [
        {
          "internalType": "uint256",
          "name": "requestId",
          "type": "uint256"
        },
        {
          "internalType": "bool",
          "name": "vote",
          "type": "bool"
        }
      ],
      "name": "addVote",
      "outputs": [],
      "stateMutability": "nonpayable",
      "type": "function"
    },
    {
      "inputs": [
        {
          "internalType": "uint256",
          "name": "projectId",
          "type": "uint256"
        },
        {
          "internalType": "uint256",
          "name": "typeNFT",
          "type": "uint256"
        }
      ],
      "name": "buyNFT",
      "outputs": [],
      "stateMutability": "payable",
      "type": "function"
    },
    {
      "inputs": [
        {
          "internalType": "address",
          "name": "addr",
          "type": "address"
        },
        {
          "internalType": "bool",
          "name": "status",
          "type": "bool"
        }
      ],
      "name": "changeResearcherStatus",
      "outputs": [],
      "stateMutability": "nonpayable",
      "type": "function"
    },
    {
      "inputs": [
        {
          "internalType": "uint256",
          "name": "requestId",
          "type": "uint256"
        }
      ],
      "name": "claimFunds",
      "outputs": [],
      "stateMutability": "nonpayable",
      "type": "function"
    },
    {
      "inputs": [
        {
          "internalType": "uint256",
          "name": "requestId",
          "type": "uint256"
        }
      ],
      "name": "closeFundRequest",
      "outputs": [],
      "stateMutability": "nonpayable",
      "type": "function"
    },
    {
      "inputs": [
        {
          "internalType": "uint256",
          "name": "id",
          "type": "uint256"
        },
        {
          "internalType": "uint256",
          "name": "amount",
          "type": "uint256"
        },
        {
          "internalType": "string",
          "name": "description",
          "type": "string"
        }
      ],
      "name": "createFundsRequest",
      "outputs": [],
      "stateMutability": "nonpayable",
      "type": "function"
    },
    {
      "inputs": [
        {
          "internalType": "uint256",
          "name": "fundRequestId",
          "type": "uint256"
        }
      ],
      "name": "getFundsRequestDetails",
      "outputs": [
        {
          "internalType": "uint256",
          "name": "",
          "type": "uint256"
        },
        {
          "internalType": "uint256",
          "name": "",
          "type": "uint256"
        },
        {
          "internalType": "string",
          "name": "",
          "type": "string"
        },
        {
          "internalType": "uint256",
          "name": "",
          "type": "uint256"
        },
        {
          "internalType": "bool",
          "name": "",
          "type": "bool"
        },
        {
          "internalType": "uint256",
          "name": "",
          "type": "uint256"
        }
      ],
      "stateMutability": "view",
      "type": "function"
    },
    {
      "inputs": [
        {
          "internalType": "uint256",
          "name": "id",
          "type": "uint256"
        }
      ],
      "name": "getNFT_Prices",
      "outputs": [
        {
          "internalType": "uint256",
          "name": "",
          "type": "uint256"
        },
        {
          "internalType": "uint256",
          "name": "",
          "type": "uint256"
        },
        {
          "internalType": "uint256",
          "name": "",
          "type": "uint256"
        },
        {
          "internalType": "uint256",
          "name": "",
          "type": "uint256"
        }
      ],
      "stateMutability": "view",
      "type": "function"
    },
    {
      "inputs": [
        {
          "internalType": "uint256",
          "name": "id",
          "type": "uint256"
        }
      ],
      "name": "getNumberNFTMinted",
      "outputs": [
        {
          "internalType": "uint256",
          "name": "",
          "type": "uint256"
        },
        {
          "internalType": "uint256",
          "name": "",
          "type": "uint256"
        },
        {
          "internalType": "uint256",
          "name": "",
          "type": "uint256"
        },
        {
          "internalType": "uint256",
          "name": "",
          "type": "uint256"
        },
        {
          "internalType": "bool",
          "name": "",
          "type": "bool"
        }
      ],
      "stateMutability": "view",
      "type": "function"
    },
    {
      "inputs": [
        {
          "internalType": "uint256",
          "name": "id",
          "type": "uint256"
        }
      ],
      "name": "getResearchProject",
      "outputs": [
        {
          "components": [
            {
              "internalType": "uint256",
              "name": "id",
              "type": "uint256"
            },
            {
              "internalType": "uint256",
              "name": "creationTime",
              "type": "uint256"
            },
            {
              "internalType": "uint256",
              "name": "amountAsked",
              "type": "uint256"
            },
            {
              "internalType": "uint256",
              "name": "amountReceived",
              "type": "uint256"
            },
            {
              "internalType": "uint256",
              "name": "amountAlreayRaised",
              "type": "uint256"
            },
            {
              "internalType": "string",
              "name": "title",
              "type": "string"
            },
            {
              "internalType": "string",
              "name": "description",
              "type": "string"
            },
            {
              "internalType": "string",
              "name": "imageUrl",
              "type": "string"
            },
            {
              "internalType": "string",
              "name": "projectDetailsUri",
              "type": "string"
            },
            {
              "internalType": "address",
              "name": "researcher",
              "type": "address"
            },
            {
              "internalType": "contract FundNFT",
              "name": "fundNFT",
              "type": "address"
            },
            {
              "internalType": "enum FundsFactory.ResearchProjectStatus",
              "name": "status",
              "type": "uint8"
            },
            {
              "internalType": "uint256[]",
              "name": "fundRequestListsIds",
              "type": "uint256[]"
            },
            {
              "internalType": "bool",
              "name": "isAccepted",
              "type": "bool"
            }
          ],
          "internalType": "struct FundsFactory.ResearchProject",
          "name": "",
          "type": "tuple"
        }
      ],
      "stateMutability": "view",
      "type": "function"
    },
    {
      "inputs": [
        {
          "internalType": "address",
          "name": "addr",
          "type": "address"
        }
      ],
      "name": "getResearcher",
      "outputs": [
        {
          "components": [
            {
              "internalType": "string",
              "name": "lastname",
              "type": "string"
            },
            {
              "internalType": "string",
              "name": "forname",
              "type": "string"
            },
            {
              "internalType": "string",
              "name": "company",
              "type": "string"
            },
            {
              "internalType": "address",
              "name": "addr",
              "type": "address"
            },
            {
              "internalType": "bool",
              "name": "exist",
              "type": "bool"
            },
            {
              "internalType": "bool",
              "name": "isValidated",
              "type": "bool"
            },
            {
              "internalType": "uint256[]",
              "name": "projectListIds",
              "type": "uint256[]"
            }
          ],
          "internalType": "struct FundsFactory.Researcher",
          "name": "",
          "type": "tuple"
        }
      ],
      "stateMutability": "view",
      "type": "function"
    },
    {
      "inputs": [
        {
          "internalType": "uint256",
          "name": "requestId",
          "type": "uint256"
        }
      ],
      "name": "getVoteResult",
      "outputs": [
        {
          "internalType": "bool",
          "name": "",
          "type": "bool"
        },
        {
          "internalType": "uint256",
          "name": "",
          "type": "uint256"
        },
        {
          "internalType": "uint256",
          "name": "",
          "type": "uint256"
        },
        {
          "internalType": "uint256",
          "name": "",
          "type": "uint256"
        }
      ],
      "stateMutability": "view",
      "type": "function"
    },
    {
      "inputs": [
        {
          "internalType": "uint256",
          "name": "projectId",
          "type": "uint256"
        }
      ],
      "name": "openFundsRequest",
      "outputs": [],
      "stateMutability": "nonpayable",
      "type": "function"
    },
    {
      "inputs": [],
      "name": "owner",
      "outputs": [
        {
          "internalType": "address",
          "name": "",
          "type": "address"
        }
      ],
      "stateMutability": "view",
      "type": "function"
    },
    {
      "inputs": [],
      "name": "renounceOwnership",
      "outputs": [],
      "stateMutability": "nonpayable",
      "type": "function"
    },
    {
      "inputs": [
        {
          "internalType": "address",
          "name": "newOwner",
          "type": "address"
        }
      ],
      "name": "transferOwnership",
      "outputs": [],
      "stateMutability": "nonpayable",
      "type": "function"
    },
    {
      "inputs": [
        {
          "internalType": "uint256",
          "name": "id",
          "type": "uint256"
        }
      ],
      "name": "validResearchProject",
      "outputs": [],
      "stateMutability": "nonpayable",
      "type": "function"
    },
    {
      "stateMutability": "payable",
      "type": "receive"
    }
  ],
  "bytecode": "0x60806040523480156200001157600080fd5b506040516200643c3803806200643c8339810160408190526200003491620000b5565b6200003f3362000065565b600380546001600160a01b0319166001600160a01b0392909216919091179055620000e7565b600080546001600160a01b038381166001600160a01b0319831681178455604051919092169283917f8be0079c531659141344cd1fd0a4f28419497f9722a3daafe3b4186f6b6457e09190a35050565b600060208284031215620000c857600080fd5b81516001600160a01b0381168114620000e057600080fd5b9392505050565b61634580620000f76000396000f3fe608060405260043610620000f95760003560e01c80631b55e33814620001035780631d85bf03146200012857806325e20479146200013f57806335aaf9f51462000181578063439e8a2314620001b5578063627c2a5d14620001da578063715018a614620001ff5780637ac14a70146200021757806381f2e8d5146200023c5780638da5cb5b1462000261578063aaccd7261462000288578063bfa0fc9314620002ad578063c089cd7914620002f5578063cc986fcc146200031a578063de946f0a146200033f578063e7eba4c2146200038f578063f2fde38b14620003c3578063f8cd0cd814620003e8578063ff417db9146200040d57005b366200010157005b005b3480156200011057600080fd5b5062000101620001223660046200285b565b62000453565b620001016200013936600462002875565b62000686565b3480156200014c57600080fd5b50620001646200015e3660046200285b565b6200096b565b6040516200017896959493929190620028ec565b60405180910390f35b3480156200018e57600080fd5b50620001a6620001a03660046200285b565b62000a21565b604051620001789190620029ae565b348015620001c257600080fd5b5062000101620001d436600462002bb9565b62000de7565b348015620001e757600080fd5b5062000101620001f936600462002ce4565b62001211565b3480156200020c57600080fd5b506200010162001464565b3480156200022457600080fd5b5062000101620002363660046200285b565b6200147c565b3480156200024957600080fd5b50620001016200025b3660046200285b565b6200150f565b3480156200026e57600080fd5b506200027962001677565b60405162000178919062002d9a565b3480156200029557600080fd5b5062000101620002a73660046200285b565b62001686565b348015620002ba57600080fd5b50620002d2620002cc3660046200285b565b62001865565b604080519415158552602085019390935291830152606082015260800162000178565b3480156200030257600080fd5b50620001016200031436600462002dbd565b620018ed565b3480156200032757600080fd5b50620001016200033936600462002df0565b62001b19565b3480156200034c57600080fd5b50620003646200035e3660046200285b565b62001b5b565b6040805195865260208601949094529284019190915260608301521515608082015260a00162000178565b3480156200039c57600080fd5b50620003b4620003ae36600462002e21565b62001c19565b60405162000178919062002e46565b348015620003d057600080fd5b5062000101620003e236600462002e21565b62001f02565b348015620003f557600080fd5b50620001016200040736600462002efe565b62001f81565b3480156200041a57600080fd5b50620004326200042c3660046200285b565b62002369565b60408051948552602085019390935291830152606082015260800162000178565b6003546040516388fcc75d60e01b8152600481018390526000916001600160a01b0316906388fcc75d90602401600060405180830381865afa1580156200049e573d6000803e3d6000fd5b505050506040513d6000823e601f3d908101601f19168201604052620004c8919081019062002f5e565b50505050509050336001600160a01b031660028281548110620004ef57620004ef62003018565b600091825260209091206009600d9092020101546001600160a01b031614620005355760405162461bcd60e51b81526004016200052c906200302e565b60405180910390fd5b60035460405163ccb75eb360e01b8152600481018490526000916001600160a01b03169063ccb75eb390602401602060405180830381865afa15801562000580573d6000803e3d6000fd5b505050506040513d601f19601f82011682018060405250810190620005a6919062003059565b905047811115620005ed5760405162461bcd60e51b815260206004820152601060248201526f4e6f7420656e6f7567682066756e647360801b60448201526064016200052c565b604051600090339083908381818185875af1925050503d806000811462000631576040519150601f19603f3d011682016040523d82523d6000602084013e62000636565b606091505b5050905080620006805760405162461bcd60e51b81526020600482015260146024820152732330b4b632b2103a379039b2b7321022ba3432b960611b60448201526064016200052c565b50505050565b6001600283815481106200069e576200069e62003018565b90600052602060002090600d0201600a0160149054906101000a900460ff166003811115620006d157620006d162002938565b14620007115760405162461bcd60e51b815260206004820152600e60248201526d10d85b9b9bdd08189d5e4813919560921b60448201526064016200052c565b60048110620007555760405162461bcd60e51b815260206004820152600f60248201526e151e5c1948191bdb9d08195e1a5cdd608a1b60448201526064016200052c565b6000600283815481106200076d576200076d62003018565b90600052602060002090600d0201600a0160009054906101000a90046001600160a01b03169050806001600160a01b0316631507e96d333460028781548110620007bb57620007bb62003018565b90600052602060002090600d020160050160028881548110620007e257620007e262003018565b90600052602060002090600d0201600701876040518663ffffffff1660e01b8152600401620008169594939291906200312e565b600060405180830381600087803b1580156200083157600080fd5b505af115801562000846573d6000803e3d6000fd5b50505050346002848154811062000861576200086162003018565b90600052602060002090600d0201600301600082825462000883919062003194565b909155505060405163d851fdfd60e01b8152600481018390526000906001600160a01b0383169063d851fdfd90602401602060405180830381865afa158015620008d1573d6000803e3d6000fd5b505050506040513d601f19601f82011682018060405250810190620008f7919062003059565b600354604051637b64e88960e01b815260048101879052336024820152604481018390529192506001600160a01b031690637b64e88990606401600060405180830381600087803b1580156200094c57600080fd5b505af115801562000961573d6000803e3d6000fd5b5050505050505050565b600080606060008060006004548710620009995760405162461bcd60e51b81526004016200052c90620031aa565b6003546040516388fcc75d60e01b8152600481018990526001600160a01b03909116906388fcc75d90602401600060405180830381865afa158015620009e3573d6000803e3d6000fd5b505050506040513d6000823e601f3d908101601f1916820160405262000a0d919081019062002f5e565b949c939b5091995097509550909350915050565b62000a2b62002707565b600254821062000a4f5760405162461bcd60e51b81526004016200052c90620031aa565b6002828154811062000a655762000a6562003018565b90600052602060002090600d0201604051806101c0016040529081600082015481526020016001820154815260200160028201548152602001600382015481526020016004820154815260200160058201805462000ac39062003073565b80601f016020809104026020016040519081016040528092919081815260200182805462000af19062003073565b801562000b425780601f1062000b165761010080835404028352916020019162000b42565b820191906000526020600020905b81548152906001019060200180831162000b2457829003601f168201915b5050505050815260200160068201805462000b5d9062003073565b80601f016020809104026020016040519081016040528092919081815260200182805462000b8b9062003073565b801562000bdc5780601f1062000bb05761010080835404028352916020019162000bdc565b820191906000526020600020905b81548152906001019060200180831162000bbe57829003601f168201915b5050505050815260200160078201805462000bf79062003073565b80601f016020809104026020016040519081016040528092919081815260200182805462000c259062003073565b801562000c765780601f1062000c4a5761010080835404028352916020019162000c76565b820191906000526020600020905b81548152906001019060200180831162000c5857829003601f168201915b5050505050815260200160088201805462000c919062003073565b80601f016020809104026020016040519081016040528092919081815260200182805462000cbf9062003073565b801562000d105780601f1062000ce45761010080835404028352916020019162000d10565b820191906000526020600020905b81548152906001019060200180831162000cf257829003601f168201915b505050918352505060098201546001600160a01b039081166020830152600a8301549081166040830152606090910190600160a01b900460ff16600381111562000d5e5762000d5e62002938565b600381111562000d725762000d7262002938565b8152602001600b820180548060200260200160405190810160405280929190818152602001828054801562000dc757602002820191906000526020600020905b81548152602001906001019080831162000db2575b5050509183525050600c919091015460ff16151560209091015292915050565b33600090815260016020526040902060030154600160a81b900460ff1662000e235760405162461bcd60e51b81526004016200052c90620031d1565b8160000362000e465760405162461bcd60e51b81526004016200052c90620031fe565b60405160200162000e6290602080825260009082015260400190565b604051602081830303815290604052805190602001208160405160200162000e8b919062003224565b604051602081830303815290604052805190602001200362000ec15760405162461bcd60e51b81526004016200052c9062003239565b62000ecb62002707565b6002805480835260a0830188815260c0840188905260e084018790524260208501908152336101208601526040850187815261010086018790526001840185556000949094528451600d9093027f405787fa12a823e0f2b7631cc41b3ba8828b3321ca811111fa75cd3aa3bb5ace810193845590517f405787fa12a823e0f2b7631cc41b3ba8828b3321ca811111fa75cd3aa3bb5acf82015592517f405787fa12a823e0f2b7631cc41b3ba8828b3321ca811111fa75cd3aa3bb5ad084015560608401517f405787fa12a823e0f2b7631cc41b3ba8828b3321ca811111fa75cd3aa3bb5ad184015560808401517f405787fa12a823e0f2b7631cc41b3ba8828b3321ca811111fa75cd3aa3bb5ad28401555183927f405787fa12a823e0f2b7631cc41b3ba8828b3321ca811111fa75cd3aa3bb5ad301906200100e9082620032b9565b5060c08201516006820190620010259082620032b9565b5060e082015160078201906200103c9082620032b9565b506101008201516008820190620010549082620032b9565b506101208201516009820180546001600160a01b03199081166001600160a01b0393841617909155610140840151600a8401805492831691909316908117835561016085015192916001600160a81b03191617600160a01b836003811115620010c157620010c162002938565b02179055506101808201518051620010e491600b8401916020909101906200279c565b506101a09190910151600c909101805460ff1916911515919091179055336000908152600160208190526040909120600254600490910191620011279162003385565b815460018181018455600093845260208420909101919091556002546200115991620011539162003385565b62002423565b600254909150620011bc90620011729060019062003385565b826040516020016200118591906200339b565b60405160208183030381529060405283604051602001620011a79190620033cc565b604051602081830303815290604052620024bc565b6002547f4c81382e52262a9cb7b48b06b6f04c7d902e3518fa3ddc8ccb8b0e8791a7e35890620011ef9060019062003385565b3360405162001200929190620033f9565b60405180910390a150505050505050565b6001600160a01b038716600090815260016020526040902060030154600160a01b900460ff1615620012815760405162461bcd60e51b815260206004820152601860248201527714995cd9585c98da195c88185b1c9958591e48195e1a5cdd60421b60448201526064016200052c565b6200128b620027ec565b86868080601f016020809104026020016040519081016040528093929190818152602001838380828437600092019190915250505090825250604080516020601f870181900481028201810190925285815290869086908190840183828082843760009201919091525050505060208083019190915260408051601f850183900483028101830190915283815290849084908190840183828082843760009201829052506040808701959095526001600160a01b038d1660608701819052600160808801819052908252602052939093208451859450909250829150620013739082620032b9565b50602082015160018201906200138a9082620032b9565b5060408201516002820190620013a19082620032b9565b506060820151600382018054608085015160a08601511515600160a81b0260ff60a81b19911515600160a01b026001600160a81b03199093166001600160a01b0390951694909417919091171691909117905560c08201518051620014119160048401916020909101906200279c565b509050507f274da1e600baf54d201c4cf2758f1d65eb4ea397bc6e595da1df2d572d8af7ee8888888888888860405162001452979695949392919062003439565b60405180910390a15050505050505050565b6200146e62002576565b6200147a6000620025d9565b565b6200148662002576565b6001600282815481106200149e576200149e62003018565b60009182526020909120600a600d9092020101805460ff60a01b1916600160a01b836003811115620014d457620014d462002938565b02179055506040518181527f912883fd6daad43ad71699b8e13899bcdfdc8be63801d13a330404473865c0139060200160405180910390a150565b60025481908110620015355760405162461bcd60e51b81526004016200052c90620031aa565b336001600160a01b03166002828154811062001555576200155562003018565b600091825260209091206009600d9092020101546001600160a01b031614620015925760405162461bcd60e51b81526004016200052c906200302e565b6002548210620015b65760405162461bcd60e51b81526004016200052c90620031aa565b600160028381548110620015ce57620015ce62003018565b90600052602060002090600d0201600a0160149054906101000a900460ff16600381111562001601576200160162002938565b14620016215760405162461bcd60e51b81526004016200052c906200349a565b600280838154811062001638576200163862003018565b60009182526020909120600a600d9092020101805460ff60a01b1916600160a01b8360038111156200166e576200166e62002938565b02179055505050565b6000546001600160a01b031690565b6003546040516388fcc75d60e01b8152600481018390526000916001600160a01b0316906388fcc75d90602401600060405180830381865afa158015620016d1573d6000803e3d6000fd5b505050506040513d6000823e601f3d908101601f19168201604052620016fb919081019062002f5e565b50505050509050336001600160a01b03166002828154811062001722576200172262003018565b600091825260209091206009600d9092020101546001600160a01b0316146200175f5760405162461bcd60e51b81526004016200052c906200302e565b6003546040516355666b9360e11b81526004810184905260009182916001600160a01b039091169063aaccd7269060240160408051808303816000875af1158015620017af573d6000803e3d6000fd5b505050506040513d601f19601f82011682018060405250810190620017d59190620034c9565b909250905080151560000362001824578160028481548110620017fc57620017fc62003018565b90600052602060002090600d020160040160008282546200181e919062003385565b90915550505b7ff760a1a147b8802f4e55b5e17a77439f740498ecf53dabe0078b74c0767f9ebe843360405162001857929190620033f9565b60405180910390a150505050565b60035460405163bfa0fc9360e01b8152600481018390526000918291829182916001600160a01b039091169063bfa0fc9390602401608060405180830381865afa158015620018b8573d6000803e3d6000fd5b505050506040513d601f19601f82011682018060405250810190620018de9190620034f1565b93509350935093509193509193565b6003546040516388fcc75d60e01b8152600481018490526000916001600160a01b0316906388fcc75d90602401600060405180830381865afa15801562001938573d6000803e3d6000fd5b505050506040513d6000823e601f3d908101601f1916820160405262001962919081019062002f5e565b5050505050905060006002828154811062001981576200198162003018565b60009182526020909120600a600d9092020101546040516370a0823160e01b81526001600160a01b03909116906370a0823190620019c490339060040162002d9a565b602060405180830381865afa158015620019e2573d6000803e3d6000fd5b505050506040513d601f19601f8201168201806040525081019062001a08919062003059565b1162001a555760405162461bcd60e51b815260206004820152601b60248201527a596f75206e65656420746f20627579204e465420746f20766f746560281b60448201526064016200052c565b600354604051630f909fd760e41b8152600481018590526024810183905283151560448201523360648201526001600160a01b039091169063f909fd7090608401600060405180830381600087803b15801562001ab157600080fd5b505af115801562001ac6573d6000803e3d6000fd5b5050604080513381526020810185905290810186905284151560608201527f2991ce8dbfcf228e1b5d37c4fa6aba08135469f3b6abec2273148158ef65a3009250608001905060405180910390a1505050565b62001b2362002576565b6001600160a01b0390911660009081526001602052604090206003018054911515600160a81b0260ff60a81b19909216919091179055565b6000806000806000806002878154811062001b7a5762001b7a62003018565b90600052602060002090600d0201600a0160009054906101000a90046001600160a01b03169050806001600160a01b03166334757b346040518163ffffffff1660e01b815260040160a060405180830381865afa15801562001be0573d6000803e3d6000fd5b505050506040513d601f19601f8201168201806040525081019062001c06919062003533565b939b929a50909850965090945092505050565b62001c23620027ec565b81336001600160a01b038216148062001c56575062001c4162001677565b6001600160a01b0316336001600160a01b0316145b62001c755760405162461bcd60e51b81526004016200052c90620031d1565b6001600160a01b03831660009081526001602052604090819020815160e0810190925280548290829062001ca99062003073565b80601f016020809104026020016040519081016040528092919081815260200182805462001cd79062003073565b801562001d285780601f1062001cfc5761010080835404028352916020019162001d28565b820191906000526020600020905b81548152906001019060200180831162001d0a57829003601f168201915b5050505050815260200160018201805462001d439062003073565b80601f016020809104026020016040519081016040528092919081815260200182805462001d719062003073565b801562001dc25780601f1062001d965761010080835404028352916020019162001dc2565b820191906000526020600020905b81548152906001019060200180831162001da457829003601f168201915b5050505050815260200160028201805462001ddd9062003073565b80601f016020809104026020016040519081016040528092919081815260200182805462001e0b9062003073565b801562001e5c5780601f1062001e305761010080835404028352916020019162001e5c565b820191906000526020600020905b81548152906001019060200180831162001e3e57829003601f168201915b505050918352505060038201546001600160a01b03811660208084019190915260ff600160a01b830481161515604080860191909152600160a81b9093041615156060840152600484018054835181840281018401909452808452608090940193909183018282801562001ef057602002820191906000526020600020905b81548152602001906001019080831162001edb575b50505050508152505091505b50919050565b62001f0c62002576565b6001600160a01b03811662001f735760405162461bcd60e51b815260206004820152602660248201527f4f776e61626c653a206e6577206f776e657220697320746865207a65726f206160448201526564647265737360d01b60648201526084016200052c565b62001f7e81620025d9565b50565b6002548390811062001fa75760405162461bcd60e51b81526004016200052c90620031aa565b336001600160a01b03166002828154811062001fc75762001fc762003018565b600091825260209091206009600d9092020101546001600160a01b031614620020045760405162461bcd60e51b81526004016200052c906200302e565b6002548410620020285760405162461bcd60e51b81526004016200052c90620031aa565b60028085815481106200203f576200203f62003018565b90600052602060002090600d0201600a0160149054906101000a900460ff16600381111562002072576200207262002938565b14620020925760405162461bcd60e51b81526004016200052c906200349a565b604051602001620020ae90602080825260009082015260400190565b6040516020818303038152906040528051906020012082604051602001620020d7919062003224565b60405160208183030381529060405280519060200120036200210d5760405162461bcd60e51b81526004016200052c9062003239565b82600003620021305760405162461bcd60e51b81526004016200052c90620031fe565b6002848154811062002146576200214662003018565b90600052602060002090600d020160030154600285815481106200216e576200216e62003018565b90600052602060002090600d020160040154846200218d919062003194565b1115620021ed5760405162461bcd60e51b815260206004820152602760248201527f416d6f756e742073686f756c64206265206c657373207468616e20616d6f756e6044820152661d08185cdad95960ca1b60648201526084016200052c565b600454600280548690811062002207576200220762003018565b60009182526020808320600b600d9093020191909101805460018101825590835291200181905560035460405163b830b96560e01b81526001600160a01b039091169063b830b965906200226690889085908990899060040162003583565b600060405180830381600087803b1580156200228157600080fd5b505af115801562002296573d6000803e3d6000fd5b505050508360028681548110620022b157620022b162003018565b90600052602060002090600d02016004016000828254620022d3919062003194565b909155505060048054906000620022ea83620035b4565b91905055507f435b01c746178d3d65a5cd948c89aa36dbe006e76f21252991fada0df3473da860016002878154811062002328576200232862003018565b90600052602060002090600d0201600b018054905062002349919062003385565b336040516200235a929190620033f9565b60405180910390a15050505050565b60008060008060006002868154811062002387576200238762003018565b90600052602060002090600d0201600a0160009054906101000a90046001600160a01b03169050806001600160a01b031663bd9a548b6040518163ffffffff1660e01b8152600401608060405180830381865afa158015620023ed573d6000803e3d6000fd5b505050506040513d601f19601f82011682018060405250810190620024139190620035d0565b9450945094509450509193509193565b60606000620024328362002629565b60010190506000816001600160401b0381111562002454576200245462002aea565b6040519080825280601f01601f1916602001820160405280156200247f576020820181803683370190505b5090508181016020015b600019016f181899199a1a9b1b9c1cb0b131b232b360811b600a86061a8153600a85049450846200248957509392505050565b6000828260028681548110620024d657620024d662003018565b90600052602060002090600d020160020154604051620024f69062002836565b620025049392919062003607565b604051809103906000f08015801562002521573d6000803e3d6000fd5b50905080600285815481106200253b576200253b62003018565b90600052602060002090600d0201600a0160006101000a8154816001600160a01b0302191690836001600160a01b0316021790555050505050565b336200258162001677565b6001600160a01b0316146200147a5760405162461bcd60e51b815260206004820181905260248201527f4f776e61626c653a2063616c6c6572206973206e6f7420746865206f776e657260448201526064016200052c565b600080546001600160a01b038381166001600160a01b0319831681178455604051919092169283917f8be0079c531659141344cd1fd0a4f28419497f9722a3daafe3b4186f6b6457e09190a35050565b60008072184f03e93ff9f4daa797ed6e38ed64bf6a1f0160401b8310620026695772184f03e93ff9f4daa797ed6e38ed64bf6a1f0160401b830492506040015b6904ee2d6d415b85acef8160201b831062002694576904ee2d6d415b85acef8160201b830492506020015b662386f26fc100008310620026b357662386f26fc10000830492506010015b6305f5e1008310620026cc576305f5e100830492506008015b6127108310620026e157612710830492506004015b60648310620026f4576064830492506002015b600a831062002701576001015b92915050565b604051806101c0016040528060008152602001600081526020016000815260200160008152602001600081526020016060815260200160608152602001606081526020016060815260200160006001600160a01b0316815260200160006001600160a01b031681526020016000600381111562002788576200278862002938565b815260606020820152600060409091015290565b828054828255906000526020600020908101928215620027da579160200282015b82811115620027da578251825591602001919060010190620027bd565b50620027e892915062002844565b5090565b6040518060e0016040528060608152602001606081526020016060815260200160006001600160a01b03168152602001600015158152602001600015158152602001606081525090565b612cce806200364283390190565b5b80821115620027e8576000815560010162002845565b6000602082840312156200286e57600080fd5b5035919050565b600080604083850312156200288957600080fd5b50508035926020909101359150565b60005b83811015620028b55781810151838201526020016200289b565b50506000910152565b60008151808452620028d881602086016020860162002898565b601f01601f19169290920160200192915050565b86815285602082015260c0604082015260006200290d60c0830187620028be565b606083019590955250911515608083015260a0909101529392505050565b6001600160a01b03169052565b634e487b7160e01b600052602160045260246000fd5b600481106200296d57634e487b7160e01b600052602160045260246000fd5b9052565b600081518084526020808501945080840160005b83811015620029a35781518752958201959082019060010162002985565b509495945050505050565b6020815281516020820152602082015160408201526040820151606082015260608201516080820152608082015160a0820152600060a08301516101c08060c085015262002a016101e0850183620028be565b915060c0850151601f19808685030160e087015262002a218483620028be565b935060e0870151915061010081878603018188015262002a428584620028be565b94508088015192505061012081878603018188015262002a638584620028be565b94508088015192505061014062002a7d818801846200292b565b870151915061016062002a93878201846200292b565b870151915061018062002aa9878201846200294e565b808801519250506101a081878603018188015262002ac8858462002971565b9450808801519250505062002ae08286018215159052565b5090949350505050565b634e487b7160e01b600052604160045260246000fd5b604051601f8201601f191681016001600160401b038111828210171562002b2b5762002b2b62002aea565b604052919050565b60006001600160401b0382111562002b4f5762002b4f62002aea565b50601f01601f191660200190565b600082601f83011262002b6f57600080fd5b813562002b8662002b808262002b33565b62002b00565b81815284602083860101111562002b9c57600080fd5b816020850160208301376000918101602001919091529392505050565b600080600080600060a0868803121562002bd257600080fd5b85356001600160401b038082111562002bea57600080fd5b62002bf889838a0162002b5d565b9650602088013591508082111562002c0f57600080fd5b62002c1d89838a0162002b5d565b9550604088013591508082111562002c3457600080fd5b62002c4289838a0162002b5d565b945060608801359350608088013591508082111562002c6057600080fd5b5062002c6f8882890162002b5d565b9150509295509295909350565b80356001600160a01b038116811462002c9457600080fd5b919050565b60008083601f84011262002cac57600080fd5b5081356001600160401b0381111562002cc457600080fd5b60208301915083602082850101111562002cdd57600080fd5b9250929050565b60008060008060008060006080888a03121562002d0057600080fd5b62002d0b8862002c7c565b965060208801356001600160401b038082111562002d2857600080fd5b62002d368b838c0162002c99565b909850965060408a013591508082111562002d5057600080fd5b62002d5e8b838c0162002c99565b909650945060608a013591508082111562002d7857600080fd5b5062002d878a828b0162002c99565b989b979a50959850939692959293505050565b6001600160a01b0391909116815260200190565b801515811462001f7e57600080fd5b6000806040838503121562002dd157600080fd5b82359150602083013562002de58162002dae565b809150509250929050565b6000806040838503121562002e0457600080fd5b62002e0f8362002c7c565b9150602083013562002de58162002dae565b60006020828403121562002e3457600080fd5b62002e3f8262002c7c565b9392505050565b602081526000825160e0602084015262002e65610100840182620028be565b90506020840151601f198085840301604086015262002e858383620028be565b9250604086015191508085840301606086015262002ea48383620028be565b60608701516001600160a01b0316608087810191909152870151151560a080880191909152870151151560c08088019190915287015186820390920160e08701529250905062002ef5828262002971565b95945050505050565b60008060006060848603121562002f1457600080fd5b833592506020840135915060408401356001600160401b0381111562002f3957600080fd5b62002f478682870162002b5d565b9150509250925092565b805162002c948162002dae565b60008060008060008060c0878903121562002f7857600080fd5b86516020880151604089015191975095506001600160401b0381111562002f9e57600080fd5b8701601f8101891362002fb057600080fd5b805162002fc162002b808262002b33565b8181528a602083850101111562002fd757600080fd5b62002fea82602083016020860162002898565b80965050505060608701519250620030056080880162002f51565b915060a087015190509295509295509295565b634e487b7160e01b600052603260045260246000fd5b60208082526011908201527050726f6a656374206e6f7420796f75727360781b604082015260600190565b6000602082840312156200306c57600080fd5b5051919050565b600181811c908216806200308857607f821691505b60208210810362001efc57634e487b7160e01b600052602260045260246000fd5b60008154620030b88162003073565b808552602060018381168015620030d85760018114620030f35762003123565b60ff1985168884015283151560051b88018301955062003123565b866000528260002060005b858110156200311b5781548a8201860152908301908401620030fe565b890184019650505b505050505092915050565b60018060a01b038616815284602082015260a0604082015260006200315760a0830186620030a9565b82810360608401526200316b8186620030a9565b9150508260808301529695505050505050565b634e487b7160e01b600052601160045260246000fd5b808201808211156200270157620027016200317e565b6020808252600d908201526c125908191bdb9d08195e1a5cdd609a1b604082015260600190565b6020808252601390820152722cb7ba93b932903737ba103932b3b4b9ba32b960691b604082015260600190565b6020808252600c908201526b0416d6f756e74206e6f7420360a41b604082015260600190565b60208152600062002e3f6020830184620028be565b60208082526013908201527244657461696c206973206d616e6461746f727960681b604082015260600190565b601f821115620032b457600081815260208120601f850160051c810160208610156200328f5750805b601f850160051c820191505b81811015620032b0578281556001016200329b565b5050505b505050565b81516001600160401b03811115620032d557620032d562002aea565b620032ed81620032e6845462003073565b8462003266565b602080601f8311600181146200332557600084156200330c5750858301515b600019600386901b1c1916600185901b178555620032b0565b600085815260208120601f198616915b82811015620033565788860151825594840194600190910190840162003335565b5085821015620033755787850151600019600388901b60f8161c191681555b5050505050600190811b01905550565b818103818111156200270157620027016200317e565b664445534349444560c81b815260008251620033bf81600785016020870162002898565b9190910160070192915050565b6244534360e81b815260008251620033ec81600385016020870162002898565b9190910160030192915050565b9182526001600160a01b0316602082015260400190565b81835281816020850137506000828201602090810191909152601f909101601f19169091010190565b6001600160a01b038816815260806020820181905260009062003460908301888a62003410565b82810360408401526200347581878962003410565b905082810360608401526200348c81858762003410565b9a9950505050505050505050565b6020808252601590820152744e6f7420726561647920666f722066756e64696e6760581b604082015260600190565b60008060408385031215620034dd57600080fd5b82519150602083015162002de58162002dae565b600080600080608085870312156200350857600080fd5b8451620035158162002dae565b60208601516040870151606090970151919890975090945092505050565b600080600080600060a086880312156200354c57600080fd5b855194506020860151935060408601519250606086015191506080860151620035758162002dae565b809150509295509295909350565b848152836020820152826040820152608060608201526000620035aa6080830184620028be565b9695505050505050565b600060018201620035c957620035c96200317e565b5060010190565b60008060008060808587031215620035e757600080fd5b505082516020840151604085015160609095015191969095509092509050565b6060815260006200361c6060830186620028be565b8281036020840152620036308186620028be565b91505082604083015294935050505056fe60806040523480156200001157600080fd5b5060405162002cce38038062002cce833981016040819052620000349162000313565b8282600062000044838262000415565b50600162000053828262000415565b5050600b805460ff19169055506200006b33620001f4565b600d60205260287f81955a0a11e65eac625c29e8882660bae4e165a75d72780094acae8ece9a29ef55600a7ffd54ff1ed53f34a900b24c5ba64f85761163b5d82d98a47b9bd80e45466993c681905560047f10a81eed9d63d16face5e76357905348e6253d3394086026bb2bf2145d7cc24a55600360005260017f26b4a10d0f0b04925c23bd4480ee147c916e5e87a7d68206a533dad160ac81e35562000114908290620004e1565b60008052600d6020527f81955a0a11e65eac625c29e8882660bae4e165a75d72780094acae8ece9a29f0556200014c81601e620004e1565b6001600052600d6020527ffd54ff1ed53f34a900b24c5ba64f85761163b5d82d98a47b9bd80e45466993c75562000185816032620004e1565b6002600052600d6020527f10a81eed9d63d16face5e76357905348e6253d3394086026bb2bf2145d7cc24b55620001be816064620004e1565b6003600052600d6020527f26b4a10d0f0b04925c23bd4480ee147c916e5e87a7d68206a533dad160ac81e455506200050d915050565b600b80546001600160a01b03838116610100818102610100600160a81b031985161790945560405193909204169182907f8be0079c531659141344cd1fd0a4f28419497f9722a3daafe3b4186f6b6457e090600090a35050565b634e487b7160e01b600052604160045260246000fd5b600082601f8301126200027657600080fd5b81516001600160401b03808211156200029357620002936200024e565b604051601f8301601f19908116603f01168101908282118183101715620002be57620002be6200024e565b81604052838152602092508683858801011115620002db57600080fd5b600091505b83821015620002ff5785820183015181830184015290820190620002e0565b600093810190920192909252949350505050565b6000806000606084860312156200032957600080fd5b83516001600160401b03808211156200034157600080fd5b6200034f8783880162000264565b945060208601519150808211156200036657600080fd5b50620003758682870162000264565b925050604084015190509250925092565b600181811c908216806200039b57607f821691505b602082108103620003bc57634e487b7160e01b600052602260045260246000fd5b50919050565b601f8211156200041057600081815260208120601f850160051c81016020861015620003eb5750805b601f850160051c820191505b818110156200040c57828155600101620003f7565b5050505b505050565b81516001600160401b038111156200043157620004316200024e565b620004498162000442845462000386565b84620003c2565b602080601f831160018114620004815760008415620004685750858301515b600019600386901b1c1916600185901b1785556200040c565b600085815260208120601f198616915b82811015620004b25788860151825594840194600190910190840162000491565b5085821015620004d15787850151600019600388901b60f8161c191681555b5050505050600190811b01905550565b80820281158282048414176200050757634e487b7160e01b600052601160045260246000fd5b92915050565b6127b1806200051d6000396000f3fe608060405234801561001057600080fd5b50600436106101285760003560e01c806301ffc9a71461012d57806306fdde0314610155578063081812fc1461016a578063095ea7b3146101955780631507e96d146101aa57806318160ddd146101bd57806323b872dd146101cf5780632f745c59146101e257806334757b34146101f557806342842e0e146102275780634f6ccce71461023a5780635c975abb1461024d5780636352211e1461025857806370a082311461026b578063715018a61461027e5780638da5cb5b1461028657806395d89b411461028e578063a22cb46514610296578063b88d4fde146102a9578063bd9a548b146102bc578063c87b56dd146102e4578063d851fdfd146102f7578063e985e9c51461030a578063f2fde38b1461031d575b600080fd5b61014061013b366004611e08565b610330565b60405190151581526020015b60405180910390f35b61015d610341565b60405161014c9190611e75565b61017d610178366004611e88565b6103d3565b6040516001600160a01b03909116815260200161014c565b6101a86101a3366004611eb8565b6103fa565b005b6101a86101b8366004611f8d565b610514565b6009545b60405190815260200161014c565b6101a86101dd366004612012565b610807565b6101c16101f0366004611eb8565b610838565b6101fd6108ce565b6040805195865260208601949094529284019190915260608301521515608082015260a00161014c565b6101a8610235366004612012565b610a41565b6101c1610248366004611e88565b610a5c565b600b5460ff16610140565b61017d610266366004611e88565b610aef565b6101c161027936600461204e565b610b23565b6101a8610ba9565b61017d610bbd565b61015d610bd1565b6101a86102a4366004612069565b610be0565b6101a86102b73660046120a5565b610bef565b6102c4610c27565b60408051948552602085019390935291830152606082015260800161014c565b61015d6102f2366004611e88565b610cd3565b6101c1610305366004611e88565b610cde565b610140610318366004612120565b610d42565b6101a861032b36600461204e565b610d70565b600061033b82610de9565b92915050565b60606000805461035090612153565b80601f016020809104026020016040519081016040528092919081815260200182805461037c90612153565b80156103c95780601f1061039e576101008083540402835291602001916103c9565b820191906000526020600020905b8154815290600101906020018083116103ac57829003601f168201915b5050505050905090565b60006103de82610e0e565b506000908152600460205260409020546001600160a01b031690565b600061040582610aef565b9050806001600160a01b0316836001600160a01b0316036104775760405162461bcd60e51b815260206004820152602160248201527f4552433732313a20617070726f76616c20746f2063757272656e74206f776e656044820152603960f91b60648201526084015b60405180910390fd5b336001600160a01b038216148061049357506104938133610d42565b6105055760405162461bcd60e51b815260206004820152603d60248201527f4552433732313a20617070726f76652063616c6c6572206973206e6f7420746f60448201527f6b656e206f776e6572206f7220617070726f76656420666f7220616c6c000000606482015260840161046e565b61050f8383610e33565b505050565b61051c610ea1565b8015806105295750600181145b806105345750600281145b8061053f5750600381145b61055b5760405162461bcd60e51b815260040161046e906121a3565b600d60008260038111156105715761057161218d565b60038111156105825761058261218d565b60038111156105935761059361218d565b815260200190815260200160002060010154600d60008360038111156105bb576105bb61218d565b60038111156105cc576105cc61218d565b60038111156105dd576105dd61218d565b815260200190815260200160002060000154106106355760405162461bcd60e51b815260206004820152601660248201527513585e1a5b5d5b481cdd5c1c1b1e481c995858da195960521b604482015260640161046e565b600d600082600381111561064b5761064b61218d565b600381111561065c5761065c61218d565b600381111561066d5761066d61218d565b815260200190815260200160002060020154846103e861068d91906121e5565b10156106cd5760405162461bcd60e51b815260206004820152600f60248201526e139bdd08195b985d59da081c185a59608a1b604482015260640161046e565b600083836106da84610f00565b6040516020016106ec93929190612218565b6040516020818303038152906040529050600061070882610fa4565b6040516020016107189190612307565b60405160208183030381529060405290506000610734600c5490565b9050610744600c80546001019055565b600d600085600381111561075a5761075a61218d565b600381111561076b5761076b61218d565b600381111561077c5761077c61218d565b81526020810191909152604001600090812080549161079a8361234c565b91905055506107a988826110f6565b6107b38183611110565b604080516001600160a01b038a168152602081018390529081018590527fc410f6ec4eba9d4398c3a8e2a8b796ffce6ad710adc2748f752eeefd45fa80229060600160405180910390a15050505050505050565b61081133826111cc565b61082d5760405162461bcd60e51b815260040161046e90612365565b61050f83838361122b565b600061084383610b23565b82106108a55760405162461bcd60e51b815260206004820152602b60248201527f455243373231456e756d657261626c653a206f776e657220696e646578206f7560448201526a74206f6620626f756e647360a81b606482015260840161046e565b506001600160a01b03919091166000908152600760209081526040808320938352929052205490565b60008060008060006108de610ea1565b600d6020527f81955a0a11e65eac625c29e8882660bae4e165a75d72780094acae8ece9a29ee546000805160206126dc8339815191525460008051602061275c833981519152546000805160206126bc83398151915254600080527f81955a0a11e65eac625c29e8882660bae4e165a75d72780094acae8ece9a29ef5484108015906109a457506001600052600d6020527ffd54ff1ed53f34a900b24c5ba64f85761163b5d82d98a47b9bd80e45466993c6546000805160206126dc8339815191525410155b80156109ea57506002600052600d6020527f10a81eed9d63d16face5e76357905348e6253d3394086026bb2bf2145d7cc24a5460008051602061275c8339815191525410155b8015610a3057506003600052600d6020527f26b4a10d0f0b04925c23bd4480ee147c916e5e87a7d68206a533dad160ac81e3546000805160206126bc8339815191525410155b945094509450945094509091929394565b61050f83838360405180602001604052806000815250610bef565b6000610a6760095490565b8210610aca5760405162461bcd60e51b815260206004820152602c60248201527f455243373231456e756d657261626c653a20676c6f62616c20696e646578206f60448201526b7574206f6620626f756e647360a01b606482015260840161046e565b60098281548110610add57610add6123b2565b90600052602060002001549050919050565b600080610afb8361138a565b90506001600160a01b03811661033b5760405162461bcd60e51b815260040161046e906123c8565b60006001600160a01b038216610b8d5760405162461bcd60e51b815260206004820152602960248201527f4552433732313a2061646472657373207a65726f206973206e6f7420612076616044820152683634b21037bbb732b960b91b606482015260840161046e565b506001600160a01b031660009081526003602052604090205490565b610bb1610ea1565b610bbb60006113a5565b565b600b5461010090046001600160a01b031690565b60606001805461035090612153565b610beb3383836113ff565b5050565b610bf933836111cc565b610c155760405162461bcd60e51b815260040161046e90612365565b610c21848484846114c9565b50505050565b600080600080610c35610ea1565b5050600d60205250507f81955a0a11e65eac625c29e8882660bae4e165a75d72780094acae8ece9a29f0547ffd54ff1ed53f34a900b24c5ba64f85761163b5d82d98a47b9bd80e45466993c7547f10a81eed9d63d16face5e76357905348e6253d3394086026bb2bf2145d7cc24b5460036000527f26b4a10d0f0b04925c23bd4480ee147c916e5e87a7d68206a533dad160ac81e454929391929091565b606061033b826114fc565b6000610ce8610ea1565b81610cf55750600a919050565b60018203610d0557506019919050565b60028203610d1557506032919050565b60038203610d2557506064919050565b60405162461bcd60e51b815260040161046e906121a3565b919050565b6001600160a01b03918216600090815260056020908152604080832093909416825291909152205460ff1690565b610d78610ea1565b6001600160a01b038116610ddd5760405162461bcd60e51b815260206004820152602660248201527f4f776e61626c653a206e6577206f776e657220697320746865207a65726f206160448201526564647265737360d01b606482015260840161046e565b610de6816113a5565b50565b60006001600160e01b0319821663780e9d6360e01b148061033b575061033b82611604565b610e1781611629565b610de65760405162461bcd60e51b815260040161046e906123c8565b600081815260046020526040902080546001600160a01b0319166001600160a01b0384169081179091558190610e6882610aef565b6001600160a01b03167f8c5be1e5ebec7d5bd14f71427d1e84f3dd0314c0f7b2291e5b200ac8c7c3b92560405160405180910390a45050565b33610eaa610bbd565b6001600160a01b031614610bbb5760405162461bcd60e51b815260206004820181905260248201527f4f776e61626c653a2063616c6c6572206973206e6f7420746865206f776e6572604482015260640161046e565b606081610f2a575050604080518082019091526007815266434c415353494360c81b602082015290565b60018203610f52575050604080518082019091526004815263504c555360e01b602082015290565b60028203610f7d5750506040805180820190915260078152665052454d49554d60c81b602082015290565b60038203610d2557505060408051808201909152600381526205649560ec1b602082015290565b60608151600003610fc357505060408051602081019091526000815290565b60006040518060600160405280604081526020016126fc6040913990506000600384516002610ff291906123fa565b610ffc919061240d565b6110079060046121e5565b6001600160401b0381111561101e5761101e611ee2565b6040519080825280601f01601f191660200182016040528015611048576020820181803683370190505b509050600182016020820185865187015b808210156110b4576003820191508151603f8160121c168501518453600184019350603f81600c1c168501518453600184019350603f8160061c168501518453600184019350603f8116850151845350600183019250611059565b50506003865106600181146110d057600281146110e3576110eb565b603d6001830353603d60028303536110eb565b603d60018303535b509195945050505050565b610beb828260405180602001604052806000815250611646565b61111982611629565b61117c5760405162461bcd60e51b815260206004820152602e60248201527f45524337323155524953746f726167653a2055524920736574206f66206e6f6e60448201526d32bc34b9ba32b73a103a37b5b2b760911b606482015260840161046e565b6000828152600660205260409020611194828261247d565b506040518281527ff8e1a15aba9398e019f0b49df1a4fde98ee17ae345cb5f6b5e2c27f5033e8ce79060200160405180910390a15050565b6000806111d883610aef565b9050806001600160a01b0316846001600160a01b031614806111ff57506111ff8185610d42565b806112235750836001600160a01b0316611218846103d3565b6001600160a01b0316145b949350505050565b826001600160a01b031661123e82610aef565b6001600160a01b0316146112645760405162461bcd60e51b815260040161046e9061253c565b6001600160a01b0382166112c65760405162461bcd60e51b8152602060048201526024808201527f4552433732313a207472616e7366657220746f20746865207a65726f206164646044820152637265737360e01b606482015260840161046e565b6112d38383836001611679565b826001600160a01b03166112e682610aef565b6001600160a01b03161461130c5760405162461bcd60e51b815260040161046e9061253c565b600081815260046020908152604080832080546001600160a01b03199081169091556001600160a01b03878116808652600385528386208054600019019055908716808652838620805460010190558686526002909452828520805490921684179091559051849360008051602061273c83398151915291a4505050565b6000908152600260205260409020546001600160a01b031690565b600b80546001600160a01b03838116610100818102610100600160a81b031985161790945560405193909204169182907f8be0079c531659141344cd1fd0a4f28419497f9722a3daafe3b4186f6b6457e090600090a35050565b816001600160a01b0316836001600160a01b03160361145c5760405162461bcd60e51b815260206004820152601960248201527822a9219b99189d1030b8383937bb32903a379031b0b63632b960391b604482015260640161046e565b6001600160a01b03838116600081815260056020908152604080832094871680845294825291829020805460ff191686151590811790915591519182527f17307eab39ab6107e8899845ad3d59bd9653f200f220920489ca2b5937696c31910160405180910390a3505050565b6114d484848461122b565b6114e084848484611685565b610c215760405162461bcd60e51b815260040161046e90612581565b606061150782610e0e565b6000828152600660205260408120805461152090612153565b80601f016020809104026020016040519081016040528092919081815260200182805461154c90612153565b80156115995780601f1061156e57610100808354040283529160200191611599565b820191906000526020600020905b81548152906001019060200180831161157c57829003601f168201915b5050505050905060006115b760408051602081019091526000815290565b905080516000036115c9575092915050565b8151156115fb5780826040516020016115e39291906125d3565b60405160208183030381529060405292505050919050565b61122384611786565b60006001600160e01b03198216632483248360e11b148061033b575061033b826117fa565b6000806116358361138a565b6001600160a01b0316141592915050565b611650838361184a565b61165d6000848484611685565b61050f5760405162461bcd60e51b815260040161046e90612581565b610c2184848484611953565b60006001600160a01b0384163b1561177b57604051630a85bd0160e11b81526001600160a01b0385169063150b7a02906116c9903390899088908890600401612602565b6020604051808303816000875af1925050508015611704575060408051601f3d908101601f191682019092526117019181019061263f565b60015b611761573d808015611732576040519150601f19603f3d011682016040523d82523d6000602084013e611737565b606091505b5080516000036117595760405162461bcd60e51b815260040161046e90612581565b805181602001fd5b6001600160e01b031916630a85bd0160e11b149050611223565b506001949350505050565b606061179182610e0e565b60006117a860408051602081019091526000815290565b905060008151116117c857604051806020016040528060008152506117f3565b806117d2846119c6565b6040516020016117e39291906125d3565b6040516020818303038152906040525b9392505050565b60006001600160e01b031982166380ac58cd60e01b148061182b57506001600160e01b03198216635b5e139f60e01b145b8061033b57506301ffc9a760e01b6001600160e01b031983161461033b565b6001600160a01b0382166118a05760405162461bcd60e51b815260206004820181905260248201527f4552433732313a206d696e7420746f20746865207a65726f2061646472657373604482015260640161046e565b6118a981611629565b156118c65760405162461bcd60e51b815260040161046e9061265c565b6118d4600083836001611679565b6118dd81611629565b156118fa5760405162461bcd60e51b815260040161046e9061265c565b6001600160a01b038216600081815260036020908152604080832080546001019055848352600290915280822080546001600160a01b03191684179055518392919060008051602061273c833981519152908290a45050565b61195f84848484611a58565b600b5460ff1615610c215760405162461bcd60e51b815260206004820152602b60248201527f4552433732315061757361626c653a20746f6b656e207472616e73666572207760448201526a1a1a5b19481c185d5cd95960aa1b606482015260840161046e565b606060006119d383611b8c565b60010190506000816001600160401b038111156119f2576119f2611ee2565b6040519080825280601f01601f191660200182016040528015611a1c576020820181803683370190505b5090508181016020015b600019016f181899199a1a9b1b9c1cb0b131b232b360811b600a86061a8153600a8504945084611a2657509392505050565b6001811115611ac75760405162461bcd60e51b815260206004820152603560248201527f455243373231456e756d657261626c653a20636f6e7365637574697665207472604482015274185b9cd9995c9cc81b9bdd081cdd5c1c1bdc9d1959605a1b606482015260840161046e565b816001600160a01b038516611b2357611b1e81600980546000838152600a60205260408120829055600182018355919091527f6e1540171b6c0c960b71a7020d9f60077f6af931a8bbf590da0223dacf75c7af0155565b611b46565b836001600160a01b0316856001600160a01b031614611b4657611b468582611c62565b6001600160a01b038416611b6257611b5d81611cff565b611b85565b846001600160a01b0316846001600160a01b031614611b8557611b858482611dae565b5050505050565b60008072184f03e93ff9f4daa797ed6e38ed64bf6a1f0160401b8310611bcb5772184f03e93ff9f4daa797ed6e38ed64bf6a1f0160401b830492506040015b6904ee2d6d415b85acef8160201b8310611bf5576904ee2d6d415b85acef8160201b830492506020015b662386f26fc100008310611c1357662386f26fc10000830492506010015b6305f5e1008310611c2b576305f5e100830492506008015b6127108310611c3f57612710830492506004015b60648310611c51576064830492506002015b600a831061033b5760010192915050565b60006001611c6f84610b23565b611c799190612692565b600083815260086020526040902054909150808214611ccc576001600160a01b03841660009081526007602090815260408083208584528252808320548484528184208190558352600890915290208190555b5060009182526008602090815260408084208490556001600160a01b039094168352600781528383209183525290812055565b600954600090611d1190600190612692565b6000838152600a602052604081205460098054939450909284908110611d3957611d396123b2565b906000526020600020015490508060098381548110611d5a57611d5a6123b2565b6000918252602080832090910192909255828152600a90915260408082208490558582528120556009805480611d9257611d926126a5565b6001900381819060005260206000200160009055905550505050565b6000611db983610b23565b6001600160a01b039093166000908152600760209081526040808320868452825280832085905593825260089052919091209190915550565b6001600160e01b031981168114610de657600080fd5b600060208284031215611e1a57600080fd5b81356117f381611df2565b60005b83811015611e40578181015183820152602001611e28565b50506000910152565b60008151808452611e61816020860160208601611e25565b601f01601f19169290920160200192915050565b6020815260006117f36020830184611e49565b600060208284031215611e9a57600080fd5b5035919050565b80356001600160a01b0381168114610d3d57600080fd5b60008060408385031215611ecb57600080fd5b611ed483611ea1565b946020939093013593505050565b634e487b7160e01b600052604160045260246000fd5b60006001600160401b0380841115611f1257611f12611ee2565b604051601f8501601f19908116603f01168101908282118183101715611f3a57611f3a611ee2565b81604052809350858152868686011115611f5357600080fd5b858560208301376000602087830101525050509392505050565b600082601f830112611f7e57600080fd5b6117f383833560208501611ef8565b600080600080600060a08688031215611fa557600080fd5b611fae86611ea1565b94506020860135935060408601356001600160401b0380821115611fd157600080fd5b611fdd89838a01611f6d565b94506060880135915080821115611ff357600080fd5b5061200088828901611f6d565b95989497509295608001359392505050565b60008060006060848603121561202757600080fd5b61203084611ea1565b925061203e60208501611ea1565b9150604084013590509250925092565b60006020828403121561206057600080fd5b6117f382611ea1565b6000806040838503121561207c57600080fd5b61208583611ea1565b91506020830135801515811461209a57600080fd5b809150509250929050565b600080600080608085870312156120bb57600080fd5b6120c485611ea1565b93506120d260208601611ea1565b92506040850135915060608501356001600160401b038111156120f457600080fd5b8501601f8101871361210557600080fd5b61211487823560208401611ef8565b91505092959194509250565b6000806040838503121561213357600080fd5b61213c83611ea1565b915061214a60208401611ea1565b90509250929050565b600181811c9082168061216757607f821691505b60208210810361218757634e487b7160e01b600052602260045260246000fd5b50919050565b634e487b7160e01b600052602160045260246000fd5b602080825260129082015271139195081d1e5c19481b9bdd08195e1a5cdd60721b604082015260600190565b634e487b7160e01b600052601160045260246000fd5b808202811582820484141761033b5761033b6121cf565b6000815161220e818560208601611e25565b9290920192915050565b6000607b60f81b80835268113730b6b2911d101160b91b6001840152855161224781600a860160208a01611e25565b61088b60f21b600a9185019182018190527022696d616765223a2022697066733a2f2f60781b600c830152865161228581601d850160208b01611e25565b601d9201918201526e2261747472696275746573223a205b60881b601f820152602e810182905268113a3cb832911d101160b91b602f8201526122fc6122e26122ef816122d5603886018a6121fc565b601160f91b815260010190565b607d60f81b815260010190565b605d60f81b815260010190565b979650505050505050565b7f646174613a6170706c69636174696f6e2f6a736f6e3b6261736536342c00000081526000825161233f81601d850160208701611e25565b91909101601d0192915050565b60006001820161235e5761235e6121cf565b5060010190565b6020808252602d908201527f4552433732313a2063616c6c6572206973206e6f7420746f6b656e206f776e6560408201526c1c881bdc88185c1c1c9bdd9959609a1b606082015260800190565b634e487b7160e01b600052603260045260246000fd5b602080825260189082015277115490cdcc8c4e881a5b9d985b1a59081d1bdad95b88125160421b604082015260600190565b8082018082111561033b5761033b6121cf565b60008261242a57634e487b7160e01b600052601260045260246000fd5b500490565b601f82111561050f57600081815260208120601f850160051c810160208610156124565750805b601f850160051c820191505b8181101561247557828155600101612462565b505050505050565b81516001600160401b0381111561249657612496611ee2565b6124aa816124a48454612153565b8461242f565b602080601f8311600181146124df57600084156124c75750858301515b600019600386901b1c1916600185901b178555612475565b600085815260208120601f198616915b8281101561250e578886015182559484019460019091019084016124ef565b508582101561252c5787850151600019600388901b60f8161c191681555b5050505050600190811b01905550565b60208082526025908201527f4552433732313a207472616e736665722066726f6d20696e636f72726563742060408201526437bbb732b960d91b606082015260800190565b60208082526032908201527f4552433732313a207472616e7366657220746f206e6f6e20455243373231526560408201527131b2b4bb32b91034b6b83632b6b2b73a32b960711b606082015260800190565b600083516125e5818460208801611e25565b8351908301906125f9818360208801611e25565b01949350505050565b6001600160a01b038581168252841660208201526040810183905260806060820181905260009061263590830184611e49565b9695505050505050565b60006020828403121561265157600080fd5b81516117f381611df2565b6020808252601c908201527b115490cdcc8c4e881d1bdad95b88185b1c9958591e481b5a5b9d195960221b604082015260600190565b8181038181111561033b5761033b6121cf565b634e487b7160e01b600052603160045260246000fdfe26b4a10d0f0b04925c23bd4480ee147c916e5e87a7d68206a533dad160ac81e2fd54ff1ed53f34a900b24c5ba64f85761163b5d82d98a47b9bd80e45466993c54142434445464748494a4b4c4d4e4f505152535455565758595a6162636465666768696a6b6c6d6e6f707172737475767778797a303132333435363738392b2fddf252ad1be2c89b69c2b068fc378daa952ba7f163c4a11628f55a4df523b3ef10a81eed9d63d16face5e76357905348e6253d3394086026bb2bf2145d7cc249a26469706673582212202cc985c86598f1acd8f1ba6b595d8bed2b577e6b7062131febc1ca278af8aaad64736f6c63430008110033a2646970667358221220a0323b97c560e58638259cfb96f1d30c22201c8aa87013df2f02a99efc49e8dd64736f6c63430008110033",
  "linkReferences": {},
  "deployedLinkReferences": {}
}