{
  "_format": "hh-sol-artifact-1",
  "contractName": "FundsFactory",
  "sourceName": "contracts/FundsFactory.sol",
  "abi": [
    {
      "inputs": [
        {
          "internalType": "address",
          "name": "_dao",
          "type": "address"
        }
      ],
      "stateMutability": "nonpayable",
      "type": "constructor"
    },
    {
      "anonymous": false,
      "inputs": [
        {
          "indexed": false,
          "internalType": "uint256",
          "name": "requestId",
          "type": "uint256"
        },
        {
          "indexed": false,
          "internalType": "address",
          "name": "reasearcher",
          "type": "address"
        }
      ],
      "name": "FundsRequestClosed",
      "type": "event"
    },
    {
      "anonymous": false,
      "inputs": [
        {
          "indexed": false,
          "internalType": "uint256",
          "name": "requestId",
          "type": "uint256"
        },
        {
          "indexed": false,
          "internalType": "address",
          "name": "reasearcher",
          "type": "address"
        }
      ],
      "name": "FundsRequestCreated",
      "type": "event"
    },
    {
      "anonymous": false,
      "inputs": [
        {
          "indexed": true,
          "internalType": "address",
          "name": "previousOwner",
          "type": "address"
        },
        {
          "indexed": true,
          "internalType": "address",
          "name": "newOwner",
          "type": "address"
        }
      ],
      "name": "OwnershipTransferred",
      "type": "event"
    },
    {
      "anonymous": false,
      "inputs": [
        {
          "indexed": false,
          "internalType": "uint256",
          "name": "projectId",
          "type": "uint256"
        },
        {
          "indexed": false,
          "internalType": "address",
          "name": "reasearcher",
          "type": "address"
        }
      ],
      "name": "ResearchProjectCreated",
      "type": "event"
    },
    {
      "anonymous": false,
      "inputs": [
        {
          "indexed": false,
          "internalType": "uint256",
          "name": "projectId",
          "type": "uint256"
        }
      ],
      "name": "ResearchProjectValidated",
      "type": "event"
    },
    {
      "anonymous": false,
      "inputs": [
        {
          "indexed": false,
          "internalType": "address",
          "name": "addr",
          "type": "address"
        },
        {
          "indexed": false,
          "internalType": "string",
          "name": "lastname",
          "type": "string"
        },
        {
          "indexed": false,
          "internalType": "string",
          "name": "forname",
          "type": "string"
        },
        {
          "indexed": false,
          "internalType": "string",
          "name": "company",
          "type": "string"
        }
      ],
      "name": "ResearcherAdded",
      "type": "event"
    },
    {
      "anonymous": false,
      "inputs": [
        {
          "indexed": false,
          "internalType": "address",
          "name": "investor",
          "type": "address"
        },
        {
          "indexed": false,
          "internalType": "uint256",
          "name": "projectId",
          "type": "uint256"
        },
        {
          "indexed": false,
          "internalType": "uint256",
          "name": "requestId",
          "type": "uint256"
        },
        {
          "indexed": false,
          "internalType": "bool",
          "name": "vote",
          "type": "bool"
        }
      ],
      "name": "VoteAdded",
      "type": "event"
    },
    {
      "stateMutability": "payable",
      "type": "fallback"
    },
    {
      "inputs": [
        {
          "internalType": "string",
          "name": "title",
          "type": "string"
        },
        {
          "internalType": "string",
          "name": "description",
          "type": "string"
        },
        {
          "internalType": "string",
          "name": "imageUrl",
          "type": "string"
        },
        {
          "internalType": "uint256",
          "name": "amountAsked",
          "type": "uint256"
        },
        {
          "internalType": "string",
          "name": "projectDetailsUri",
          "type": "string"
        }
      ],
      "name": "addResearchProject",
      "outputs": [],
      "stateMutability": "nonpayable",
      "type": "function"
    },
    {
      "inputs": [
        {
          "internalType": "address",
          "name": "addr",
          "type": "address"
        },
        {
          "internalType": "string",
          "name": "lastname",
          "type": "string"
        },
        {
          "internalType": "string",
          "name": "forname",
          "type": "string"
        },
        {
          "internalType": "string",
          "name": "company",
          "type": "string"
        }
      ],
      "name": "addResearcher",
      "outputs": [],
      "stateMutability": "nonpayable",
      "type": "function"
    },
    {
      "inputs": [
        {
          "internalType": "uint256",
          "name": "requestId",
          "type": "uint256"
        },
        {
          "internalType": "bool",
          "name": "vote",
          "type": "bool"
        }
      ],
      "name": "addVote",
      "outputs": [],
      "stateMutability": "nonpayable",
      "type": "function"
    },
    {
      "inputs": [
        {
          "internalType": "uint256",
          "name": "projectId",
          "type": "uint256"
        },
        {
          "internalType": "uint256",
          "name": "typeNFT",
          "type": "uint256"
        }
      ],
      "name": "buyNFT",
      "outputs": [],
      "stateMutability": "payable",
      "type": "function"
    },
    {
      "inputs": [
        {
          "internalType": "address",
          "name": "addr",
          "type": "address"
        },
        {
          "internalType": "bool",
          "name": "status",
          "type": "bool"
        }
      ],
      "name": "changeResearcherStatus",
      "outputs": [],
      "stateMutability": "nonpayable",
      "type": "function"
    },
    {
      "inputs": [
        {
          "internalType": "uint256",
          "name": "requestId",
          "type": "uint256"
        }
      ],
      "name": "claimFunds",
      "outputs": [],
      "stateMutability": "nonpayable",
      "type": "function"
    },
    {
      "inputs": [
        {
          "internalType": "uint256",
          "name": "requestId",
          "type": "uint256"
        }
      ],
      "name": "closeFundRequest",
      "outputs": [],
      "stateMutability": "nonpayable",
      "type": "function"
    },
    {
      "inputs": [
        {
          "internalType": "uint256",
          "name": "id",
          "type": "uint256"
        },
        {
          "internalType": "uint256",
          "name": "amount",
          "type": "uint256"
        },
        {
          "internalType": "string",
          "name": "description",
          "type": "string"
        }
      ],
      "name": "createFundsRequest",
      "outputs": [],
      "stateMutability": "nonpayable",
      "type": "function"
    },
    {
      "inputs": [
        {
          "internalType": "uint256",
          "name": "fundRequestId",
          "type": "uint256"
        }
      ],
      "name": "getFundsRequestDetails",
      "outputs": [
        {
          "internalType": "uint256",
          "name": "",
          "type": "uint256"
        },
        {
          "internalType": "uint256",
          "name": "",
          "type": "uint256"
        },
        {
          "internalType": "string",
          "name": "",
          "type": "string"
        },
        {
          "internalType": "uint256",
          "name": "",
          "type": "uint256"
        },
        {
          "internalType": "bool",
          "name": "",
          "type": "bool"
        },
        {
          "internalType": "uint256",
          "name": "",
          "type": "uint256"
        }
      ],
      "stateMutability": "view",
      "type": "function"
    },
    {
      "inputs": [
        {
          "internalType": "uint256",
          "name": "id",
          "type": "uint256"
        }
      ],
      "name": "getNFT_Prices",
      "outputs": [
        {
          "internalType": "uint256",
          "name": "",
          "type": "uint256"
        },
        {
          "internalType": "uint256",
          "name": "",
          "type": "uint256"
        },
        {
          "internalType": "uint256",
          "name": "",
          "type": "uint256"
        },
        {
          "internalType": "uint256",
          "name": "",
          "type": "uint256"
        }
      ],
      "stateMutability": "view",
      "type": "function"
    },
    {
      "inputs": [
        {
          "internalType": "uint256",
          "name": "id",
          "type": "uint256"
        }
      ],
      "name": "getNumberNFTMinted",
      "outputs": [
        {
          "internalType": "uint256",
          "name": "",
          "type": "uint256"
        },
        {
          "internalType": "uint256",
          "name": "",
          "type": "uint256"
        },
        {
          "internalType": "uint256",
          "name": "",
          "type": "uint256"
        },
        {
          "internalType": "uint256",
          "name": "",
          "type": "uint256"
        }
      ],
      "stateMutability": "view",
      "type": "function"
    },
    {
      "inputs": [
        {
          "internalType": "uint256",
          "name": "id",
          "type": "uint256"
        }
      ],
      "name": "getResearchProject",
      "outputs": [
        {
          "components": [
            {
              "internalType": "uint256",
              "name": "id",
              "type": "uint256"
            },
            {
              "internalType": "uint256",
              "name": "creationTime",
              "type": "uint256"
            },
            {
              "internalType": "uint256",
              "name": "amountAsked",
              "type": "uint256"
            },
            {
              "internalType": "uint256",
              "name": "amountAlreayRaised",
              "type": "uint256"
            },
            {
              "internalType": "string",
              "name": "title",
              "type": "string"
            },
            {
              "internalType": "string",
              "name": "description",
              "type": "string"
            },
            {
              "internalType": "string",
              "name": "imageUrl",
              "type": "string"
            },
            {
              "internalType": "string",
              "name": "projectDetailsUri",
              "type": "string"
            },
            {
              "internalType": "address",
              "name": "researcher",
              "type": "address"
            },
            {
              "internalType": "contract FundNFT",
              "name": "fundNFT",
              "type": "address"
            },
            {
              "internalType": "enum FundsFactory.ResearchProjectStatus",
              "name": "status",
              "type": "uint8"
            },
            {
              "internalType": "uint256[]",
              "name": "fundRequestListsIds",
              "type": "uint256[]"
            },
            {
              "internalType": "bool",
              "name": "isAccepted",
              "type": "bool"
            }
          ],
          "internalType": "struct FundsFactory.ResearchProject",
          "name": "",
          "type": "tuple"
        }
      ],
      "stateMutability": "view",
      "type": "function"
    },
    {
      "inputs": [
        {
          "internalType": "address",
          "name": "addr",
          "type": "address"
        }
      ],
      "name": "getResearcher",
      "outputs": [
        {
          "components": [
            {
              "internalType": "string",
              "name": "lastname",
              "type": "string"
            },
            {
              "internalType": "string",
              "name": "forname",
              "type": "string"
            },
            {
              "internalType": "string",
              "name": "company",
              "type": "string"
            },
            {
              "internalType": "address",
              "name": "addr",
              "type": "address"
            },
            {
              "internalType": "bool",
              "name": "exist",
              "type": "bool"
            },
            {
              "internalType": "bool",
              "name": "isValidated",
              "type": "bool"
            },
            {
              "internalType": "uint256[]",
              "name": "projectListIds",
              "type": "uint256[]"
            }
          ],
          "internalType": "struct FundsFactory.Researcher",
          "name": "",
          "type": "tuple"
        }
      ],
      "stateMutability": "view",
      "type": "function"
    },
    {
      "inputs": [
        {
          "internalType": "uint256",
          "name": "requestId",
          "type": "uint256"
        }
      ],
      "name": "getVoteResult",
      "outputs": [
        {
          "internalType": "bool",
          "name": "",
          "type": "bool"
        },
        {
          "internalType": "uint256",
          "name": "",
          "type": "uint256"
        },
        {
          "internalType": "uint256",
          "name": "",
          "type": "uint256"
        },
        {
          "internalType": "uint256",
          "name": "",
          "type": "uint256"
        }
      ],
      "stateMutability": "view",
      "type": "function"
    },
    {
      "inputs": [],
      "name": "owner",
      "outputs": [
        {
          "internalType": "address",
          "name": "",
          "type": "address"
        }
      ],
      "stateMutability": "view",
      "type": "function"
    },
    {
      "inputs": [],
      "name": "renounceOwnership",
      "outputs": [],
      "stateMutability": "nonpayable",
      "type": "function"
    },
    {
      "inputs": [
        {
          "internalType": "address",
          "name": "newOwner",
          "type": "address"
        }
      ],
      "name": "transferOwnership",
      "outputs": [],
      "stateMutability": "nonpayable",
      "type": "function"
    },
    {
      "inputs": [
        {
          "internalType": "uint256",
          "name": "id",
          "type": "uint256"
        }
      ],
      "name": "validResearchProject",
      "outputs": [],
      "stateMutability": "nonpayable",
      "type": "function"
    },
    {
      "stateMutability": "payable",
      "type": "receive"
    }
  ],
  "bytecode": "0x60806040523480156200001157600080fd5b5060405162005fea38038062005fea8339810160408190526200003491620000b5565b6200003f3362000065565b600380546001600160a01b0319166001600160a01b0392909216919091179055620000e7565b600080546001600160a01b038381166001600160a01b0319831681178455604051919092169283917f8be0079c531659141344cd1fd0a4f28419497f9722a3daafe3b4186f6b6457e09190a35050565b600060208284031215620000c857600080fd5b81516001600160a01b0381168114620000e057600080fd5b9392505050565b615ef380620000f76000396000f3fe608060405260043610620000fb5760003560e01c8063aaccd726116200008d578063aaccd7261462000268578063bfa0fc93146200028d578063c089cd7914620002d5578063cc986fcc14620002fa578063de946f0a146200031f578063e7eba4c21462000365578063f2fde38b1462000399578063f8cd0cd814620003be578063ff417db914620003e357005b80631b55e33814620001055780631d85bf03146200012a57806325e20479146200014157806335aaf9f51462000183578063439e8a2314620001b7578063627c2a5d14620001dc578063715018a614620002015780637ac14a7014620002195780638da5cb5b146200023e57005b366200010357005b005b3480156200011257600080fd5b506200010362000124366004620025ae565b62000408565b620001036200013b366004620025c8565b6200063b565b3480156200014e57600080fd5b506200016662000160366004620025ae565b620008c4565b6040516200017a969594939291906200263f565b60405180910390f35b3480156200019057600080fd5b50620001a8620001a2366004620025ae565b6200097a565b6040516200017a9190620026f4565b348015620001c457600080fd5b5062000103620001d636600462002901565b62000d36565b348015620001e957600080fd5b5062000103620001fb36600462002a2c565b62001135565b3480156200020e57600080fd5b506200010362001388565b3480156200022657600080fd5b506200010362000238366004620025ae565b620013a0565b3480156200024b57600080fd5b506000546040516001600160a01b0390911681526020016200017a565b3480156200027557600080fd5b506200010362000287366004620025ae565b62001433565b3480156200029a57600080fd5b50620002b2620002ac366004620025ae565b62001612565b60408051941515855260208501939093529183015260608201526080016200017a565b348015620002e257600080fd5b5062000103620002f436600462002af1565b6200169a565b3480156200030757600080fd5b50620001036200031936600462002b24565b620018c1565b3480156200032c57600080fd5b50620003446200033e366004620025ae565b62001903565b6040805194855260208501939093529183015260608201526080016200017a565b3480156200037257600080fd5b506200038a6200038436600462002b55565b620019bd565b6040516200017a919062002b7a565b348015620003a657600080fd5b5062000103620003b836600462002b55565b62001c96565b348015620003cb57600080fd5b5062000103620003dd36600462002c32565b62001d15565b348015620003f057600080fd5b506200034462000402366004620025ae565b620020fe565b6003546040516388fcc75d60e01b8152600481018390526000916001600160a01b0316906388fcc75d90602401600060405180830381865afa15801562000453573d6000803e3d6000fd5b505050506040513d6000823e601f3d908101601f191682016040526200047d919081019062002c92565b50505050509050336001600160a01b031660028281548110620004a457620004a462002d4b565b600091825260209091206008600c9092020101546001600160a01b031614620004ea5760405162461bcd60e51b8152600401620004e19062002d61565b60405180910390fd5b60035460405163ccb75eb360e01b8152600481018490526000916001600160a01b03169063ccb75eb390602401602060405180830381865afa15801562000535573d6000803e3d6000fd5b505050506040513d601f19601f820116820180604052508101906200055b919062002d8c565b905047811115620005a25760405162461bcd60e51b815260206004820152601060248201526f4e6f7420656e6f7567682066756e647360801b6044820152606401620004e1565b604051600090339083908381818185875af1925050503d8060008114620005e6576040519150601f19603f3d011682016040523d82523d6000602084013e620005eb565b606091505b5050905080620006355760405162461bcd60e51b81526020600482015260146024820152732330b4b632b2103a379039b2b7321022ba3432b960611b6044820152606401620004e1565b50505050565b8160016002828154811062000654576200065462002d4b565b90600052602060002090600c020160090160149054906101000a900460ff1660028111156200068757620006876200267e565b14620006a75760405162461bcd60e51b8152600401620004e19062002da6565b60048210620006eb5760405162461bcd60e51b815260206004820152600f60248201526e151e5c1948191bdb9d08195e1a5cdd608a1b6044820152606401620004e1565b60006002848154811062000703576200070362002d4b565b90600052602060002090600c020160090160009054906101000a90046001600160a01b03169050806001600160a01b0316631507e96d33346002888154811062000751576200075162002d4b565b90600052602060002090600c02016004016002898154811062000778576200077862002d4b565b90600052602060002090600c0201600601886040518663ffffffff1660e01b8152600401620007ac95949392919062002e90565b600060405180830381600087803b158015620007c757600080fd5b505af1158015620007dc573d6000803e3d6000fd5b505060405163d851fdfd60e01b815260048101869052600092506001600160a01b038416915063d851fdfd90602401602060405180830381865afa15801562000829573d6000803e3d6000fd5b505050506040513d601f19601f820116820180604052508101906200084f919062002d8c565b600354604051637b64e88960e01b815260048101889052336024820152604481018390529192506001600160a01b031690637b64e88990606401600060405180830381600087803b158015620008a457600080fd5b505af1158015620008b9573d6000803e3d6000fd5b505050505050505050565b600080606060008060006004548710620008f25760405162461bcd60e51b8152600401620004e19062002ee0565b6003546040516388fcc75d60e01b8152600481018990526001600160a01b03909116906388fcc75d90602401600060405180830381865afa1580156200093c573d6000803e3d6000fd5b505050506040513d6000823e601f3d908101601f1916820160405262000966919081019062002c92565b949c939b5091995097509550909350915050565b6200098462002461565b6002548210620009a85760405162461bcd60e51b8152600401620004e19062002ee0565b60028281548110620009be57620009be62002d4b565b90600052602060002090600c0201604051806101a00160405290816000820154815260200160018201548152602001600282015481526020016003820154815260200160048201805462000a129062002dd5565b80601f016020809104026020016040519081016040528092919081815260200182805462000a409062002dd5565b801562000a915780601f1062000a655761010080835404028352916020019162000a91565b820191906000526020600020905b81548152906001019060200180831162000a7357829003601f168201915b5050505050815260200160058201805462000aac9062002dd5565b80601f016020809104026020016040519081016040528092919081815260200182805462000ada9062002dd5565b801562000b2b5780601f1062000aff5761010080835404028352916020019162000b2b565b820191906000526020600020905b81548152906001019060200180831162000b0d57829003601f168201915b5050505050815260200160068201805462000b469062002dd5565b80601f016020809104026020016040519081016040528092919081815260200182805462000b749062002dd5565b801562000bc55780601f1062000b995761010080835404028352916020019162000bc5565b820191906000526020600020905b81548152906001019060200180831162000ba757829003601f168201915b5050505050815260200160078201805462000be09062002dd5565b80601f016020809104026020016040519081016040528092919081815260200182805462000c0e9062002dd5565b801562000c5f5780601f1062000c335761010080835404028352916020019162000c5f565b820191906000526020600020905b81548152906001019060200180831162000c4157829003601f168201915b505050918352505060088201546001600160a01b03908116602083015260098301549081166040830152606090910190600160a01b900460ff16600281111562000cad5762000cad6200267e565b600281111562000cc15762000cc16200267e565b8152602001600a820180548060200260200160405190810160405280929190818152602001828054801562000d1657602002820191906000526020600020905b81548152602001906001019080831162000d01575b5050509183525050600b919091015460ff16151560209091015292915050565b33600090815260016020526040902060030154600160a81b900460ff1662000d725760405162461bcd60e51b8152600401620004e19062002f07565b8160000362000d955760405162461bcd60e51b8152600401620004e19062002f34565b60405160200162000db190602080825260009082015260400190565b604051602081830303815290604052805190602001208160405160200162000dda919062002f5a565b604051602081830303815290604052805190602001200362000e105760405162461bcd60e51b8152600401620004e19062002f6f565b62000e1a62002461565b600280548083526080830188815260a0840188905260c084018790524260208501908152336101008601526040850187815260e086018790526001840185556000949094528451600c9093027f405787fa12a823e0f2b7631cc41b3ba8828b3321ca811111fa75cd3aa3bb5ace810193845590517f405787fa12a823e0f2b7631cc41b3ba8828b3321ca811111fa75cd3aa3bb5acf82015592517f405787fa12a823e0f2b7631cc41b3ba8828b3321ca811111fa75cd3aa3bb5ad084015560608401517f405787fa12a823e0f2b7631cc41b3ba8828b3321ca811111fa75cd3aa3bb5ad18401555183927f405787fa12a823e0f2b7631cc41b3ba8828b3321ca811111fa75cd3aa3bb5ad2019062000f33908262002fef565b5060a0820151600582019062000f4a908262002fef565b5060c0820151600682019062000f61908262002fef565b5060e0820151600782019062000f78908262002fef565b506101008201516008820180546001600160a01b03199081166001600160a01b039384161790915561012084015160098401805492831691909316908117835561014085015192916001600160a81b03191617600160a01b83600281111562000fe55762000fe56200267e565b021790555061016082015180516200100891600a840191602090910190620024ef565b506101809190910151600b909101805460ff19169115159190911790553360009081526001602081905260409091206002546004909101916200104b91620030d1565b815460018181018455600093845260208420909101919091556002546200107d916200107791620030d1565b62002182565b600254909150620010e0906200109690600190620030d1565b82604051602001620010a99190620030e7565b60405160208183030381529060405283604051602001620010cb919062003118565b6040516020818303038152906040526200221b565b6002547f4c81382e52262a9cb7b48b06b6f04c7d902e3518fa3ddc8ccb8b0e8791a7e358906200111390600190620030d1565b336040516200112492919062003145565b60405180910390a150505050505050565b6001600160a01b038716600090815260016020526040902060030154600160a01b900460ff1615620011a55760405162461bcd60e51b815260206004820152601860248201527714995cd9585c98da195c88185b1c9958591e48195e1a5cdd60421b6044820152606401620004e1565b620011af6200253f565b86868080601f016020809104026020016040519081016040528093929190818152602001838380828437600092019190915250505090825250604080516020601f870181900481028201810190925285815290869086908190840183828082843760009201919091525050505060208083019190915260408051601f850183900483028101830190915283815290849084908190840183828082843760009201829052506040808701959095526001600160a01b038d166060870181905260016080880181905290825260205293909320845185945090925082915062001297908262002fef565b5060208201516001820190620012ae908262002fef565b5060408201516002820190620012c5908262002fef565b506060820151600382018054608085015160a08601511515600160a81b0260ff60a81b19911515600160a01b026001600160a81b03199093166001600160a01b0390951694909417919091171691909117905560c0820151805162001335916004840191602090910190620024ef565b509050507f274da1e600baf54d201c4cf2758f1d65eb4ea397bc6e595da1df2d572d8af7ee8888888888888860405162001376979695949392919062003185565b60405180910390a15050505050505050565b62001392620022d5565b6200139e600062002331565b565b620013aa620022d5565b600160028281548110620013c257620013c262002d4b565b600091825260209091206009600c9092020101805460ff60a01b1916600160a01b836002811115620013f857620013f86200267e565b02179055506040518181527f912883fd6daad43ad71699b8e13899bcdfdc8be63801d13a330404473865c0139060200160405180910390a150565b6003546040516388fcc75d60e01b8152600481018390526000916001600160a01b0316906388fcc75d90602401600060405180830381865afa1580156200147e573d6000803e3d6000fd5b505050506040513d6000823e601f3d908101601f19168201604052620014a8919081019062002c92565b50505050509050336001600160a01b031660028281548110620014cf57620014cf62002d4b565b600091825260209091206008600c9092020101546001600160a01b0316146200150c5760405162461bcd60e51b8152600401620004e19062002d61565b6003546040516355666b9360e11b81526004810184905260009182916001600160a01b039091169063aaccd7269060240160408051808303816000875af11580156200155c573d6000803e3d6000fd5b505050506040513d601f19601f82011682018060405250810190620015829190620031e6565b9092509050801515600003620015d1578160028481548110620015a957620015a962002d4b565b90600052602060002090600c02016003016000828254620015cb9190620030d1565b90915550505b7ff760a1a147b8802f4e55b5e17a77439f740498ecf53dabe0078b74c0767f9ebe84336040516200160492919062003145565b60405180910390a150505050565b60035460405163bfa0fc9360e01b8152600481018390526000918291829182916001600160a01b039091169063bfa0fc9390602401608060405180830381865afa15801562001665573d6000803e3d6000fd5b505050506040513d601f19601f820116820180604052508101906200168b91906200320e565b93509350935093509193509193565b6003546040516388fcc75d60e01b8152600481018490526000916001600160a01b0316906388fcc75d90602401600060405180830381865afa158015620016e5573d6000803e3d6000fd5b505050506040513d6000823e601f3d908101601f191682016040526200170f919081019062002c92565b505050505090506000600282815481106200172e576200172e62002d4b565b60009182526020909120600c90910201600901546040516370a0823160e01b81523360048201526001600160a01b03909116906370a0823190602401602060405180830381865afa15801562001788573d6000803e3d6000fd5b505050506040513d601f19601f82011682018060405250810190620017ae919062002d8c565b11620017fd5760405162461bcd60e51b815260206004820152601b60248201527f596f75206e65656420746f20627579204e465420746f20766f746500000000006044820152606401620004e1565b600354604051630f909fd760e41b8152600481018590526024810183905283151560448201523360648201526001600160a01b039091169063f909fd7090608401600060405180830381600087803b1580156200185957600080fd5b505af11580156200186e573d6000803e3d6000fd5b5050604080513381526020810185905290810186905284151560608201527f2991ce8dbfcf228e1b5d37c4fa6aba08135469f3b6abec2273148158ef65a3009250608001905060405180910390a1505050565b620018cb620022d5565b6001600160a01b0390911660009081526001602052604090206003018054911515600160a81b0260ff60a81b19909216919091179055565b60008060008060006002868154811062001921576200192162002d4b565b90600052602060002090600c020160090160009054906101000a90046001600160a01b03169050806001600160a01b03166334757b346040518163ffffffff1660e01b8152600401608060405180830381865afa15801562001987573d6000803e3d6000fd5b505050506040513d601f19601f82011682018060405250810190620019ad919062003250565b9450945094509450509193509193565b620019c76200253f565b81336001600160a01b0382161480620019ea57506000546001600160a01b031633145b62001a095760405162461bcd60e51b8152600401620004e19062002f07565b6001600160a01b03831660009081526001602052604090819020815160e0810190925280548290829062001a3d9062002dd5565b80601f016020809104026020016040519081016040528092919081815260200182805462001a6b9062002dd5565b801562001abc5780601f1062001a905761010080835404028352916020019162001abc565b820191906000526020600020905b81548152906001019060200180831162001a9e57829003601f168201915b5050505050815260200160018201805462001ad79062002dd5565b80601f016020809104026020016040519081016040528092919081815260200182805462001b059062002dd5565b801562001b565780601f1062001b2a5761010080835404028352916020019162001b56565b820191906000526020600020905b81548152906001019060200180831162001b3857829003601f168201915b5050505050815260200160028201805462001b719062002dd5565b80601f016020809104026020016040519081016040528092919081815260200182805462001b9f9062002dd5565b801562001bf05780601f1062001bc45761010080835404028352916020019162001bf0565b820191906000526020600020905b81548152906001019060200180831162001bd257829003601f168201915b505050918352505060038201546001600160a01b03811660208084019190915260ff600160a01b830481161515604080860191909152600160a81b9093041615156060840152600484018054835181840281018401909452808452608090940193909183018282801562001c8457602002820191906000526020600020905b81548152602001906001019080831162001c6f575b50505050508152505091505b50919050565b62001ca0620022d5565b6001600160a01b03811662001d075760405162461bcd60e51b815260206004820152602660248201527f4f776e61626c653a206e6577206f776e657220697320746865207a65726f206160448201526564647265737360d01b6064820152608401620004e1565b62001d128162002331565b50565b6002548390811062001d3b5760405162461bcd60e51b8152600401620004e19062002ee0565b336001600160a01b03166002828154811062001d5b5762001d5b62002d4b565b600091825260209091206008600c9092020101546001600160a01b03161462001d985760405162461bcd60e51b8152600401620004e19062002d61565b600254841062001dbc5760405162461bcd60e51b8152600401620004e19062002ee0565b60016002858154811062001dd45762001dd462002d4b565b90600052602060002090600c020160090160149054906101000a900460ff16600281111562001e075762001e076200267e565b1462001e275760405162461bcd60e51b8152600401620004e19062002da6565b60405160200162001e4390602080825260009082015260400190565b604051602081830303815290604052805190602001208260405160200162001e6c919062002f5a565b604051602081830303815290604052805190602001200362001ea25760405162461bcd60e51b8152600401620004e19062002f6f565b8260000362001ec55760405162461bcd60e51b8152600401620004e19062002f34565b6002848154811062001edb5762001edb62002d4b565b90600052602060002090600c0201600201546002858154811062001f035762001f0362002d4b565b90600052602060002090600c0201600301548462001f22919062003287565b111562001f825760405162461bcd60e51b815260206004820152602760248201527f416d6f756e742073686f756c64206265206c657373207468616e20616d6f756e6044820152661d08185cdad95960ca1b6064820152608401620004e1565b600454600280548690811062001f9c5762001f9c62002d4b565b60009182526020808320600a600c9093020191909101805460018101825590835291200181905560035460405163b830b96560e01b81526001600160a01b039091169063b830b9659062001ffb9088908590899089906004016200329d565b600060405180830381600087803b1580156200201657600080fd5b505af11580156200202b573d6000803e3d6000fd5b50505050836002868154811062002046576200204662002d4b565b90600052602060002090600c0201600301600082825462002068919062003287565b9091555050600480549060006200207f83620032ce565b91905055507f435b01c746178d3d65a5cd948c89aa36dbe006e76f21252991fada0df3473da8600160028781548110620020bd57620020bd62002d4b565b90600052602060002090600c0201600a0180549050620020de9190620030d1565b33604051620020ef92919062003145565b60405180910390a15050505050565b6000806000806000600286815481106200211c576200211c62002d4b565b90600052602060002090600c020160090160009054906101000a90046001600160a01b03169050806001600160a01b031663bd9a548b6040518163ffffffff1660e01b8152600401608060405180830381865afa15801562001987573d6000803e3d6000fd5b60606000620021918362002381565b60010190506000816001600160401b03811115620021b357620021b362002832565b6040519080825280601f01601f191660200182016040528015620021de576020820181803683370190505b5090508181016020015b600019016f181899199a1a9b1b9c1cb0b131b232b360811b600a86061a8153600a8504945084620021e857509392505050565b600082826002868154811062002235576200223562002d4b565b90600052602060002090600c020160020154604051620022559062002589565b6200226393929190620032ea565b604051809103906000f08015801562002280573d6000803e3d6000fd5b50905080600285815481106200229a576200229a62002d4b565b90600052602060002090600c020160090160006101000a8154816001600160a01b0302191690836001600160a01b0316021790555050505050565b6000546001600160a01b031633146200139e5760405162461bcd60e51b815260206004820181905260248201527f4f776e61626c653a2063616c6c6572206973206e6f7420746865206f776e65726044820152606401620004e1565b600080546001600160a01b038381166001600160a01b0319831681178455604051919092169283917f8be0079c531659141344cd1fd0a4f28419497f9722a3daafe3b4186f6b6457e09190a35050565b60008072184f03e93ff9f4daa797ed6e38ed64bf6a1f0160401b8310620023c15772184f03e93ff9f4daa797ed6e38ed64bf6a1f0160401b830492506040015b6d04ee2d6d415b85acef81000000008310620023ee576d04ee2d6d415b85acef8100000000830492506020015b662386f26fc1000083106200240d57662386f26fc10000830492506010015b6305f5e100831062002426576305f5e100830492506008015b61271083106200243b57612710830492506004015b606483106200244e576064830492506002015b600a83106200245b576001015b92915050565b604051806101a00160405280600081526020016000815260200160008152602001600081526020016060815260200160608152602001606081526020016060815260200160006001600160a01b0316815260200160006001600160a01b0316815260200160006002811115620024db57620024db6200267e565b815260606020820152600060409091015290565b8280548282559060005260206000209081019282156200252d579160200282015b828111156200252d57825182559160200191906001019062002510565b506200253b92915062002597565b5090565b6040518060e0016040528060608152602001606081526020016060815260200160006001600160a01b03168152602001600015158152602001600015158152602001606081525090565b612b99806200332583390190565b5b808211156200253b576000815560010162002598565b600060208284031215620025c157600080fd5b5035919050565b60008060408385031215620025dc57600080fd5b50508035926020909101359150565b60005b8381101562002608578181015183820152602001620025ee565b50506000910152565b600081518084526200262b816020860160208601620025eb565b601f01601f19169290920160200192915050565b86815285602082015260c0604082015260006200266060c083018762002611565b606083019590955250911515608083015260a0909101529392505050565b634e487b7160e01b600052602160045260246000fd5b60038110620026b357634e487b7160e01b600052602160045260246000fd5b9052565b600081518084526020808501945080840160005b83811015620026e957815187529582019590820190600101620026cb565b509495945050505050565b6020815281516020820152602082015160408201526040820151606082015260608201516080820152600060808301516101a08060a08501526200273d6101c085018362002611565b915060a0850151601f19808685030160c08701526200275d848362002611565b935060c08701519150808685030160e08701526200277c848362002611565b935060e087015191506101008187860301818801526200279d858462002611565b945080880151925050610120620027be818801846001600160a01b03169052565b8701519150610140620027db878201846001600160a01b03169052565b8701519150610160620027f18782018462002694565b80880151925050610180818786030181880152620028108584620026b7565b94508088015192505050620028288286018215159052565b5090949350505050565b634e487b7160e01b600052604160045260246000fd5b604051601f8201601f191681016001600160401b038111828210171562002873576200287362002832565b604052919050565b60006001600160401b0382111562002897576200289762002832565b50601f01601f191660200190565b600082601f830112620028b757600080fd5b8135620028ce620028c8826200287b565b62002848565b818152846020838601011115620028e457600080fd5b816020850160208301376000918101602001919091529392505050565b600080600080600060a086880312156200291a57600080fd5b85356001600160401b03808211156200293257600080fd5b6200294089838a01620028a5565b965060208801359150808211156200295757600080fd5b6200296589838a01620028a5565b955060408801359150808211156200297c57600080fd5b6200298a89838a01620028a5565b9450606088013593506080880135915080821115620029a857600080fd5b50620029b788828901620028a5565b9150509295509295909350565b80356001600160a01b0381168114620029dc57600080fd5b919050565b60008083601f840112620029f457600080fd5b5081356001600160401b0381111562002a0c57600080fd5b60208301915083602082850101111562002a2557600080fd5b9250929050565b60008060008060008060006080888a03121562002a4857600080fd5b62002a5388620029c4565b965060208801356001600160401b038082111562002a7057600080fd5b62002a7e8b838c01620029e1565b909850965060408a013591508082111562002a9857600080fd5b62002aa68b838c01620029e1565b909650945060608a013591508082111562002ac057600080fd5b5062002acf8a828b01620029e1565b989b979a50959850939692959293505050565b801515811462001d1257600080fd5b6000806040838503121562002b0557600080fd5b82359150602083013562002b198162002ae2565b809150509250929050565b6000806040838503121562002b3857600080fd5b62002b4383620029c4565b9150602083013562002b198162002ae2565b60006020828403121562002b6857600080fd5b62002b7382620029c4565b9392505050565b602081526000825160e0602084015262002b9961010084018262002611565b90506020840151601f198085840301604086015262002bb9838362002611565b9250604086015191508085840301606086015262002bd8838362002611565b60608701516001600160a01b0316608087810191909152870151151560a080880191909152870151151560c08088019190915287015186820390920160e08701529250905062002c298282620026b7565b95945050505050565b60008060006060848603121562002c4857600080fd5b833592506020840135915060408401356001600160401b0381111562002c6d57600080fd5b62002c7b86828701620028a5565b9150509250925092565b8051620029dc8162002ae2565b60008060008060008060c0878903121562002cac57600080fd5b865195506020870151945060408701516001600160401b0381111562002cd157600080fd5b8701601f8101891362002ce357600080fd5b805162002cf4620028c8826200287b565b8181528a602083850101111562002d0a57600080fd5b62002d1d826020830160208601620025eb565b8096505050506060870151925062002d386080880162002c85565b915060a087015190509295509295509295565b634e487b7160e01b600052603260045260246000fd5b60208082526011908201527050726f6a656374206e6f7420796f75727360781b604082015260600190565b60006020828403121562002d9f57600080fd5b5051919050565b6020808252601590820152744e6f7420726561647920666f722066756e64696e6760581b604082015260600190565b600181811c9082168062002dea57607f821691505b60208210810362001c9057634e487b7160e01b600052602260045260246000fd5b6000815462002e1a8162002dd5565b80855260206001838116801562002e3a576001811462002e555762002e85565b60ff1985168884015283151560051b88018301955062002e85565b866000528260002060005b8581101562002e7d5781548a820186015290830190840162002e60565b890184019650505b505050505092915050565b60018060a01b038616815284602082015260a06040820152600062002eb960a083018662002e0b565b828103606084015262002ecd818662002e0b565b9150508260808301529695505050505050565b6020808252600d908201526c125908191bdb9d08195e1a5cdd609a1b604082015260600190565b6020808252601390820152722cb7ba93b932903737ba103932b3b4b9ba32b960691b604082015260600190565b6020808252600c908201526b0416d6f756e74206e6f7420360a41b604082015260600190565b60208152600062002b73602083018462002611565b60208082526013908201527244657461696c206973206d616e6461746f727960681b604082015260600190565b601f82111562002fea57600081815260208120601f850160051c8101602086101562002fc55750805b601f850160051c820191505b8181101562002fe65782815560010162002fd1565b5050505b505050565b81516001600160401b038111156200300b576200300b62002832565b62003023816200301c845462002dd5565b8462002f9c565b602080601f8311600181146200305b5760008415620030425750858301515b600019600386901b1c1916600185901b17855562002fe6565b600085815260208120601f198616915b828110156200308c578886015182559484019460019091019084016200306b565b5085821015620030ab5787850151600019600388901b60f8161c191681555b5050505050600190811b01905550565b634e487b7160e01b600052601160045260246000fd5b818103818111156200245b576200245b620030bb565b664445534349444560c81b8152600082516200310b816007850160208701620025eb565b9190910160070192915050565b6244534360e81b81526000825162003138816003850160208701620025eb565b9190910160030192915050565b9182526001600160a01b0316602082015260400190565b81835281816020850137506000828201602090810191909152601f909101601f19169091010190565b6001600160a01b0388168152608060208201819052600090620031ac908301888a6200315c565b8281036040840152620031c18187896200315c565b90508281036060840152620031d88185876200315c565b9a9950505050505050505050565b60008060408385031215620031fa57600080fd5b82519150602083015162002b198162002ae2565b600080600080608085870312156200322557600080fd5b8451620032328162002ae2565b60208601516040870151606090970151919890975090945092505050565b600080600080608085870312156200326757600080fd5b505082516020840151604085015160609095015191969095509092509050565b808201808211156200245b576200245b620030bb565b848152836020820152826040820152608060608201526000620032c4608083018462002611565b9695505050505050565b600060018201620032e357620032e3620030bb565b5060010190565b606081526000620032ff606083018662002611565b828103602084015262003313818662002611565b91505082604083015294935050505056fe60806040523480156200001157600080fd5b5060405162002b9938038062002b99833981016040819052620000349162000311565b8282600062000044838262000413565b50600162000053828262000413565b5050600b805460ff19169055506200006b33620001f2565b600d60205260287f81955a0a11e65eac625c29e8882660bae4e165a75d72780094acae8ece9a29ef55601e7ffd54ff1ed53f34a900b24c5ba64f85761163b5d82d98a47b9bd80e45466993c65560047f10a81eed9d63d16face5e76357905348e6253d3394086026bb2bf2145d7cc24a55600360005260017f26b4a10d0f0b04925c23bd4480ee147c916e5e87a7d68206a533dad160ac81e3556200011281600a620004df565b60008052600d6020527f81955a0a11e65eac625c29e8882660bae4e165a75d72780094acae8ece9a29f0556200014a816019620004df565b6001600052600d6020527ffd54ff1ed53f34a900b24c5ba64f85761163b5d82d98a47b9bd80e45466993c75562000183816032620004df565b6002600052600d6020527f10a81eed9d63d16face5e76357905348e6253d3394086026bb2bf2145d7cc24b55620001bc816064620004df565b6003600052600d6020527f26b4a10d0f0b04925c23bd4480ee147c916e5e87a7d68206a533dad160ac81e455506200050b915050565b600b80546001600160a01b03838116610100818102610100600160a81b031985161790945560405193909204169182907f8be0079c531659141344cd1fd0a4f28419497f9722a3daafe3b4186f6b6457e090600090a35050565b634e487b7160e01b600052604160045260246000fd5b600082601f8301126200027457600080fd5b81516001600160401b03808211156200029157620002916200024c565b604051601f8301601f19908116603f01168101908282118183101715620002bc57620002bc6200024c565b81604052838152602092508683858801011115620002d957600080fd5b600091505b83821015620002fd5785820183015181830184015290820190620002de565b600093810190920192909252949350505050565b6000806000606084860312156200032757600080fd5b83516001600160401b03808211156200033f57600080fd5b6200034d8783880162000262565b945060208601519150808211156200036457600080fd5b50620003738682870162000262565b925050604084015190509250925092565b600181811c908216806200039957607f821691505b602082108103620003ba57634e487b7160e01b600052602260045260246000fd5b50919050565b601f8211156200040e57600081815260208120601f850160051c81016020861015620003e95750805b601f850160051c820191505b818110156200040a57828155600101620003f5565b5050505b505050565b81516001600160401b038111156200042f576200042f6200024c565b620004478162000440845462000384565b84620003c0565b602080601f8311600181146200047f5760008415620004665750858301515b600019600386901b1c1916600185901b1785556200040a565b600085815260208120601f198616915b82811015620004b0578886015182559484019460019091019084016200048f565b5085821015620004cf5787850151600019600388901b60f8161c191681555b5050505050600190811b01905550565b80820281158282048414176200050557634e487b7160e01b600052601160045260246000fd5b92915050565b61267e806200051b6000396000f3fe608060405234801561001057600080fd5b50600436106101585760003560e01c80636352211e116100c3578063b88d4fde1161007c578063b88d4fde146102dd578063bd9a548b146102f0578063c87b56dd146102f8578063d851fdfd1461030b578063e985e9c51461031e578063f2fde38b1461033157600080fd5b80636352211e1461027e57806370a0823114610291578063715018a6146102a45780638da5cb5b146102ac57806395d89b41146102c2578063a22cb465146102ca57600080fd5b806323b872dd1161011557806323b872dd146101ff5780632f745c591461021257806334757b341461022557806342842e0e1461024d5780634f6ccce7146102605780635c975abb1461027357600080fd5b806301ffc9a71461015d57806306fdde0314610185578063081812fc1461019a578063095ea7b3146101c55780631507e96d146101da57806318160ddd146101ed575b600080fd5b61017061016b366004611d50565b610344565b60405190151581526020015b60405180910390f35b61018d610355565b60405161017c9190611dbd565b6101ad6101a8366004611dd0565b6103e7565b6040516001600160a01b03909116815260200161017c565b6101d86101d3366004611e00565b61040e565b005b6101d86101e8366004611ed6565b610528565b6009545b60405190815260200161017c565b6101d861020d366004611f5c565b61081b565b6101f1610220366004611e00565b61084c565b61022d6108e2565b60408051948552602085019390935291830152606082015260800161017c565b6101d861025b366004611f5c565b61098e565b6101f161026e366004611dd0565b6109a9565b600b5460ff16610170565b6101ad61028c366004611dd0565b610a3c565b6101f161029f366004611f98565b610a71565b6101d8610af7565b600b5461010090046001600160a01b03166101ad565b61018d610b0b565b6101d86102d8366004611fb3565b610b1a565b6101d86102eb366004611fef565b610b29565b61022d610b61565b61018d610306366004611dd0565b610c0d565b6101f1610319366004611dd0565b610c18565b61017061032c36600461206b565b610c7c565b6101d861033f366004611f98565b610caa565b600061034f82610d23565b92915050565b6060600080546103649061209e565b80601f01602080910402602001604051908101604052809291908181526020018280546103909061209e565b80156103dd5780601f106103b2576101008083540402835291602001916103dd565b820191906000526020600020905b8154815290600101906020018083116103c057829003601f168201915b5050505050905090565b60006103f282610d48565b506000908152600460205260409020546001600160a01b031690565b600061041982610a3c565b9050806001600160a01b0316836001600160a01b03160361048b5760405162461bcd60e51b815260206004820152602160248201527f4552433732313a20617070726f76616c20746f2063757272656e74206f776e656044820152603960f91b60648201526084015b60405180910390fd5b336001600160a01b03821614806104a757506104a78133610c7c565b6105195760405162461bcd60e51b815260206004820152603d60248201527f4552433732313a20617070726f76652063616c6c6572206973206e6f7420746f60448201527f6b656e206f776e6572206f7220617070726f76656420666f7220616c6c0000006064820152608401610482565b6105238383610d6d565b505050565b610530610ddb565b80158061053d5750600181145b806105485750600281145b806105535750600381145b61056f5760405162461bcd60e51b8152600401610482906120ee565b600d6000826003811115610585576105856120d8565b6003811115610596576105966120d8565b60038111156105a7576105a76120d8565b815260200190815260200160002060010154600d60008360038111156105cf576105cf6120d8565b60038111156105e0576105e06120d8565b60038111156105f1576105f16120d8565b815260200190815260200160002060000154106106495760405162461bcd60e51b815260206004820152601660248201527513585e1a5b5d5b481cdd5c1c1b1e481c995858da195960521b6044820152606401610482565b600d600082600381111561065f5761065f6120d8565b6003811115610670576106706120d8565b6003811115610681576106816120d8565b815260200190815260200160002060020154846103e86106a19190612130565b10156106e15760405162461bcd60e51b815260206004820152600f60248201526e139bdd08195b985d59da081c185a59608a1b6044820152606401610482565b600083836106ee84610e3b565b60405160200161070093929190612163565b6040516020818303038152906040529050600061071c82610edf565b60405160200161072c9190612252565b60405160208183030381529060405290506000610748600c5490565b9050610758600c80546001019055565b600d600085600381111561076e5761076e6120d8565b600381111561077f5761077f6120d8565b6003811115610790576107906120d8565b8152602081019190915260400160009081208054916107ae83612297565b91905055506107bd8882611032565b6107c7818361104c565b604080516001600160a01b038a168152602081018390529081018590527fc410f6ec4eba9d4398c3a8e2a8b796ffce6ad710adc2748f752eeefd45fa80229060600160405180910390a15050505050505050565b6108253382611108565b6108415760405162461bcd60e51b8152600401610482906122b0565b610523838383611167565b600061085783610a71565b82106108b95760405162461bcd60e51b815260206004820152602b60248201527f455243373231456e756d657261626c653a206f776e657220696e646578206f7560448201526a74206f6620626f756e647360a81b6064820152608401610482565b506001600160a01b03919091166000908152600760209081526040808320938352929052205490565b6000806000806108f0610ddb565b5050600d60205250507f81955a0a11e65eac625c29e8882660bae4e165a75d72780094acae8ece9a29ee547ffd54ff1ed53f34a900b24c5ba64f85761163b5d82d98a47b9bd80e45466993c5547f10a81eed9d63d16face5e76357905348e6253d3394086026bb2bf2145d7cc2495460036000527f26b4a10d0f0b04925c23bd4480ee147c916e5e87a7d68206a533dad160ac81e254929391929091565b61052383838360405180602001604052806000815250610b29565b60006109b460095490565b8210610a175760405162461bcd60e51b815260206004820152602c60248201527f455243373231456e756d657261626c653a20676c6f62616c20696e646578206f60448201526b7574206f6620626f756e647360a01b6064820152608401610482565b60098281548110610a2a57610a2a6122fd565b90600052602060002001549050919050565b6000818152600260205260408120546001600160a01b03168061034f5760405162461bcd60e51b815260040161048290612313565b60006001600160a01b038216610adb5760405162461bcd60e51b815260206004820152602960248201527f4552433732313a2061646472657373207a65726f206973206e6f7420612076616044820152683634b21037bbb732b960b91b6064820152608401610482565b506001600160a01b031660009081526003602052604090205490565b610aff610ddb565b610b0960006112d8565b565b6060600180546103649061209e565b610b25338383611332565b5050565b610b333383611108565b610b4f5760405162461bcd60e51b8152600401610482906122b0565b610b5b848484846113fc565b50505050565b600080600080610b6f610ddb565b5050600d60205250507f81955a0a11e65eac625c29e8882660bae4e165a75d72780094acae8ece9a29f0547ffd54ff1ed53f34a900b24c5ba64f85761163b5d82d98a47b9bd80e45466993c7547f10a81eed9d63d16face5e76357905348e6253d3394086026bb2bf2145d7cc24b5460036000527f26b4a10d0f0b04925c23bd4480ee147c916e5e87a7d68206a533dad160ac81e454929391929091565b606061034f8261142f565b6000610c22610ddb565b81610c2f5750600a919050565b60018203610c3f57506019919050565b60028203610c4f57506032919050565b60038203610c5f57506064919050565b60405162461bcd60e51b8152600401610482906120ee565b919050565b6001600160a01b03918216600090815260056020908152604080832093909416825291909152205460ff1690565b610cb2610ddb565b6001600160a01b038116610d175760405162461bcd60e51b815260206004820152602660248201527f4f776e61626c653a206e6577206f776e657220697320746865207a65726f206160448201526564647265737360d01b6064820152608401610482565b610d20816112d8565b50565b60006001600160e01b0319821663780e9d6360e01b148061034f575061034f82611537565b610d518161155c565b610d205760405162461bcd60e51b815260040161048290612313565b600081815260046020526040902080546001600160a01b0319166001600160a01b0384169081179091558190610da282610a3c565b6001600160a01b03167f8c5be1e5ebec7d5bd14f71427d1e84f3dd0314c0f7b2291e5b200ac8c7c3b92560405160405180910390a45050565b600b546001600160a01b03610100909104163314610b095760405162461bcd60e51b815260206004820181905260248201527f4f776e61626c653a2063616c6c6572206973206e6f7420746865206f776e65726044820152606401610482565b606081610e65575050604080518082019091526007815266434c415353494360c81b602082015290565b60018203610e8d575050604080518082019091526004815263504c555360e01b602082015290565b60028203610eb85750506040805180820190915260078152665052454d49554d60c81b602082015290565b60038203610c5f57505060408051808201909152600381526205649560ec1b602082015290565b60608151600003610efe57505060408051602081019091526000815290565b60006040518060600160405280604081526020016126096040913990506000600384516002610f2d9190612345565b610f379190612358565b610f42906004612130565b67ffffffffffffffff811115610f5a57610f5a611e2a565b6040519080825280601f01601f191660200182016040528015610f84576020820181803683370190505b509050600182016020820185865187015b80821015610ff0576003820191508151603f8160121c168501518453600184019350603f81600c1c168501518453600184019350603f8160061c168501518453600184019350603f8116850151845350600183019250610f95565b505060038651066001811461100c576002811461101f57611027565b603d6001830353603d6002830353611027565b603d60018303535b509195945050505050565b610b25828260405180602001604052806000815250611579565b6110558261155c565b6110b85760405162461bcd60e51b815260206004820152602e60248201527f45524337323155524953746f726167653a2055524920736574206f66206e6f6e60448201526d32bc34b9ba32b73a103a37b5b2b760911b6064820152608401610482565b60008281526006602052604090206110d082826123c8565b506040518281527ff8e1a15aba9398e019f0b49df1a4fde98ee17ae345cb5f6b5e2c27f5033e8ce79060200160405180910390a15050565b60008061111483610a3c565b9050806001600160a01b0316846001600160a01b0316148061113b575061113b8185610c7c565b8061115f5750836001600160a01b0316611154846103e7565b6001600160a01b0316145b949350505050565b826001600160a01b031661117a82610a3c565b6001600160a01b0316146111a05760405162461bcd60e51b815260040161048290612488565b6001600160a01b0382166112025760405162461bcd60e51b8152602060048201526024808201527f4552433732313a207472616e7366657220746f20746865207a65726f206164646044820152637265737360e01b6064820152608401610482565b61120f83838360016115ac565b826001600160a01b031661122282610a3c565b6001600160a01b0316146112485760405162461bcd60e51b815260040161048290612488565b600081815260046020908152604080832080546001600160a01b03199081169091556001600160a01b0387811680865260038552838620805460001901905590871680865283862080546001019055868652600290945282852080549092168417909155905184937fddf252ad1be2c89b69c2b068fc378daa952ba7f163c4a11628f55a4df523b3ef91a4505050565b600b80546001600160a01b03838116610100818102610100600160a81b031985161790945560405193909204169182907f8be0079c531659141344cd1fd0a4f28419497f9722a3daafe3b4186f6b6457e090600090a35050565b816001600160a01b0316836001600160a01b03160361138f5760405162461bcd60e51b815260206004820152601960248201527822a9219b99189d1030b8383937bb32903a379031b0b63632b960391b6044820152606401610482565b6001600160a01b03838116600081815260056020908152604080832094871680845294825291829020805460ff191686151590811790915591519182527f17307eab39ab6107e8899845ad3d59bd9653f200f220920489ca2b5937696c31910160405180910390a3505050565b611407848484611167565b611413848484846115b8565b610b5b5760405162461bcd60e51b8152600401610482906124cd565b606061143a82610d48565b600082815260066020526040812080546114539061209e565b80601f016020809104026020016040519081016040528092919081815260200182805461147f9061209e565b80156114cc5780601f106114a1576101008083540402835291602001916114cc565b820191906000526020600020905b8154815290600101906020018083116114af57829003601f168201915b5050505050905060006114ea60408051602081019091526000815290565b905080516000036114fc575092915050565b81511561152e57808260405160200161151692919061251f565b60405160208183030381529060405292505050919050565b61115f846116b9565b60006001600160e01b03198216632483248360e11b148061034f575061034f8261172d565b6000908152600260205260409020546001600160a01b0316151590565b611583838361177d565b61159060008484846115b8565b6105235760405162461bcd60e51b8152600401610482906124cd565b610b5b84848484611898565b60006001600160a01b0384163b156116ae57604051630a85bd0160e11b81526001600160a01b0385169063150b7a02906115fc90339089908890889060040161254e565b6020604051808303816000875af1925050508015611637575060408051601f3d908101601f191682019092526116349181019061258b565b60015b611694573d808015611665576040519150601f19603f3d011682016040523d82523d6000602084013e61166a565b606091505b50805160000361168c5760405162461bcd60e51b8152600401610482906124cd565b805181602001fd5b6001600160e01b031916630a85bd0160e11b14905061115f565b506001949350505050565b60606116c482610d48565b60006116db60408051602081019091526000815290565b905060008151116116fb5760405180602001604052806000815250611726565b806117058461190b565b60405160200161171692919061251f565b6040516020818303038152906040525b9392505050565b60006001600160e01b031982166380ac58cd60e01b148061175e57506001600160e01b03198216635b5e139f60e01b145b8061034f57506301ffc9a760e01b6001600160e01b031983161461034f565b6001600160a01b0382166117d35760405162461bcd60e51b815260206004820181905260248201527f4552433732313a206d696e7420746f20746865207a65726f20616464726573736044820152606401610482565b6117dc8161155c565b156117f95760405162461bcd60e51b8152600401610482906125a8565b6118076000838360016115ac565b6118108161155c565b1561182d5760405162461bcd60e51b8152600401610482906125a8565b6001600160a01b038216600081815260036020908152604080832080546001019055848352600290915280822080546001600160a01b0319168417905551839291907fddf252ad1be2c89b69c2b068fc378daa952ba7f163c4a11628f55a4df523b3ef908290a45050565b6118a48484848461199e565b600b5460ff1615610b5b5760405162461bcd60e51b815260206004820152602b60248201527f4552433732315061757361626c653a20746f6b656e207472616e73666572207760448201526a1a1a5b19481c185d5cd95960aa1b6064820152608401610482565b6060600061191883611ad2565b600101905060008167ffffffffffffffff81111561193857611938611e2a565b6040519080825280601f01601f191660200182016040528015611962576020820181803683370190505b5090508181016020015b600019016f181899199a1a9b1b9c1cb0b131b232b360811b600a86061a8153600a850494508461196c57509392505050565b6001811115611a0d5760405162461bcd60e51b815260206004820152603560248201527f455243373231456e756d657261626c653a20636f6e7365637574697665207472604482015274185b9cd9995c9cc81b9bdd081cdd5c1c1bdc9d1959605a1b6064820152608401610482565b816001600160a01b038516611a6957611a6481600980546000838152600a60205260408120829055600182018355919091527f6e1540171b6c0c960b71a7020d9f60077f6af931a8bbf590da0223dacf75c7af0155565b611a8c565b836001600160a01b0316856001600160a01b031614611a8c57611a8c8582611baa565b6001600160a01b038416611aa857611aa381611c47565b611acb565b846001600160a01b0316846001600160a01b031614611acb57611acb8482611cf6565b5050505050565b60008072184f03e93ff9f4daa797ed6e38ed64bf6a1f0160401b8310611b115772184f03e93ff9f4daa797ed6e38ed64bf6a1f0160401b830492506040015b6d04ee2d6d415b85acef81000000008310611b3d576d04ee2d6d415b85acef8100000000830492506020015b662386f26fc100008310611b5b57662386f26fc10000830492506010015b6305f5e1008310611b73576305f5e100830492506008015b6127108310611b8757612710830492506004015b60648310611b99576064830492506002015b600a831061034f5760010192915050565b60006001611bb784610a71565b611bc191906125df565b600083815260086020526040902054909150808214611c14576001600160a01b03841660009081526007602090815260408083208584528252808320548484528184208190558352600890915290208190555b5060009182526008602090815260408084208490556001600160a01b039094168352600781528383209183525290812055565b600954600090611c59906001906125df565b6000838152600a602052604081205460098054939450909284908110611c8157611c816122fd565b906000526020600020015490508060098381548110611ca257611ca26122fd565b6000918252602080832090910192909255828152600a90915260408082208490558582528120556009805480611cda57611cda6125f2565b6001900381819060005260206000200160009055905550505050565b6000611d0183610a71565b6001600160a01b039093166000908152600760209081526040808320868452825280832085905593825260089052919091209190915550565b6001600160e01b031981168114610d2057600080fd5b600060208284031215611d6257600080fd5b813561172681611d3a565b60005b83811015611d88578181015183820152602001611d70565b50506000910152565b60008151808452611da9816020860160208601611d6d565b601f01601f19169290920160200192915050565b6020815260006117266020830184611d91565b600060208284031215611de257600080fd5b5035919050565b80356001600160a01b0381168114610c7757600080fd5b60008060408385031215611e1357600080fd5b611e1c83611de9565b946020939093013593505050565b634e487b7160e01b600052604160045260246000fd5b600067ffffffffffffffff80841115611e5b57611e5b611e2a565b604051601f8501601f19908116603f01168101908282118183101715611e8357611e83611e2a565b81604052809350858152868686011115611e9c57600080fd5b858560208301376000602087830101525050509392505050565b600082601f830112611ec757600080fd5b61172683833560208501611e40565b600080600080600060a08688031215611eee57600080fd5b611ef786611de9565b945060208601359350604086013567ffffffffffffffff80821115611f1b57600080fd5b611f2789838a01611eb6565b94506060880135915080821115611f3d57600080fd5b50611f4a88828901611eb6565b95989497509295608001359392505050565b600080600060608486031215611f7157600080fd5b611f7a84611de9565b9250611f8860208501611de9565b9150604084013590509250925092565b600060208284031215611faa57600080fd5b61172682611de9565b60008060408385031215611fc657600080fd5b611fcf83611de9565b915060208301358015158114611fe457600080fd5b809150509250929050565b6000806000806080858703121561200557600080fd5b61200e85611de9565b935061201c60208601611de9565b925060408501359150606085013567ffffffffffffffff81111561203f57600080fd5b8501601f8101871361205057600080fd5b61205f87823560208401611e40565b91505092959194509250565b6000806040838503121561207e57600080fd5b61208783611de9565b915061209560208401611de9565b90509250929050565b600181811c908216806120b257607f821691505b6020821081036120d257634e487b7160e01b600052602260045260246000fd5b50919050565b634e487b7160e01b600052602160045260246000fd5b602080825260129082015271139195081d1e5c19481b9bdd08195e1a5cdd60721b604082015260600190565b634e487b7160e01b600052601160045260246000fd5b808202811582820484141761034f5761034f61211a565b60008151612159818560208601611d6d565b9290920192915050565b6000607b60f81b80835268113730b6b2911d101160b91b6001840152855161219281600a860160208a01611d6d565b61088b60f21b600a9185019182018190527022696d616765223a2022697066733a2f2f60781b600c83015286516121d081601d850160208b01611d6d565b601d9201918201526e2261747472696275746573223a205b60881b601f820152602e810182905268113a3cb832911d101160b91b602f82015261224761222d61223a81612220603886018a612147565b601160f91b815260010190565b607d60f81b815260010190565b605d60f81b815260010190565b979650505050505050565b7f646174613a6170706c69636174696f6e2f6a736f6e3b6261736536342c00000081526000825161228a81601d850160208701611d6d565b91909101601d0192915050565b6000600182016122a9576122a961211a565b5060010190565b6020808252602d908201527f4552433732313a2063616c6c6572206973206e6f7420746f6b656e206f776e6560408201526c1c881bdc88185c1c1c9bdd9959609a1b606082015260800190565b634e487b7160e01b600052603260045260246000fd5b602080825260189082015277115490cdcc8c4e881a5b9d985b1a59081d1bdad95b88125160421b604082015260600190565b8082018082111561034f5761034f61211a565b60008261237557634e487b7160e01b600052601260045260246000fd5b500490565b601f82111561052357600081815260208120601f850160051c810160208610156123a15750805b601f850160051c820191505b818110156123c0578281556001016123ad565b505050505050565b815167ffffffffffffffff8111156123e2576123e2611e2a565b6123f6816123f0845461209e565b8461237a565b602080601f83116001811461242b57600084156124135750858301515b600019600386901b1c1916600185901b1785556123c0565b600085815260208120601f198616915b8281101561245a5788860151825594840194600190910190840161243b565b50858210156124785787850151600019600388901b60f8161c191681555b5050505050600190811b01905550565b60208082526025908201527f4552433732313a207472616e736665722066726f6d20696e636f72726563742060408201526437bbb732b960d91b606082015260800190565b60208082526032908201527f4552433732313a207472616e7366657220746f206e6f6e20455243373231526560408201527131b2b4bb32b91034b6b83632b6b2b73a32b960711b606082015260800190565b60008351612531818460208801611d6d565b835190830190612545818360208801611d6d565b01949350505050565b6001600160a01b038581168252841660208201526040810183905260806060820181905260009061258190830184611d91565b9695505050505050565b60006020828403121561259d57600080fd5b815161172681611d3a565b6020808252601c908201527f4552433732313a20746f6b656e20616c7265616479206d696e74656400000000604082015260600190565b8181038181111561034f5761034f61211a565b634e487b7160e01b600052603160045260246000fdfe4142434445464748494a4b4c4d4e4f505152535455565758595a6162636465666768696a6b6c6d6e6f707172737475767778797a303132333435363738392b2fa2646970667358221220dbf88d37c89f1138a366a53ced38449db0f2e5c6e6e6837f8ec61b87f225507664736f6c63430008110033a264697066735822122015cc9cf2173f8eb681fcab3f5f59ce272ccfa798ab5d19d4022567bf1a0ca69064736f6c63430008110033",
  "linkReferences": {},
  "deployedLinkReferences": {}
}