{
  "_format": "hh-sol-artifact-1",
  "contractName": "FundsFactory",
  "sourceName": "contracts/FundsFactory.sol",
  "abi": [
    {
      "inputs": [],
      "stateMutability": "nonpayable",
      "type": "constructor"
    },
    {
      "anonymous": false,
      "inputs": [
        {
          "indexed": false,
          "internalType": "uint256",
          "name": "amount",
          "type": "uint256"
        },
        {
          "indexed": false,
          "internalType": "uint256",
          "name": "projectId",
          "type": "uint256"
        }
      ],
      "name": "FundsAdded",
      "type": "event"
    },
    {
      "anonymous": false,
      "inputs": [
        {
          "indexed": false,
          "internalType": "uint256",
          "name": "fundRequestId",
          "type": "uint256"
        },
        {
          "indexed": false,
          "internalType": "address",
          "name": "reasearcher",
          "type": "address"
        }
      ],
      "name": "FundsRequestCreated",
      "type": "event"
    },
    {
      "anonymous": false,
      "inputs": [
        {
          "indexed": true,
          "internalType": "address",
          "name": "previousOwner",
          "type": "address"
        },
        {
          "indexed": true,
          "internalType": "address",
          "name": "newOwner",
          "type": "address"
        }
      ],
      "name": "OwnershipTransferred",
      "type": "event"
    },
    {
      "anonymous": false,
      "inputs": [
        {
          "indexed": false,
          "internalType": "uint256",
          "name": "projectId",
          "type": "uint256"
        },
        {
          "indexed": false,
          "internalType": "address",
          "name": "reasearcher",
          "type": "address"
        }
      ],
      "name": "ResearchProjectCreated",
      "type": "event"
    },
    {
      "anonymous": false,
      "inputs": [
        {
          "indexed": false,
          "internalType": "uint256",
          "name": "projectId",
          "type": "uint256"
        },
        {
          "indexed": false,
          "internalType": "address",
          "name": "reasearcher",
          "type": "address"
        }
      ],
      "name": "ResearchProjectRemoved",
      "type": "event"
    },
    {
      "anonymous": false,
      "inputs": [
        {
          "indexed": false,
          "internalType": "uint256",
          "name": "projectId",
          "type": "uint256"
        }
      ],
      "name": "ResearchProjectValidated",
      "type": "event"
    },
    {
      "anonymous": false,
      "inputs": [
        {
          "indexed": false,
          "internalType": "address",
          "name": "addr",
          "type": "address"
        },
        {
          "indexed": false,
          "internalType": "string",
          "name": "lastname",
          "type": "string"
        },
        {
          "indexed": false,
          "internalType": "string",
          "name": "forname",
          "type": "string"
        },
        {
          "indexed": false,
          "internalType": "string",
          "name": "company",
          "type": "string"
        }
      ],
      "name": "ResearcherAdded",
      "type": "event"
    },
    {
      "stateMutability": "payable",
      "type": "fallback"
    },
    {
      "inputs": [
        {
          "internalType": "string",
          "name": "title",
          "type": "string"
        },
        {
          "internalType": "string",
          "name": "description",
          "type": "string"
        },
        {
          "internalType": "string",
          "name": "imageUrl",
          "type": "string"
        },
        {
          "internalType": "uint256",
          "name": "amountAsked",
          "type": "uint256"
        },
        {
          "internalType": "string",
          "name": "projectDetailsUri",
          "type": "string"
        }
      ],
      "name": "addResearchProject",
      "outputs": [],
      "stateMutability": "nonpayable",
      "type": "function"
    },
    {
      "inputs": [
        {
          "internalType": "address",
          "name": "addr",
          "type": "address"
        },
        {
          "internalType": "string",
          "name": "lastname",
          "type": "string"
        },
        {
          "internalType": "string",
          "name": "forname",
          "type": "string"
        },
        {
          "internalType": "string",
          "name": "company",
          "type": "string"
        }
      ],
      "name": "addResearcher",
      "outputs": [],
      "stateMutability": "nonpayable",
      "type": "function"
    },
    {
      "inputs": [
        {
          "internalType": "uint256",
          "name": "id",
          "type": "uint256"
        },
        {
          "internalType": "uint256",
          "name": "amount",
          "type": "uint256"
        }
      ],
      "name": "askFundsRequest",
      "outputs": [],
      "stateMutability": "nonpayable",
      "type": "function"
    },
    {
      "inputs": [
        {
          "internalType": "uint256",
          "name": "id",
          "type": "uint256"
        },
        {
          "internalType": "uint256",
          "name": "typeNFT",
          "type": "uint256"
        }
      ],
      "name": "buyNFT",
      "outputs": [],
      "stateMutability": "payable",
      "type": "function"
    },
    {
      "inputs": [
        {
          "internalType": "address",
          "name": "addr",
          "type": "address"
        },
        {
          "internalType": "bool",
          "name": "status",
          "type": "bool"
        }
      ],
      "name": "changeResearcherStatus",
      "outputs": [],
      "stateMutability": "nonpayable",
      "type": "function"
    },
    {
      "inputs": [
        {
          "internalType": "uint256",
          "name": "id",
          "type": "uint256"
        }
      ],
      "name": "getFunds",
      "outputs": [],
      "stateMutability": "nonpayable",
      "type": "function"
    },
    {
      "inputs": [
        {
          "internalType": "uint256",
          "name": "id",
          "type": "uint256"
        }
      ],
      "name": "getNFT_Prices",
      "outputs": [
        {
          "internalType": "uint256",
          "name": "",
          "type": "uint256"
        },
        {
          "internalType": "uint256",
          "name": "",
          "type": "uint256"
        },
        {
          "internalType": "uint256",
          "name": "",
          "type": "uint256"
        },
        {
          "internalType": "uint256",
          "name": "",
          "type": "uint256"
        }
      ],
      "stateMutability": "view",
      "type": "function"
    },
    {
      "inputs": [
        {
          "internalType": "uint256",
          "name": "id",
          "type": "uint256"
        }
      ],
      "name": "getNumberNFTMinted",
      "outputs": [
        {
          "internalType": "uint256",
          "name": "",
          "type": "uint256"
        },
        {
          "internalType": "uint256",
          "name": "",
          "type": "uint256"
        },
        {
          "internalType": "uint256",
          "name": "",
          "type": "uint256"
        },
        {
          "internalType": "uint256",
          "name": "",
          "type": "uint256"
        }
      ],
      "stateMutability": "view",
      "type": "function"
    },
    {
      "inputs": [
        {
          "internalType": "uint256",
          "name": "id",
          "type": "uint256"
        }
      ],
      "name": "getResearchProject",
      "outputs": [
        {
          "components": [
            {
              "internalType": "uint256",
              "name": "id",
              "type": "uint256"
            },
            {
              "internalType": "string",
              "name": "title",
              "type": "string"
            },
            {
              "internalType": "string",
              "name": "description",
              "type": "string"
            },
            {
              "internalType": "string",
              "name": "imageUrl",
              "type": "string"
            },
            {
              "internalType": "uint256",
              "name": "creationTime",
              "type": "uint256"
            },
            {
              "internalType": "bool",
              "name": "isAccepted",
              "type": "bool"
            },
            {
              "internalType": "address",
              "name": "researcher",
              "type": "address"
            },
            {
              "internalType": "uint256",
              "name": "amountAsked",
              "type": "uint256"
            },
            {
              "internalType": "string",
              "name": "projectDetailsUri",
              "type": "string"
            },
            {
              "internalType": "contract FundNFT",
              "name": "fundNFT",
              "type": "address"
            },
            {
              "internalType": "enum FundsFactory.ResearchProjectStatus",
              "name": "status",
              "type": "uint8"
            },
            {
              "internalType": "uint256[]",
              "name": "fundRequestListIds",
              "type": "uint256[]"
            }
          ],
          "internalType": "struct FundsFactory.ResearchProject",
          "name": "",
          "type": "tuple"
        }
      ],
      "stateMutability": "view",
      "type": "function"
    },
    {
      "inputs": [
        {
          "internalType": "address",
          "name": "addr",
          "type": "address"
        }
      ],
      "name": "getResearcher",
      "outputs": [
        {
          "components": [
            {
              "internalType": "string",
              "name": "lastname",
              "type": "string"
            },
            {
              "internalType": "string",
              "name": "forname",
              "type": "string"
            },
            {
              "internalType": "string",
              "name": "company",
              "type": "string"
            },
            {
              "internalType": "address",
              "name": "addr",
              "type": "address"
            },
            {
              "internalType": "bool",
              "name": "exist",
              "type": "bool"
            },
            {
              "internalType": "bool",
              "name": "isValidated",
              "type": "bool"
            },
            {
              "internalType": "uint256[]",
              "name": "projectListIds",
              "type": "uint256[]"
            }
          ],
          "internalType": "struct FundsFactory.Researcher",
          "name": "",
          "type": "tuple"
        }
      ],
      "stateMutability": "view",
      "type": "function"
    },
    {
      "inputs": [
        {
          "internalType": "address",
          "name": "addr",
          "type": "address"
        }
      ],
      "name": "isRegisterExist",
      "outputs": [
        {
          "internalType": "bool",
          "name": "",
          "type": "bool"
        }
      ],
      "stateMutability": "view",
      "type": "function"
    },
    {
      "inputs": [],
      "name": "owner",
      "outputs": [
        {
          "internalType": "address",
          "name": "",
          "type": "address"
        }
      ],
      "stateMutability": "view",
      "type": "function"
    },
    {
      "inputs": [
        {
          "internalType": "uint256",
          "name": "id",
          "type": "uint256"
        }
      ],
      "name": "removeResearchProject",
      "outputs": [],
      "stateMutability": "nonpayable",
      "type": "function"
    },
    {
      "inputs": [],
      "name": "renounceOwnership",
      "outputs": [],
      "stateMutability": "nonpayable",
      "type": "function"
    },
    {
      "inputs": [
        {
          "internalType": "address",
          "name": "newOwner",
          "type": "address"
        }
      ],
      "name": "transferOwnership",
      "outputs": [],
      "stateMutability": "nonpayable",
      "type": "function"
    },
    {
      "inputs": [
        {
          "internalType": "uint256",
          "name": "id",
          "type": "uint256"
        }
      ],
      "name": "validResearchProject",
      "outputs": [],
      "stateMutability": "nonpayable",
      "type": "function"
    },
    {
      "stateMutability": "payable",
      "type": "receive"
    }
  ],
  "bytecode": "0x608060405234801561001057600080fd5b5061001a3361001f565b61006f565b600080546001600160a01b038381166001600160a01b0319831681178455604051919092169283917f8be0079c531659141344cd1fd0a4f28419497f9722a3daafe3b4186f6b6457e09190a35050565b61540a806200007f6000396000f3fe608060405260043610620000ff5760003560e01c80637ac14a70116200008f578063de946f0a116200005d578063de946f0a14620002fa578063e7eba4c21462000340578063f2fde38b1462000374578063ff417db9146200039957005b80637ac14a7014620002615780638da5cb5b1462000286578063ba5b0c4014620002b0578063cc986fcc14620002d557005b8063439e8a2311620000cd578063439e8a2314620001a75780635add197314620001cc578063627c2a5d1462000224578063715018a6146200024957005b80631d85bf031462000109578063345e3ee4146200012057806335aaf9f514620001455780633e721015146200018257005b366200010757005b005b620001076200011a36600462001d91565b620003be565b3480156200012d57600080fd5b50620001076200013f36600462001d91565b620006cb565b3480156200015257600080fd5b506200016a6200016436600462001db4565b6200077e565b60405162000179919062001e98565b60405180910390f35b3480156200018f57600080fd5b5062000107620001a136600462001db4565b62000b39565b348015620001b457600080fd5b5062000107620001c63660046200206f565b62000b78565b348015620001d957600080fd5b5062000213620001eb36600462002150565b6001600160a01b0316600090815260016020526040902060030154600160a01b900460ff1690565b604051901515815260200162000179565b3480156200023157600080fd5b506200010762000243366004620021c1565b62000f7a565b3480156200025657600080fd5b5062000107620011d2565b3480156200026e57600080fd5b50620001076200028036600462001db4565b620011ea565b3480156200029357600080fd5b506000546040516001600160a01b03909116815260200162000179565b348015620002bd57600080fd5b5062000107620002cf36600462001db4565b6200127d565b348015620002e257600080fd5b5062000107620002f436600462002278565b6200132f565b3480156200030757600080fd5b506200031f6200031936600462001db4565b62001371565b60408051948552602085019390935291830152606082015260800162000179565b3480156200034d57600080fd5b50620003656200035f36600462002150565b6200142b565b604051620001799190620022b8565b3480156200038157600080fd5b50620001076200039336600462002150565b62001704565b348015620003a657600080fd5b506200031f620003b836600462001db4565b62001780565b81600160048281548110620003d757620003d762002370565b90600052602060002090600a020160080160149054906101000a900460ff1660028111156200040a576200040a62001e22565b146200045d5760405162461bcd60e51b815260206004820152601d60248201527f50726f6a656374206e6f7420726561647920666f722066756e64696e6700000060448201526064015b60405180910390fd5b33600090815260036020526040812080543492906200047e9084906200239c565b925050819055506000600484815481106200049d576200049d62002370565b6000918252602082206008600a909202010154600480546001600160a01b0390921693509086908110620004d557620004d562002370565b90600052602060002090600a020160010160048681548110620004fc57620004fc62002370565b90600052602060002090600a02016003016040516020016200052092919062002463565b604051602081830303815290604052905060006200053e8262001804565b604051602001620005509190620024db565b60408051808303601f19018152919052905084620005d45760405163e8ebad6f60e01b81526001600160a01b0384169063e8ebad6f906200059a9033903490869060040162002522565b600060405180830381600087803b158015620005b557600080fd5b505af1158015620005ca573d6000803e3d6000fd5b50505050620006c3565b600185036200060f57604051633608cd4b60e01b81526001600160a01b03841690633608cd4b906200059a9033903490869060040162002522565b600285036200064a5760405163a3f8f70360e01b81526001600160a01b0384169063a3f8f703906200059a9033903490869060040162002522565b6003850362000685576040516309c0f59160e31b81526001600160a01b03841690634e07ac88906200059a9033903490869060040162002522565b60405162461bcd60e51b8152602060048201526012602482015271139195081d1e5c19481b9bdd08195e1a5cdd60721b604482015260640162000454565b505050505050565b60045482908110620006f15760405162461bcd60e51b815260040162000454906200254b565b336001600160a01b03166004828154811062000711576200071162002370565b60009182526020909120600a909102016005015461010090046001600160a01b031614620007795760405162461bcd60e51b815260206004820152601460248201527350726f6a656374206973206e6f7420796f75727360601b604482015260640162000454565b505050565b6200078862001c49565b6004548210620007ac5760405162461bcd60e51b815260040162000454906200254b565b60048281548110620007c257620007c262002370565b90600052602060002090600a02016040518061018001604052908160008201548152602001600182018054620007f890620023b2565b80601f01602080910402602001604051908101604052809291908181526020018280546200082690620023b2565b8015620008775780601f106200084b5761010080835404028352916020019162000877565b820191906000526020600020905b8154815290600101906020018083116200085957829003601f168201915b505050505081526020016002820180546200089290620023b2565b80601f0160208091040260200160405190810160405280929190818152602001828054620008c090620023b2565b8015620009115780601f10620008e55761010080835404028352916020019162000911565b820191906000526020600020905b815481529060010190602001808311620008f357829003601f168201915b505050505081526020016003820180546200092c90620023b2565b80601f01602080910402602001604051908101604052809291908181526020018280546200095a90620023b2565b8015620009ab5780601f106200097f57610100808354040283529160200191620009ab565b820191906000526020600020905b8154815290600101906020018083116200098d57829003601f168201915b505050918352505060048201546020820152600582015460ff81161515604083015261010090046001600160a01b031660608201526006820154608082015260078201805460a09092019162000a0190620023b2565b80601f016020809104026020016040519081016040528092919081815260200182805462000a2f90620023b2565b801562000a805780601f1062000a545761010080835404028352916020019162000a80565b820191906000526020600020905b81548152906001019060200180831162000a6257829003601f168201915b505050918352505060088201546001600160a01b0381166020830152604090910190600160a01b900460ff16600281111562000ac05762000ac062001e22565b600281111562000ad45762000ad462001e22565b81526020016009820180548060200260200160405190810160405280929190818152602001828054801562000b2957602002820191906000526020600020905b81548152602001906001019080831162000b14575b5050505050815250509050919050565b33600090815260016020526040902060030154600160a81b900460ff1662000b755760405162461bcd60e51b815260040162000454906200257a565b50565b33600090815260016020526040902060030154600160a81b900460ff1662000bb45760405162461bcd60e51b815260040162000454906200257a565b8160000362000c065760405162461bcd60e51b815260206004820152601c60248201527f416d6f756e742061736b65642073686f756c64206e6f74206265203000000000604482015260640162000454565b60405160200162000c2290602080825260009082015260400190565b604051602081830303815290604052805190602001208160405160200162000c4b9190620025a7565b604051602081830303815290604052805190602001200362000cb05760405162461bcd60e51b815260206004820152601b60248201527f50726f6a6563742064657461696c206973206d616e6461746f72790000000000604482015260640162000454565b62000cba62001c49565b600480548083526020830188815260408401889052606084018790524260808501523360c085015260e0840186905261010084018590526001820183556000929092528251600a9091027f8a35acfbc15ff81a39ae7d344fd709f28e8600b4aa8c65c6b64bfe7fe36bd19b8101918255915183927f8a35acfbc15ff81a39ae7d344fd709f28e8600b4aa8c65c6b64bfe7fe36bd19c019062000d5d908262002606565b506040820151600282019062000d74908262002606565b506060820151600382019062000d8b908262002606565b506080820151600482015560a082015160058201805460c08501516001600160a81b0319909116921515610100600160a81b031916929092176101006001600160a01b03909316830217905560e08301516006830155820151600782019062000df5908262002606565b506101208201516008820180546001600160a01b039092166001600160a01b0319831681178255610140850151926001600160a81b03191617600160a01b83600281111562000e485762000e4862001e22565b0217905550610160820151805162000e6b91600984019160209091019062001cd2565b5050336000908152600160208190526040909120600480549101925062000e939190620026d3565b8154600181810184556000938452602084209091019190915560045462000ec59162000ebf91620026d3565b62001969565b60045490915062000f289062000ede90600190620026d3565b8260405160200162000ef19190620026e9565b6040516020818303038152906040528360405160200162000f1391906200271a565b60405160208183030381529060405262001a03565b6004547f4c81382e52262a9cb7b48b06b6f04c7d902e3518fa3ddc8ccb8b0e8791a7e3589062000f5b90600190620026d3565b604080519182523360208301520160405180910390a150505050505050565b6001600160a01b038716600090815260016020526040902060030154600160a01b900460ff161562000fef5760405162461bcd60e51b815260206004820152601860248201527f5265736561726368657220616c72656164792065786973740000000000000000604482015260640162000454565b62000ff962001d22565b86868080601f016020809104026020016040519081016040528093929190818152602001838380828437600092019190915250505090825250604080516020601f870181900481028201810190925285815290869086908190840183828082843760009201919091525050505060208083019190915260408051601f850183900483028101830190915283815290849084908190840183828082843760009201829052506040808701959095526001600160a01b038d1660608701819052600160808801819052908252602052939093208451859450909250829150620010e1908262002606565b5060208201516001820190620010f8908262002606565b50604082015160028201906200110f908262002606565b506060820151600382018054608085015160a08601511515600160a81b0260ff60a81b19911515600160a01b026001600160a81b03199093166001600160a01b0390951694909417919091171691909117905560c082015180516200117f91600484019160209091019062001cd2565b509050507f274da1e600baf54d201c4cf2758f1d65eb4ea397bc6e595da1df2d572d8af7ee88888888888888604051620011c0979695949392919062002770565b60405180910390a15050505050505050565b620011dc62001abd565b620011e8600062001b19565b565b620011f462001abd565b6001600482815481106200120c576200120c62002370565b600091825260209091206008600a9092020101805460ff60a01b1916600160a01b83600281111562001242576200124262001e22565b02179055506040518181527f912883fd6daad43ad71699b8e13899bcdfdc8be63801d13a330404473865c0139060200160405180910390a150565b60045481908110620012a35760405162461bcd60e51b815260040162000454906200254b565b336001600160a01b031660048281548110620012c357620012c362002370565b60009182526020909120600a909102016005015461010090046001600160a01b0316146200132b5760405162461bcd60e51b815260206004820152601460248201527350726f6a656374206973206e6f7420796f75727360601b604482015260640162000454565b5050565b6200133962001abd565b6001600160a01b0390911660009081526001602052604090206003018054911515600160a81b0260ff60a81b19909216919091179055565b6000806000806000600486815481106200138f576200138f62002370565b90600052602060002090600a020160080160009054906101000a90046001600160a01b03169050806001600160a01b03166334757b346040518163ffffffff1660e01b8152600401608060405180830381865afa158015620013f5573d6000803e3d6000fd5b505050506040513d601f19601f820116820180604052508101906200141b9190620027d1565b9450945094509450509193509193565b6200143562001d22565b81336001600160a01b03821614806200145857506000546001600160a01b031633145b620014775760405162461bcd60e51b815260040162000454906200257a565b6001600160a01b03831660009081526001602052604090819020815160e08101909252805482908290620014ab90620023b2565b80601f0160208091040260200160405190810160405280929190818152602001828054620014d990620023b2565b80156200152a5780601f10620014fe576101008083540402835291602001916200152a565b820191906000526020600020905b8154815290600101906020018083116200150c57829003601f168201915b505050505081526020016001820180546200154590620023b2565b80601f01602080910402602001604051908101604052809291908181526020018280546200157390620023b2565b8015620015c45780601f106200159857610100808354040283529160200191620015c4565b820191906000526020600020905b815481529060010190602001808311620015a657829003601f168201915b50505050508152602001600282018054620015df90620023b2565b80601f01602080910402602001604051908101604052809291908181526020018280546200160d90620023b2565b80156200165e5780601f1062001632576101008083540402835291602001916200165e565b820191906000526020600020905b8154815290600101906020018083116200164057829003601f168201915b505050918352505060038201546001600160a01b03811660208084019190915260ff600160a01b830481161515604080860191909152600160a81b90930416151560608401526004840180548351818402810184019094528084526080909401939091830182828015620016f257602002820191906000526020600020905b815481526020019060010190808311620016dd575b50505050508152505091505b50919050565b6200170e62001abd565b6001600160a01b038116620017755760405162461bcd60e51b815260206004820152602660248201527f4f776e61626c653a206e6577206f776e657220697320746865207a65726f206160448201526564647265737360d01b606482015260840162000454565b62000b758162001b19565b6000806000806000600486815481106200179e576200179e62002370565b90600052602060002090600a020160080160009054906101000a90046001600160a01b03169050806001600160a01b031663bd9a548b6040518163ffffffff1660e01b8152600401608060405180830381865afa158015620013f5573d6000803e3d6000fd5b606081516000036200182457505060408051602081019091526000815290565b60006040518060600160405280604081526020016200539560409139905060006003845160026200185691906200239c565b62001862919062002808565b6200186f9060046200282b565b67ffffffffffffffff8111156200188a576200188a62001fc4565b6040519080825280601f01601f191660200182016040528015620018b5576020820181803683370190505b509050600182016020820185865187015b8082101562001923576003820191508151603f8160121c168501518453600184019350603f81600c1c168501518453600184019350603f8160061c168501518453600184019350603f8116850151845350600183019250620018c6565b505060038651066001811462001942576002811462001956576200195e565b603d6001830353603d60028303536200195e565b603d60018303535b509195945050505050565b60606000620019788362001b69565b600101905060008167ffffffffffffffff8111156200199b576200199b62001fc4565b6040519080825280601f01601f191660200182016040528015620019c6576020820181803683370190505b5090508181016020015b600019016f181899199a1a9b1b9c1cb0b131b232b360811b600a86061a8153600a8504945084620019d057509392505050565b600082826004868154811062001a1d5762001a1d62002370565b90600052602060002090600a02016006015460405162001a3d9062001d6c565b62001a4b9392919062002845565b604051809103906000f08015801562001a68573d6000803e3d6000fd5b509050806004858154811062001a825762001a8262002370565b90600052602060002090600a020160080160006101000a8154816001600160a01b0302191690836001600160a01b0316021790555050505050565b6000546001600160a01b03163314620011e85760405162461bcd60e51b815260206004820181905260248201527f4f776e61626c653a2063616c6c6572206973206e6f7420746865206f776e6572604482015260640162000454565b600080546001600160a01b038381166001600160a01b0319831681178455604051919092169283917f8be0079c531659141344cd1fd0a4f28419497f9722a3daafe3b4186f6b6457e09190a35050565b60008072184f03e93ff9f4daa797ed6e38ed64bf6a1f0160401b831062001ba95772184f03e93ff9f4daa797ed6e38ed64bf6a1f0160401b830492506040015b6d04ee2d6d415b85acef8100000000831062001bd6576d04ee2d6d415b85acef8100000000830492506020015b662386f26fc10000831062001bf557662386f26fc10000830492506010015b6305f5e100831062001c0e576305f5e100830492506008015b612710831062001c2357612710830492506004015b6064831062001c36576064830492506002015b600a831062001c43576001015b92915050565b604051806101800160405280600081526020016060815260200160608152602001606081526020016000815260200160001515815260200160006001600160a01b03168152602001600081526020016060815260200160006001600160a01b031681526020016000600281111562001cc55762001cc562001e22565b8152602001606081525090565b82805482825590600052602060002090810192821562001d10579160200282015b8281111562001d1057825182559160200191906001019062001cf3565b5062001d1e92915062001d7a565b5090565b6040518060e0016040528060608152602001606081526020016060815260200160006001600160a01b03168152602001600015158152602001600015158152602001606081525090565b612b15806200288083390190565b5b8082111562001d1e576000815560010162001d7b565b6000806040838503121562001da557600080fd5b50508035926020909101359150565b60006020828403121562001dc757600080fd5b5035919050565b60005b8381101562001deb57818101518382015260200162001dd1565b50506000910152565b6000815180845262001e0e81602086016020860162001dce565b601f01601f19169290920160200192915050565b634e487b7160e01b600052602160045260246000fd5b6003811062001e5757634e487b7160e01b600052602160045260246000fd5b9052565b600081518084526020808501945080840160005b8381101562001e8d5781518752958201959082019060010162001e6f565b509495945050505050565b60208152815160208201526000602083015161018080604085015262001ec36101a085018362001df4565b91506040850151601f198086850301606087015262001ee3848362001df4565b9350606087015191508086850301608087015262001f02848362001df4565b9350608087015160a087015260a0870151915062001f2460c087018315159052565b60c08701516001600160a01b03811660e0880152915060e0870151915061010082818801528088015192505061012081878603018188015262001f68858462001df4565b94508088015192505061014062001f89818801846001600160a01b03169052565b870151915061016062001f9f8782018462001e38565b87015186850390910183870152905062001fba838262001e5b565b9695505050505050565b634e487b7160e01b600052604160045260246000fd5b600082601f83011262001fec57600080fd5b813567ffffffffffffffff808211156200200a576200200a62001fc4565b604051601f8301601f19908116603f0116810190828211818310171562002035576200203562001fc4565b816040528381528660208588010111156200204f57600080fd5b836020870160208301376000602085830101528094505050505092915050565b600080600080600060a086880312156200208857600080fd5b853567ffffffffffffffff80821115620020a157600080fd5b620020af89838a0162001fda565b96506020880135915080821115620020c657600080fd5b620020d489838a0162001fda565b95506040880135915080821115620020eb57600080fd5b620020f989838a0162001fda565b94506060880135935060808801359150808211156200211757600080fd5b50620021268882890162001fda565b9150509295509295909350565b80356001600160a01b03811681146200214b57600080fd5b919050565b6000602082840312156200216357600080fd5b6200216e8262002133565b9392505050565b60008083601f8401126200218857600080fd5b50813567ffffffffffffffff811115620021a157600080fd5b602083019150836020828501011115620021ba57600080fd5b9250929050565b60008060008060008060006080888a031215620021dd57600080fd5b620021e88862002133565b9650602088013567ffffffffffffffff808211156200220657600080fd5b620022148b838c0162002175565b909850965060408a01359150808211156200222e57600080fd5b6200223c8b838c0162002175565b909650945060608a01359150808211156200225657600080fd5b50620022658a828b0162002175565b989b979a50959850939692959293505050565b600080604083850312156200228c57600080fd5b620022978362002133565b915060208301358015158114620022ad57600080fd5b809150509250929050565b602081526000825160e06020840152620022d761010084018262001df4565b90506020840151601f1980858403016040860152620022f7838362001df4565b9250604086015191508085840301606086015262002316838362001df4565b60608701516001600160a01b0316608087810191909152870151151560a080880191909152870151151560c08088019190915287015186820390920160e08701529250905062002367828262001e5b565b95945050505050565b634e487b7160e01b600052603260045260246000fd5b634e487b7160e01b600052601160045260246000fd5b8082018082111562001c435762001c4362002386565b600181811c90821680620023c757607f821691505b602082108103620016fe57634e487b7160e01b600052602260045260246000fd5b60008154620023f781620023b2565b60018281168015620024125760018114620024285762002459565b60ff198416875282151583028701945062002459565b8560005260208060002060005b85811015620024505781548a82015290840190820162002435565b50505082870194505b5050505092915050565b607b60f81b815268113730b6b2911d101160b91b600182015260006200248d600a830185620023e8565b61088b60f21b81527022696d616765223a2022697066733a2f2f60781b6002820152620024be6013820185620023e8565b601160f91b8152607d60f81b600182015260020195945050505050565b7f646174613a6170706c69636174696f6e2f6a736f6e3b6261736536342c0000008152600082516200251581601d85016020870162001dce565b91909101601d0192915050565b60018060a01b038416815282602082015260606040820152600062002367606083018462001df4565b602080825260159082015274141c9bda9958dd081a5908191bdb9d08195e1a5cdd605a1b604082015260600190565b6020808252601390820152722cb7ba93b932903737ba103932b3b4b9ba32b960691b604082015260600190565b6020815260006200216e602083018462001df4565b601f8211156200077957600081815260208120601f850160051c81016020861015620025e55750805b601f850160051c820191505b81811015620006c357828155600101620025f1565b815167ffffffffffffffff81111562002623576200262362001fc4565b6200263b81620026348454620023b2565b84620025bc565b602080601f8311600181146200267357600084156200265a5750858301515b600019600386901b1c1916600185901b178555620006c3565b600085815260208120601f198616915b82811015620026a45788860151825594840194600190910190840162002683565b5085821015620026c35787850151600019600388901b60f8161c191681555b5050505050600190811b01905550565b8181038181111562001c435762001c4362002386565b664445534349444560c81b8152600082516200270d81600785016020870162001dce565b9190910160070192915050565b6244534360e81b8152600082516200273a81600385016020870162001dce565b9190910160030192915050565b81835281816020850137506000828201602090810191909152601f909101601f19169091010190565b6001600160a01b038816815260806020820181905260009062002797908301888a62002747565b8281036040840152620027ac81878962002747565b90508281036060840152620027c381858762002747565b9a9950505050505050505050565b60008060008060808587031215620027e857600080fd5b505082516020840151604085015160609095015191969095509092509050565b6000826200282657634e487b7160e01b600052601260045260246000fd5b500490565b808202811582820484141762001c435762001c4362002386565b6060815260006200285a606083018662001df4565b82810360208401526200286e818662001df4565b91505082604083015294935050505056fe60806040523480156200001157600080fd5b5060405162002b1538038062002b15833981016040819052620000349162000311565b8282600062000044838262000413565b50600162000053828262000413565b5050600b805460ff19169055506200006b33620001f2565b600d60205260287f81955a0a11e65eac625c29e8882660bae4e165a75d72780094acae8ece9a29ef55601e7ffd54ff1ed53f34a900b24c5ba64f85761163b5d82d98a47b9bd80e45466993c65560047f10a81eed9d63d16face5e76357905348e6253d3394086026bb2bf2145d7cc24a55600360005260017f26b4a10d0f0b04925c23bd4480ee147c916e5e87a7d68206a533dad160ac81e3556200011281600a620004df565b60008052600d6020527f81955a0a11e65eac625c29e8882660bae4e165a75d72780094acae8ece9a29f0556200014a816019620004df565b6001600052600d6020527ffd54ff1ed53f34a900b24c5ba64f85761163b5d82d98a47b9bd80e45466993c75562000183816032620004df565b6002600052600d6020527f10a81eed9d63d16face5e76357905348e6253d3394086026bb2bf2145d7cc24b55620001bc816064620004df565b6003600052600d6020527f26b4a10d0f0b04925c23bd4480ee147c916e5e87a7d68206a533dad160ac81e455506200050b915050565b600b80546001600160a01b03838116610100818102610100600160a81b031985161790945560405193909204169182907f8be0079c531659141344cd1fd0a4f28419497f9722a3daafe3b4186f6b6457e090600090a35050565b634e487b7160e01b600052604160045260246000fd5b600082601f8301126200027457600080fd5b81516001600160401b03808211156200029157620002916200024c565b604051601f8301601f19908116603f01168101908282118183101715620002bc57620002bc6200024c565b81604052838152602092508683858801011115620002d957600080fd5b600091505b83821015620002fd5785820183015181830184015290820190620002de565b600093810190920192909252949350505050565b6000806000606084860312156200032757600080fd5b83516001600160401b03808211156200033f57600080fd5b6200034d8783880162000262565b945060208601519150808211156200036457600080fd5b50620003738682870162000262565b925050604084015190509250925092565b600181811c908216806200039957607f821691505b602082108103620003ba57634e487b7160e01b600052602260045260246000fd5b50919050565b601f8211156200040e57600081815260208120601f850160051c81016020861015620003e95750805b601f850160051c820191505b818110156200040a57828155600101620003f5565b5050505b505050565b81516001600160401b038111156200042f576200042f6200024c565b620004478162000440845462000384565b84620003c0565b602080601f8311600181146200047f5760008415620004665750858301515b600019600386901b1c1916600185901b1785556200040a565b600085815260208120601f198616915b82811015620004b0578886015182559484019460019091019084016200048f565b5085821015620004cf5787850151600019600388901b60f8161c191681555b5050505050600190811b01905550565b80820281158282048414176200050557634e487b7160e01b600052601160045260246000fd5b92915050565b6125fa806200051b6000396000f3fe608060405234801561001057600080fd5b50600436106101a95760003560e01c80635c975abb116100f9578063a3f8f70311610097578063c87b56dd11610071578063c87b56dd14610491578063e8ebad6f146104a4578063e985e9c5146104b7578063f2fde38b146104f357600080fd5b8063a3f8f703146103d4578063b88d4fde146103e7578063bd9a548b146103fa57600080fd5b8063715018a6116100d3578063715018a61461039b5780638da5cb5b146103a357806395d89b41146103b9578063a22cb465146103c157600080fd5b80635c975abb1461036a5780636352211e1461037557806370a082311461038857600080fd5b80632f745c59116101665780633608cd4b116101405780633608cd4b1461031e57806342842e0e146103315780634e07ac88146103445780634f6ccce71461035757600080fd5b80632f745c591461025057806332cb6b0c1461026357806334757b341461026b57600080fd5b806301ffc9a7146101ae57806306fdde03146101d6578063081812fc146101eb578063095ea7b31461021657806318160ddd1461022b57806323b872dd1461023d575b600080fd5b6101c16101bc366004611ee3565b610506565b60405190151581526020015b60405180910390f35b6101de610517565b6040516101cd9190611f50565b6101fe6101f9366004611f63565b6105a9565b6040516001600160a01b0390911681526020016101cd565b610229610224366004611f98565b6105d0565b005b6009545b6040519081526020016101cd565b61022961024b366004611fc2565b6106ea565b61022f61025e366004611f98565b61071b565b61022f604b81565b600d6020527f81955a0a11e65eac625c29e8882660bae4e165a75d72780094acae8ece9a29ee547ffd54ff1ed53f34a900b24c5ba64f85761163b5d82d98a47b9bd80e45466993c5547f10a81eed9d63d16face5e76357905348e6253d3394086026bb2bf2145d7cc2495460036000527f26b4a10d0f0b04925c23bd4480ee147c916e5e87a7d68206a533dad160ac81e2545b6040805194855260208501939093529183015260608201526080016101cd565b61022961032c36600461208a565b6107b1565b61022961033f366004611fc2565b61093e565b61022961035236600461208a565b610959565b61022f610365366004611f63565b610aba565b600b5460ff166101c1565b6101fe610383366004611f63565b610b4d565b61022f6103963660046120f5565b610bad565b610229610c33565b600b5461010090046001600160a01b03166101fe565b6101de610c47565b6102296103cf366004612110565b610c56565b6102296103e236600461208a565b610c65565b6102296103f536600461214c565b610dc6565b600d6020527f81955a0a11e65eac625c29e8882660bae4e165a75d72780094acae8ece9a29f0547ffd54ff1ed53f34a900b24c5ba64f85761163b5d82d98a47b9bd80e45466993c7547f10a81eed9d63d16face5e76357905348e6253d3394086026bb2bf2145d7cc24b5460036000527f26b4a10d0f0b04925c23bd4480ee147c916e5e87a7d68206a533dad160ac81e4546102fe565b6101de61049f366004611f63565b610dfe565b6102296104b236600461208a565b610e09565b6101c16104c53660046121c8565b6001600160a01b03918216600090815260056020908152604080832093909416825291909152205460ff1690565b6102296105013660046120f5565b610f66565b600061051182610fdf565b92915050565b606060008054610526906121fb565b80601f0160208091040260200160405190810160405280929190818152602001828054610552906121fb565b801561059f5780601f106105745761010080835404028352916020019161059f565b820191906000526020600020905b81548152906001019060200180831161058257829003601f168201915b5050505050905090565b60006105b482611004565b506000908152600460205260409020546001600160a01b031690565b60006105db82610b4d565b9050806001600160a01b0316836001600160a01b03160361064d5760405162461bcd60e51b815260206004820152602160248201527f4552433732313a20617070726f76616c20746f2063757272656e74206f776e656044820152603960f91b60648201526084015b60405180910390fd5b336001600160a01b0382161480610669575061066981336104c5565b6106db5760405162461bcd60e51b815260206004820152603d60248201527f4552433732313a20617070726f76652063616c6c6572206973206e6f7420746f60448201527f6b656e206f776e6572206f7220617070726f76656420666f7220616c6c0000006064820152608401610644565b6106e58383611063565b505050565b6106f433826110d1565b6107105760405162461bcd60e51b815260040161064490612235565b6106e5838383611150565b600061072683610bad565b82106107885760405162461bcd60e51b815260206004820152602b60248201527f455243373231456e756d657261626c653a206f776e657220696e646578206f7560448201526a74206f6620626f756e647360a81b6064820152608401610644565b506001600160a01b03919091166000908152600760209081526040808320938352929052205490565b6107b96112c1565b60016000819052600d6020527ffd54ff1ed53f34a900b24c5ba64f85761163b5d82d98a47b9bd80e45466993c6547ffd54ff1ed53f34a900b24c5ba64f85761163b5d82d98a47b9bd80e45466993c5548491116108285760405162461bcd60e51b815260040161064490612298565b600d600083600381111561083e5761083e612282565b600381111561084f5761084f612282565b815260200190815260200160002060020154816103e861086f91906122de565b101561088d5760405162461bcd60e51b8152600401610644906122f5565b6000610898600c5490565b90506108a8600c80546001019055565b60016000908152600d6020527ffd54ff1ed53f34a900b24c5ba64f85761163b5d82d98a47b9bd80e45466993c58054916108e18361231e565b91905055506108f08682611321565b6108fa818561133b565b6000805160206125a5833981519152868260015b604080516001600160a01b03909416845260208401929092529082015260600160405180910390a1505050505050565b6106e583838360405180602001604052806000815250610dc6565b6109616112c1565b60036000819052600d6020527f26b4a10d0f0b04925c23bd4480ee147c916e5e87a7d68206a533dad160ac81e3547f26b4a10d0f0b04925c23bd4480ee147c916e5e87a7d68206a533dad160ac81e2548491116109d05760405162461bcd60e51b815260040161064490612298565b600d60008360038111156109e6576109e6612282565b60038111156109f7576109f7612282565b815260200190815260200160002060020154816103e8610a1791906122de565b1015610a355760405162461bcd60e51b8152600401610644906122f5565b6000610a40600c5490565b9050610a50600c80546001019055565b60036000908152600d6020527f26b4a10d0f0b04925c23bd4480ee147c916e5e87a7d68206a533dad160ac81e2805491610a898361231e565b9190505550610a988682611321565b610aa2818561133b565b6000805160206125a58339815191528682600361090e565b6000610ac560095490565b8210610b285760405162461bcd60e51b815260206004820152602c60248201527f455243373231456e756d657261626c653a20676c6f62616c20696e646578206f60448201526b7574206f6620626f756e647360a01b6064820152608401610644565b60098281548110610b3b57610b3b612337565b90600052602060002001549050919050565b6000818152600260205260408120546001600160a01b0316806105115760405162461bcd60e51b8152602060048201526018602482015277115490cdcc8c4e881a5b9d985b1a59081d1bdad95b88125160421b6044820152606401610644565b60006001600160a01b038216610c175760405162461bcd60e51b815260206004820152602960248201527f4552433732313a2061646472657373207a65726f206973206e6f7420612076616044820152683634b21037bbb732b960b91b6064820152608401610644565b506001600160a01b031660009081526003602052604090205490565b610c3b6112c1565b610c456000611406565b565b606060018054610526906121fb565b610c61338383611460565b5050565b610c6d6112c1565b60026000819052600d6020527f10a81eed9d63d16face5e76357905348e6253d3394086026bb2bf2145d7cc24a547f10a81eed9d63d16face5e76357905348e6253d3394086026bb2bf2145d7cc24954849111610cdc5760405162461bcd60e51b815260040161064490612298565b600d6000836003811115610cf257610cf2612282565b6003811115610d0357610d03612282565b815260200190815260200160002060020154816103e8610d2391906122de565b1015610d415760405162461bcd60e51b8152600401610644906122f5565b6000610d4c600c5490565b9050610d5c600c80546001019055565b60026000908152600d6020527f10a81eed9d63d16face5e76357905348e6253d3394086026bb2bf2145d7cc249805491610d958361231e565b9190505550610da48682611321565b610dae818561133b565b6000805160206125a58339815191528682600261090e565b610dd033836110d1565b610dec5760405162461bcd60e51b815260040161064490612235565b610df88484848461152e565b50505050565b606061051182611561565b610e116112c1565b6000808052600d6020527f81955a0a11e65eac625c29e8882660bae4e165a75d72780094acae8ece9a29ef547f81955a0a11e65eac625c29e8882660bae4e165a75d72780094acae8ece9a29ee54849111610e7e5760405162461bcd60e51b815260040161064490612298565b600d6000836003811115610e9457610e94612282565b6003811115610ea557610ea5612282565b815260200190815260200160002060020154816103e8610ec591906122de565b1015610ee35760405162461bcd60e51b8152600401610644906122f5565b6000610eee600c5490565b9050610efe600c80546001019055565b6000808052600d6020527f81955a0a11e65eac625c29e8882660bae4e165a75d72780094acae8ece9a29ee805491610f358361231e565b9190505550610f448682611321565b610f4e818561133b565b6000805160206125a58339815191528682600061090e565b610f6e6112c1565b6001600160a01b038116610fd35760405162461bcd60e51b815260206004820152602660248201527f4f776e61626c653a206e6577206f776e657220697320746865207a65726f206160448201526564647265737360d01b6064820152608401610644565b610fdc81611406565b50565b60006001600160e01b0319821663780e9d6360e01b1480610511575061051182611669565b6000818152600260205260409020546001600160a01b0316610fdc5760405162461bcd60e51b8152602060048201526018602482015277115490cdcc8c4e881a5b9d985b1a59081d1bdad95b88125160421b6044820152606401610644565b600081815260046020526040902080546001600160a01b0319166001600160a01b038416908117909155819061109882610b4d565b6001600160a01b03167f8c5be1e5ebec7d5bd14f71427d1e84f3dd0314c0f7b2291e5b200ac8c7c3b92560405160405180910390a45050565b6000806110dd83610b4d565b9050806001600160a01b0316846001600160a01b0316148061112457506001600160a01b0380821660009081526005602090815260408083209388168352929052205460ff165b806111485750836001600160a01b031661113d846105a9565b6001600160a01b0316145b949350505050565b826001600160a01b031661116382610b4d565b6001600160a01b0316146111895760405162461bcd60e51b81526004016106449061234d565b6001600160a01b0382166111eb5760405162461bcd60e51b8152602060048201526024808201527f4552433732313a207472616e7366657220746f20746865207a65726f206164646044820152637265737360e01b6064820152608401610644565b6111f8838383600161168e565b826001600160a01b031661120b82610b4d565b6001600160a01b0316146112315760405162461bcd60e51b81526004016106449061234d565b600081815260046020908152604080832080546001600160a01b03199081169091556001600160a01b0387811680865260038552838620805460001901905590871680865283862080546001019055868652600290945282852080549092168417909155905184937fddf252ad1be2c89b69c2b068fc378daa952ba7f163c4a11628f55a4df523b3ef91a4505050565b600b546001600160a01b03610100909104163314610c455760405162461bcd60e51b815260206004820181905260248201527f4f776e61626c653a2063616c6c6572206973206e6f7420746865206f776e65726044820152606401610644565b610c6182826040518060200160405280600081525061169a565b6000828152600260205260409020546001600160a01b03166113b65760405162461bcd60e51b815260206004820152602e60248201527f45524337323155524953746f726167653a2055524920736574206f66206e6f6e60448201526d32bc34b9ba32b73a103a37b5b2b760911b6064820152608401610644565b60008281526006602052604090206113ce82826123e0565b506040518281527ff8e1a15aba9398e019f0b49df1a4fde98ee17ae345cb5f6b5e2c27f5033e8ce79060200160405180910390a15050565b600b80546001600160a01b03838116610100818102610100600160a81b031985161790945560405193909204169182907f8be0079c531659141344cd1fd0a4f28419497f9722a3daafe3b4186f6b6457e090600090a35050565b816001600160a01b0316836001600160a01b0316036114c15760405162461bcd60e51b815260206004820152601960248201527f4552433732313a20617070726f766520746f2063616c6c6572000000000000006044820152606401610644565b6001600160a01b03838116600081815260056020908152604080832094871680845294825291829020805460ff191686151590811790915591519182527f17307eab39ab6107e8899845ad3d59bd9653f200f220920489ca2b5937696c31910160405180910390a3505050565b611539848484611150565b611545848484846116cd565b610df85760405162461bcd60e51b8152600401610644906124a0565b606061156c82611004565b60008281526006602052604081208054611585906121fb565b80601f01602080910402602001604051908101604052809291908181526020018280546115b1906121fb565b80156115fe5780601f106115d3576101008083540402835291602001916115fe565b820191906000526020600020905b8154815290600101906020018083116115e157829003601f168201915b50505050509050600061161c60408051602081019091526000815290565b9050805160000361162e575092915050565b8151156116605780826040516020016116489291906124f2565b60405160208183030381529060405292505050919050565b611148846117ce565b60006001600160e01b03198216632483248360e11b1480610511575061051182611842565b610df884848484611892565b6116a48383611905565b6116b160008484846116cd565b6106e55760405162461bcd60e51b8152600401610644906124a0565b60006001600160a01b0384163b156117c357604051630a85bd0160e11b81526001600160a01b0385169063150b7a0290611711903390899088908890600401612521565b6020604051808303816000875af192505050801561174c575060408051601f3d908101601f191682019092526117499181019061255e565b60015b6117a9573d80801561177a576040519150601f19603f3d011682016040523d82523d6000602084013e61177f565b606091505b5080516000036117a15760405162461bcd60e51b8152600401610644906124a0565b805181602001fd5b6001600160e01b031916630a85bd0160e11b149050611148565b506001949350505050565b60606117d982611004565b60006117f060408051602081019091526000815290565b90506000815111611810576040518060200160405280600081525061183b565b8061181a84611a9e565b60405160200161182b9291906124f2565b6040516020818303038152906040525b9392505050565b60006001600160e01b031982166380ac58cd60e01b148061187357506001600160e01b03198216635b5e139f60e01b145b8061051157506301ffc9a760e01b6001600160e01b0319831614610511565b61189e84848484611b31565b600b5460ff1615610df85760405162461bcd60e51b815260206004820152602b60248201527f4552433732315061757361626c653a20746f6b656e207472616e73666572207760448201526a1a1a5b19481c185d5cd95960aa1b6064820152608401610644565b6001600160a01b03821661195b5760405162461bcd60e51b815260206004820181905260248201527f4552433732313a206d696e7420746f20746865207a65726f20616464726573736044820152606401610644565b6000818152600260205260409020546001600160a01b0316156119c05760405162461bcd60e51b815260206004820152601c60248201527f4552433732313a20746f6b656e20616c7265616479206d696e746564000000006044820152606401610644565b6119ce60008383600161168e565b6000818152600260205260409020546001600160a01b031615611a335760405162461bcd60e51b815260206004820152601c60248201527f4552433732313a20746f6b656e20616c7265616479206d696e746564000000006044820152606401610644565b6001600160a01b038216600081815260036020908152604080832080546001019055848352600290915280822080546001600160a01b0319168417905551839291907fddf252ad1be2c89b69c2b068fc378daa952ba7f163c4a11628f55a4df523b3ef908290a45050565b60606000611aab83611c65565b600101905060008167ffffffffffffffff811115611acb57611acb611ffe565b6040519080825280601f01601f191660200182016040528015611af5576020820181803683370190505b5090508181016020015b600019016f181899199a1a9b1b9c1cb0b131b232b360811b600a86061a8153600a8504945084611aff57509392505050565b6001811115611ba05760405162461bcd60e51b815260206004820152603560248201527f455243373231456e756d657261626c653a20636f6e7365637574697665207472604482015274185b9cd9995c9cc81b9bdd081cdd5c1c1bdc9d1959605a1b6064820152608401610644565b816001600160a01b038516611bfc57611bf781600980546000838152600a60205260408120829055600182018355919091527f6e1540171b6c0c960b71a7020d9f60077f6af931a8bbf590da0223dacf75c7af0155565b611c1f565b836001600160a01b0316856001600160a01b031614611c1f57611c1f8582611d3d565b6001600160a01b038416611c3b57611c3681611dda565b611c5e565b846001600160a01b0316846001600160a01b031614611c5e57611c5e8482611e89565b5050505050565b60008072184f03e93ff9f4daa797ed6e38ed64bf6a1f0160401b8310611ca45772184f03e93ff9f4daa797ed6e38ed64bf6a1f0160401b830492506040015b6d04ee2d6d415b85acef81000000008310611cd0576d04ee2d6d415b85acef8100000000830492506020015b662386f26fc100008310611cee57662386f26fc10000830492506010015b6305f5e1008310611d06576305f5e100830492506008015b6127108310611d1a57612710830492506004015b60648310611d2c576064830492506002015b600a83106105115760010192915050565b60006001611d4a84610bad565b611d54919061257b565b600083815260086020526040902054909150808214611da7576001600160a01b03841660009081526007602090815260408083208584528252808320548484528184208190558352600890915290208190555b5060009182526008602090815260408084208490556001600160a01b039094168352600781528383209183525290812055565b600954600090611dec9060019061257b565b6000838152600a602052604081205460098054939450909284908110611e1457611e14612337565b906000526020600020015490508060098381548110611e3557611e35612337565b6000918252602080832090910192909255828152600a90915260408082208490558582528120556009805480611e6d57611e6d61258e565b6001900381819060005260206000200160009055905550505050565b6000611e9483610bad565b6001600160a01b039093166000908152600760209081526040808320868452825280832085905593825260089052919091209190915550565b6001600160e01b031981168114610fdc57600080fd5b600060208284031215611ef557600080fd5b813561183b81611ecd565b60005b83811015611f1b578181015183820152602001611f03565b50506000910152565b60008151808452611f3c816020860160208601611f00565b601f01601f19169290920160200192915050565b60208152600061183b6020830184611f24565b600060208284031215611f7557600080fd5b5035919050565b80356001600160a01b0381168114611f9357600080fd5b919050565b60008060408385031215611fab57600080fd5b611fb483611f7c565b946020939093013593505050565b600080600060608486031215611fd757600080fd5b611fe084611f7c565b9250611fee60208501611f7c565b9150604084013590509250925092565b634e487b7160e01b600052604160045260246000fd5b600067ffffffffffffffff8084111561202f5761202f611ffe565b604051601f8501601f19908116603f0116810190828211818310171561205757612057611ffe565b8160405280935085815286868601111561207057600080fd5b858560208301376000602087830101525050509392505050565b60008060006060848603121561209f57600080fd5b6120a884611f7c565b925060208401359150604084013567ffffffffffffffff8111156120cb57600080fd5b8401601f810186136120dc57600080fd5b6120eb86823560208401612014565b9150509250925092565b60006020828403121561210757600080fd5b61183b82611f7c565b6000806040838503121561212357600080fd5b61212c83611f7c565b91506020830135801515811461214157600080fd5b809150509250929050565b6000806000806080858703121561216257600080fd5b61216b85611f7c565b935061217960208601611f7c565b925060408501359150606085013567ffffffffffffffff81111561219c57600080fd5b8501601f810187136121ad57600080fd5b6121bc87823560208401612014565b91505092959194509250565b600080604083850312156121db57600080fd5b6121e483611f7c565b91506121f260208401611f7c565b90509250929050565b600181811c9082168061220f57607f821691505b60208210810361222f57634e487b7160e01b600052602260045260246000fd5b50919050565b6020808252602d908201527f4552433732313a2063616c6c6572206973206e6f7420746f6b656e206f776e6560408201526c1c881bdc88185c1c1c9bdd9959609a1b606082015260800190565b634e487b7160e01b600052602160045260246000fd5b60208082526016908201527513585e1a5b5d5b481cdd5c1c1b1e481c995858da195960521b604082015260600190565b634e487b7160e01b600052601160045260246000fd5b8082028115828204841417610511576105116122c8565b6020808252600f908201526e139bdd08195b985d59da081c185a59608a1b604082015260600190565b600060018201612330576123306122c8565b5060010190565b634e487b7160e01b600052603260045260246000fd5b60208082526025908201527f4552433732313a207472616e736665722066726f6d20696e636f72726563742060408201526437bbb732b960d91b606082015260800190565b601f8211156106e557600081815260208120601f850160051c810160208610156123b95750805b601f850160051c820191505b818110156123d8578281556001016123c5565b505050505050565b815167ffffffffffffffff8111156123fa576123fa611ffe565b61240e8161240884546121fb565b84612392565b602080601f831160018114612443576000841561242b5750858301515b600019600386901b1c1916600185901b1785556123d8565b600085815260208120601f198616915b8281101561247257888601518255948401946001909101908401612453565b50858210156124905787850151600019600388901b60f8161c191681555b5050505050600190811b01905550565b60208082526032908201527f4552433732313a207472616e7366657220746f206e6f6e20455243373231526560408201527131b2b4bb32b91034b6b83632b6b2b73a32b960711b606082015260800190565b60008351612504818460208801611f00565b835190830190612518818360208801611f00565b01949350505050565b6001600160a01b038581168252841660208201526040810183905260806060820181905260009061255490830184611f24565b9695505050505050565b60006020828403121561257057600080fd5b815161183b81611ecd565b81810381811115610511576105116122c8565b634e487b7160e01b600052603160045260246000fdfec410f6ec4eba9d4398c3a8e2a8b796ffce6ad710adc2748f752eeefd45fa8022a26469706673582212208f764ae4f988d09421a24509ef7ceca13fd01f960d7e58976f8a507a8e099ad964736f6c634300081100334142434445464748494a4b4c4d4e4f505152535455565758595a6162636465666768696a6b6c6d6e6f707172737475767778797a303132333435363738392b2fa2646970667358221220e4503f165f338027251166d63c5cc609ce5bdfb423135c421ea39ab923437b2e64736f6c63430008110033",
  "linkReferences": {},
  "deployedLinkReferences": {}
}