{
  "_format": "hh-sol-artifact-1",
  "contractName": "FundsFactory",
  "sourceName": "contracts/FundsFactory.sol",
  "abi": [
    {
      "inputs": [
        {
          "internalType": "address",
          "name": "_dao",
          "type": "address"
        },
        {
          "internalType": "address",
          "name": "_researcherRegistry",
          "type": "address"
        }
      ],
      "stateMutability": "nonpayable",
      "type": "constructor"
    },
    {
      "anonymous": false,
      "inputs": [
        {
          "indexed": false,
          "internalType": "uint256",
          "name": "requestId",
          "type": "uint256"
        },
        {
          "indexed": false,
          "internalType": "address",
          "name": "reasearcher",
          "type": "address"
        }
      ],
      "name": "FundsRequestClosed",
      "type": "event"
    },
    {
      "anonymous": false,
      "inputs": [
        {
          "indexed": false,
          "internalType": "uint256",
          "name": "projectId",
          "type": "uint256"
        },
        {
          "indexed": false,
          "internalType": "uint256",
          "name": "requestId",
          "type": "uint256"
        },
        {
          "indexed": false,
          "internalType": "address",
          "name": "researcher",
          "type": "address"
        }
      ],
      "name": "FundsRequestCreated",
      "type": "event"
    },
    {
      "anonymous": false,
      "inputs": [
        {
          "indexed": false,
          "internalType": "address",
          "name": "investor",
          "type": "address"
        },
        {
          "indexed": false,
          "internalType": "uint256",
          "name": "projectId",
          "type": "uint256"
        },
        {
          "indexed": false,
          "internalType": "uint256",
          "name": "typeNFT",
          "type": "uint256"
        },
        {
          "indexed": false,
          "internalType": "uint256",
          "name": "timestamp",
          "type": "uint256"
        }
      ],
      "name": "NFTbought",
      "type": "event"
    },
    {
      "anonymous": false,
      "inputs": [
        {
          "indexed": true,
          "internalType": "address",
          "name": "previousOwner",
          "type": "address"
        },
        {
          "indexed": true,
          "internalType": "address",
          "name": "newOwner",
          "type": "address"
        }
      ],
      "name": "OwnershipTransferred",
      "type": "event"
    },
    {
      "anonymous": false,
      "inputs": [
        {
          "indexed": false,
          "internalType": "uint256",
          "name": "projectId",
          "type": "uint256"
        },
        {
          "indexed": false,
          "internalType": "address",
          "name": "reasearcher",
          "type": "address"
        }
      ],
      "name": "ResearchProjectCreated",
      "type": "event"
    },
    {
      "anonymous": false,
      "inputs": [
        {
          "indexed": false,
          "internalType": "uint256",
          "name": "projectId",
          "type": "uint256"
        }
      ],
      "name": "ResearchProjectValidated",
      "type": "event"
    },
    {
      "anonymous": false,
      "inputs": [
        {
          "indexed": false,
          "internalType": "address",
          "name": "addr",
          "type": "address"
        },
        {
          "indexed": false,
          "internalType": "string",
          "name": "lastname",
          "type": "string"
        },
        {
          "indexed": false,
          "internalType": "string",
          "name": "forname",
          "type": "string"
        },
        {
          "indexed": false,
          "internalType": "string",
          "name": "company",
          "type": "string"
        }
      ],
      "name": "ResearcherAdded",
      "type": "event"
    },
    {
      "anonymous": false,
      "inputs": [
        {
          "indexed": false,
          "internalType": "address",
          "name": "investor",
          "type": "address"
        },
        {
          "indexed": false,
          "internalType": "uint256",
          "name": "projectId",
          "type": "uint256"
        },
        {
          "indexed": false,
          "internalType": "uint256",
          "name": "requestId",
          "type": "uint256"
        },
        {
          "indexed": false,
          "internalType": "bool",
          "name": "vote",
          "type": "bool"
        }
      ],
      "name": "VoteAdded",
      "type": "event"
    },
    {
      "stateMutability": "payable",
      "type": "fallback"
    },
    {
      "inputs": [
        {
          "internalType": "string",
          "name": "title",
          "type": "string"
        },
        {
          "internalType": "string",
          "name": "description",
          "type": "string"
        },
        {
          "internalType": "string",
          "name": "imageUrl",
          "type": "string"
        },
        {
          "internalType": "uint256",
          "name": "amountAsked",
          "type": "uint256"
        },
        {
          "internalType": "string",
          "name": "projectDetailsUri",
          "type": "string"
        }
      ],
      "name": "addResearchProject",
      "outputs": [],
      "stateMutability": "nonpayable",
      "type": "function"
    },
    {
      "inputs": [
        {
          "internalType": "uint256",
          "name": "requestId",
          "type": "uint256"
        },
        {
          "internalType": "bool",
          "name": "vote",
          "type": "bool"
        }
      ],
      "name": "addVote",
      "outputs": [],
      "stateMutability": "nonpayable",
      "type": "function"
    },
    {
      "inputs": [
        {
          "internalType": "uint256",
          "name": "projectId",
          "type": "uint256"
        },
        {
          "internalType": "uint256",
          "name": "typeNFT",
          "type": "uint256"
        }
      ],
      "name": "buyNFT",
      "outputs": [],
      "stateMutability": "payable",
      "type": "function"
    },
    {
      "inputs": [
        {
          "internalType": "uint256",
          "name": "requestId",
          "type": "uint256"
        }
      ],
      "name": "claimFunds",
      "outputs": [],
      "stateMutability": "nonpayable",
      "type": "function"
    },
    {
      "inputs": [
        {
          "internalType": "uint256",
          "name": "requestId",
          "type": "uint256"
        }
      ],
      "name": "closeFundRequest",
      "outputs": [],
      "stateMutability": "nonpayable",
      "type": "function"
    },
    {
      "inputs": [
        {
          "internalType": "uint256",
          "name": "id",
          "type": "uint256"
        },
        {
          "internalType": "uint256",
          "name": "amount",
          "type": "uint256"
        },
        {
          "internalType": "string",
          "name": "description",
          "type": "string"
        }
      ],
      "name": "createFundsRequest",
      "outputs": [],
      "stateMutability": "nonpayable",
      "type": "function"
    },
    {
      "inputs": [
        {
          "internalType": "uint256",
          "name": "fundRequestId",
          "type": "uint256"
        }
      ],
      "name": "getFundsRequestDetails",
      "outputs": [
        {
          "internalType": "uint256",
          "name": "",
          "type": "uint256"
        },
        {
          "internalType": "uint256",
          "name": "",
          "type": "uint256"
        },
        {
          "internalType": "string",
          "name": "",
          "type": "string"
        },
        {
          "internalType": "uint256",
          "name": "",
          "type": "uint256"
        },
        {
          "internalType": "bool",
          "name": "",
          "type": "bool"
        },
        {
          "internalType": "uint256",
          "name": "",
          "type": "uint256"
        }
      ],
      "stateMutability": "view",
      "type": "function"
    },
    {
      "inputs": [
        {
          "internalType": "uint256",
          "name": "id",
          "type": "uint256"
        }
      ],
      "name": "getNFT_Prices",
      "outputs": [
        {
          "internalType": "uint256",
          "name": "",
          "type": "uint256"
        },
        {
          "internalType": "uint256",
          "name": "",
          "type": "uint256"
        },
        {
          "internalType": "uint256",
          "name": "",
          "type": "uint256"
        },
        {
          "internalType": "uint256",
          "name": "",
          "type": "uint256"
        }
      ],
      "stateMutability": "view",
      "type": "function"
    },
    {
      "inputs": [
        {
          "internalType": "uint256",
          "name": "id",
          "type": "uint256"
        }
      ],
      "name": "getNumberNFTMinted",
      "outputs": [
        {
          "internalType": "uint256",
          "name": "",
          "type": "uint256"
        },
        {
          "internalType": "uint256",
          "name": "",
          "type": "uint256"
        },
        {
          "internalType": "uint256",
          "name": "",
          "type": "uint256"
        },
        {
          "internalType": "uint256",
          "name": "",
          "type": "uint256"
        }
      ],
      "stateMutability": "view",
      "type": "function"
    },
    {
      "inputs": [
        {
          "internalType": "uint256",
          "name": "id",
          "type": "uint256"
        }
      ],
      "name": "getResearchProject",
      "outputs": [
        {
          "components": [
            {
              "internalType": "uint256",
              "name": "id",
              "type": "uint256"
            },
            {
              "internalType": "uint256",
              "name": "creationTime",
              "type": "uint256"
            },
            {
              "internalType": "uint256",
              "name": "amountAsked",
              "type": "uint256"
            },
            {
              "internalType": "uint256",
              "name": "amountReceived",
              "type": "uint256"
            },
            {
              "internalType": "uint256",
              "name": "amountAlreayRaised",
              "type": "uint256"
            },
            {
              "internalType": "string",
              "name": "title",
              "type": "string"
            },
            {
              "internalType": "string",
              "name": "description",
              "type": "string"
            },
            {
              "internalType": "string",
              "name": "imageUrl",
              "type": "string"
            },
            {
              "internalType": "string",
              "name": "projectDetailsUri",
              "type": "string"
            },
            {
              "internalType": "address",
              "name": "researcher",
              "type": "address"
            },
            {
              "internalType": "contract FundNFT",
              "name": "fundNFT",
              "type": "address"
            },
            {
              "internalType": "enum FundsFactory.ResearchProjectStatus",
              "name": "status",
              "type": "uint8"
            },
            {
              "internalType": "uint256[]",
              "name": "fundRequestListsIds",
              "type": "uint256[]"
            },
            {
              "internalType": "bool",
              "name": "isAccepted",
              "type": "bool"
            }
          ],
          "internalType": "struct FundsFactory.ResearchProject",
          "name": "",
          "type": "tuple"
        }
      ],
      "stateMutability": "view",
      "type": "function"
    },
    {
      "inputs": [
        {
          "internalType": "uint256",
          "name": "requestId",
          "type": "uint256"
        }
      ],
      "name": "getVoteResult",
      "outputs": [
        {
          "components": [
            {
              "internalType": "uint256",
              "name": "yes",
              "type": "uint256"
            },
            {
              "internalType": "uint256",
              "name": "no",
              "type": "uint256"
            },
            {
              "internalType": "uint256",
              "name": "yesWeight",
              "type": "uint256"
            },
            {
              "internalType": "uint256",
              "name": "noWeight",
              "type": "uint256"
            },
            {
              "internalType": "uint256",
              "name": "totalVoters",
              "type": "uint256"
            },
            {
              "internalType": "uint256",
              "name": "voted",
              "type": "uint256"
            },
            {
              "internalType": "bool",
              "name": "isAccepted",
              "type": "bool"
            }
          ],
          "internalType": "struct DAO.Vote",
          "name": "",
          "type": "tuple"
        }
      ],
      "stateMutability": "view",
      "type": "function"
    },
    {
      "inputs": [
        {
          "internalType": "uint256",
          "name": "projectId",
          "type": "uint256"
        }
      ],
      "name": "openFundsRequest",
      "outputs": [],
      "stateMutability": "nonpayable",
      "type": "function"
    },
    {
      "inputs": [],
      "name": "owner",
      "outputs": [
        {
          "internalType": "address",
          "name": "",
          "type": "address"
        }
      ],
      "stateMutability": "view",
      "type": "function"
    },
    {
      "inputs": [],
      "name": "renounceOwnership",
      "outputs": [],
      "stateMutability": "nonpayable",
      "type": "function"
    },
    {
      "inputs": [
        {
          "internalType": "address",
          "name": "newOwner",
          "type": "address"
        }
      ],
      "name": "transferOwnership",
      "outputs": [],
      "stateMutability": "nonpayable",
      "type": "function"
    },
    {
      "inputs": [
        {
          "internalType": "uint256",
          "name": "id",
          "type": "uint256"
        }
      ],
      "name": "validResearchProject",
      "outputs": [],
      "stateMutability": "nonpayable",
      "type": "function"
    },
    {
      "stateMutability": "payable",
      "type": "receive"
    }
  ],
  "bytecode": "0x60806040523480156200001157600080fd5b5060405162005e6938038062005e698339810160408190526200003491620000de565b6200003f3362000071565b600280546001600160a01b039384166001600160a01b0319918216179091556003805492909316911617905562000116565b600080546001600160a01b038381166001600160a01b0319831681178455604051919092169283917f8be0079c531659141344cd1fd0a4f28419497f9722a3daafe3b4186f6b6457e09190a35050565b80516001600160a01b0381168114620000d957600080fd5b919050565b60008060408385031215620000f257600080fd5b620000fd83620000c1565b91506200010d60208401620000c1565b90509250929050565b615d4380620001266000396000f3fe608060405260043610620000ff5760003560e01c80638da5cb5b116200008f578063de946f0a116200005d578063de946f0a1462000334578063f2fde38b146200037a578063f8cd0cd8146200039f578063ff417db914620003c457005b80638da5cb5b1462000242578063aaccd726146200026c578063bfa0fc931462000291578063c089cd79146200030f57005b8063439e8a2311620000cd578063439e8a2314620001bb578063715018a614620001e05780637ac14a7014620001f857806381f2e8d5146200021d57005b80631b55e33814620001095780631d85bf03146200012e57806325e20479146200014557806335aaf9f5146200018757005b366200010757005b005b3480156200011657600080fd5b50620001076200012836600462002403565b620003e9565b620001076200013f3660046200241d565b6200067c565b3480156200015257600080fd5b506200016a6200016436600462002403565b620009a9565b6040516200017e9695949392919062002494565b60405180910390f35b3480156200019457600080fd5b50620001ac620001a636600462002403565b62000a5f565b6040516200017e919062002549565b348015620001c857600080fd5b5062000107620001da36600462002764565b62000e25565b348015620001ed57600080fd5b506200010762001351565b3480156200020557600080fd5b50620001076200021736600462002403565b62001369565b3480156200022a57600080fd5b50620001076200023c36600462002403565b620013fb565b3480156200024f57600080fd5b506000546040516001600160a01b0390911681526020016200017e565b3480156200027957600080fd5b50620001076200028b36600462002403565b6200158a565b3480156200029e57600080fd5b50620002b6620002b036600462002403565b6200175e565b6040516200017e9190600060e082019050825182526020830151602083015260408301516040830152606083015160608301526080830151608083015260a083015160a083015260c0830151151560c083015292915050565b3480156200031c57600080fd5b50620001076200032e36600462002837565b62001817565b3480156200034157600080fd5b50620003596200035336600462002403565b62001a3e565b6040805194855260208501939093529183015260608201526080016200017e565b3480156200038757600080fd5b5062000107620003993660046200286a565b62001af8565b348015620003ac57600080fd5b5062000107620003be3660046200289c565b62001b77565b348015620003d157600080fd5b5062000359620003e336600462002403565b62001f96565b6002546040516388fcc75d60e01b8152600481018390526000916001600160a01b0316906388fcc75d90602401600060405180830381865afa15801562000434573d6000803e3d6000fd5b505050506040513d6000823e601f3d908101601f191682016040526200045e919081019062002902565b50505050509050336001600160a01b031660018281548110620004855762000485620029bc565b600091825260209091206009600d9092020101546001600160a01b031614620004cb5760405162461bcd60e51b8152600401620004c290620029d2565b60405180910390fd5b60025460405163ccb75eb360e01b8152600481018490526000916001600160a01b03169063ccb75eb390602401602060405180830381865afa15801562000516573d6000803e3d6000fd5b505050506040513d601f19601f820116820180604052508101906200053c9190620029fd565b905047811115620005835760405162461bcd60e51b815260206004820152601060248201526f4e6f7420656e6f7567682066756e647360801b6044820152606401620004c2565b60025460405163036abc6760e31b8152600481018590526001600160a01b0390911690631b55e33890602401600060405180830381600087803b158015620005ca57600080fd5b505af1158015620005df573d6000803e3d6000fd5b50506040516000925033915083908381818185875af1925050503d806000811462000627576040519150601f19603f3d011682016040523d82523d6000602084013e6200062c565b606091505b5050905080620006765760405162461bcd60e51b81526020600482015260146024820152732330b4b632b2103a379039b2b7321022ba3432b960611b6044820152606401620004c2565b50505050565b6001808381548110620006935762000693620029bc565b90600052602060002090600d0201600a0160149054906101000a900460ff166003811115620006c657620006c6620024d3565b14620007065760405162461bcd60e51b815260206004820152600e60248201526d10d85b9b9bdd08189d5e4813919560921b6044820152606401620004c2565b600481106200074a5760405162461bcd60e51b815260206004820152600f60248201526e151e5c1948191bdb9d08195e1a5cdd608a1b6044820152606401620004c2565b600060018381548110620007625762000762620029bc565b90600052602060002090600d0201600a0160009054906101000a90046001600160a01b03169050806001600160a01b0316631507e96d333460018781548110620007b057620007b0620029bc565b90600052602060002090600d020160050160018881548110620007d757620007d7620029bc565b90600052602060002090600d0201600701876040518663ffffffff1660e01b81526004016200080b95949392919062002ad8565b600060405180830381600087803b1580156200082657600080fd5b505af11580156200083b573d6000803e3d6000fd5b505050503460018481548110620008565762000856620029bc565b90600052602060002090600d0201600301600082825462000878919062002b3e565b909155505060405163d851fdfd60e01b8152600481018390526000906001600160a01b0383169063d851fdfd90602401602060405180830381865afa158015620008c6573d6000803e3d6000fd5b505050506040513d601f19601f82011682018060405250810190620008ec9190620029fd565b600254604051637b64e88960e01b815260048101879052336024820152604481018390529192506001600160a01b031690637b64e88990606401600060405180830381600087803b1580156200094157600080fd5b505af115801562000956573d6000803e3d6000fd5b505060408051338152602081018890529081018690524260608201527f5dc9e4e5a225556378beaea10f4a799ccbda7ce4b3a1ec6b4251b3c8c2ceaea5925060800190505b60405180910390a150505050565b600080606060008060006004548710620009d75760405162461bcd60e51b8152600401620004c29062002b54565b6002546040516388fcc75d60e01b8152600481018990526001600160a01b03909116906388fcc75d90602401600060405180830381865afa15801562000a21573d6000803e3d6000fd5b505050506040513d6000823e601f3d908101601f1916820160405262000a4b919081019062002902565b949c939b5091995097509550909350915050565b62000a69620022f9565b600154821062000a8d5760405162461bcd60e51b8152600401620004c29062002b54565b6001828154811062000aa35762000aa3620029bc565b90600052602060002090600d0201604051806101c0016040529081600082015481526020016001820154815260200160028201548152602001600382015481526020016004820154815260200160058201805462000b019062002a17565b80601f016020809104026020016040519081016040528092919081815260200182805462000b2f9062002a17565b801562000b805780601f1062000b545761010080835404028352916020019162000b80565b820191906000526020600020905b81548152906001019060200180831162000b6257829003601f168201915b5050505050815260200160068201805462000b9b9062002a17565b80601f016020809104026020016040519081016040528092919081815260200182805462000bc99062002a17565b801562000c1a5780601f1062000bee5761010080835404028352916020019162000c1a565b820191906000526020600020905b81548152906001019060200180831162000bfc57829003601f168201915b5050505050815260200160078201805462000c359062002a17565b80601f016020809104026020016040519081016040528092919081815260200182805462000c639062002a17565b801562000cb45780601f1062000c885761010080835404028352916020019162000cb4565b820191906000526020600020905b81548152906001019060200180831162000c9657829003601f168201915b5050505050815260200160088201805462000ccf9062002a17565b80601f016020809104026020016040519081016040528092919081815260200182805462000cfd9062002a17565b801562000d4e5780601f1062000d225761010080835404028352916020019162000d4e565b820191906000526020600020905b81548152906001019060200180831162000d3057829003601f168201915b505050918352505060098201546001600160a01b039081166020830152600a8301549081166040830152606090910190600160a01b900460ff16600381111562000d9c5762000d9c620024d3565b600381111562000db05762000db0620024d3565b8152602001600b820180548060200260200160405190810160405280929190818152602001828054801562000e0557602002820191906000526020600020905b81548152602001906001019080831162000df0575b5050509183525050600c919091015460ff16151560209091015292915050565b600354604051638b1b925f60e01b81523360048201526001600160a01b0390911690638b1b925f90602401602060405180830381865afa15801562000e6e573d6000803e3d6000fd5b505050506040513d601f19601f8201168201806040525081019062000e94919062002b7b565b62000eda5760405162461bcd60e51b8152602060048201526015602482015274165bdd49dc99481b9bdd081c9959da5cdd195c9959605a1b6044820152606401620004c2565b8160000362000f1b5760405162461bcd60e51b815260206004820152600c60248201526b0416d6f756e74206e6f7420360a41b6044820152606401620004c2565b60405160200162000f3790602080825260009082015260400190565b604051602081830303815290604052805190602001208160405160200162000f60919062002b9b565b604051602081830303815290604052805190602001200362000fbb5760405162461bcd60e51b815260206004820152601360248201527244657461696c206973206d616e6461746f727960681b6044820152606401620004c2565b62000fc5620022f9565b6001805480835260a0830188815260c0840188905260e0840187905242602085019081523361012086015260408501878152610100860187905283850185556000949094528451600d9093027fb10e2d527612073b26eecdfd717e6a320cf44b4afac2b0732d9fcbe2b7fa0cf6810193845590517fb10e2d527612073b26eecdfd717e6a320cf44b4afac2b0732d9fcbe2b7fa0cf782015592517fb10e2d527612073b26eecdfd717e6a320cf44b4afac2b0732d9fcbe2b7fa0cf884015560608401517fb10e2d527612073b26eecdfd717e6a320cf44b4afac2b0732d9fcbe2b7fa0cf984015560808401517fb10e2d527612073b26eecdfd717e6a320cf44b4afac2b0732d9fcbe2b7fa0cfa8401555183927fb10e2d527612073b26eecdfd717e6a320cf44b4afac2b0732d9fcbe2b7fa0cfb019062001107908262002c03565b5060c082015160068201906200111e908262002c03565b5060e0820151600782019062001135908262002c03565b5061010082015160088201906200114d908262002c03565b506101208201516009820180546001600160a01b03199081166001600160a01b0393841617909155610140840151600a8401805492831691909316908117835561016085015192916001600160a81b03191617600160a01b836003811115620011ba57620011ba620024d3565b02179055506101808201518051620011dd91600b8401916020909101906200238e565b506101a09190910151600c909101805460ff1916911515919091179055600354600180546001600160a01b039092169163ed5a2d1d91339162001221919062002cd0565b6040516001600160e01b031960e085901b1681526001600160a01b0390921660048301526024820152604401600060405180830381600087803b1580156200126857600080fd5b505af11580156200127d573d6000803e3d6000fd5b505060018054600093506200129f925062001299919062002cd0565b6200201a565b600180549192506200130191620012b7919062002cd0565b82604051602001620012ca919062002ce6565b60405160208183030381529060405283604051602001620012ec919062002d17565b604051602081830303815290604052620020b4565b600180547f4c81382e52262a9cb7b48b06b6f04c7d902e3518fa3ddc8ccb8b0e8791a7e35891620013329162002cd0565b604080519182523360208301520160405180910390a150505050505050565b6200135b6200216e565b620013676000620021ca565b565b620013736200216e565b60018082815481106200138a576200138a620029bc565b60009182526020909120600a600d9092020101805460ff60a01b1916600160a01b836003811115620013c057620013c0620024d3565b02179055506040518181527f912883fd6daad43ad71699b8e13899bcdfdc8be63801d13a330404473865c0139060200160405180910390a150565b60015481908110620014215760405162461bcd60e51b8152600401620004c29062002b54565b336001600160a01b031660018281548110620014415762001441620029bc565b600091825260209091206009600d9092020101546001600160a01b0316146200147e5760405162461bcd60e51b8152600401620004c290620029d2565b6001548210620014a25760405162461bcd60e51b8152600401620004c29062002b54565b6001808381548110620014b957620014b9620029bc565b90600052602060002090600d0201600a0160149054906101000a900460ff166003811115620014ec57620014ec620024d3565b14620015335760405162461bcd60e51b81526020600482015260156024820152744e6f7420726561647920666f722066756e64696e6760581b6044820152606401620004c2565b6002600183815481106200154b576200154b620029bc565b60009182526020909120600a600d9092020101805460ff60a01b1916600160a01b836003811115620015815762001581620024d3565b02179055505050565b6002546040516388fcc75d60e01b8152600481018390526000916001600160a01b0316906388fcc75d90602401600060405180830381865afa158015620015d5573d6000803e3d6000fd5b505050506040513d6000823e601f3d908101601f19168201604052620015ff919081019062002902565b50505050509050336001600160a01b031660018281548110620016265762001626620029bc565b600091825260209091206009600d9092020101546001600160a01b031614620016635760405162461bcd60e51b8152600401620004c290620029d2565b6002546040516355666b9360e11b81526004810184905260009182916001600160a01b039091169063aaccd7269060240160408051808303816000875af1158015620016b3573d6000803e3d6000fd5b505050506040513d601f19601f82011682018060405250810190620016d9919062002d44565b909250905080151560000362001728578160018481548110620017005762001700620029bc565b90600052602060002090600d0201600401600082825462001722919062002cd0565b90915550505b604080518581523360208201527ff760a1a147b8802f4e55b5e17a77439f740498ecf53dabe0078b74c0767f9ebe91016200099b565b620017a16040518060e001604052806000815260200160008152602001600081526020016000815260200160008152602001600081526020016000151581525090565b60025460405163bfa0fc9360e01b8152600481018490526001600160a01b039091169063bfa0fc939060240160e060405180830381865afa158015620017eb573d6000803e3d6000fd5b505050506040513d601f19601f8201168201806040525081019062001811919062002d6c565b92915050565b6002546040516388fcc75d60e01b8152600481018490526000916001600160a01b0316906388fcc75d90602401600060405180830381865afa15801562001862573d6000803e3d6000fd5b505050506040513d6000823e601f3d908101601f191682016040526200188c919081019062002902565b50505050509050600060018281548110620018ab57620018ab620029bc565b60009182526020909120600d90910201600a01546040516370a0823160e01b81523360048201526001600160a01b03909116906370a0823190602401602060405180830381865afa15801562001905573d6000803e3d6000fd5b505050506040513d601f19601f820116820180604052508101906200192b9190620029fd565b116200197a5760405162461bcd60e51b815260206004820152601d60248201527f596f75206e65656420746f206f776e2061204e465420746f20766f74650000006044820152606401620004c2565b600254604051630f909fd760e41b8152600481018590526024810183905283151560448201523360648201526001600160a01b039091169063f909fd7090608401600060405180830381600087803b158015620019d657600080fd5b505af1158015620019eb573d6000803e3d6000fd5b5050604080513381526020810185905290810186905284151560608201527f2991ce8dbfcf228e1b5d37c4fa6aba08135469f3b6abec2273148158ef65a3009250608001905060405180910390a1505050565b60008060008060006001868154811062001a5c5762001a5c620029bc565b90600052602060002090600d0201600a0160009054906101000a90046001600160a01b03169050806001600160a01b03166334757b346040518163ffffffff1660e01b8152600401608060405180830381865afa15801562001ac2573d6000803e3d6000fd5b505050506040513d601f19601f8201168201806040525081019062001ae8919062002dfc565b9450945094509450509193509193565b62001b026200216e565b6001600160a01b03811662001b695760405162461bcd60e51b815260206004820152602660248201527f4f776e61626c653a206e6577206f776e657220697320746865207a65726f206160448201526564647265737360d01b6064820152608401620004c2565b62001b7481620021ca565b50565b6001548390811062001b9d5760405162461bcd60e51b8152600401620004c29062002b54565b336001600160a01b03166001828154811062001bbd5762001bbd620029bc565b600091825260209091206009600d9092020101546001600160a01b03161462001bfa5760405162461bcd60e51b8152600401620004c290620029d2565b600154841062001c1e5760405162461bcd60e51b8152600401620004c29062002b54565b60026001858154811062001c365762001c36620029bc565b90600052602060002090600d0201600a0160149054906101000a900460ff16600381111562001c695762001c69620024d3565b1462001cb05760405162461bcd60e51b81526020600482015260156024820152744e6f7420726561647920666f722066756e64696e6760581b6044820152606401620004c2565b60405160200162001ccc90602080825260009082015260400190565b604051602081830303815290604052805190602001208260405160200162001cf5919062002b9b565b604051602081830303815290604052805190602001200362001d505760405162461bcd60e51b815260206004820152601360248201527244657461696c206973206d616e6461746f727960681b6044820152606401620004c2565b8260000362001d915760405162461bcd60e51b815260206004820152600c60248201526b0416d6f756e74206e6f7420360a41b6044820152606401620004c2565b6001848154811062001da75762001da7620029bc565b90600052602060002090600d0201600301546001858154811062001dcf5762001dcf620029bc565b90600052602060002090600d0201600401548462001dee919062002b3e565b111562001e4e5760405162461bcd60e51b815260206004820152602760248201527f416d6f756e742073686f756c64206265206c657373207468616e20616d6f756e6044820152661d08185cdad95960ca1b6064820152608401620004c2565b600454600180548690811062001e685762001e68620029bc565b60009182526020808320600b600d9093020191909101805460018101825590835291200181905560025460405163b830b96560e01b81526001600160a01b039091169063b830b9659062001ec790889085908990899060040162002e33565b600060405180830381600087803b15801562001ee257600080fd5b505af115801562001ef7573d6000803e3d6000fd5b50505050836001868154811062001f125762001f12620029bc565b90600052602060002090600d0201600401600082825462001f34919062002b3e565b90915550506004805490600062001f4b8362002e64565b90915550506040805186815260208101839052338183015290517f4d2ab49956c265e50f09c61fe27e3ee5b867771337277216f7ab900808e50dea9181900360600190a15050505050565b60008060008060006001868154811062001fb45762001fb4620029bc565b90600052602060002090600d0201600a0160009054906101000a90046001600160a01b03169050806001600160a01b031663bd9a548b6040518163ffffffff1660e01b8152600401608060405180830381865afa15801562001ac2573d6000803e3d6000fd5b6060600062002029836200221a565b600101905060008167ffffffffffffffff8111156200204c576200204c62002693565b6040519080825280601f01601f19166020018201604052801562002077576020820181803683370190505b5090508181016020015b600019016f181899199a1a9b1b9c1cb0b131b232b360811b600a86061a8153600a85049450846200208157509392505050565b6000828260018681548110620020ce57620020ce620029bc565b90600052602060002090600d020160020154604051620020ee90620023de565b620020fc9392919062002e80565b604051809103906000f08015801562002119573d6000803e3d6000fd5b5090508060018581548110620021335762002133620029bc565b90600052602060002090600d0201600a0160006101000a8154816001600160a01b0302191690836001600160a01b0316021790555050505050565b6000546001600160a01b03163314620013675760405162461bcd60e51b815260206004820181905260248201527f4f776e61626c653a2063616c6c6572206973206e6f7420746865206f776e65726044820152606401620004c2565b600080546001600160a01b038381166001600160a01b0319831681178455604051919092169283917f8be0079c531659141344cd1fd0a4f28419497f9722a3daafe3b4186f6b6457e09190a35050565b60008072184f03e93ff9f4daa797ed6e38ed64bf6a1f0160401b83106200225a5772184f03e93ff9f4daa797ed6e38ed64bf6a1f0160401b830492506040015b6d04ee2d6d415b85acef8100000000831062002287576d04ee2d6d415b85acef8100000000830492506020015b662386f26fc100008310620022a657662386f26fc10000830492506010015b6305f5e1008310620022bf576305f5e100830492506008015b6127108310620022d457612710830492506004015b60648310620022e7576064830492506002015b600a8310620018115760010192915050565b604051806101c0016040528060008152602001600081526020016000815260200160008152602001600081526020016060815260200160608152602001606081526020016060815260200160006001600160a01b0316815260200160006001600160a01b03168152602001600060038111156200237a576200237a620024d3565b815260606020820152600060409091015290565b828054828255906000526020600020908101928215620023cc579160200282015b82811115620023cc578251825591602001919060010190620023af565b50620023da929150620023ec565b5090565b612e538062002ebb83390190565b5b80821115620023da5760008155600101620023ed565b6000602082840312156200241657600080fd5b5035919050565b600080604083850312156200243157600080fd5b50508035926020909101359150565b60005b838110156200245d57818101518382015260200162002443565b50506000910152565b600081518084526200248081602086016020860162002440565b601f01601f19169290920160200192915050565b86815285602082015260c060408201526000620024b560c083018762002466565b606083019590955250911515608083015260a0909101529392505050565b634e487b7160e01b600052602160045260246000fd5b600481106200250857634e487b7160e01b600052602160045260246000fd5b9052565b600081518084526020808501945080840160005b838110156200253e5781518752958201959082019060010162002520565b509495945050505050565b6020815281516020820152602082015160408201526040820151606082015260608201516080820152608082015160a0820152600060a08301516101c08060c08501526200259c6101e085018362002466565b915060c0850151601f19808685030160e0870152620025bc848362002466565b935060e08701519150610100818786030181880152620025dd858462002466565b945080880151925050610120818786030181880152620025fe858462002466565b9450808801519250506101406200261f818801846001600160a01b03169052565b87015191506101606200263c878201846001600160a01b03169052565b87015191506101806200265287820184620024e9565b808801519250506101a08187860301818801526200267185846200250c565b94508088015192505050620026898286018215159052565b5090949350505050565b634e487b7160e01b600052604160045260246000fd5b604051601f8201601f1916810167ffffffffffffffff81118282101715620026d557620026d562002693565b604052919050565b600067ffffffffffffffff821115620026fa57620026fa62002693565b50601f01601f191660200190565b600082601f8301126200271a57600080fd5b8135620027316200272b82620026dd565b620026a9565b8181528460208386010111156200274757600080fd5b816020850160208301376000918101602001919091529392505050565b600080600080600060a086880312156200277d57600080fd5b853567ffffffffffffffff808211156200279657600080fd5b620027a489838a0162002708565b96506020880135915080821115620027bb57600080fd5b620027c989838a0162002708565b95506040880135915080821115620027e057600080fd5b620027ee89838a0162002708565b94506060880135935060808801359150808211156200280c57600080fd5b506200281b8882890162002708565b9150509295509295909350565b801515811462001b7457600080fd5b600080604083850312156200284b57600080fd5b8235915060208301356200285f8162002828565b809150509250929050565b6000602082840312156200287d57600080fd5b81356001600160a01b03811681146200289557600080fd5b9392505050565b600080600060608486031215620028b257600080fd5b8335925060208401359150604084013567ffffffffffffffff811115620028d857600080fd5b620028e68682870162002708565b9150509250925092565b8051620028fd8162002828565b919050565b60008060008060008060c087890312156200291c57600080fd5b8651955060208701519450604087015167ffffffffffffffff8111156200294257600080fd5b8701601f810189136200295457600080fd5b8051620029656200272b82620026dd565b8181528a60208385010111156200297b57600080fd5b6200298e82602083016020860162002440565b80965050505060608701519250620029a960808801620028f0565b915060a087015190509295509295509295565b634e487b7160e01b600052603260045260246000fd5b60208082526011908201527050726f6a656374206e6f7420796f75727360781b604082015260600190565b60006020828403121562002a1057600080fd5b5051919050565b600181811c9082168062002a2c57607f821691505b60208210810362002a4d57634e487b7160e01b600052602260045260246000fd5b50919050565b6000815462002a628162002a17565b80855260206001838116801562002a82576001811462002a9d5762002acd565b60ff1985168884015283151560051b88018301955062002acd565b866000528260002060005b8581101562002ac55781548a820186015290830190840162002aa8565b890184019650505b505050505092915050565b60018060a01b038616815284602082015260a06040820152600062002b0160a083018662002a53565b828103606084015262002b15818662002a53565b9150508260808301529695505050505050565b634e487b7160e01b600052601160045260246000fd5b8082018082111562001811576200181162002b28565b6020808252600d908201526c125908191bdb9d08195e1a5cdd609a1b604082015260600190565b60006020828403121562002b8e57600080fd5b8151620028958162002828565b60208152600062002895602083018462002466565b601f82111562002bfe57600081815260208120601f850160051c8101602086101562002bd95750805b601f850160051c820191505b8181101562002bfa5782815560010162002be5565b5050505b505050565b815167ffffffffffffffff81111562002c205762002c2062002693565b62002c388162002c31845462002a17565b8462002bb0565b602080601f83116001811462002c70576000841562002c575750858301515b600019600386901b1c1916600185901b17855562002bfa565b600085815260208120601f198616915b8281101562002ca15788860151825594840194600190910190840162002c80565b508582101562002cc05787850151600019600388901b60f8161c191681555b5050505050600190811b01905550565b8181038181111562001811576200181162002b28565b664445534349444560c81b81526000825162002d0a81600785016020870162002440565b9190910160070192915050565b6244534360e81b81526000825162002d3781600385016020870162002440565b9190910160030192915050565b6000806040838503121562002d5857600080fd5b8251915060208301516200285f8162002828565b600060e0828403121562002d7f57600080fd5b60405160e0810181811067ffffffffffffffff8211171562002da55762002da562002693565b8060405250825181526020830151602082015260408301516040820152606083015160608201526080830151608082015260a083015160a082015260c083015162002df08162002828565b60c08201529392505050565b6000806000806080858703121562002e1357600080fd5b505082516020840151604085015160609095015191969095509092509050565b84815283602082015282604082015260806060820152600062002e5a608083018462002466565b9695505050505050565b60006001820162002e795762002e7962002b28565b5060010190565b60608152600062002e95606083018662002466565b828103602084015262002ea9818662002466565b91505082604083015294935050505056fe60806040523480156200001157600080fd5b5060405162002e5338038062002e53833981016040819052620000349162000504565b8282600062000044838262000606565b50600162000053828262000606565b5050600b805460ff19169055506200006b33620003e5565b600d60205260287f81955a0a11e65eac625c29e8882660bae4e165a75d72780094acae8ece9a29ef55600a7ffd54ff1ed53f34a900b24c5ba64f85761163b5d82d98a47b9bd80e45466993c681905560047f10a81eed9d63d16face5e76357905348e6253d3394086026bb2bf2145d7cc24a55600360005260017f26b4a10d0f0b04925c23bd4480ee147c916e5e87a7d68206a533dad160ac81e35562000114908290620006d2565b60008052600d6020527f81955a0a11e65eac625c29e8882660bae4e165a75d72780094acae8ece9a29f0556200014c81601e620006d2565b6001600052600d6020527ffd54ff1ed53f34a900b24c5ba64f85761163b5d82d98a47b9bd80e45466993c75562000185816032620006d2565b6002600052600d6020527f10a81eed9d63d16face5e76357905348e6253d3394086026bb2bf2145d7cc24b55620001be816064620006d2565b7f26b4a10d0f0b04925c23bd4480ee147c916e5e87a7d68206a533dad160ac81e455604080518082019091526007815266434c415353494360c81b60208281019190915260008052600d90527f81955a0a11e65eac625c29e8882660bae4e165a75d72780094acae8ece9a29f29062000238908262000606565b50604080518082019091526004815263504c555360e01b6020808301919091526001600052600d90527ffd54ff1ed53f34a900b24c5ba64f85761163b5d82d98a47b9bd80e45466993c9906200028f908262000606565b506040805180820190915260078152665052454d49554d60c81b6020808301919091526002600052600d90527f10a81eed9d63d16face5e76357905348e6253d3394086026bb2bf2145d7cc24d90620002e9908262000606565b506040805180820190915260038082526205649560ec1b602080840191909152600091909152600d90527f26b4a10d0f0b04925c23bd4480ee147c916e5e87a7d68206a533dad160ac81e69062000341908262000606565b5050600d6020525050600a7f81955a0a11e65eac625c29e8882660bae4e165a75d72780094acae8ece9a29f15560197ffd54ff1ed53f34a900b24c5ba64f85761163b5d82d98a47b9bd80e45466993c85560327f10a81eed9d63d16face5e76357905348e6253d3394086026bb2bf2145d7cc24c55600360005260647f26b4a10d0f0b04925c23bd4480ee147c916e5e87a7d68206a533dad160ac81e555620006fe565b600b80546001600160a01b03838116610100818102610100600160a81b031985161790945560405193909204169182907f8be0079c531659141344cd1fd0a4f28419497f9722a3daafe3b4186f6b6457e090600090a35050565b634e487b7160e01b600052604160045260246000fd5b600082601f8301126200046757600080fd5b81516001600160401b03808211156200048457620004846200043f565b604051601f8301601f19908116603f01168101908282118183101715620004af57620004af6200043f565b81604052838152602092508683858801011115620004cc57600080fd5b600091505b83821015620004f05785820183015181830184015290820190620004d1565b600093810190920192909252949350505050565b6000806000606084860312156200051a57600080fd5b83516001600160401b03808211156200053257600080fd5b620005408783880162000455565b945060208601519150808211156200055757600080fd5b50620005668682870162000455565b925050604084015190509250925092565b600181811c908216806200058c57607f821691505b602082108103620005ad57634e487b7160e01b600052602260045260246000fd5b50919050565b601f8211156200060157600081815260208120601f850160051c81016020861015620005dc5750805b601f850160051c820191505b81811015620005fd57828155600101620005e8565b5050505b505050565b81516001600160401b038111156200062257620006226200043f565b6200063a8162000633845462000577565b84620005b3565b602080601f831160018114620006725760008415620006595750858301515b600019600386901b1c1916600185901b178555620005fd565b600085815260208120601f198616915b82811015620006a35788860151825594840194600190910190840162000682565b5085821015620006c25787850151600019600388901b60f8161c191681555b5050505050600190811b01905550565b8082028115828204841417620006f857634e487b7160e01b600052601160045260246000fd5b92915050565b612745806200070e6000396000f3fe608060405234801561001057600080fd5b50600436106101585760003560e01c80636352211e116100c3578063b88d4fde1161007c578063b88d4fde146102dd578063bd9a548b146102f0578063c87b56dd146102f8578063d851fdfd1461030b578063e985e9c51461031e578063f2fde38b1461035a57600080fd5b80636352211e1461027e57806370a0823114610291578063715018a6146102a45780638da5cb5b146102ac57806395d89b41146102c2578063a22cb465146102ca57600080fd5b806323b872dd1161011557806323b872dd146101ff5780632f745c591461021257806334757b341461022557806342842e0e1461024d5780634f6ccce7146102605780635c975abb1461027357600080fd5b806301ffc9a71461015d57806306fdde0314610185578063081812fc1461019a578063095ea7b3146101c55780631507e96d146101da57806318160ddd146101ed575b600080fd5b61017061016b366004611e98565b61036d565b60405190151581526020015b60405180910390f35b61018d61037e565b60405161017c9190611f05565b6101ad6101a8366004611f18565b610410565b6040516001600160a01b03909116815260200161017c565b6101d86101d3366004611f48565b610437565b005b6101d86101e836600461201e565b610551565b6009545b60405190815260200161017c565b6101d861020d3660046120a4565b610869565b6101f1610220366004611f48565b61089a565b61022d610930565b60408051948552602085019390935291830152606082015260800161017c565b6101d861025b3660046120a4565b6109dc565b6101f161026e366004611f18565b6109f7565b600b5460ff16610170565b6101ad61028c366004611f18565b610a8a565b6101f161029f3660046120e0565b610aea565b6101d8610b70565b600b5461010090046001600160a01b03166101ad565b61018d610b84565b6101d86102d83660046120fb565b610b93565b6101d86102eb366004612137565b610ba2565b61022d610bda565b61018d610306366004611f18565b610c86565b6101f1610319366004611f18565b610c91565b61017061032c3660046121b3565b6001600160a01b03918216600090815260056020908152604080832093909416825291909152205460ff1690565b6101d86103683660046120e0565b610ced565b600061037882610d66565b92915050565b60606000805461038d906121e6565b80601f01602080910402602001604051908101604052809291908181526020018280546103b9906121e6565b80156104065780601f106103db57610100808354040283529160200191610406565b820191906000526020600020905b8154815290600101906020018083116103e957829003601f168201915b5050505050905090565b600061041b82610d8b565b506000908152600460205260409020546001600160a01b031690565b600061044282610a8a565b9050806001600160a01b0316836001600160a01b0316036104b45760405162461bcd60e51b815260206004820152602160248201527f4552433732313a20617070726f76616c20746f2063757272656e74206f776e656044820152603960f91b60648201526084015b60405180910390fd5b336001600160a01b03821614806104d057506104d0813361032c565b6105425760405162461bcd60e51b815260206004820152603d60248201527f4552433732313a20617070726f76652063616c6c6572206973206e6f7420746f60448201527f6b656e206f776e6572206f7220617070726f76656420666f7220616c6c00000060648201526084016104ab565b61054c8383610dea565b505050565b610559610e58565b8015806105665750600181145b806105715750600281145b8061057c5750600381145b6105bd5760405162461bcd60e51b8152602060048201526012602482015271139195081d1e5c19481b9bdd08195e1a5cdd60721b60448201526064016104ab565b600d60008260038111156105d3576105d3612220565b60038111156105e4576105e4612220565b60038111156105f5576105f5612220565b815260200190815260200160002060010154600d600083600381111561061d5761061d612220565b600381111561062e5761062e612220565b600381111561063f5761063f612220565b815260200190815260200160002060000154106106975760405162461bcd60e51b815260206004820152601660248201527513585e1a5b5d5b481cdd5c1c1b1e481c995858da195960521b60448201526064016104ab565b600d60008260038111156106ad576106ad612220565b60038111156106be576106be612220565b60038111156106cf576106cf612220565b815260200190815260200160002060020154846103e86106ef919061224c565b101561072f5760405162461bcd60e51b815260206004820152600f60248201526e139bdd08195b985d59da081c185a59608a1b60448201526064016104ab565b6000838361073c84610eb8565b60405160200161074e9392919061227f565b6040516020818303038152906040529050600061076a82610f93565b60405160200161077a9190612382565b60405160208183030381529060405290506000610796600c5490565b90506107a6600c80546001019055565b600d60008560038111156107bc576107bc612220565b60038111156107cd576107cd612220565b60038111156107de576107de612220565b8152602081019190915260400160009081208054916107fc836123c7565b919050555061080b88826110e6565b6108158183611100565b604080516001600160a01b038a168152602081018390529081018590527fc410f6ec4eba9d4398c3a8e2a8b796ffce6ad710adc2748f752eeefd45fa80229060600160405180910390a15050505050505050565b61087333826111cb565b61088f5760405162461bcd60e51b81526004016104ab906123e0565b61054c83838361124a565b60006108a583610aea565b82106109075760405162461bcd60e51b815260206004820152602b60248201527f455243373231456e756d657261626c653a206f776e657220696e646578206f7560448201526a74206f6620626f756e647360a81b60648201526084016104ab565b506001600160a01b03919091166000908152600760209081526040808320938352929052205490565b60008060008061093e610e58565b5050600d60205250507f81955a0a11e65eac625c29e8882660bae4e165a75d72780094acae8ece9a29ee547ffd54ff1ed53f34a900b24c5ba64f85761163b5d82d98a47b9bd80e45466993c5547f10a81eed9d63d16face5e76357905348e6253d3394086026bb2bf2145d7cc2495460036000527f26b4a10d0f0b04925c23bd4480ee147c916e5e87a7d68206a533dad160ac81e254929391929091565b61054c83838360405180602001604052806000815250610ba2565b6000610a0260095490565b8210610a655760405162461bcd60e51b815260206004820152602c60248201527f455243373231456e756d657261626c653a20676c6f62616c20696e646578206f60448201526b7574206f6620626f756e647360a01b60648201526084016104ab565b60098281548110610a7857610a7861242d565b90600052602060002001549050919050565b6000818152600260205260408120546001600160a01b0316806103785760405162461bcd60e51b8152602060048201526018602482015277115490cdcc8c4e881a5b9d985b1a59081d1bdad95b88125160421b60448201526064016104ab565b60006001600160a01b038216610b545760405162461bcd60e51b815260206004820152602960248201527f4552433732313a2061646472657373207a65726f206973206e6f7420612076616044820152683634b21037bbb732b960b91b60648201526084016104ab565b506001600160a01b031660009081526003602052604090205490565b610b78610e58565b610b8260006113bb565b565b60606001805461038d906121e6565b610b9e338383611415565b5050565b610bac33836111cb565b610bc85760405162461bcd60e51b81526004016104ab906123e0565b610bd4848484846114e3565b50505050565b600080600080610be8610e58565b5050600d60205250507f81955a0a11e65eac625c29e8882660bae4e165a75d72780094acae8ece9a29f0547ffd54ff1ed53f34a900b24c5ba64f85761163b5d82d98a47b9bd80e45466993c7547f10a81eed9d63d16face5e76357905348e6253d3394086026bb2bf2145d7cc24b5460036000527f26b4a10d0f0b04925c23bd4480ee147c916e5e87a7d68206a533dad160ac81e454929391929091565b606061037882611516565b6000610c9b610e58565b600d6000836003811115610cb157610cb1612220565b6003811115610cc257610cc2612220565b6003811115610cd357610cd3612220565b81526020019081526020016000206003015490505b919050565b610cf5610e58565b6001600160a01b038116610d5a5760405162461bcd60e51b815260206004820152602660248201527f4f776e61626c653a206e6577206f776e657220697320746865207a65726f206160448201526564647265737360d01b60648201526084016104ab565b610d63816113bb565b50565b60006001600160e01b0319821663780e9d6360e01b148061037857506103788261161e565b6000818152600260205260409020546001600160a01b0316610d635760405162461bcd60e51b8152602060048201526018602482015277115490cdcc8c4e881a5b9d985b1a59081d1bdad95b88125160421b60448201526064016104ab565b600081815260046020526040902080546001600160a01b0319166001600160a01b0384169081179091558190610e1f82610a8a565b6001600160a01b03167f8c5be1e5ebec7d5bd14f71427d1e84f3dd0314c0f7b2291e5b200ac8c7c3b92560405160405180910390a45050565b600b546001600160a01b03610100909104163314610b825760405162461bcd60e51b815260206004820181905260248201527f4f776e61626c653a2063616c6c6572206973206e6f7420746865206f776e657260448201526064016104ab565b6060600d6000836003811115610ed057610ed0612220565b6003811115610ee157610ee1612220565b6003811115610ef257610ef2612220565b81526020019081526020016000206004018054610f0e906121e6565b80601f0160208091040260200160405190810160405280929190818152602001828054610f3a906121e6565b8015610f875780601f10610f5c57610100808354040283529160200191610f87565b820191906000526020600020905b815481529060010190602001808311610f6a57829003601f168201915b50505050509050919050565b60608151600003610fb257505060408051602081019091526000815290565b60006040518060600160405280604081526020016126d06040913990506000600384516002610fe19190612443565b610feb9190612456565b610ff690600461224c565b67ffffffffffffffff81111561100e5761100e611f72565b6040519080825280601f01601f191660200182016040528015611038576020820181803683370190505b509050600182016020820185865187015b808210156110a4576003820191508151603f8160121c168501518453600184019350603f81600c1c168501518453600184019350603f8160061c168501518453600184019350603f8116850151845350600183019250611049565b50506003865106600181146110c057600281146110d3576110db565b603d6001830353603d60028303536110db565b603d60018303535b509195945050505050565b610b9e828260405180602001604052806000815250611643565b6000828152600260205260409020546001600160a01b031661117b5760405162461bcd60e51b815260206004820152602e60248201527f45524337323155524953746f726167653a2055524920736574206f66206e6f6e60448201526d32bc34b9ba32b73a103a37b5b2b760911b60648201526084016104ab565b600082815260066020526040902061119382826124c6565b506040518281527ff8e1a15aba9398e019f0b49df1a4fde98ee17ae345cb5f6b5e2c27f5033e8ce79060200160405180910390a15050565b6000806111d783610a8a565b9050806001600160a01b0316846001600160a01b0316148061121e57506001600160a01b0380821660009081526005602090815260408083209388168352929052205460ff165b806112425750836001600160a01b031661123784610410565b6001600160a01b0316145b949350505050565b826001600160a01b031661125d82610a8a565b6001600160a01b0316146112835760405162461bcd60e51b81526004016104ab90612586565b6001600160a01b0382166112e55760405162461bcd60e51b8152602060048201526024808201527f4552433732313a207472616e7366657220746f20746865207a65726f206164646044820152637265737360e01b60648201526084016104ab565b6112f28383836001611676565b826001600160a01b031661130582610a8a565b6001600160a01b03161461132b5760405162461bcd60e51b81526004016104ab90612586565b600081815260046020908152604080832080546001600160a01b03199081169091556001600160a01b0387811680865260038552838620805460001901905590871680865283862080546001019055868652600290945282852080549092168417909155905184937fddf252ad1be2c89b69c2b068fc378daa952ba7f163c4a11628f55a4df523b3ef91a4505050565b600b80546001600160a01b03838116610100818102610100600160a81b031985161790945560405193909204169182907f8be0079c531659141344cd1fd0a4f28419497f9722a3daafe3b4186f6b6457e090600090a35050565b816001600160a01b0316836001600160a01b0316036114765760405162461bcd60e51b815260206004820152601960248201527f4552433732313a20617070726f766520746f2063616c6c65720000000000000060448201526064016104ab565b6001600160a01b03838116600081815260056020908152604080832094871680845294825291829020805460ff191686151590811790915591519182527f17307eab39ab6107e8899845ad3d59bd9653f200f220920489ca2b5937696c31910160405180910390a3505050565b6114ee84848461124a565b6114fa84848484611682565b610bd45760405162461bcd60e51b81526004016104ab906125cb565b606061152182610d8b565b6000828152600660205260408120805461153a906121e6565b80601f0160208091040260200160405190810160405280929190818152602001828054611566906121e6565b80156115b35780601f10611588576101008083540402835291602001916115b3565b820191906000526020600020905b81548152906001019060200180831161159657829003601f168201915b5050505050905060006115d160408051602081019091526000815290565b905080516000036115e3575092915050565b8151156116155780826040516020016115fd92919061261d565b60405160208183030381529060405292505050919050565b61124284611783565b60006001600160e01b03198216632483248360e11b14806103785750610378826117f7565b61164d8383611847565b61165a6000848484611682565b61054c5760405162461bcd60e51b81526004016104ab906125cb565b610bd4848484846119e0565b60006001600160a01b0384163b1561177857604051630a85bd0160e11b81526001600160a01b0385169063150b7a02906116c690339089908890889060040161264c565b6020604051808303816000875af1925050508015611701575060408051601f3d908101601f191682019092526116fe91810190612689565b60015b61175e573d80801561172f576040519150601f19603f3d011682016040523d82523d6000602084013e611734565b606091505b5080516000036117565760405162461bcd60e51b81526004016104ab906125cb565b805181602001fd5b6001600160e01b031916630a85bd0160e11b149050611242565b506001949350505050565b606061178e82610d8b565b60006117a560408051602081019091526000815290565b905060008151116117c557604051806020016040528060008152506117f0565b806117cf84611a53565b6040516020016117e092919061261d565b6040516020818303038152906040525b9392505050565b60006001600160e01b031982166380ac58cd60e01b148061182857506001600160e01b03198216635b5e139f60e01b145b8061037857506301ffc9a760e01b6001600160e01b0319831614610378565b6001600160a01b03821661189d5760405162461bcd60e51b815260206004820181905260248201527f4552433732313a206d696e7420746f20746865207a65726f206164647265737360448201526064016104ab565b6000818152600260205260409020546001600160a01b0316156119025760405162461bcd60e51b815260206004820152601c60248201527f4552433732313a20746f6b656e20616c7265616479206d696e7465640000000060448201526064016104ab565b611910600083836001611676565b6000818152600260205260409020546001600160a01b0316156119755760405162461bcd60e51b815260206004820152601c60248201527f4552433732313a20746f6b656e20616c7265616479206d696e7465640000000060448201526064016104ab565b6001600160a01b038216600081815260036020908152604080832080546001019055848352600290915280822080546001600160a01b0319168417905551839291907fddf252ad1be2c89b69c2b068fc378daa952ba7f163c4a11628f55a4df523b3ef908290a45050565b6119ec84848484611ae6565b600b5460ff1615610bd45760405162461bcd60e51b815260206004820152602b60248201527f4552433732315061757361626c653a20746f6b656e207472616e73666572207760448201526a1a1a5b19481c185d5cd95960aa1b60648201526084016104ab565b60606000611a6083611c1a565b600101905060008167ffffffffffffffff811115611a8057611a80611f72565b6040519080825280601f01601f191660200182016040528015611aaa576020820181803683370190505b5090508181016020015b600019016f181899199a1a9b1b9c1cb0b131b232b360811b600a86061a8153600a8504945084611ab457509392505050565b6001811115611b555760405162461bcd60e51b815260206004820152603560248201527f455243373231456e756d657261626c653a20636f6e7365637574697665207472604482015274185b9cd9995c9cc81b9bdd081cdd5c1c1bdc9d1959605a1b60648201526084016104ab565b816001600160a01b038516611bb157611bac81600980546000838152600a60205260408120829055600182018355919091527f6e1540171b6c0c960b71a7020d9f60077f6af931a8bbf590da0223dacf75c7af0155565b611bd4565b836001600160a01b0316856001600160a01b031614611bd457611bd48582611cf2565b6001600160a01b038416611bf057611beb81611d8f565b611c13565b846001600160a01b0316846001600160a01b031614611c1357611c138482611e3e565b5050505050565b60008072184f03e93ff9f4daa797ed6e38ed64bf6a1f0160401b8310611c595772184f03e93ff9f4daa797ed6e38ed64bf6a1f0160401b830492506040015b6d04ee2d6d415b85acef81000000008310611c85576d04ee2d6d415b85acef8100000000830492506020015b662386f26fc100008310611ca357662386f26fc10000830492506010015b6305f5e1008310611cbb576305f5e100830492506008015b6127108310611ccf57612710830492506004015b60648310611ce1576064830492506002015b600a83106103785760010192915050565b60006001611cff84610aea565b611d0991906126a6565b600083815260086020526040902054909150808214611d5c576001600160a01b03841660009081526007602090815260408083208584528252808320548484528184208190558352600890915290208190555b5060009182526008602090815260408084208490556001600160a01b039094168352600781528383209183525290812055565b600954600090611da1906001906126a6565b6000838152600a602052604081205460098054939450909284908110611dc957611dc961242d565b906000526020600020015490508060098381548110611dea57611dea61242d565b6000918252602080832090910192909255828152600a90915260408082208490558582528120556009805480611e2257611e226126b9565b6001900381819060005260206000200160009055905550505050565b6000611e4983610aea565b6001600160a01b039093166000908152600760209081526040808320868452825280832085905593825260089052919091209190915550565b6001600160e01b031981168114610d6357600080fd5b600060208284031215611eaa57600080fd5b81356117f081611e82565b60005b83811015611ed0578181015183820152602001611eb8565b50506000910152565b60008151808452611ef1816020860160208601611eb5565b601f01601f19169290920160200192915050565b6020815260006117f06020830184611ed9565b600060208284031215611f2a57600080fd5b5035919050565b80356001600160a01b0381168114610ce857600080fd5b60008060408385031215611f5b57600080fd5b611f6483611f31565b946020939093013593505050565b634e487b7160e01b600052604160045260246000fd5b600067ffffffffffffffff80841115611fa357611fa3611f72565b604051601f8501601f19908116603f01168101908282118183101715611fcb57611fcb611f72565b81604052809350858152868686011115611fe457600080fd5b858560208301376000602087830101525050509392505050565b600082601f83011261200f57600080fd5b6117f083833560208501611f88565b600080600080600060a0868803121561203657600080fd5b61203f86611f31565b945060208601359350604086013567ffffffffffffffff8082111561206357600080fd5b61206f89838a01611ffe565b9450606088013591508082111561208557600080fd5b5061209288828901611ffe565b95989497509295608001359392505050565b6000806000606084860312156120b957600080fd5b6120c284611f31565b92506120d060208501611f31565b9150604084013590509250925092565b6000602082840312156120f257600080fd5b6117f082611f31565b6000806040838503121561210e57600080fd5b61211783611f31565b91506020830135801515811461212c57600080fd5b809150509250929050565b6000806000806080858703121561214d57600080fd5b61215685611f31565b935061216460208601611f31565b925060408501359150606085013567ffffffffffffffff81111561218757600080fd5b8501601f8101871361219857600080fd5b6121a787823560208401611f88565b91505092959194509250565b600080604083850312156121c657600080fd5b6121cf83611f31565b91506121dd60208401611f31565b90509250929050565b600181811c908216806121fa57607f821691505b60208210810361221a57634e487b7160e01b600052602260045260246000fd5b50919050565b634e487b7160e01b600052602160045260246000fd5b634e487b7160e01b600052601160045260246000fd5b808202811582820484141761037857610378612236565b60008151612275818560208601611eb5565b9290920192915050565b6000607b60f81b80835268113730b6b2911d101160b91b600184015285516122ae81600a860160208a01611eb5565b61088b60f21b600a9185019182018190527022696d616765223a2022697066733a2f2f60781b600c83015286516122ec81601d850160208b01611eb5565b601d9201918201526e2261747472696275746573223a205b60881b601f820152602e81018290527f2274726169745f74797065223a202274797065222c202276616c7565223a2022602f82015261237761235d61236a81612350604f86018a612263565b601160f91b815260010190565b607d60f81b815260010190565b605d60f81b815260010190565b979650505050505050565b7f646174613a6170706c69636174696f6e2f6a736f6e3b6261736536342c0000008152600082516123ba81601d850160208701611eb5565b91909101601d0192915050565b6000600182016123d9576123d9612236565b5060010190565b6020808252602d908201527f4552433732313a2063616c6c6572206973206e6f7420746f6b656e206f776e6560408201526c1c881bdc88185c1c1c9bdd9959609a1b606082015260800190565b634e487b7160e01b600052603260045260246000fd5b8082018082111561037857610378612236565b60008261247357634e487b7160e01b600052601260045260246000fd5b500490565b601f82111561054c57600081815260208120601f850160051c8101602086101561249f5750805b601f850160051c820191505b818110156124be578281556001016124ab565b505050505050565b815167ffffffffffffffff8111156124e0576124e0611f72565b6124f4816124ee84546121e6565b84612478565b602080601f83116001811461252957600084156125115750858301515b600019600386901b1c1916600185901b1785556124be565b600085815260208120601f198616915b8281101561255857888601518255948401946001909101908401612539565b50858210156125765787850151600019600388901b60f8161c191681555b5050505050600190811b01905550565b60208082526025908201527f4552433732313a207472616e736665722066726f6d20696e636f72726563742060408201526437bbb732b960d91b606082015260800190565b60208082526032908201527f4552433732313a207472616e7366657220746f206e6f6e20455243373231526560408201527131b2b4bb32b91034b6b83632b6b2b73a32b960711b606082015260800190565b6000835161262f818460208801611eb5565b835190830190612643818360208801611eb5565b01949350505050565b6001600160a01b038581168252841660208201526040810183905260806060820181905260009061267f90830184611ed9565b9695505050505050565b60006020828403121561269b57600080fd5b81516117f081611e82565b8181038181111561037857610378612236565b634e487b7160e01b600052603160045260246000fdfe4142434445464748494a4b4c4d4e4f505152535455565758595a6162636465666768696a6b6c6d6e6f707172737475767778797a303132333435363738392b2fa264697066735822122080c752d5c959cbe06fddce4ecb955d4298de0f4087f6232e64cf4c95c43ee9c264736f6c63430008110033a2646970667358221220fc6040dca1c804b510afe781a9e5af72c333c9cc90e72a413e53fea146b9811a64736f6c63430008110033",
  "linkReferences": {},
  "deployedLinkReferences": {}
}