{
  "_format": "hh-sol-artifact-1",
  "contractName": "ResearcherRegistry",
  "sourceName": "contracts/ResearcherRegistry.sol",
  "abi": [
    {
      "anonymous": false,
      "inputs": [
        {
          "indexed": true,
          "internalType": "address",
          "name": "previousOwner",
          "type": "address"
        },
        {
          "indexed": true,
          "internalType": "address",
          "name": "newOwner",
          "type": "address"
        }
      ],
      "name": "OwnershipTransferred",
      "type": "event"
    },
    {
      "anonymous": false,
      "inputs": [
        {
          "indexed": false,
          "internalType": "address",
          "name": "addr",
          "type": "address"
        },
        {
          "indexed": false,
          "internalType": "string",
          "name": "lastname",
          "type": "string"
        },
        {
          "indexed": false,
          "internalType": "string",
          "name": "forname",
          "type": "string"
        },
        {
          "indexed": false,
          "internalType": "string",
          "name": "company",
          "type": "string"
        }
      ],
      "name": "ResearcherAdded",
      "type": "event"
    },
    {
      "inputs": [
        {
          "internalType": "address",
          "name": "addr",
          "type": "address"
        },
        {
          "internalType": "uint256",
          "name": "projectId",
          "type": "uint256"
        }
      ],
      "name": "addProjectToResearcher",
      "outputs": [],
      "stateMutability": "nonpayable",
      "type": "function"
    },
    {
      "inputs": [
        {
          "internalType": "address",
          "name": "addr",
          "type": "address"
        },
        {
          "internalType": "string",
          "name": "lastname",
          "type": "string"
        },
        {
          "internalType": "string",
          "name": "forname",
          "type": "string"
        },
        {
          "internalType": "string",
          "name": "company",
          "type": "string"
        }
      ],
      "name": "addResearcher",
      "outputs": [],
      "stateMutability": "nonpayable",
      "type": "function"
    },
    {
      "inputs": [
        {
          "internalType": "address",
          "name": "addr",
          "type": "address"
        },
        {
          "internalType": "bool",
          "name": "status",
          "type": "bool"
        }
      ],
      "name": "changeResearcherStatus",
      "outputs": [],
      "stateMutability": "nonpayable",
      "type": "function"
    },
    {
      "inputs": [
        {
          "internalType": "address",
          "name": "addr",
          "type": "address"
        }
      ],
      "name": "getResearcher",
      "outputs": [
        {
          "components": [
            {
              "internalType": "string",
              "name": "lastname",
              "type": "string"
            },
            {
              "internalType": "string",
              "name": "forname",
              "type": "string"
            },
            {
              "internalType": "string",
              "name": "company",
              "type": "string"
            },
            {
              "internalType": "address",
              "name": "addr",
              "type": "address"
            },
            {
              "internalType": "bool",
              "name": "exist",
              "type": "bool"
            },
            {
              "internalType": "bool",
              "name": "isValidated",
              "type": "bool"
            },
            {
              "internalType": "uint256[]",
              "name": "projectListIds",
              "type": "uint256[]"
            }
          ],
          "internalType": "struct ResearcherRegistry.Researcher",
          "name": "",
          "type": "tuple"
        }
      ],
      "stateMutability": "view",
      "type": "function"
    },
    {
      "inputs": [
        {
          "internalType": "address",
          "name": "addr",
          "type": "address"
        }
      ],
      "name": "isValid",
      "outputs": [
        {
          "internalType": "bool",
          "name": "",
          "type": "bool"
        }
      ],
      "stateMutability": "view",
      "type": "function"
    },
    {
      "inputs": [],
      "name": "owner",
      "outputs": [
        {
          "internalType": "address",
          "name": "",
          "type": "address"
        }
      ],
      "stateMutability": "view",
      "type": "function"
    },
    {
      "inputs": [],
      "name": "renounceOwnership",
      "outputs": [],
      "stateMutability": "nonpayable",
      "type": "function"
    },
    {
      "inputs": [
        {
          "internalType": "address",
          "name": "",
          "type": "address"
        }
      ],
      "name": "researchers",
      "outputs": [
        {
          "internalType": "string",
          "name": "lastname",
          "type": "string"
        },
        {
          "internalType": "string",
          "name": "forname",
          "type": "string"
        },
        {
          "internalType": "string",
          "name": "company",
          "type": "string"
        },
        {
          "internalType": "address",
          "name": "addr",
          "type": "address"
        },
        {
          "internalType": "bool",
          "name": "exist",
          "type": "bool"
        },
        {
          "internalType": "bool",
          "name": "isValidated",
          "type": "bool"
        }
      ],
      "stateMutability": "view",
      "type": "function"
    },
    {
      "inputs": [
        {
          "internalType": "address",
          "name": "_factoryAddress",
          "type": "address"
        }
      ],
      "name": "setFactoryAddress",
      "outputs": [],
      "stateMutability": "nonpayable",
      "type": "function"
    },
    {
      "inputs": [
        {
          "internalType": "address",
          "name": "newOwner",
          "type": "address"
        }
      ],
      "name": "transferOwnership",
      "outputs": [],
      "stateMutability": "nonpayable",
      "type": "function"
    }
  ],
  "bytecode": "0x608060405234801561001057600080fd5b5061001a3361001f565b61006f565b600080546001600160a01b038381166001600160a01b0319831681178455604051919092169283917f8be0079c531659141344cd1fd0a4f28419497f9722a3daafe3b4186f6b6457e09190a35050565b6111418061007e6000396000f3fe608060405234801561001057600080fd5b506004361061009e5760003560e01c80638da5cb5b116100665780638da5cb5b14610164578063cc986fcc1461017f578063e7eba4c214610192578063ed5a2d1d146101b2578063f2fde38b146101c557600080fd5b806301bc237d146100a3578063627c2a5d146100d1578063715018a6146100e657806383c17c55146100ee5780638b1b925f1461011e575b600080fd5b6100b66100b1366004610c18565b6101d8565b6040516100c896959493929190610c80565b60405180910390f35b6100e46100df366004610d2c565b6103b7565b005b6100e4610606565b6100e46100fc366004610c18565b600280546001600160a01b0319166001600160a01b0392909216919091179055565b61015461012c366004610c18565b6001600160a01b0316600090815260016020526040902060030154600160a81b900460ff1690565b60405190151581526020016100c8565b6000546040516001600160a01b0390911681526020016100c8565b6100e461018d366004610dd7565b61061a565b6101a56101a0366004610c18565b6106c8565b6040516100c89190610e4e565b6100e46101c0366004610efe565b610941565b6100e46101d3366004610c18565b610a2f565b6001602052600090815260409020805481906101f390610f28565b80601f016020809104026020016040519081016040528092919081815260200182805461021f90610f28565b801561026c5780601f106102415761010080835404028352916020019161026c565b820191906000526020600020905b81548152906001019060200180831161024f57829003601f168201915b50505050509080600101805461028190610f28565b80601f01602080910402602001604051908101604052809291908181526020018280546102ad90610f28565b80156102fa5780601f106102cf576101008083540402835291602001916102fa565b820191906000526020600020905b8154815290600101906020018083116102dd57829003601f168201915b50505050509080600201805461030f90610f28565b80601f016020809104026020016040519081016040528092919081815260200182805461033b90610f28565b80156103885780601f1061035d57610100808354040283529160200191610388565b820191906000526020600020905b81548152906001019060200180831161036b57829003601f168201915b505050600390930154919250506001600160a01b0381169060ff600160a01b8204811691600160a81b90041686565b6001600160a01b038716600090815260016020526040902060030154600160a01b900460ff161561042f5760405162461bcd60e51b815260206004820152601860248201527f5265736561726368657220616c7265616479206578697374000000000000000060448201526064015b60405180910390fd5b610437610b52565b86868080601f016020809104026020016040519081016040528093929190818152602001838380828437600092019190915250505090825250604080516020601f870181900481028201810190925285815290869086908190840183828082843760009201919091525050505060208083019190915260408051601f850183900483028101830190915283815290849084908190840183828082843760009201829052506040808701959095526001600160a01b038d166060870181905260016080880181905290825260205293909320845185945090925082915061051d9082610fc7565b50602082015160018201906105329082610fc7565b50604082015160028201906105479082610fc7565b506060820151600382018054608085015160a08601511515600160a81b0260ff60a81b19911515600160a01b026001600160a81b03199093166001600160a01b0390951694909417919091171691909117905560c082015180516105b5916004840191602090910190610b9c565b509050507f274da1e600baf54d201c4cf2758f1d65eb4ea397bc6e595da1df2d572d8af7ee888888888888886040516105f497969594939291906110b0565b60405180910390a15050505050505050565b61060e610aa8565b6106186000610b02565b565b610622610aa8565b6001600160a01b038216600090815260016020526040902060030154600160a81b900460ff166106905760405162461bcd60e51b815260206004820152601960248201527814995cd9585c98da195c88191bd95cc81b9bdd08195e1a5cdd603a1b6044820152606401610426565b6001600160a01b0390911660009081526001602052604090206003018054911515600160a81b0260ff60a81b19909216919091179055565b6106d0610b52565b6001600160a01b03821660009081526001602052604090819020815160e0810190925280548290829061070290610f28565b80601f016020809104026020016040519081016040528092919081815260200182805461072e90610f28565b801561077b5780601f106107505761010080835404028352916020019161077b565b820191906000526020600020905b81548152906001019060200180831161075e57829003601f168201915b5050505050815260200160018201805461079490610f28565b80601f01602080910402602001604051908101604052809291908181526020018280546107c090610f28565b801561080d5780601f106107e25761010080835404028352916020019161080d565b820191906000526020600020905b8154815290600101906020018083116107f057829003601f168201915b5050505050815260200160028201805461082690610f28565b80601f016020809104026020016040519081016040528092919081815260200182805461085290610f28565b801561089f5780601f106108745761010080835404028352916020019161089f565b820191906000526020600020905b81548152906001019060200180831161088257829003601f168201915b505050918352505060038201546001600160a01b03811660208084019190915260ff600160a01b830481161515604080860191909152600160a81b9093041615156060840152600484018054835181840281018401909452808452608090940193909183018282801561093157602002820191906000526020600020905b81548152602001906001019080831161091d575b5050505050815250509050919050565b6002546001600160a01b031633146109935760405162461bcd60e51b815260206004820152601560248201527443616c6c6572206973206e6f7420666163746f727960581b6044820152606401610426565b6001600160a01b038216600090815260016020526040902060030154600160a81b900460ff16610a015760405162461bcd60e51b815260206004820152601960248201527814995cd9585c98da195c88191bd95cc81b9bdd08195e1a5cdd603a1b6044820152606401610426565b6001600160a01b03909116600090815260016020818152604083206004018054928301815583529091200155565b610a37610aa8565b6001600160a01b038116610a9c5760405162461bcd60e51b815260206004820152602660248201527f4f776e61626c653a206e6577206f776e657220697320746865207a65726f206160448201526564647265737360d01b6064820152608401610426565b610aa581610b02565b50565b6000546001600160a01b031633146106185760405162461bcd60e51b815260206004820181905260248201527f4f776e61626c653a2063616c6c6572206973206e6f7420746865206f776e65726044820152606401610426565b600080546001600160a01b038381166001600160a01b0319831681178455604051919092169283917f8be0079c531659141344cd1fd0a4f28419497f9722a3daafe3b4186f6b6457e09190a35050565b6040518060e0016040528060608152602001606081526020016060815260200160006001600160a01b03168152602001600015158152602001600015158152602001606081525090565b828054828255906000526020600020908101928215610bd7579160200282015b82811115610bd7578251825591602001919060010190610bbc565b50610be3929150610be7565b5090565b5b80821115610be35760008155600101610be8565b80356001600160a01b0381168114610c1357600080fd5b919050565b600060208284031215610c2a57600080fd5b610c3382610bfc565b9392505050565b6000815180845260005b81811015610c6057602081850181015186830182015201610c44565b506000602082860101526020601f19601f83011685010191505092915050565b60c081526000610c9360c0830189610c3a565b8281036020840152610ca58189610c3a565b90508281036040840152610cb98188610c3a565b6001600160a01b0396909616606084015250509115156080830152151560a0909101529392505050565b60008083601f840112610cf557600080fd5b50813567ffffffffffffffff811115610d0d57600080fd5b602083019150836020828501011115610d2557600080fd5b9250929050565b60008060008060008060006080888a031215610d4757600080fd5b610d5088610bfc565b9650602088013567ffffffffffffffff80821115610d6d57600080fd5b610d798b838c01610ce3565b909850965060408a0135915080821115610d9257600080fd5b610d9e8b838c01610ce3565b909650945060608a0135915080821115610db757600080fd5b50610dc48a828b01610ce3565b989b979a50959850939692959293505050565b60008060408385031215610dea57600080fd5b610df383610bfc565b915060208301358015158114610e0857600080fd5b809150509250929050565b600081518084526020808501945080840160005b83811015610e4357815187529582019590820190600101610e27565b509495945050505050565b602081526000825160e06020840152610e6b610100840182610c3a565b90506020840151601f1980858403016040860152610e898383610c3a565b92506040860151915080858403016060860152610ea68383610c3a565b60608701516001600160a01b0316608087810191909152870151151560a080880191909152870151151560c08088019190915287015186820390920160e087015292509050610ef58282610e13565b95945050505050565b60008060408385031215610f1157600080fd5b610f1a83610bfc565b946020939093013593505050565b600181811c90821680610f3c57607f821691505b602082108103610f5c57634e487b7160e01b600052602260045260246000fd5b50919050565b634e487b7160e01b600052604160045260246000fd5b601f821115610fc257600081815260208120601f850160051c81016020861015610f9f5750805b601f850160051c820191505b81811015610fbe57828155600101610fab565b5050505b505050565b815167ffffffffffffffff811115610fe157610fe1610f62565b610ff581610fef8454610f28565b84610f78565b602080601f83116001811461102a57600084156110125750858301515b600019600386901b1c1916600185901b178555610fbe565b600085815260208120601f198616915b828110156110595788860151825594840194600190910190840161103a565b50858210156110775787850151600019600388901b60f8161c191681555b5050505050600190811b01905550565b81835281816020850137506000828201602090810191909152601f909101601f19169091010190565b6001600160a01b03881681526080602082018190526000906110d5908301888a611087565b82810360408401526110e8818789611087565b905082810360608401526110fd818587611087565b9a995050505050505050505056fea2646970667358221220b56640cc0062194ff6e37a79105fa08f2ef3215758d3cdd395cf4883f6a89c8664736f6c63430008110033",
  "linkReferences": {},
  "deployedLinkReferences": {}
}